{"contracts/DealClient.sol":{"DealClient":{"abi":[{"inputs":[],"stateMutability":"nonpayable","type":"constructor"},{"inputs":[{"internalType":"int256","name":"errorCode","type":"int256"}],"name":"ActorError","type":"error"},{"inputs":[],"name":"FailToCallActor","type":"error"},{"inputs":[{"internalType":"uint64","name":"","type":"uint64"}],"name":"InvalidCodec","type":"error"},{"inputs":[],"name":"InvalidResponseLength","type":"error"},{"inputs":[{"internalType":"uint256","name":"balance","type":"uint256"},{"internalType":"uint256","name":"value","type":"uint256"}],"name":"NotEnoughBalance","type":"error"},{"anonymous":false,"inputs":[{"indexed":true,"internalType":"bytes32","name":"id","type":"bytes32"},{"indexed":false,"internalType":"uint64","name":"size","type":"uint64"},{"indexed":true,"internalType":"bool","name":"verified","type":"bool"},{"indexed":false,"internalType":"uint256","name":"price","type":"uint256"}],"name":"DealProposalCreate","type":"event"},{"anonymous":false,"inputs":[{"indexed":false,"internalType":"string","name":"received","type":"string"}],"name":"ReceivedDataCap","type":"event"},{"inputs":[],"name":"AUTHENTICATE_MESSAGE_METHOD_NUM","outputs":[{"internalType":"uint64","name":"","type":"uint64"}],"stateMutability":"view","type":"function"},{"inputs":[],"name":"DATACAP_ACTOR_ETH_ADDRESS","outputs":[{"internalType":"address","name":"","type":"address"}],"stateMutability":"view","type":"function"},{"inputs":[],"name":"DATACAP_RECEIVER_HOOK_METHOD_NUM","outputs":[{"internalType":"uint64","name":"","type":"uint64"}],"stateMutability":"view","type":"function"},{"inputs":[],"name":"MARKET_ACTOR_ETH_ADDRESS","outputs":[{"internalType":"address","name":"","type":"address"}],"stateMutability":"view","type":"function"},{"inputs":[],"name":"MARKET_NOTIFY_DEAL_METHOD_NUM","outputs":[{"internalType":"uint64","name":"","type":"uint64"}],"stateMutability":"view","type":"function"},{"inputs":[{"internalType":"uint256","name":"value","type":"uint256"}],"name":"addBalance","outputs":[],"stateMutability":"nonpayable","type":"function"},{"inputs":[{"internalType":"bytes32","name":"","type":"bytes32"}],"name":"dealRequestIdx","outputs":[{"internalType":"uint256","name":"idx","type":"uint256"},{"internalType":"bool","name":"valid","type":"bool"}],"stateMutability":"view","type":"function"},{"inputs":[{"internalType":"uint256","name":"","type":"uint256"}],"name":"dealRequests","outputs":[{"internalType":"bytes","name":"piece_cid","type":"bytes"},{"internalType":"uint64","name":"piece_size","type":"uint64"},{"internalType":"bool","name":"verified_deal","type":"bool"},{"internalType":"string","name":"label","type":"string"},{"internalType":"int64","name":"start_epoch","type":"int64"},{"internalType":"int64","name":"end_epoch","type":"int64"},{"internalType":"uint256","name":"storage_price_per_epoch","type":"uint256"},{"internalType":"uint256","name":"provider_collateral","type":"uint256"},{"internalType":"uint256","name":"client_collateral","type":"uint256"},{"internalType":"uint64","name":"extra_params_version","type":"uint64"},{"components":[{"internalType":"string","name":"location_ref","type":"string"},{"internalType":"uint64","name":"car_size","type":"uint64"},{"internalType":"bool","name":"skip_ipni_announce","type":"bool"},{"internalType":"bool","name":"remove_unsealed_copy","type":"bool"}],"internalType":"struct ExtraParamsV1","name":"extra_params","type":"tuple"}],"stateMutability":"view","type":"function"},{"inputs":[],"name":"dealsLength","outputs":[{"internalType":"uint256","name":"","type":"uint256"}],"stateMutability":"view","type":"function"},{"inputs":[{"internalType":"uint256","name":"index","type":"uint256"}],"name":"getDealByIndex","outputs":[{"components":[{"internalType":"bytes","name":"piece_cid","type":"bytes"},{"internalType":"uint64","name":"piece_size","type":"uint64"},{"internalType":"bool","name":"verified_deal","type":"bool"},{"internalType":"string","name":"label","type":"string"},{"internalType":"int64","name":"start_epoch","type":"int64"},{"internalType":"int64","name":"end_epoch","type":"int64"},{"internalType":"uint256","name":"storage_price_per_epoch","type":"uint256"},{"internalType":"uint256","name":"provider_collateral","type":"uint256"},{"internalType":"uint256","name":"client_collateral","type":"uint256"},{"internalType":"uint64","name":"extra_params_version","type":"uint64"},{"components":[{"internalType":"string","name":"location_ref","type":"string"},{"internalType":"uint64","name":"car_size","type":"uint64"},{"internalType":"bool","name":"skip_ipni_announce","type":"bool"},{"internalType":"bool","name":"remove_unsealed_copy","type":"bool"}],"internalType":"struct ExtraParamsV1","name":"extra_params","type":"tuple"}],"internalType":"struct DealRequest","name":"","type":"tuple"}],"stateMutability":"view","type":"function"},{"inputs":[{"internalType":"bytes32","name":"proposalId","type":"bytes32"}],"name":"getDealProposal","outputs":[{"internalType":"bytes","name":"","type":"bytes"}],"stateMutability":"view","type":"function"},{"inputs":[{"internalType":"bytes32","name":"proposalId","type":"bytes32"}],"name":"getExtraParams","outputs":[{"internalType":"bytes","name":"extra_params","type":"bytes"}],"stateMutability":"view","type":"function"},{"inputs":[{"internalType":"bytes","name":"cid","type":"bytes"}],"name":"getProposalIdSet","outputs":[{"components":[{"internalType":"bytes32","name":"requestId","type":"bytes32"},{"internalType":"bool","name":"valid","type":"bool"}],"internalType":"struct RequestId","name":"","type":"tuple"}],"stateMutability":"view","type":"function"},{"inputs":[{"internalType":"bytes","name":"cid","type":"bytes"}],"name":"getProviderSet","outputs":[{"components":[{"internalType":"bytes","name":"provider","type":"bytes"},{"internalType":"bool","name":"valid","type":"bool"}],"internalType":"struct ProviderSet","name":"","type":"tuple"}],"stateMutability":"view","type":"function"},{"inputs":[{"internalType":"uint64","name":"method","type":"uint64"},{"internalType":"uint64","name":"","type":"uint64"},{"internalType":"bytes","name":"params","type":"bytes"}],"name":"handle_filecoin_method","outputs":[{"internalType":"uint32","name":"","type":"uint32"},{"internalType":"uint64","name":"","type":"uint64"},{"internalType":"bytes","name":"","type":"bytes"}],"stateMutability":"nonpayable","type":"function"},{"inputs":[{"components":[{"internalType":"bytes","name":"piece_cid","type":"bytes"},{"internalType":"uint64","name":"piece_size","type":"uint64"},{"internalType":"bool","name":"verified_deal","type":"bool"},{"internalType":"string","name":"label","type":"string"},{"internalType":"int64","name":"start_epoch","type":"int64"},{"internalType":"int64","name":"end_epoch","type":"int64"},{"internalType":"uint256","name":"storage_price_per_epoch","type":"uint256"},{"internalType":"uint256","name":"provider_collateral","type":"uint256"},{"internalType":"uint256","name":"client_collateral","type":"uint256"},{"internalType":"uint64","name":"extra_params_version","type":"uint64"},{"components":[{"internalType":"string","name":"location_ref","type":"string"},{"internalType":"uint64","name":"car_size","type":"uint64"},{"internalType":"bool","name":"skip_ipni_announce","type":"bool"},{"internalType":"bool","name":"remove_unsealed_copy","type":"bool"}],"internalType":"struct ExtraParamsV1","name":"extra_params","type":"tuple"}],"internalType":"struct DealRequest","name":"deal","type":"tuple"}],"name":"makeDealProposal","outputs":[{"internalType":"bytes32","name":"","type":"bytes32"}],"stateMutability":"nonpayable","type":"function"},{"inputs":[],"name":"owner","outputs":[{"internalType":"address","name":"","type":"address"}],"stateMutability":"view","type":"function"},{"inputs":[{"internalType":"bytes","name":"","type":"bytes"}],"name":"pieceDeals","outputs":[{"internalType":"uint64","name":"","type":"uint64"}],"stateMutability":"view","type":"function"},{"inputs":[{"internalType":"bytes","name":"","type":"bytes"}],"name":"pieceProviders","outputs":[{"internalType":"bytes","name":"provider","type":"bytes"},{"internalType":"bool","name":"valid","type":"bool"}],"stateMutability":"view","type":"function"},{"inputs":[{"internalType":"bytes","name":"","type":"bytes"}],"name":"pieceRequests","outputs":[{"internalType":"bytes32","name":"requestId","type":"bytes32"},{"internalType":"bool","name":"valid","type":"bool"}],"stateMutability":"view","type":"function"},{"inputs":[{"internalType":"bytes","name":"","type":"bytes"}],"name":"pieceStatus","outputs":[{"internalType":"enum DealClient.Status","name":"","type":"uint8"}],"stateMutability":"view","type":"function"},{"inputs":[{"internalType":"bytes","name":"pieceCid","type":"bytes"}],"name":"updateActivationStatus","outputs":[],"stateMutability":"nonpayable","type":"function"},{"inputs":[{"internalType":"address","name":"client","type":"address"},{"internalType":"uint256","name":"value","type":"uint256"}],"name":"withdrawBalance","outputs":[{"internalType":"uint256","name":"","type":"uint256"}],"stateMutability":"nonpayable","type":"function"}],"evm":{"bytecode":{"linkReferences":{},"object":"608060405234801561001057600080fd5b5033600660006101000a81548173ffffffffffffffffffffffffffffffffffffffff021916908373ffffffffffffffffffffffffffffffffffffffff1602179055506173bf80620000626000396000f3fe608060405234801561001057600080fd5b506004361061014c5760003560e01c8063868e10c4116100c3578063be965ce71161007c578063be965ce71461040f578063d91921ed1461042d578063dd27fe9014610449578063f44a890314610479578063f4b2e4d8146104a9578063f82704f0146104d95761014c565b8063868e10c4146103075780638da5cb5b1461033957806396925ae614610357578063a6d1b7b814610387578063b34ba252146103b7578063bad79de9146103d55761014c565b806329aa3d2a1161011557806329aa3d2a1461021e5780634634aed51461023c5780634e8a3ca41461026c5780636067f4541461029d57806366263735146102bb57806378133bb2146102d75761014c565b8062706790146101515780630a0e0c911461016f5780630cf20cc91461019f5780631adf7eb1146101cf578063297ab48614610200575b600080fd5b61015961050a565b60405161016691906147e5565b60405180910390f35b6101896004803603810190610184919061495a565b610512565b60405161019691906147e5565b60405180910390f35b6101b960048036038101906101b49190614a37565b61054f565b6040516101c69190614a86565b60405180910390f35b6101e960048036038101906101e49190614ad7565b6105f4565b6040516101f7929190614b1f565b60405180910390f35b610208610625565b6040516102159190614a86565b60405180910390f35b610226610632565b6040516102339190614b57565b60405180910390f35b61025660048036038101906102519190614ad7565b61064a565b6040516102639190614bf1565b60405180910390f35b6102866004803603810190610281919061495a565b61066f565b604051610294929190614c22565b60405180910390f35b6102a56106b6565b6040516102b291906147e5565b60405180910390f35b6102d560048036038101906102d0919061495a565b6106be565b005b6102f160048036038101906102ec9190614cab565b610835565b6040516102fe9190614d8e565b60405180910390f35b610321600480360381019061031c9190614ddc565b61091d565b60405161033093929190614e6a565b60405180910390f35b610341610a30565b60405161034e9190614b57565b60405180910390f35b610371600480360381019061036c9190614ea8565b610a56565b60405161037e91906150c4565b60405180910390f35b6103a1600480360381019061039c919061495a565b610d9c565b6040516103ae919061515d565b60405180910390f35b6103bf610dd2565b6040516103cc91906147e5565b60405180910390f35b6103ef60048036038101906103ea9190614ea8565b610dda565b6040516104069b9a99989796959493929190615234565b60405180910390f35b6104176110a7565b6040516104249190614b57565b60405180910390f35b61044760048036038101906104429190614ea8565b6110bf565b005b610463600480360381019061045e9190615319565b61112e565b6040516104709190615362565b60405180910390f35b610493600480360381019061048e9190614cab565b61149a565b6040516104a091906153bb565b60405180910390f35b6104c360048036038101906104be9190614ad7565b6114fa565b6040516104d09190614bf1565b60405180910390f35b6104f360048036038101906104ee919061495a565b611615565b6040516105019291906153d6565b60405180910390f35b639d8b067881565b6004818051602081018201805184825260208301602085012081835280955050505050506000915054906101000a900467ffffffffffffffff1681565b6000600660009054906101000a900473ffffffffffffffffffffffffffffffffffffffff1673ffffffffffffffffffffffffffffffffffffffff163373ffffffffffffffffffffffffffffffffffffffff16146105ab57600080fd5b600060405180604001604052806105c1866116e4565b81526020016105cf85611721565b815250905060006105df82611765565b90506105ea816117a5565b9250505092915050565b60006020528060005260406000206000915090508060000154908060010160009054906101000a900460ff16905082565b6000600180549050905090565b73ff0000000000000000000000000000000000000581565b60606000610657836117db565b9050610667816101400151611bb0565b915050919050565b6002818051602081018201805184825260208301602085012081835280955050505050506000915090508060000154908060010160009054906101000a900460ff16905082565b63f98c996681565b60006004826040516106d09190615442565b908152602001604051809103902060009054906101000a900467ffffffffffffffff1667ffffffffffffffff161161073d576040517f08c379a0000000000000000000000000000000000000000000000000000000008152600401610734906154cb565b60405180910390fd5b600061077a6004836040516107529190615442565b908152602001604051809103902060009054906101000a900467ffffffffffffffff16611c41565b90506000816020015160070b13156107d857600460058360405161079e9190615442565b908152602001604051809103902060006101000a81548160ff021916908360048111156107ce576107cd6150e6565b5b0217905550610831565b6000816000015160070b13156108305760036005836040516107fa9190615442565b908152602001604051809103902060006101000a81548160ff0219169083600481111561082a576108296150e6565b5b02179055505b5b5050565b61083d614548565b6003838360405161084f929190615510565b908152602001604051809103902060405180604001604052908160008201805461087890615558565b80601f01602080910402602001604051908101604052809291908181526020018280546108a490615558565b80156108f15780601f106108c6576101008083540402835291602001916108f1565b820191906000526020600020905b8154815290600101906020018083116108d457829003601f168201915b505050505081526020016001820160009054906101000a900460ff161515151581525050905092915050565b6000806060806000639d8b067867ffffffffffffffff168867ffffffffffffffff16036109845761094d86611c8c565b60006109596001611f42565b905061096f600182611f6990919063ffffffff16565b61097881611f85565b92506051915050610a1b565b63f98c996667ffffffffffffffff168867ffffffffffffffff16036109b1576109ac86611fde565b610a1a565b63de180de367ffffffffffffffff168867ffffffffffffffff16036109de576109d98661228f565b610a19565b6040517f08c379a0000000000000000000000000000000000000000000000000000000008152600401610a10906155fb565b60405180910390fd5b5b5b60008183945094509450505093509350939050565b600660009054906101000a900473ffffffffffffffffffffffffffffffffffffffff1681565b610a5e614564565b60018281548110610a7257610a7161561b565b5b90600052602060002090600a020160405180610160016040529081600082018054610a9c90615558565b80601f0160208091040260200160405190810160405280929190818152602001828054610ac890615558565b8015610b155780601f10610aea57610100808354040283529160200191610b15565b820191906000526020600020905b815481529060010190602001808311610af857829003601f168201915b505050505081526020016001820160009054906101000a900467ffffffffffffffff1667ffffffffffffffff1667ffffffffffffffff1681526020016001820160089054906101000a900460ff16151515158152602001600282018054610b7b90615558565b80601f0160208091040260200160405190810160405280929190818152602001828054610ba790615558565b8015610bf45780601f10610bc957610100808354040283529160200191610bf4565b820191906000526020600020905b815481529060010190602001808311610bd757829003601f168201915b505050505081526020016003820160009054906101000a900460070b60070b60070b81526020016003820160089054906101000a900460070b60070b60070b81526020016004820154815260200160058201548152602001600682015481526020016007820160009054906101000a900467ffffffffffffffff1667ffffffffffffffff1667ffffffffffffffff16815260200160088201604051806080016040529081600082018054610ca790615558565b80601f0160208091040260200160405190810160405280929190818152602001828054610cd390615558565b8015610d205780601f10610cf557610100808354040283529160200191610d20565b820191906000526020600020905b815481529060010190602001808311610d0357829003601f168201915b505050505081526020016001820160009054906101000a900467ffffffffffffffff1667ffffffffffffffff1667ffffffffffffffff1681526020016001820160089054906101000a900460ff161515151581526020016001820160099054906101000a900460ff161515151581525050815250509050919050565b6005818051602081018201805184825260208301602085012081835280955050505050506000915054906101000a900460ff1681565b63de180de381565b60018181548110610dea57600080fd5b90600052602060002090600a0201600091509050806000018054610e0d90615558565b80601f0160208091040260200160405190810160405280929190818152602001828054610e3990615558565b8015610e865780601f10610e5b57610100808354040283529160200191610e86565b820191906000526020600020905b815481529060010190602001808311610e6957829003601f168201915b5050505050908060010160009054906101000a900467ffffffffffffffff16908060010160089054906101000a900460ff1690806002018054610ec890615558565b80601f0160208091040260200160405190810160405280929190818152602001828054610ef490615558565b8015610f415780601f10610f1657610100808354040283529160200191610f41565b820191906000526020600020905b815481529060010190602001808311610f2457829003601f168201915b5050505050908060030160009054906101000a900460070b908060030160089054906101000a900460070b908060040154908060050154908060060154908060070160009054906101000a900467ffffffffffffffff169080600801604051806080016040529081600082018054610fb890615558565b80601f0160208091040260200160405190810160405280929190818152602001828054610fe490615558565b80156110315780601f1061100657610100808354040283529160200191611031565b820191906000526020600020905b81548152906001019060200180831161101457829003601f168201915b505050505081526020016001820160009054906101000a900467ffffffffffffffff1667ffffffffffffffff1667ffffffffffffffff1681526020016001820160089054906101000a900460ff161515151581526020016001820160099054906101000a900460ff16151515158152505090508b565b73ff0000000000000000000000000000000000000781565b600660009054906101000a900473ffffffffffffffffffffffffffffffffffffffff1673ffffffffffffffffffffffffffffffffffffffff163373ffffffffffffffffffffffffffffffffffffffff161461111957600080fd5b61112b611125306116e4565b82612349565b50565b6000600660009054906101000a900473ffffffffffffffffffffffffffffffffffffffff1673ffffffffffffffffffffffffffffffffffffffff163373ffffffffffffffffffffffffffffffffffffffff161461118a57600080fd5b6002600481111561119e5761119d6150e6565b5b60058380600001906111b09190615659565b6040516111be929190615510565b908152602001604051809103902060009054906101000a900460ff1660048111156111ec576111eb6150e6565b5b1480611257575060036004811115611207576112066150e6565b5b60058380600001906112199190615659565b604051611227929190615510565b908152602001604051809103902060009054906101000a900460ff166004811115611255576112546150e6565b5b145b15611297576040517f08c379a000000000000000000000000000000000000000000000000000000000815260040161128e9061572e565b60405180910390fd5b6000600180549050905060018390806001815401808255809150506001900390600052602060002090600a020160009091909190915081816112d991906160a4565b505060004233836040516020016112f29392919061611b565b6040516020818303038152906040528051906020012090506040518060400160405280838152602001600115158152506000808381526020019081526020016000206000820151816000015560208201518160010160006101000a81548160ff021916908315150217905550905050604051806040016040528082815260200160011515815250600285806000019061138b9190615659565b604051611399929190615510565b90815260200160405180910390206000820151816000015560208201518160010160006101000a81548160ff021916908315150217905550905050600160058580600001906113e89190615659565b6040516113f6929190615510565b908152602001604051809103902060006101000a81548160ff02191690836004811115611426576114256150e6565b5b021790555083604001602081019061143e919061616d565b1515817ffd6419d07e4c269e58d0c63969756c2124155b4a8d6dd08b8cd46e3a9acbf625866020016020810190611475919061619a565b8760c001356040516114889291906161c7565b60405180910390a38092505050919050565b6114a26145e0565b600283836040516114b4929190615510565b9081526020016040518091039020604051806040016040529081600082015481526020016001820160009054906101000a900460ff161515151581525050905092915050565b60606000611507836117db565b90506115116145ff565b6040518060200160405280836000015181525081600001819052508160200151816020019067ffffffffffffffff16908167ffffffffffffffff1681525050816040015181604001901515908115158152505061156d306116e4565b816060018190525061157f60006123b0565b816080018190525081606001518160a0018190525081608001518160c0019060070b908160070b815250508160a001518160e0019060070b908160070b815250506115cd8260c00151611721565b8161010001819052506115e38260e00151611721565b8161012001819052506115fa826101000151611721565b81610140018190525061160c816123ff565b92505050919050565b60038180516020810182018051848252602083016020850120818352809550505050505060009150905080600001805461164e90615558565b80601f016020809104026020016040519081016040528092919081815260200182805461167a90615558565b80156116c75780601f1061169c576101008083540402835291602001916116c7565b820191906000526020600020905b8154815290600101906020018083116116aa57829003601f168201915b5050505050908060010160009054906101000a900460ff16905082565b6116ec61468f565b6040518060200160405280836040516020016117089190616247565b6040516020818303038152906040528152509050919050565b6117296146a2565b6000611736836000612577565b905060006040518060400160405280836000015181526020018360200151151581525090508092505050919050565b61176d6146a2565b6000611778836125b2565b9050600061179160056387ed0a64605185600080612621565b905061179c81612776565b92505050919050565b6000806117ba83600001518460200151612832565b9050600081600001516117cc90616292565b60001c90508092505050919050565b6117e3614564565b6000806000848152602001908152602001600020604051806040016040529081600082015481526020016001820160009054906101000a900460ff1615151515815250509050806020015161186d576040517f08c379a000000000000000000000000000000000000000000000000000000000815260040161186490616345565b60405180910390fd5b60018160000151815481106118855761188461561b565b5b90600052602060002090600a0201604051806101600160405290816000820180546118af90615558565b80601f01602080910402602001604051908101604052809291908181526020018280546118db90615558565b80156119285780601f106118fd57610100808354040283529160200191611928565b820191906000526020600020905b81548152906001019060200180831161190b57829003601f168201915b505050505081526020016001820160009054906101000a900467ffffffffffffffff1667ffffffffffffffff1667ffffffffffffffff1681526020016001820160089054906101000a900460ff1615151515815260200160028201805461198e90615558565b80601f01602080910402602001604051908101604052809291908181526020018280546119ba90615558565b8015611a075780601f106119dc57610100808354040283529160200191611a07565b820191906000526020600020905b8154815290600101906020018083116119ea57829003601f168201915b505050505081526020016003820160009054906101000a900460070b60070b60070b81526020016003820160089054906101000a900460070b60070b60070b81526020016004820154815260200160058201548152602001600682015481526020016007820160009054906101000a900467ffffffffffffffff1667ffffffffffffffff1667ffffffffffffffff16815260200160088201604051806080016040529081600082018054611aba90615558565b80601f0160208091040260200160405190810160405280929190818152602001828054611ae690615558565b8015611b335780601f10611b0857610100808354040283529160200191611b33565b820191906000526020600020905b815481529060010190602001808311611b1657829003601f168201915b505050505081526020016001820160009054906101000a900467ffffffffffffffff1667ffffffffffffffff1667ffffffffffffffff1681526020016001820160089054906101000a900460ff161515151581526020016001820160099054906101000a900460ff16151515158152505081525050915050919050565b60606000611bbe6040611f42565b9050611bd460048261284e90919063ffffffff16565b611beb83600001518261285e90919063ffffffff16565b611c0283602001518261288790919063ffffffff16565b611c19836040015182611f6990919063ffffffff16565b611c30836060015182611f6990919063ffffffff16565b611c3981611f85565b915050919050565b611c496146be565b6000611c5e8367ffffffffffffffff16612897565b90506000611c786005639904f2ff60518560006001612621565b9050611c83816128cb565b92505050919050565b73ff0000000000000000000000000000000000000573ffffffffffffffffffffffffffffffffffffffff163373ffffffffffffffffffffffffffffffffffffffff1614611d0e576040517f08c379a0000000000000000000000000000000000000000000000000000000008152600401611d05906163d7565b60405180910390fd5b6000611d1982612955565b90506000611d2a82602001516129d1565b905060008160000151600001519050600281604051611d499190615442565b908152602001604051809103902060010160009054906101000a900460ff16611da7576040517f08c379a0000000000000000000000000000000000000000000000000000000008152600401611d9e90616469565b60405180910390fd5b600381604051611db79190615442565b908152602001604051809103902060010160009054906101000a900460ff1615611e16576040517f08c379a0000000000000000000000000000000000000000000000000000000008152600401611e0d906164fb565b60405180910390fd5b6000611e42600283604051611e2b9190615442565b9081526020016040518091039020600001546117db565b9050806040015115158360400151151514611e92576040517f08c379a0000000000000000000000000000000000000000000000000000000008152600401611e8990616567565b60405180910390fd5b8060c00151611ea58461010001516117a5565b1115611ee6576040517f08c379a0000000000000000000000000000000000000000000000000000000008152600401611edd906165f9565b60405180910390fd5b806101000151611efa8461014001516117a5565b1115611f3b576040517f08c379a0000000000000000000000000000000000000000000000000000000008152600401611f329061668b565b60405180910390fd5b5050505050565b611f4a6146de565b611f58816000015183612d18565b506000816020018181525050919050565b611f818282611f79576014611f7c565b60155b612d91565b5050565b60606000826020015114611fce576040517f08c379a0000000000000000000000000000000000000000000000000000000008152600401611fc5906166f7565b60405180910390fd5b8160000151600001519050919050565b73ff0000000000000000000000000000000000000573ffffffffffffffffffffffffffffffffffffffff163373ffffffffffffffffffffffffffffffffffffffff1614612060576040517f08c379a0000000000000000000000000000000000000000000000000000000008152600401612057906163d7565b60405180910390fd5b600061206b82612db7565b9050600061207c82600001516129d1565b905060028160000151600001516040516120969190615442565b908152602001604051809103902060010160009054906101000a900460ff166120f4576040517f08c379a00000000000000000000000000000000000000000000000000000000081526004016120eb90616469565b60405180910390fd5b600381600001516000015160405161210c9190615442565b908152602001604051809103902060010160009054906101000a900460ff161561216b576040517f08c379a0000000000000000000000000000000000000000000000000000000008152600401612162906164fb565b60405180910390fd5b604051806040016040528082608001516000015181526020016001151581525060038260000151600001516040516121a39190615442565b908152602001604051809103902060008201518160000190816121c69190616717565b5060208201518160010160006101000a81548160ff021916908315150217905550905050816020015160048260000151600001516040516122079190615442565b908152602001604051809103902060006101000a81548167ffffffffffffffff021916908367ffffffffffffffff160217905550600260058260000151600001516040516122559190615442565b908152602001604051809103902060006101000a81548160ff02191690836004811115612285576122846150e6565b5b0217905550505050565b73ff0000000000000000000000000000000000000773ffffffffffffffffffffffffffffffffffffffff163373ffffffffffffffffffffffffffffffffffffffff1614612311576040517f08c379a00000000000000000000000000000000000000000000000000000000081526004016123089061685b565b60405180910390fd5b7f10aa319ed8cad9bceb033c0c2788c4ae17469ac844e4c6e2c2e20e74ca8a7be860405161233e906168c7565b60405180910390a150565b600061235483612e48565b9050600061236d6005633105f1a6605185876000612621565b905060008151146123aa576040517f0e74990700000000000000000000000000000000000000000000000000000000815260040160405180910390fd5b50505050565b6123b861468f565b60006123c383612e80565b9050604051806020016040528082600001516040516020016123e59190616913565b604051602081830303815290604052815250915050919050565b6060600061240d6040611f42565b9050612423600b8261284e90919063ffffffff16565b61245d83600001516000015160405160200161243f919061693c565b60405160208183030381529060405282612f0590919063ffffffff16565b61247483602001518261288790919063ffffffff16565b61248b836040015182611f6990919063ffffffff16565b6124a683606001516000015182612f5890919063ffffffff16565b6124c183608001516000015182612f5890919063ffffffff16565b6124d88360a001518261285e90919063ffffffff16565b6124ef8360c0015182612f8190919063ffffffff16565b6125068360e0015182612f8190919063ffffffff16565b612526612517846101000151612fd9565b82612f5890919063ffffffff16565b612546612537846101200151612fd9565b82612f5890919063ffffffff16565b612566612557846101400151612fd9565b82612f5890919063ffffffff16565b61256f81611f85565b915050919050565b61257f6146fe565b6125aa836040516020016125939190616962565b604051602081830303815290604052836000613146565b905092915050565b606060006125c06040611f42565b90506125d660028261284e90919063ffffffff16565b6125f183600001516000015182612f5890919063ffffffff16565b6126106126018460200151612fd9565b82612f5890919063ffffffff16565b61261981611f85565b915050919050565b606060004790508381101561266f5780846040517f8f0f420600000000000000000000000000000000000000000000000000000000815260040161266692919061697d565b60405180910390fd5b60008073fe0000000000000000000000000000000000000573ffffffffffffffffffffffffffffffffffffffff168987876126ab5760006126ae565b60015b8b8b8f6040516020016126c6969594939291906169b5565b6040516020818303038152906040526040516126e29190615442565b600060405180830381855af49150503d806000811461271d576040519150601f19603f3d011682016040523d82523d6000602084013e612722565b606091505b50915091508161275e576040517f8a7db5bf00000000000000000000000000000000000000000000000000000000815260040160405180910390fd5b61276781613213565b93505050509695505050505050565b61277e6146a2565b6060600080845111156127c35761279e818561339a90919063ffffffff16565b80925081935050506000825111156127c2576127b982613576565b9250505061282d565b5b6040518060400160405280600067ffffffffffffffff8111156127e9576127e861482f565b5b6040519080825280601f01601f19166020018201604052801561281b5781602001600182028036833780820191505090505b50815260200160001515815250925050505b919050565b61283a6146fe565b61284683836000613146565b905092915050565b61285a8260048361371d565b5050565b61286b826003835161372d565b6128828183600001516138d690919063ffffffff16565b505050565b6128938260008361372d565b5050565b606060006128a56040611f42565b90506128ba838261288790919063ffffffff16565b6128c381611f85565b915050919050565b6128d36146be565b6000806128e982856138f290919063ffffffff16565b80935081925050506002811461290257612901616a1d565b5b612915828561397390919063ffffffff16565b846000018194508260070b60070b815250505061293b828561397390919063ffffffff16565b846020018194508260070b60070b81525050505050919050565b61295d614721565b60008061297382856138f290919063ffffffff16565b80935081925050506002811461298c5761298b616a1d565b5b61299f828561339a90919063ffffffff16565b8460000181945082905250506129be828561339a90919063ffffffff16565b8460200181945082905250505050919050565b6129d96145ff565b6000806129ef82856138f290919063ffffffff16565b8093508192505050600b8114612a0857612a07616a1d565b5b6060612a1d838661339a90919063ffffffff16565b8094508192505050600060f81b81600081518110612a3e57612a3d61561b565b5b602001015160f81c60f81b7effffffffffffffffffffffffffffffffffffffffffffffffffffffffffffff191614612a7957612a78616a1d565b5b60018151612a879190616a7b565b67ffffffffffffffff811115612aa057612a9f61482f565b5b6040519080825280601f01601f191660200182016040528015612ad25781602001600182028036833780820191505090505b508460000151600001819052506000600190505b8151811015612b7657818181518110612b0257612b0161561b565b5b602001015160f81c60f81b856000015160000151600183612b239190616a7b565b81518110612b3457612b3361561b565b5b60200101907effffffffffffffffffffffffffffffffffffffffffffffffffffffffffffff1916908160001a9053508080612b6e90616aaf565b915050612ae6565b50612b8a8386613a0590919063ffffffff16565b856020018195508267ffffffffffffffff1667ffffffffffffffff168152505050612bbe8386613a8690919063ffffffff16565b8560400181955082151515158152505050612be2838661339a90919063ffffffff16565b85606001516000018195508290525050612c05838661339a90919063ffffffff16565b85608001516000018195508290525050612c288386613b3090919063ffffffff16565b8560a0018195508290525050612c47838661397390919063ffffffff16565b8560c0018195508260070b60070b8152505050612c6d838661397390919063ffffffff16565b8560e0018195508260070b60070b81525050506060612c95848761339a90919063ffffffff16565b8095508192505050612ca681613576565b8561010001819052506060612cc4858861339a90919063ffffffff16565b8096508192505050612cd581613576565b8661012001819052506060612cf3868961339a90919063ffffffff16565b8097508192505050612d0481613576565b876101400181905250505050505050919050565b612d2061473b565b6000602083612d2f9190616b26565b14612d5b57602082612d419190616b26565b6020612d4d9190616a7b565b82612d589190616b57565b91505b818360200181815250506040518084526000815282810160200181811015612d8257600080fd5b80604052505082905092915050565b612db2816005600760ff16901b178360000151613cb290919063ffffffff16565b505050565b612dbf614755565b600080612dd582856138f290919063ffffffff16565b809350819250505060028114612dee57612ded616a1d565b5b612e01828561339a90919063ffffffff16565b846000018194508290525050612e208285613a0590919063ffffffff16565b846020018194508267ffffffffffffffff1667ffffffffffffffff1681525050505050919050565b60606000612e566040611f42565b9050612e6f836000015182612f5890919063ffffffff16565b612e7881611f85565b915050919050565b612e8861473b565b612e9061473b565b5b600115612efe576000607f8416905060078467ffffffffffffffff16901c935060008467ffffffffffffffff1603612ee157612ed68183613cb290919063ffffffff16565b508192505050612f00565b612ef76080821783613cb290919063ffffffff16565b5050612e91565b505b919050565b612f2760186005600660ff16901b178360000151613cb290919063ffffffff16565b50612f40602a8360000151613cb290919063ffffffff16565b50612f548183612f5890919063ffffffff16565b5050565b612f65826002835161372d565b612f7c8183600001516138d690919063ffffffff16565b505050565b60008160070b12612f9d57612f988260008361372d565b612fd5565b612fd4826001837fffffffffffffffffffffffffffffffffffffffffffffffffffffffffffffffff612fcf9190616b8b565b61372d565b5b5050565b606060006001836000015151612fef9190616b57565b67ffffffffffffffff8111156130085761300761482f565b5b6040519080825280601f01601f19166020018201604052801561303a5781602001600182028036833780820191505090505b50905060011515836020015115151461305757600060f81b61305d565b600160f81b5b816000815181106130715761307061561b565b5b60200101907effffffffffffffffffffffffffffffffffffffffffffffffffffffffffffff1916908160001a90535060006001905060005b84600001515181101561313b57846000015181815181106130cd576130cc61561b565b5b602001015160f81c60f81b8383815181106130eb576130ea61561b565b5b60200101907effffffffffffffffffffffffffffffffffffffffffffffffffffffffffffff1916908160001a905350818061312590616aaf565b925050808061313390616aaf565b9150506130a9565b508192505050919050565b61314e6146fe565b60208401845160005960006020840614600181146131805760208406602003602081840101935080850183525061318a565b6020820192508382525b508282848660046101c2fa506020815101810160405280515b600060208214036131d6576000602083015114600181146131c457506131d6565b602083019250506020810390506131a3565b8082528186528760208701525050505050600082146131f55781613203565b6132028160000151613d1c565b5b8160400181815250509392505050565b606060008060008480602001905181019061322e9190616ca6565b925092509250600067ffffffffffffffff168267ffffffffffffffff160361329057600081511461328b576040517f0e74990700000000000000000000000000000000000000000000000000000000815260040160405180910390fd5b61334a565b605167ffffffffffffffff168267ffffffffffffffff1614806132c75750607167ffffffffffffffff168267ffffffffffffffff16145b1561330c576000815103613307576040517f0e74990700000000000000000000000000000000000000000000000000000000815260040160405180910390fd5b613349565b816040517ff1f6bced00000000000000000000000000000000000000000000000000000000815260040161334091906147e5565b60405180910390fd5b5b6000831461338f57826040517fd4bb66710000000000000000000000000000000000000000000000000000000081526004016133869190616d24565b60405180910390fd5b809350505050919050565b606060008060006133ab8686613d5c565b8167ffffffffffffffff169150809750819350829450505050600660ff168260ff1614806133df5750600260ff168260ff16145b61341e576040517f08c379a000000000000000000000000000000000000000000000000000000000815260040161341590616db1565b60405180910390fd5b600660ff168260ff1603613467576134368686613d5c565b8167ffffffffffffffff169150809750819350829450505050600260ff168260ff161461346657613465616a1d565b5b5b600081866134759190616b57565b905060008267ffffffffffffffff8111156134935761349261482f565b5b6040519080825280601f01601f1916602001820160405280156134c55781602001600182028036833780820191505090505b5090506000808890505b83811015613558578981815181106134ea576134e961561b565b5b602001015160f81c60f81b8383815181106135085761350761561b565b5b60200101907effffffffffffffffffffffffffffffffffffffffffffffffffffffffffffff1916908160001a905350818061354290616aaf565b925050808061355090616aaf565b9150506134cf565b508184896135669190616b57565b9650965050505050509250929050565b61357e6146a2565b60008251036135bc57604051806040016040528060405180604001604052806001815260200160008152508152602001600015158152509050613718565b6000600183516135cc9190616a7b565b67ffffffffffffffff8111156135e5576135e461482f565b5b6040519080825280601f01601f1916602001820160405280156136175781602001600182028036833780820191505090505b5090506000600160f81b846000815181106136355761363461561b565b5b602001015160f81c60f81b7effffffffffffffffffffffffffffffffffffffffffffffffffffffffffffff19160361366c57600190505b6000600190505b84518110156136fb5784818151811061368f5761368e61561b565b5b602001015160f81c60f81b836001836136a89190616a7b565b815181106136b9576136b861561b565b5b60200101907effffffffffffffffffffffffffffffffffffffffffffffffffffffffffffff1916908160001a90535080806136f390616aaf565b915050613673565b506040518060400160405280838152602001821515815250925050505b919050565b61372883838361372d565b505050565b60178167ffffffffffffffff1611613768576137628160058460ff16901b60ff16178460000151613cb290919063ffffffff16565b506138d1565b60ff8167ffffffffffffffff16116137c65761379b601860058460ff16901b178460000151613cb290919063ffffffff16565b506137c08167ffffffffffffffff1660018560000151613f4e9092919063ffffffff16565b506138d0565b61ffff8167ffffffffffffffff1611613825576137fa601960058460ff16901b178460000151613cb290919063ffffffff16565b5061381f8167ffffffffffffffff1660028560000151613f4e9092919063ffffffff16565b506138cf565b63ffffffff8167ffffffffffffffff16116138865761385b601a60058460ff16901b178460000151613cb290919063ffffffff16565b506138808167ffffffffffffffff1660048560000151613f4e9092919063ffffffff16565b506138ce565b6138a7601b60058460ff16901b178460000151613cb290919063ffffffff16565b506138cc8167ffffffffffffffff1660088560000151613f4e9092919063ffffffff16565b505b5b5b5b505050565b6138de61473b565b6138ea83838451613fdb565b905092915050565b6000806000806139028686613d5c565b8167ffffffffffffffff169150809750819350829450505050600460ff168260ff1614613964576040517f08c379a000000000000000000000000000000000000000000000000000000000815260040161395b90616e1d565b60405180910390fd5b80859350935050509250929050565b6000806000806139838686613d5c565b8167ffffffffffffffff169150809750819350829450505050600160ff168260ff1614806139b75750600060ff168260ff16145b6139f6576040517f08c379a00000000000000000000000000000000000000000000000000000000081526004016139ed90616eaf565b60405180910390fd5b80859350935050509250929050565b600080600080613a158686613d5c565b8167ffffffffffffffff169150809750819350829450505050600060ff168260ff1614613a77576040517f08c379a0000000000000000000000000000000000000000000000000000000008152600401613a6e90616f41565b60405180910390fd5b80859350935050509250929050565b600080600080613a968686613d5c565b8167ffffffffffffffff169150809750819350829450505050600760ff168260ff1614613af8576040517f08c379a0000000000000000000000000000000000000000000000000000000008152600401613aef90616fad565b60405180910390fd5b601560ff16811480613b0d5750601460ff1681145b613b1a57613b19616a1d565b5b601460ff16811415859350935050509250929050565b60606000806000613b418686613d5c565b8167ffffffffffffffff169150809750819350829450505050600360ff168260ff1614613ba3576040517f08c379a0000000000000000000000000000000000000000000000000000000008152600401613b9a9061703f565b60405180910390fd5b60008186613bb19190616b57565b905060008267ffffffffffffffff811115613bcf57613bce61482f565b5b6040519080825280601f01601f191660200182016040528015613c015781602001600182028036833780820191505090505b5090506000808890505b83811015613c9457898181518110613c2657613c2561561b565b5b602001015160f81c60f81b838381518110613c4457613c4361561b565b5b60200101907effffffffffffffffffffffffffffffffffffffffffffffffffffffffffffff1916908160001a9053508180613c7e90616aaf565b9250508080613c8c90616aaf565b915050613c0b565b50818489613ca29190616b57565b9650965050505050509250929050565b613cba61473b565b600083600001515190506000600182613cd39190616b57565b905084602001518210613cf757613cf685600283613cf1919061705f565b6140be565b5b84516020838201018581538151831115613d0f578282525b5050849250505092915050565b6000613d27826140e2565b15613d355760009050613d57565b600060208301519050613d4781614139565b9150600860208451030282019150505b919050565b600080600080613d6c868661438f565b9050600185613d7b9190616b57565b94506000600560e0831660ff16901c90506000601f83169050601c8160ff1610613dda576040517f08c379a0000000000000000000000000000000000000000000000000000000008152600401613dd190617113565b60405180910390fd5b60188160ff161015613dfd578181888160ff169150955095509550505050613f47565b60188160ff1603613e84576000613e14898961438f565b9050600188613e239190616b57565b975060188160ff161015613e6c576040517f08c379a0000000000000000000000000000000000000000000000000000000008152600401613e639061717f565b60405180910390fd5b8281898160ff16915096509650965050505050613f47565b60198160ff1603613ec5576000613e9b898961440a565b9050600288613eaa9190616b57565b97508281898161ffff16915096509650965050505050613f47565b601a8160ff1603613f08576000613edc8989614474565b9050600488613eeb9190616b57565b97508281898163ffffffff16915096509650965050505050613f47565b601b8160ff1614613f1c57613f1b616a1d565b5b6000613f2889896144de565b9050600888613f379190616b57565b9750828189965096509650505050505b9250925092565b613f5661473b565b6000846000015151905060008184613f6e9190616b57565b90508560200151811115613f9357613f9286600283613f8d919061705f565b6140be565b5b6000600185610100613fa591906172d2565b613faf9190616a7b565b905086518281018783198251161781528151841115613fcc578382525b50508693505050509392505050565b613fe361473b565b8251821115613ff157600080fd5b60008460000151519050600083826140099190616b57565b9050856020015181111561402e5761402d86600283614028919061705f565b6140be565b5b60008087518051856020830101935080851115614049578482525b60208901925050505b60208610614090578051825260208261406b9190616b57565b915060208161407a9190616b57565b90506020866140899190616a7b565b9550614052565b60006001876020036101000a0390508019825116818451168181178552505050879450505050509392505050565b6000826000015190506140d18383612d18565b506140dc83826138d6565b50505050565b600080600060208401905060005b845181101561412c578151925060008311156141125760009350505050614134565b6020820191506020816141259190616b57565b90506140f0565b506001925050505b919050565b600080821460018114614384578260018403935060028404841793506004840484179350601084048417935061010084048417935062010000840484179350640100000000840484179350680100000000000000008404841793507001000000000000000000000000000000008404841793506001840193506040517ff8f9cbfae6cc78fbefe7cdc3a1793dfcf4f0e8bbd8cec470b6a28a7a5a3e1efd81527ff5ecf1b3e9debc68e1d9cfabc5997135bfb7a7a3938b7b606b5b4b3f2f1f0ffe60208201527ff6e4ed9ff2d6b458eadcdf97bd91692de2d4da8fd2d0ac50c6ae9a827252361660408201527fc8c0b887b0a8a4489c948c7f847c6125746c645c544c444038302820181008ff60608201527ff7cae577eec2a03cf3bad76fb589591debb2dd67e0aa9834bea6925f6a4a2e0e60808201527fe39ed557db96902cd38ed14fad815115c786af479b7e8324736353433727170760a08201527fc976c13bb96e881cb166a933a55e490d9d56952b8d4e801485467d236242260660c08201527f753a6d1b65325d0c552a4d1345224105391a310b29122104190a11030902010060e082015261010081016040527e818283848586878898a8b8c8d8e8f929395969799a9b9d9e9faaeb6bedeeff7f01000000000000000000000000000000000000000000000000000000000000008082880204818160ff038501510496507f80000000000000000000000000000000000000000000000000000000000000008511610100028701965060006001860386160361437a576001870196505b5050505050614389565b600091505b50919050565b600060018261439e9190616b57565b835110156143e1576040517f08c379a00000000000000000000000000000000000000000000000000000000081526004016143d890617369565b60405180910390fd5b8282815181106143f4576143f361561b565b5b602001015160f81c60f81b60f81c905092915050565b60006002826144199190616b57565b8351101561445c576040517f08c379a000000000000000000000000000000000000000000000000000000000815260040161445390617369565b60405180910390fd5b60008260200184015190508060f01c91505092915050565b60006004826144839190616b57565b835110156144c6576040517f08c379a00000000000000000000000000000000000000000000000000000000081526004016144bd90617369565b60405180910390fd5b60008260200184015190508060e01c91505092915050565b60006008826144ed9190616b57565b83511015614530576040517f08c379a000000000000000000000000000000000000000000000000000000000815260040161452790617369565b60405180910390fd5b60008260200184015190508060c01c91505092915050565b6040518060400160405280606081526020016000151581525090565b60405180610160016040528060608152602001600067ffffffffffffffff16815260200160001515815260200160608152602001600060070b8152602001600060070b8152602001600081526020016000815260200160008152602001600067ffffffffffffffff1681526020016145da614779565b81525090565b6040518060400160405280600080191681526020016000151581525090565b6040518061016001604052806146136147af565b8152602001600067ffffffffffffffff16815260200160001515815260200161463a61468f565b815260200161464761468f565b815260200160608152602001600060070b8152602001600060070b815260200161466f6146a2565b815260200161467c6146a2565b81526020016146896146a2565b81525090565b6040518060200160405280606081525090565b6040518060400160405280606081526020016000151581525090565b6040518060400160405280600060070b8152602001600060070b81525090565b60405180604001604052806146f161473b565b8152602001600081525090565b604051806060016040528060608152602001600015158152602001600081525090565b604051806040016040528060608152602001606081525090565b604051806040016040528060608152602001600081525090565b604051806040016040528060608152602001600067ffffffffffffffff1681525090565b604051806080016040528060608152602001600067ffffffffffffffff1681526020016000151581526020016000151581525090565b6040518060200160405280606081525090565b600067ffffffffffffffff82169050919050565b6147df816147c2565b82525050565b60006020820190506147fa60008301846147d6565b92915050565b6000604051905090565b600080fd5b600080fd5b600080fd5b600080fd5b6000601f19601f8301169050919050565b7f4e487b7100000000000000000000000000000000000000000000000000000000600052604160045260246000fd5b6148678261481e565b810181811067ffffffffffffffff821117156148865761488561482f565b5b80604052505050565b6000614899614800565b90506148a5828261485e565b919050565b600067ffffffffffffffff8211156148c5576148c461482f565b5b6148ce8261481e565b9050602081019050919050565b82818337600083830152505050565b60006148fd6148f8846148aa565b61488f565b90508281526020810184848401111561491957614918614819565b5b6149248482856148db565b509392505050565b600082601f83011261494157614940614814565b5b81356149518482602086016148ea565b91505092915050565b6000602082840312156149705761496f61480a565b5b600082013567ffffffffffffffff81111561498e5761498d61480f565b5b61499a8482850161492c565b91505092915050565b600073ffffffffffffffffffffffffffffffffffffffff82169050919050565b60006149ce826149a3565b9050919050565b6149de816149c3565b81146149e957600080fd5b50565b6000813590506149fb816149d5565b92915050565b6000819050919050565b614a1481614a01565b8114614a1f57600080fd5b50565b600081359050614a3181614a0b565b92915050565b60008060408385031215614a4e57614a4d61480a565b5b6000614a5c858286016149ec565b9250506020614a6d85828601614a22565b9150509250929050565b614a8081614a01565b82525050565b6000602082019050614a9b6000830184614a77565b92915050565b6000819050919050565b614ab481614aa1565b8114614abf57600080fd5b50565b600081359050614ad181614aab565b92915050565b600060208284031215614aed57614aec61480a565b5b6000614afb84828501614ac2565b91505092915050565b60008115159050919050565b614b1981614b04565b82525050565b6000604082019050614b346000830185614a77565b614b416020830184614b10565b9392505050565b614b51816149c3565b82525050565b6000602082019050614b6c6000830184614b48565b92915050565b600081519050919050565b600082825260208201905092915050565b60005b83811015614bac578082015181840152602081019050614b91565b60008484015250505050565b6000614bc382614b72565b614bcd8185614b7d565b9350614bdd818560208601614b8e565b614be68161481e565b840191505092915050565b60006020820190508181036000830152614c0b8184614bb8565b905092915050565b614c1c81614aa1565b82525050565b6000604082019050614c376000830185614c13565b614c446020830184614b10565b9392505050565b600080fd5b600080fd5b60008083601f840112614c6b57614c6a614814565b5b8235905067ffffffffffffffff811115614c8857614c87614c4b565b5b602083019150836001820283011115614ca457614ca3614c50565b5b9250929050565b60008060208385031215614cc257614cc161480a565b5b600083013567ffffffffffffffff811115614ce057614cdf61480f565b5b614cec85828601614c55565b92509250509250929050565b600082825260208201905092915050565b6000614d1482614b72565b614d1e8185614cf8565b9350614d2e818560208601614b8e565b614d378161481e565b840191505092915050565b614d4b81614b04565b82525050565b60006040830160008301518482036000860152614d6e8282614d09565b9150506020830151614d836020860182614d42565b508091505092915050565b60006020820190508181036000830152614da88184614d51565b905092915050565b614db9816147c2565b8114614dc457600080fd5b50565b600081359050614dd681614db0565b92915050565b600080600060608486031215614df557614df461480a565b5b6000614e0386828701614dc7565b9350506020614e1486828701614dc7565b925050604084013567ffffffffffffffff811115614e3557614e3461480f565b5b614e418682870161492c565b9150509250925092565b600063ffffffff82169050919050565b614e6481614e4b565b82525050565b6000606082019050614e7f6000830186614e5b565b614e8c60208301856147d6565b8181036040830152614e9e8184614bb8565b9050949350505050565b600060208284031215614ebe57614ebd61480a565b5b6000614ecc84828501614a22565b91505092915050565b614ede816147c2565b82525050565b600081519050919050565b600082825260208201905092915050565b6000614f0b82614ee4565b614f158185614eef565b9350614f25818560208601614b8e565b614f2e8161481e565b840191505092915050565b60008160070b9050919050565b614f4f81614f39565b82525050565b614f5e81614a01565b82525050565b60006080830160008301518482036000860152614f818282614f00565b9150506020830151614f966020860182614ed5565b506040830151614fa96040860182614d42565b506060830151614fbc6060860182614d42565b508091505092915050565b6000610160830160008301518482036000860152614fe58282614d09565b9150506020830151614ffa6020860182614ed5565b50604083015161500d6040860182614d42565b50606083015184820360608601526150258282614f00565b915050608083015161503a6080860182614f46565b5060a083015161504d60a0860182614f46565b5060c083015161506060c0860182614f55565b5060e083015161507360e0860182614f55565b50610100830151615088610100860182614f55565b5061012083015161509d610120860182614ed5565b506101408301518482036101408601526150b78282614f64565b9150508091505092915050565b600060208201905081810360008301526150de8184614fc7565b905092915050565b7f4e487b7100000000000000000000000000000000000000000000000000000000600052602160045260246000fd5b60058110615126576151256150e6565b5b50565b600081905061513782615115565b919050565b600061514782615129565b9050919050565b6151578161513c565b82525050565b6000602082019050615172600083018461514e565b92915050565b600082825260208201905092915050565b600061519482614ee4565b61519e8185615178565b93506151ae818560208601614b8e565b6151b78161481e565b840191505092915050565b6151cb81614f39565b82525050565b600060808301600083015184820360008601526151ee8282614f00565b91505060208301516152036020860182614ed5565b5060408301516152166040860182614d42565b5060608301516152296060860182614d42565b508091505092915050565b600061016082019050818103600083015261524f818e614bb8565b905061525e602083018d6147d6565b61526b604083018c614b10565b818103606083015261527d818b615189565b905061528c608083018a6151c2565b61529960a08301896151c2565b6152a660c0830188614a77565b6152b360e0830187614a77565b6152c1610100830186614a77565b6152cf6101208301856147d6565b8181036101408301526152e281846151d1565b90509c9b505050505050505050505050565b600080fd5b600061016082840312156153105761530f6152f4565b5b81905092915050565b60006020828403121561532f5761532e61480a565b5b600082013567ffffffffffffffff81111561534d5761534c61480f565b5b615359848285016152f9565b91505092915050565b60006020820190506153776000830184614c13565b92915050565b61538681614aa1565b82525050565b6040820160008201516153a2600085018261537d565b5060208201516153b56020850182614d42565b50505050565b60006040820190506153d0600083018461538c565b92915050565b600060408201905081810360008301526153f08185614bb8565b90506153ff6020830184614b10565b9392505050565b600081905092915050565b600061541c82614b72565b6154268185615406565b9350615436818560208601614b8e565b80840191505092915050565b600061544e8284615411565b915081905092915050565b7f6e6f206465616c207075626c697368656420666f72207468697320706965636560008201527f2063696400000000000000000000000000000000000000000000000000000000602082015250565b60006154b5602483615178565b91506154c082615459565b604082019050919050565b600060208201905081810360008301526154e4816154a8565b9050919050565b60006154f78385615406565b93506155048385846148db565b82840190509392505050565b600061551d8284866154eb565b91508190509392505050565b7f4e487b7100000000000000000000000000000000000000000000000000000000600052602260045260246000fd5b6000600282049050600182168061557057607f821691505b60208210810361558357615582615529565b5b50919050565b7f7468652066696c65636f696e206d6574686f642074686174207761732063616c60008201527f6c6564206973206e6f742068616e646c65640000000000000000000000000000602082015250565b60006155e5603283615178565b91506155f082615589565b604082019050919050565b60006020820190508181036000830152615614816155d8565b9050919050565b7f4e487b7100000000000000000000000000000000000000000000000000000000600052603260045260246000fd5b600080fd5b600080fd5b600080fd5b600080833560016020038436030381126156765761567561564a565b5b80840192508235915067ffffffffffffffff8211156156985761569761564f565b5b6020830192506001820236038313156156b4576156b3615654565b5b509250929050565b7f6465616c2077697468207468697320706965636543696420616c72656164792060008201527f7075626c69736865640000000000000000000000000000000000000000000000602082015250565b6000615718602983615178565b9150615723826156bc565b604082019050919050565b600060208201905081810360008301526157478161570b565b9050919050565b600082905092915050565b60008190508160005260206000209050919050565b60006020601f8301049050919050565b600082821b905092915050565b6000600883026157bb7fffffffffffffffffffffffffffffffffffffffffffffffffffffffffffffffff8261577e565b6157c5868361577e565b95508019841693508086168417925050509392505050565b6000819050919050565b60006158026157fd6157f884614a01565b6157dd565b614a01565b9050919050565b6000819050919050565b61581c836157e7565b61583061582882615809565b84845461578b565b825550505050565b600090565b615845615838565b615850818484615813565b505050565b5b818110156158745761586960008261583d565b600181019050615856565b5050565b601f8211156158b95761588a81615759565b6158938461576e565b810160208510156158a2578190505b6158b66158ae8561576e565b830182615855565b50505b505050565b600082821c905092915050565b60006158dc600019846008026158be565b1980831691505092915050565b60006158f583836158cb565b9150826002028217905092915050565b61590f838361574e565b67ffffffffffffffff8111156159285761592761482f565b5b6159328254615558565b61593d828285615878565b6000601f83116001811461596c576000841561595a578287013590505b61596485826158e9565b8655506159cc565b601f19841661597a86615759565b60005b828110156159a25784890135825560018201915060208501945060208101905061597d565b868310156159bf57848901356159bb601f8916826158cb565b8355505b6001600288020188555050505b50505050505050565b6159e0838383615905565b505050565b600081356159f281614db0565b80915050919050565b60008160001b9050919050565b600067ffffffffffffffff615a1c846159fb565b9350801983169250808416831791505092915050565b6000615a4d615a48615a43846147c2565b6157dd565b6147c2565b9050919050565b6000819050919050565b615a6782615a32565b615a7a615a7382615a54565b8354615a08565b8255505050565b615a8a81614b04565b8114615a9557600080fd5b50565b60008135615aa581615a81565b80915050919050565b60008160401b9050919050565b600068ff0000000000000000615ad084615aae565b9350801983169250808416831791505092915050565b6000615af182614b04565b9050919050565b6000819050919050565b615b0b82615ae6565b615b1e615b1782615af8565b8354615abb565b8255505050565b60008083356001602003843603038112615b4257615b4161564a565b5b80840192508235915067ffffffffffffffff821115615b6457615b6361564f565b5b602083019250600182023603831315615b8057615b7f615654565b5b509250929050565b600082905092915050565b60008190508160005260206000209050919050565b601f821115615be957615bba81615b93565b615bc38461576e565b81016020851015615bd2578190505b615be6615bde8561576e565b830182615855565b50505b505050565b615bf88383615b88565b67ffffffffffffffff811115615c1157615c1061482f565b5b615c1b8254615558565b615c26828285615ba8565b6000601f831160018114615c555760008415615c43578287013590505b615c4d85826158e9565b865550615cb5565b601f198416615c6386615b93565b60005b82811015615c8b57848901358255600182019150602085019450602081019050615c66565b86831015615ca85784890135615ca4601f8916826158cb565b8355505b6001600288020188555050505b50505050505050565b615cc9838383615bee565b505050565b615cd781614f39565b8114615ce257600080fd5b50565b60008135615cf281615cce565b80915050919050565b6000615d16615d11615d0c84614f39565b6157dd565b614f39565b9050919050565b6000819050919050565b615d3082615cfb565b615d43615d3c82615d1d565b8354615a08565b8255505050565b60006fffffffffffffffff0000000000000000615d6684615aae565b9350801983169250808416831791505092915050565b615d8582615cfb565b615d98615d9182615d1d565b8354615d4a565b8255505050565b60008135615dac81614a0b565b80915050919050565b60007fffffffffffffffffffffffffffffffffffffffffffffffffffffffffffffffff615de1846159fb565b9350801983169250808416831791505092915050565b615e00826157e7565b615e13615e0c82615809565b8354615db5565b8255505050565b600082356001608003833603038112615e3657615e3561564a565b5b80830191505092915050565b60008160481b9050919050565b600069ff000000000000000000615e6584615e42565b9350801983169250808416831791505092915050565b615e8482615ae6565b615e97615e9082615af8565b8354615e4f565b8255505050565b6000810160008301615eb08185615b25565b615ebb818386615cbe565b50505050600181016020830180615ed1816159e5565b9050615edd8184615a5e565b505050600181016040830180615ef281615a98565b9050615efe8184615b02565b505050600181016060830180615f1381615a98565b9050615f1f8184615e7b565b5050505050565b615f308282615e9e565b5050565b6000810160008301615f468185615659565b615f518183866159d5565b50505050600181016020830180615f67816159e5565b9050615f738184615a5e565b505050600181016040830180615f8881615a98565b9050615f948184615b02565b5050506002810160608301615fa98185615b25565b615fb4818386615cbe565b50505050600381016080830180615fca81615ce5565b9050615fd68184615d27565b5050506003810160a0830180615feb81615ce5565b9050615ff78184615d7c565b5050506004810160c083018061600c81615d9f565b90506160188184615df7565b5050506005810160e083018061602d81615d9f565b90506160398184615df7565b5050506006810161010083018061604f81615d9f565b905061605b8184615df7565b50505060078101610120830180616071816159e5565b905061607d8184615a5e565b5050506008810161014083016160938185615e1a565b61609d8184615f26565b5050505050565b6160ae8282615f34565b5050565b6000819050919050565b6160cd6160c882614a01565b6160b2565b82525050565b60008160601b9050919050565b60006160eb826160d3565b9050919050565b60006160fd826160e0565b9050919050565b616115616110826149c3565b6160f2565b82525050565b600061612782866160bc565b6020820191506161378285616104565b60148201915061614782846160bc565b602082019150819050949350505050565b60008135905061616781615a81565b92915050565b6000602082840312156161835761618261480a565b5b600061619184828501616158565b91505092915050565b6000602082840312156161b0576161af61480a565b5b60006161be84828501614dc7565b91505092915050565b60006040820190506161dc60008301856147d6565b6161e96020830184614a77565b9392505050565b600081905092915050565b7f040a000000000000000000000000000000000000000000000000000000000000600082015250565b60006162316002836161f0565b915061623c826161fb565b600282019050919050565b600061625282616224565b915061625e8284616104565b60148201915081905092915050565b6000819050602082019050919050565b60006162898251614aa1565b80915050919050565b600061629d82614b72565b826162a78461626d565b90506162b28161627d565b925060208210156162f2576162ed7fffffffffffffffffffffffffffffffffffffffffffffffffffffffffffffffff8360200360080261577e565b831692505b5050919050565b7f70726f706f73616c4964206e6f7420617661696c61626c650000000000000000600082015250565b600061632f601883615178565b915061633a826162f9565b602082019050919050565b6000602082019050818103600083015261635e81616322565b9050919050565b7f6d73672e73656e646572206e6565647320746f206265206d61726b657420616360008201527f746f722066303500000000000000000000000000000000000000000000000000602082015250565b60006163c1602783615178565b91506163cc82616365565b604082019050919050565b600060208201905081810360008301526163f0816163b4565b9050919050565b7f706965636520636964206d757374206265206164646564206265666f7265206160008201527f7574686f72697a696e6700000000000000000000000000000000000000000000602082015250565b6000616453602a83615178565b915061645e826163f7565b604082019050919050565b6000602082019050818103600083015261648281616446565b9050919050565b7f6465616c206661696c656420706f6c69637920636865636b3a2070726f76696460008201527f657220616c726561647920636c61696d65642074686973206369640000000000602082015250565b60006164e5603b83615178565b91506164f082616489565b604082019050919050565b60006020820190508181036000830152616514816164d8565b9050919050565b7f76657269666965645f6465616c20706172616d206d69736d6174636800000000600082015250565b6000616551601c83615178565b915061655c8261651b565b602082019050919050565b6000602082019050818103600083015261658081616544565b9050919050565b7f73746f726167652070726963652067726561746572207468616e20726571756560008201527f737420616d6f756e740000000000000000000000000000000000000000000000602082015250565b60006165e3602983615178565b91506165ee82616587565b604082019050919050565b60006020820190508181036000830152616612816165d6565b9050919050565b7f636c69656e7420636f6c6c61746572616c2067726561746572207468616e207260008201527f65717565737420616d6f756e7400000000000000000000000000000000000000602082015250565b6000616675602d83615178565b915061668082616619565b604082019050919050565b600060208201905081810360008301526166a481616668565b9050919050565b7f496e76616c69642043424f520000000000000000000000000000000000000000600082015250565b60006166e1600c83615178565b91506166ec826166ab565b602082019050919050565b60006020820190508181036000830152616710816166d4565b9050919050565b61672082614b72565b67ffffffffffffffff8111156167395761673861482f565b5b6167438254615558565b61674e828285615878565b600060209050601f831160018114616781576000841561676f578287015190505b61677985826158e9565b8655506167e1565b601f19841661678f86615759565b60005b828110156167b757848901518255600182019150602085019450602081019050616792565b868310156167d457848901516167d0601f8916826158cb565b8355505b6001600288020188555050505b505050505050565b7f6d73672e73656e646572206e6565647320746f2062652064617461636170206160008201527f63746f7220663037000000000000000000000000000000000000000000000000602082015250565b6000616845602883615178565b9150616850826167e9565b604082019050919050565b6000602082019050818103600083015261687481616838565b9050919050565b7f4461746143617020526563656976656421000000000000000000000000000000600082015250565b60006168b1601183615178565b91506168bc8261687b565b602082019050919050565b600060208201905081810360008301526168e0816168a4565b9050919050565b60008082015250565b60006168fd6001836161f0565b9150616908826168e7565b600182019050919050565b600061691e826168f0565b915061692a8284615411565b915081905092915050565b6000815250565b600061694782616935565b6001820191506169578284615411565b915081905092915050565b600061696e82846160bc565b60208201915081905092915050565b60006040820190506169926000830185614a77565b61699f6020830184614a77565b9392505050565b6169af81615a32565b82525050565b600060c0820190506169ca60008301896147d6565b6169d76020830188614a77565b6169e460408301876147d6565b6169f160608301866147d6565b8181036080830152616a038185614bb8565b9050616a1260a08301846169a6565b979650505050505050565b7f4e487b7100000000000000000000000000000000000000000000000000000000600052600160045260246000fd5b7f4e487b7100000000000000000000000000000000000000000000000000000000600052601160045260246000fd5b6000616a8682614a01565b9150616a9183614a01565b9250828203905081811115616aa957616aa8616a4c565b5b92915050565b6000616aba82614a01565b91507fffffffffffffffffffffffffffffffffffffffffffffffffffffffffffffffff8203616aec57616aeb616a4c565b5b600182019050919050565b7f4e487b7100000000000000000000000000000000000000000000000000000000600052601260045260246000fd5b6000616b3182614a01565b9150616b3c83614a01565b925082616b4c57616b4b616af7565b5b828206905092915050565b6000616b6282614a01565b9150616b6d83614a01565b9250828201905080821115616b8557616b84616a4c565b5b92915050565b6000616b9682614f39565b9150616ba183614f39565b92508282039050677fffffffffffffff81137fffffffffffffffffffffffffffffffffffffffffffffffff800000000000000082121715616be557616be4616a4c565b5b92915050565b6000819050919050565b616bfe81616beb565b8114616c0957600080fd5b50565b600081519050616c1b81616bf5565b92915050565b600081519050616c3081614db0565b92915050565b6000616c49616c44846148aa565b61488f565b905082815260208101848484011115616c6557616c64614819565b5b616c70848285614b8e565b509392505050565b600082601f830112616c8d57616c8c614814565b5b8151616c9d848260208601616c36565b91505092915050565b600080600060608486031215616cbf57616cbe61480a565b5b6000616ccd86828701616c0c565b9350506020616cde86828701616c21565b925050604084015167ffffffffffffffff811115616cff57616cfe61480f565b5b616d0b86828701616c78565b9150509250925092565b616d1e81616beb565b82525050565b6000602082019050616d396000830184616d15565b92915050565b7f696e76616c6964206d616a20286578706563746564204d616a546167206f722060008201527f4d616a42797465537472696e6729000000000000000000000000000000000000602082015250565b6000616d9b602e83615178565b9150616da682616d3f565b604082019050919050565b60006020820190508181036000830152616dca81616d8e565b9050919050565b7f696e76616c6964206d616a20286578706563746564204d616a41727261792900600082015250565b6000616e07601f83615178565b9150616e1282616dd1565b602082019050919050565b60006020820190508181036000830152616e3681616dfa565b9050919050565b7f696e76616c6964206d616a20286578706563746564204d616a5369676e65644960008201527f6e74206f72204d616a556e7369676e6564496e74290000000000000000000000602082015250565b6000616e99603583615178565b9150616ea482616e3d565b604082019050919050565b60006020820190508181036000830152616ec881616e8c565b9050919050565b7f696e76616c6964206d616a20286578706563746564204d616a556e7369676e6560008201527f64496e7429000000000000000000000000000000000000000000000000000000602082015250565b6000616f2b602583615178565b9150616f3682616ecf565b604082019050919050565b60006020820190508181036000830152616f5a81616f1e565b9050919050565b7f696e76616c6964206d616a20286578706563746564204d616a4f746865722900600082015250565b6000616f97601f83615178565b9150616fa282616f61565b602082019050919050565b60006020820190508181036000830152616fc681616f8a565b9050919050565b7f696e76616c6964206d616a20286578706563746564204d616a5465787453747260008201527f696e672900000000000000000000000000000000000000000000000000000000602082015250565b6000617029602483615178565b915061703482616fcd565b604082019050919050565b600060208201905081810360008301526170588161701c565b9050919050565b600061706a82614a01565b915061707583614a01565b925082820261708381614a01565b9150828204841483151761709a57617099616a4c565b5b5092915050565b7f63616e6e6f742068616e646c652068656164657273207769746820657874726160008201527f203e203237000000000000000000000000000000000000000000000000000000602082015250565b60006170fd602583615178565b9150617108826170a1565b604082019050919050565b6000602082019050818103600083015261712c816170f0565b9050919050565b7f696e76616c69642063626f720000000000000000000000000000000000000000600082015250565b6000617169600c83615178565b915061717482617133565b602082019050919050565b600060208201905081810360008301526171988161715c565b9050919050565b60008160011c9050919050565b6000808291508390505b60018511156171f6578086048111156171d2576171d1616a4c565b5b60018516156171e15780820291505b80810290506171ef8561719f565b94506171b6565b94509492505050565b60008261720f57600190506172cb565b8161721d57600090506172cb565b8160018114617233576002811461723d5761726c565b60019150506172cb565b60ff84111561724f5761724e616a4c565b5b8360020a91508482111561726657617265616a4c565b5b506172cb565b5060208310610133831016604e8410600b84101617156172a15782820a90508381111561729c5761729b616a4c565b5b6172cb565b6172ae84848460016171ac565b925090508184048111156172c5576172c4616a4c565b5b81810290505b9392505050565b60006172dd82614a01565b91506172e883614a01565b92506173157fffffffffffffffffffffffffffffffffffffffffffffffffffffffffffffffff84846171ff565b905092915050565b7f736c6963696e67206f7574206f662072616e6765000000000000000000000000600082015250565b6000617353601483615178565b915061735e8261731d565b602082019050919050565b6000602082019050818103600083015261738281617346565b905091905056fea2646970667358221220f1e1e4b89a7829b73127c1918ca8ab98b3cdd687dea721d5d3c524e21acb05b864736f6c63430008110033","opcodes":"PUSH1 0x80 PUSH1 0x40 MSTORE CALLVALUE DUP1 ISZERO PUSH2 0x10 JUMPI PUSH1 0x0 DUP1 REVERT JUMPDEST POP CALLER PUSH1 0x6 PUSH1 0x0 PUSH2 0x100 EXP DUP2 SLOAD DUP2 PUSH20 0xFFFFFFFFFFFFFFFFFFFFFFFFFFFFFFFFFFFFFFFF MUL NOT AND SWAP1 DUP4 PUSH20 0xFFFFFFFFFFFFFFFFFFFFFFFFFFFFFFFFFFFFFFFF AND MUL OR SWAP1 SSTORE POP PUSH2 0x73BF DUP1 PUSH3 0x62 PUSH1 0x0 CODECOPY PUSH1 0x0 RETURN INVALID PUSH1 0x80 PUSH1 0x40 MSTORE CALLVALUE DUP1 ISZERO PUSH2 0x10 JUMPI PUSH1 0x0 DUP1 REVERT JUMPDEST POP PUSH1 0x4 CALLDATASIZE LT PUSH2 0x14C JUMPI PUSH1 0x0 CALLDATALOAD PUSH1 0xE0 SHR DUP1 PUSH4 0x868E10C4 GT PUSH2 0xC3 JUMPI DUP1 PUSH4 0xBE965CE7 GT PUSH2 0x7C JUMPI DUP1 PUSH4 0xBE965CE7 EQ PUSH2 0x40F JUMPI DUP1 PUSH4 0xD91921ED EQ PUSH2 0x42D JUMPI DUP1 PUSH4 0xDD27FE90 EQ PUSH2 0x449 JUMPI DUP1 PUSH4 0xF44A8903 EQ PUSH2 0x479 JUMPI DUP1 PUSH4 0xF4B2E4D8 EQ PUSH2 0x4A9 JUMPI DUP1 PUSH4 0xF82704F0 EQ PUSH2 0x4D9 JUMPI PUSH2 0x14C JUMP JUMPDEST DUP1 PUSH4 0x868E10C4 EQ PUSH2 0x307 JUMPI DUP1 PUSH4 0x8DA5CB5B EQ PUSH2 0x339 JUMPI DUP1 PUSH4 0x96925AE6 EQ PUSH2 0x357 JUMPI DUP1 PUSH4 0xA6D1B7B8 EQ PUSH2 0x387 JUMPI DUP1 PUSH4 0xB34BA252 EQ PUSH2 0x3B7 JUMPI DUP1 PUSH4 0xBAD79DE9 EQ PUSH2 0x3D5 JUMPI PUSH2 0x14C JUMP JUMPDEST DUP1 PUSH4 0x29AA3D2A GT PUSH2 0x115 JUMPI DUP1 PUSH4 0x29AA3D2A EQ PUSH2 0x21E JUMPI DUP1 PUSH4 0x4634AED5 EQ PUSH2 0x23C JUMPI DUP1 PUSH4 0x4E8A3CA4 EQ PUSH2 0x26C JUMPI DUP1 PUSH4 0x6067F454 EQ PUSH2 0x29D JUMPI DUP1 PUSH4 0x66263735 EQ PUSH2 0x2BB JUMPI DUP1 PUSH4 0x78133BB2 EQ PUSH2 0x2D7 JUMPI PUSH2 0x14C JUMP JUMPDEST DUP1 PUSH3 0x706790 EQ PUSH2 0x151 JUMPI DUP1 PUSH4 0xA0E0C91 EQ PUSH2 0x16F JUMPI DUP1 PUSH4 0xCF20CC9 EQ PUSH2 0x19F JUMPI DUP1 PUSH4 0x1ADF7EB1 EQ PUSH2 0x1CF JUMPI DUP1 PUSH4 0x297AB486 EQ PUSH2 0x200 JUMPI JUMPDEST PUSH1 0x0 DUP1 REVERT JUMPDEST PUSH2 0x159 PUSH2 0x50A JUMP JUMPDEST PUSH1 0x40 MLOAD PUSH2 0x166 SWAP2 SWAP1 PUSH2 0x47E5 JUMP JUMPDEST PUSH1 0x40 MLOAD DUP1 SWAP2 SUB SWAP1 RETURN JUMPDEST PUSH2 0x189 PUSH1 0x4 DUP1 CALLDATASIZE SUB DUP2 ADD SWAP1 PUSH2 0x184 SWAP2 SWAP1 PUSH2 0x495A JUMP JUMPDEST PUSH2 0x512 JUMP JUMPDEST PUSH1 0x40 MLOAD PUSH2 0x196 SWAP2 SWAP1 PUSH2 0x47E5 JUMP JUMPDEST PUSH1 0x40 MLOAD DUP1 SWAP2 SUB SWAP1 RETURN JUMPDEST PUSH2 0x1B9 PUSH1 0x4 DUP1 CALLDATASIZE SUB DUP2 ADD SWAP1 PUSH2 0x1B4 SWAP2 SWAP1 PUSH2 0x4A37 JUMP JUMPDEST PUSH2 0x54F JUMP JUMPDEST PUSH1 0x40 MLOAD PUSH2 0x1C6 SWAP2 SWAP1 PUSH2 0x4A86 JUMP JUMPDEST PUSH1 0x40 MLOAD DUP1 SWAP2 SUB SWAP1 RETURN JUMPDEST PUSH2 0x1E9 PUSH1 0x4 DUP1 CALLDATASIZE SUB DUP2 ADD SWAP1 PUSH2 0x1E4 SWAP2 SWAP1 PUSH2 0x4AD7 JUMP JUMPDEST PUSH2 0x5F4 JUMP JUMPDEST PUSH1 0x40 MLOAD PUSH2 0x1F7 SWAP3 SWAP2 SWAP1 PUSH2 0x4B1F JUMP JUMPDEST PUSH1 0x40 MLOAD DUP1 SWAP2 SUB SWAP1 RETURN JUMPDEST PUSH2 0x208 PUSH2 0x625 JUMP JUMPDEST PUSH1 0x40 MLOAD PUSH2 0x215 SWAP2 SWAP1 PUSH2 0x4A86 JUMP JUMPDEST PUSH1 0x40 MLOAD DUP1 SWAP2 SUB SWAP1 RETURN JUMPDEST PUSH2 0x226 PUSH2 0x632 JUMP JUMPDEST PUSH1 0x40 MLOAD PUSH2 0x233 SWAP2 SWAP1 PUSH2 0x4B57 JUMP JUMPDEST PUSH1 0x40 MLOAD DUP1 SWAP2 SUB SWAP1 RETURN JUMPDEST PUSH2 0x256 PUSH1 0x4 DUP1 CALLDATASIZE SUB DUP2 ADD SWAP1 PUSH2 0x251 SWAP2 SWAP1 PUSH2 0x4AD7 JUMP JUMPDEST PUSH2 0x64A JUMP JUMPDEST PUSH1 0x40 MLOAD PUSH2 0x263 SWAP2 SWAP1 PUSH2 0x4BF1 JUMP JUMPDEST PUSH1 0x40 MLOAD DUP1 SWAP2 SUB SWAP1 RETURN JUMPDEST PUSH2 0x286 PUSH1 0x4 DUP1 CALLDATASIZE SUB DUP2 ADD SWAP1 PUSH2 0x281 SWAP2 SWAP1 PUSH2 0x495A JUMP JUMPDEST PUSH2 0x66F JUMP JUMPDEST PUSH1 0x40 MLOAD PUSH2 0x294 SWAP3 SWAP2 SWAP1 PUSH2 0x4C22 JUMP JUMPDEST PUSH1 0x40 MLOAD DUP1 SWAP2 SUB SWAP1 RETURN JUMPDEST PUSH2 0x2A5 PUSH2 0x6B6 JUMP JUMPDEST PUSH1 0x40 MLOAD PUSH2 0x2B2 SWAP2 SWAP1 PUSH2 0x47E5 JUMP JUMPDEST PUSH1 0x40 MLOAD DUP1 SWAP2 SUB SWAP1 RETURN JUMPDEST PUSH2 0x2D5 PUSH1 0x4 DUP1 CALLDATASIZE SUB DUP2 ADD SWAP1 PUSH2 0x2D0 SWAP2 SWAP1 PUSH2 0x495A JUMP JUMPDEST PUSH2 0x6BE JUMP JUMPDEST STOP JUMPDEST PUSH2 0x2F1 PUSH1 0x4 DUP1 CALLDATASIZE SUB DUP2 ADD SWAP1 PUSH2 0x2EC SWAP2 SWAP1 PUSH2 0x4CAB JUMP JUMPDEST PUSH2 0x835 JUMP JUMPDEST PUSH1 0x40 MLOAD PUSH2 0x2FE SWAP2 SWAP1 PUSH2 0x4D8E JUMP JUMPDEST PUSH1 0x40 MLOAD DUP1 SWAP2 SUB SWAP1 RETURN JUMPDEST PUSH2 0x321 PUSH1 0x4 DUP1 CALLDATASIZE SUB DUP2 ADD SWAP1 PUSH2 0x31C SWAP2 SWAP1 PUSH2 0x4DDC JUMP JUMPDEST PUSH2 0x91D JUMP JUMPDEST PUSH1 0x40 MLOAD PUSH2 0x330 SWAP4 SWAP3 SWAP2 SWAP1 PUSH2 0x4E6A JUMP JUMPDEST PUSH1 0x40 MLOAD DUP1 SWAP2 SUB SWAP1 RETURN JUMPDEST PUSH2 0x341 PUSH2 0xA30 JUMP JUMPDEST PUSH1 0x40 MLOAD PUSH2 0x34E SWAP2 SWAP1 PUSH2 0x4B57 JUMP JUMPDEST PUSH1 0x40 MLOAD DUP1 SWAP2 SUB SWAP1 RETURN JUMPDEST PUSH2 0x371 PUSH1 0x4 DUP1 CALLDATASIZE SUB DUP2 ADD SWAP1 PUSH2 0x36C SWAP2 SWAP1 PUSH2 0x4EA8 JUMP JUMPDEST PUSH2 0xA56 JUMP JUMPDEST PUSH1 0x40 MLOAD PUSH2 0x37E SWAP2 SWAP1 PUSH2 0x50C4 JUMP JUMPDEST PUSH1 0x40 MLOAD DUP1 SWAP2 SUB SWAP1 RETURN JUMPDEST PUSH2 0x3A1 PUSH1 0x4 DUP1 CALLDATASIZE SUB DUP2 ADD SWAP1 PUSH2 0x39C SWAP2 SWAP1 PUSH2 0x495A JUMP JUMPDEST PUSH2 0xD9C JUMP JUMPDEST PUSH1 0x40 MLOAD PUSH2 0x3AE SWAP2 SWAP1 PUSH2 0x515D JUMP JUMPDEST PUSH1 0x40 MLOAD DUP1 SWAP2 SUB SWAP1 RETURN JUMPDEST PUSH2 0x3BF PUSH2 0xDD2 JUMP JUMPDEST PUSH1 0x40 MLOAD PUSH2 0x3CC SWAP2 SWAP1 PUSH2 0x47E5 JUMP JUMPDEST PUSH1 0x40 MLOAD DUP1 SWAP2 SUB SWAP1 RETURN JUMPDEST PUSH2 0x3EF PUSH1 0x4 DUP1 CALLDATASIZE SUB DUP2 ADD SWAP1 PUSH2 0x3EA SWAP2 SWAP1 PUSH2 0x4EA8 JUMP JUMPDEST PUSH2 0xDDA JUMP JUMPDEST PUSH1 0x40 MLOAD PUSH2 0x406 SWAP12 SWAP11 SWAP10 SWAP9 SWAP8 SWAP7 SWAP6 SWAP5 SWAP4 SWAP3 SWAP2 SWAP1 PUSH2 0x5234 JUMP JUMPDEST PUSH1 0x40 MLOAD DUP1 SWAP2 SUB SWAP1 RETURN JUMPDEST PUSH2 0x417 PUSH2 0x10A7 JUMP JUMPDEST PUSH1 0x40 MLOAD PUSH2 0x424 SWAP2 SWAP1 PUSH2 0x4B57 JUMP JUMPDEST PUSH1 0x40 MLOAD DUP1 SWAP2 SUB SWAP1 RETURN JUMPDEST PUSH2 0x447 PUSH1 0x4 DUP1 CALLDATASIZE SUB DUP2 ADD SWAP1 PUSH2 0x442 SWAP2 SWAP1 PUSH2 0x4EA8 JUMP JUMPDEST PUSH2 0x10BF JUMP JUMPDEST STOP JUMPDEST PUSH2 0x463 PUSH1 0x4 DUP1 CALLDATASIZE SUB DUP2 ADD SWAP1 PUSH2 0x45E SWAP2 SWAP1 PUSH2 0x5319 JUMP JUMPDEST PUSH2 0x112E JUMP JUMPDEST PUSH1 0x40 MLOAD PUSH2 0x470 SWAP2 SWAP1 PUSH2 0x5362 JUMP JUMPDEST PUSH1 0x40 MLOAD DUP1 SWAP2 SUB SWAP1 RETURN JUMPDEST PUSH2 0x493 PUSH1 0x4 DUP1 CALLDATASIZE SUB DUP2 ADD SWAP1 PUSH2 0x48E SWAP2 SWAP1 PUSH2 0x4CAB JUMP JUMPDEST PUSH2 0x149A JUMP JUMPDEST PUSH1 0x40 MLOAD PUSH2 0x4A0 SWAP2 SWAP1 PUSH2 0x53BB JUMP JUMPDEST PUSH1 0x40 MLOAD DUP1 SWAP2 SUB SWAP1 RETURN JUMPDEST PUSH2 0x4C3 PUSH1 0x4 DUP1 CALLDATASIZE SUB DUP2 ADD SWAP1 PUSH2 0x4BE SWAP2 SWAP1 PUSH2 0x4AD7 JUMP JUMPDEST PUSH2 0x14FA JUMP JUMPDEST PUSH1 0x40 MLOAD PUSH2 0x4D0 SWAP2 SWAP1 PUSH2 0x4BF1 JUMP JUMPDEST PUSH1 0x40 MLOAD DUP1 SWAP2 SUB SWAP1 RETURN JUMPDEST PUSH2 0x4F3 PUSH1 0x4 DUP1 CALLDATASIZE SUB DUP2 ADD SWAP1 PUSH2 0x4EE SWAP2 SWAP1 PUSH2 0x495A JUMP JUMPDEST PUSH2 0x1615 JUMP JUMPDEST PUSH1 0x40 MLOAD PUSH2 0x501 SWAP3 SWAP2 SWAP1 PUSH2 0x53D6 JUMP JUMPDEST PUSH1 0x40 MLOAD DUP1 SWAP2 SUB SWAP1 RETURN JUMPDEST PUSH4 0x9D8B0678 DUP2 JUMP JUMPDEST PUSH1 0x4 DUP2 DUP1 MLOAD PUSH1 0x20 DUP2 ADD DUP3 ADD DUP1 MLOAD DUP5 DUP3 MSTORE PUSH1 0x20 DUP4 ADD PUSH1 0x20 DUP6 ADD KECCAK256 DUP2 DUP4 MSTORE DUP1 SWAP6 POP POP POP POP POP POP PUSH1 0x0 SWAP2 POP SLOAD SWAP1 PUSH2 0x100 EXP SWAP1 DIV PUSH8 0xFFFFFFFFFFFFFFFF AND DUP2 JUMP JUMPDEST PUSH1 0x0 PUSH1 0x6 PUSH1 0x0 SWAP1 SLOAD SWAP1 PUSH2 0x100 EXP SWAP1 DIV PUSH20 0xFFFFFFFFFFFFFFFFFFFFFFFFFFFFFFFFFFFFFFFF AND PUSH20 0xFFFFFFFFFFFFFFFFFFFFFFFFFFFFFFFFFFFFFFFF AND CALLER PUSH20 0xFFFFFFFFFFFFFFFFFFFFFFFFFFFFFFFFFFFFFFFF AND EQ PUSH2 0x5AB JUMPI PUSH1 0x0 DUP1 REVERT JUMPDEST PUSH1 0x0 PUSH1 0x40 MLOAD DUP1 PUSH1 0x40 ADD PUSH1 0x40 MSTORE DUP1 PUSH2 0x5C1 DUP7 PUSH2 0x16E4 JUMP JUMPDEST DUP2 MSTORE PUSH1 0x20 ADD PUSH2 0x5CF DUP6 PUSH2 0x1721 JUMP JUMPDEST DUP2 MSTORE POP SWAP1 POP PUSH1 0x0 PUSH2 0x5DF DUP3 PUSH2 0x1765 JUMP JUMPDEST SWAP1 POP PUSH2 0x5EA DUP2 PUSH2 0x17A5 JUMP JUMPDEST SWAP3 POP POP POP SWAP3 SWAP2 POP POP JUMP JUMPDEST PUSH1 0x0 PUSH1 0x20 MSTORE DUP1 PUSH1 0x0 MSTORE PUSH1 0x40 PUSH1 0x0 KECCAK256 PUSH1 0x0 SWAP2 POP SWAP1 POP DUP1 PUSH1 0x0 ADD SLOAD SWAP1 DUP1 PUSH1 0x1 ADD PUSH1 0x0 SWAP1 SLOAD SWAP1 PUSH2 0x100 EXP SWAP1 DIV PUSH1 0xFF AND SWAP1 POP DUP3 JUMP JUMPDEST PUSH1 0x0 PUSH1 0x1 DUP1 SLOAD SWAP1 POP SWAP1 POP SWAP1 JUMP JUMPDEST PUSH20 0xFF00000000000000000000000000000000000005 DUP2 JUMP JUMPDEST PUSH1 0x60 PUSH1 0x0 PUSH2 0x657 DUP4 PUSH2 0x17DB JUMP JUMPDEST SWAP1 POP PUSH2 0x667 DUP2 PUSH2 0x140 ADD MLOAD PUSH2 0x1BB0 JUMP JUMPDEST SWAP2 POP POP SWAP2 SWAP1 POP JUMP JUMPDEST PUSH1 0x2 DUP2 DUP1 MLOAD PUSH1 0x20 DUP2 ADD DUP3 ADD DUP1 MLOAD DUP5 DUP3 MSTORE PUSH1 0x20 DUP4 ADD PUSH1 0x20 DUP6 ADD KECCAK256 DUP2 DUP4 MSTORE DUP1 SWAP6 POP POP POP POP POP POP PUSH1 0x0 SWAP2 POP SWAP1 POP DUP1 PUSH1 0x0 ADD SLOAD SWAP1 DUP1 PUSH1 0x1 ADD PUSH1 0x0 SWAP1 SLOAD SWAP1 PUSH2 0x100 EXP SWAP1 DIV PUSH1 0xFF AND SWAP1 POP DUP3 JUMP JUMPDEST PUSH4 0xF98C9966 DUP2 JUMP JUMPDEST PUSH1 0x0 PUSH1 0x4 DUP3 PUSH1 0x40 MLOAD PUSH2 0x6D0 SWAP2 SWAP1 PUSH2 0x5442 JUMP JUMPDEST SWAP1 DUP2 MSTORE PUSH1 0x20 ADD PUSH1 0x40 MLOAD DUP1 SWAP2 SUB SWAP1 KECCAK256 PUSH1 0x0 SWAP1 SLOAD SWAP1 PUSH2 0x100 EXP SWAP1 DIV PUSH8 0xFFFFFFFFFFFFFFFF AND PUSH8 0xFFFFFFFFFFFFFFFF AND GT PUSH2 0x73D JUMPI PUSH1 0x40 MLOAD PUSH32 0x8C379A000000000000000000000000000000000000000000000000000000000 DUP2 MSTORE PUSH1 0x4 ADD PUSH2 0x734 SWAP1 PUSH2 0x54CB JUMP JUMPDEST PUSH1 0x40 MLOAD DUP1 SWAP2 SUB SWAP1 REVERT JUMPDEST PUSH1 0x0 PUSH2 0x77A PUSH1 0x4 DUP4 PUSH1 0x40 MLOAD PUSH2 0x752 SWAP2 SWAP1 PUSH2 0x5442 JUMP JUMPDEST SWAP1 DUP2 MSTORE PUSH1 0x20 ADD PUSH1 0x40 MLOAD DUP1 SWAP2 SUB SWAP1 KECCAK256 PUSH1 0x0 SWAP1 SLOAD SWAP1 PUSH2 0x100 EXP SWAP1 DIV PUSH8 0xFFFFFFFFFFFFFFFF AND PUSH2 0x1C41 JUMP JUMPDEST SWAP1 POP PUSH1 0x0 DUP2 PUSH1 0x20 ADD MLOAD PUSH1 0x7 SIGNEXTEND SGT ISZERO PUSH2 0x7D8 JUMPI PUSH1 0x4 PUSH1 0x5 DUP4 PUSH1 0x40 MLOAD PUSH2 0x79E SWAP2 SWAP1 PUSH2 0x5442 JUMP JUMPDEST SWAP1 DUP2 MSTORE PUSH1 0x20 ADD PUSH1 0x40 MLOAD DUP1 SWAP2 SUB SWAP1 KECCAK256 PUSH1 0x0 PUSH2 0x100 EXP DUP2 SLOAD DUP2 PUSH1 0xFF MUL NOT AND SWAP1 DUP4 PUSH1 0x4 DUP2 GT ISZERO PUSH2 0x7CE JUMPI PUSH2 0x7CD PUSH2 0x50E6 JUMP JUMPDEST JUMPDEST MUL OR SWAP1 SSTORE POP PUSH2 0x831 JUMP JUMPDEST PUSH1 0x0 DUP2 PUSH1 0x0 ADD MLOAD PUSH1 0x7 SIGNEXTEND SGT ISZERO PUSH2 0x830 JUMPI PUSH1 0x3 PUSH1 0x5 DUP4 PUSH1 0x40 MLOAD PUSH2 0x7FA SWAP2 SWAP1 PUSH2 0x5442 JUMP JUMPDEST SWAP1 DUP2 MSTORE PUSH1 0x20 ADD PUSH1 0x40 MLOAD DUP1 SWAP2 SUB SWAP1 KECCAK256 PUSH1 0x0 PUSH2 0x100 EXP DUP2 SLOAD DUP2 PUSH1 0xFF MUL NOT AND SWAP1 DUP4 PUSH1 0x4 DUP2 GT ISZERO PUSH2 0x82A JUMPI PUSH2 0x829 PUSH2 0x50E6 JUMP JUMPDEST JUMPDEST MUL OR SWAP1 SSTORE POP JUMPDEST JUMPDEST POP POP JUMP JUMPDEST PUSH2 0x83D PUSH2 0x4548 JUMP JUMPDEST PUSH1 0x3 DUP4 DUP4 PUSH1 0x40 MLOAD PUSH2 0x84F SWAP3 SWAP2 SWAP1 PUSH2 0x5510 JUMP JUMPDEST SWAP1 DUP2 MSTORE PUSH1 0x20 ADD PUSH1 0x40 MLOAD DUP1 SWAP2 SUB SWAP1 KECCAK256 PUSH1 0x40 MLOAD DUP1 PUSH1 0x40 ADD PUSH1 0x40 MSTORE SWAP1 DUP2 PUSH1 0x0 DUP3 ADD DUP1 SLOAD PUSH2 0x878 SWAP1 PUSH2 0x5558 JUMP JUMPDEST DUP1 PUSH1 0x1F ADD PUSH1 0x20 DUP1 SWAP2 DIV MUL PUSH1 0x20 ADD PUSH1 0x40 MLOAD SWAP1 DUP2 ADD PUSH1 0x40 MSTORE DUP1 SWAP3 SWAP2 SWAP1 DUP2 DUP2 MSTORE PUSH1 0x20 ADD DUP3 DUP1 SLOAD PUSH2 0x8A4 SWAP1 PUSH2 0x5558 JUMP JUMPDEST DUP1 ISZERO PUSH2 0x8F1 JUMPI DUP1 PUSH1 0x1F LT PUSH2 0x8C6 JUMPI PUSH2 0x100 DUP1 DUP4 SLOAD DIV MUL DUP4 MSTORE SWAP2 PUSH1 0x20 ADD SWAP2 PUSH2 0x8F1 JUMP JUMPDEST DUP3 ADD SWAP2 SWAP1 PUSH1 0x0 MSTORE PUSH1 0x20 PUSH1 0x0 KECCAK256 SWAP1 JUMPDEST DUP2 SLOAD DUP2 MSTORE SWAP1 PUSH1 0x1 ADD SWAP1 PUSH1 0x20 ADD DUP1 DUP4 GT PUSH2 0x8D4 JUMPI DUP3 SWAP1 SUB PUSH1 0x1F AND DUP3 ADD SWAP2 JUMPDEST POP POP POP POP POP DUP2 MSTORE PUSH1 0x20 ADD PUSH1 0x1 DUP3 ADD PUSH1 0x0 SWAP1 SLOAD SWAP1 PUSH2 0x100 EXP SWAP1 DIV PUSH1 0xFF AND ISZERO ISZERO ISZERO ISZERO DUP2 MSTORE POP POP SWAP1 POP SWAP3 SWAP2 POP POP JUMP JUMPDEST PUSH1 0x0 DUP1 PUSH1 0x60 DUP1 PUSH1 0x0 PUSH4 0x9D8B0678 PUSH8 0xFFFFFFFFFFFFFFFF AND DUP9 PUSH8 0xFFFFFFFFFFFFFFFF AND SUB PUSH2 0x984 JUMPI PUSH2 0x94D DUP7 PUSH2 0x1C8C JUMP JUMPDEST PUSH1 0x0 PUSH2 0x959 PUSH1 0x1 PUSH2 0x1F42 JUMP JUMPDEST SWAP1 POP PUSH2 0x96F PUSH1 0x1 DUP3 PUSH2 0x1F69 SWAP1 SWAP2 SWAP1 PUSH4 0xFFFFFFFF AND JUMP JUMPDEST PUSH2 0x978 DUP2 PUSH2 0x1F85 JUMP JUMPDEST SWAP3 POP PUSH1 0x51 SWAP2 POP POP PUSH2 0xA1B JUMP JUMPDEST PUSH4 0xF98C9966 PUSH8 0xFFFFFFFFFFFFFFFF AND DUP9 PUSH8 0xFFFFFFFFFFFFFFFF AND SUB PUSH2 0x9B1 JUMPI PUSH2 0x9AC DUP7 PUSH2 0x1FDE JUMP JUMPDEST PUSH2 0xA1A JUMP JUMPDEST PUSH4 0xDE180DE3 PUSH8 0xFFFFFFFFFFFFFFFF AND DUP9 PUSH8 0xFFFFFFFFFFFFFFFF AND SUB PUSH2 0x9DE JUMPI PUSH2 0x9D9 DUP7 PUSH2 0x228F JUMP JUMPDEST PUSH2 0xA19 JUMP JUMPDEST PUSH1 0x40 MLOAD PUSH32 0x8C379A000000000000000000000000000000000000000000000000000000000 DUP2 MSTORE PUSH1 0x4 ADD PUSH2 0xA10 SWAP1 PUSH2 0x55FB JUMP JUMPDEST PUSH1 0x40 MLOAD DUP1 SWAP2 SUB SWAP1 REVERT JUMPDEST JUMPDEST JUMPDEST PUSH1 0x0 DUP2 DUP4 SWAP5 POP SWAP5 POP SWAP5 POP POP POP SWAP4 POP SWAP4 POP SWAP4 SWAP1 POP JUMP JUMPDEST PUSH1 0x6 PUSH1 0x0 SWAP1 SLOAD SWAP1 PUSH2 0x100 EXP SWAP1 DIV PUSH20 0xFFFFFFFFFFFFFFFFFFFFFFFFFFFFFFFFFFFFFFFF AND DUP2 JUMP JUMPDEST PUSH2 0xA5E PUSH2 0x4564 JUMP JUMPDEST PUSH1 0x1 DUP3 DUP2 SLOAD DUP2 LT PUSH2 0xA72 JUMPI PUSH2 0xA71 PUSH2 0x561B JUMP JUMPDEST JUMPDEST SWAP1 PUSH1 0x0 MSTORE PUSH1 0x20 PUSH1 0x0 KECCAK256 SWAP1 PUSH1 0xA MUL ADD PUSH1 0x40 MLOAD DUP1 PUSH2 0x160 ADD PUSH1 0x40 MSTORE SWAP1 DUP2 PUSH1 0x0 DUP3 ADD DUP1 SLOAD PUSH2 0xA9C SWAP1 PUSH2 0x5558 JUMP JUMPDEST DUP1 PUSH1 0x1F ADD PUSH1 0x20 DUP1 SWAP2 DIV MUL PUSH1 0x20 ADD PUSH1 0x40 MLOAD SWAP1 DUP2 ADD PUSH1 0x40 MSTORE DUP1 SWAP3 SWAP2 SWAP1 DUP2 DUP2 MSTORE PUSH1 0x20 ADD DUP3 DUP1 SLOAD PUSH2 0xAC8 SWAP1 PUSH2 0x5558 JUMP JUMPDEST DUP1 ISZERO PUSH2 0xB15 JUMPI DUP1 PUSH1 0x1F LT PUSH2 0xAEA JUMPI PUSH2 0x100 DUP1 DUP4 SLOAD DIV MUL DUP4 MSTORE SWAP2 PUSH1 0x20 ADD SWAP2 PUSH2 0xB15 JUMP JUMPDEST DUP3 ADD SWAP2 SWAP1 PUSH1 0x0 MSTORE PUSH1 0x20 PUSH1 0x0 KECCAK256 SWAP1 JUMPDEST DUP2 SLOAD DUP2 MSTORE SWAP1 PUSH1 0x1 ADD SWAP1 PUSH1 0x20 ADD DUP1 DUP4 GT PUSH2 0xAF8 JUMPI DUP3 SWAP1 SUB PUSH1 0x1F AND DUP3 ADD SWAP2 JUMPDEST POP POP POP POP POP DUP2 MSTORE PUSH1 0x20 ADD PUSH1 0x1 DUP3 ADD PUSH1 0x0 SWAP1 SLOAD SWAP1 PUSH2 0x100 EXP SWAP1 DIV PUSH8 0xFFFFFFFFFFFFFFFF AND PUSH8 0xFFFFFFFFFFFFFFFF AND PUSH8 0xFFFFFFFFFFFFFFFF AND DUP2 MSTORE PUSH1 0x20 ADD PUSH1 0x1 DUP3 ADD PUSH1 0x8 SWAP1 SLOAD SWAP1 PUSH2 0x100 EXP SWAP1 DIV PUSH1 0xFF AND ISZERO ISZERO ISZERO ISZERO DUP2 MSTORE PUSH1 0x20 ADD PUSH1 0x2 DUP3 ADD DUP1 SLOAD PUSH2 0xB7B SWAP1 PUSH2 0x5558 JUMP JUMPDEST DUP1 PUSH1 0x1F ADD PUSH1 0x20 DUP1 SWAP2 DIV MUL PUSH1 0x20 ADD PUSH1 0x40 MLOAD SWAP1 DUP2 ADD PUSH1 0x40 MSTORE DUP1 SWAP3 SWAP2 SWAP1 DUP2 DUP2 MSTORE PUSH1 0x20 ADD DUP3 DUP1 SLOAD PUSH2 0xBA7 SWAP1 PUSH2 0x5558 JUMP JUMPDEST DUP1 ISZERO PUSH2 0xBF4 JUMPI DUP1 PUSH1 0x1F LT PUSH2 0xBC9 JUMPI PUSH2 0x100 DUP1 DUP4 SLOAD DIV MUL DUP4 MSTORE SWAP2 PUSH1 0x20 ADD SWAP2 PUSH2 0xBF4 JUMP JUMPDEST DUP3 ADD SWAP2 SWAP1 PUSH1 0x0 MSTORE PUSH1 0x20 PUSH1 0x0 KECCAK256 SWAP1 JUMPDEST DUP2 SLOAD DUP2 MSTORE SWAP1 PUSH1 0x1 ADD SWAP1 PUSH1 0x20 ADD DUP1 DUP4 GT PUSH2 0xBD7 JUMPI DUP3 SWAP1 SUB PUSH1 0x1F AND DUP3 ADD SWAP2 JUMPDEST POP POP POP POP POP DUP2 MSTORE PUSH1 0x20 ADD PUSH1 0x3 DUP3 ADD PUSH1 0x0 SWAP1 SLOAD SWAP1 PUSH2 0x100 EXP SWAP1 DIV PUSH1 0x7 SIGNEXTEND PUSH1 0x7 SIGNEXTEND PUSH1 0x7 SIGNEXTEND DUP2 MSTORE PUSH1 0x20 ADD PUSH1 0x3 DUP3 ADD PUSH1 0x8 SWAP1 SLOAD SWAP1 PUSH2 0x100 EXP SWAP1 DIV PUSH1 0x7 SIGNEXTEND PUSH1 0x7 SIGNEXTEND PUSH1 0x7 SIGNEXTEND DUP2 MSTORE PUSH1 0x20 ADD PUSH1 0x4 DUP3 ADD SLOAD DUP2 MSTORE PUSH1 0x20 ADD PUSH1 0x5 DUP3 ADD SLOAD DUP2 MSTORE PUSH1 0x20 ADD PUSH1 0x6 DUP3 ADD SLOAD DUP2 MSTORE PUSH1 0x20 ADD PUSH1 0x7 DUP3 ADD PUSH1 0x0 SWAP1 SLOAD SWAP1 PUSH2 0x100 EXP SWAP1 DIV PUSH8 0xFFFFFFFFFFFFFFFF AND PUSH8 0xFFFFFFFFFFFFFFFF AND PUSH8 0xFFFFFFFFFFFFFFFF AND DUP2 MSTORE PUSH1 0x20 ADD PUSH1 0x8 DUP3 ADD PUSH1 0x40 MLOAD DUP1 PUSH1 0x80 ADD PUSH1 0x40 MSTORE SWAP1 DUP2 PUSH1 0x0 DUP3 ADD DUP1 SLOAD PUSH2 0xCA7 SWAP1 PUSH2 0x5558 JUMP JUMPDEST DUP1 PUSH1 0x1F ADD PUSH1 0x20 DUP1 SWAP2 DIV MUL PUSH1 0x20 ADD PUSH1 0x40 MLOAD SWAP1 DUP2 ADD PUSH1 0x40 MSTORE DUP1 SWAP3 SWAP2 SWAP1 DUP2 DUP2 MSTORE PUSH1 0x20 ADD DUP3 DUP1 SLOAD PUSH2 0xCD3 SWAP1 PUSH2 0x5558 JUMP JUMPDEST DUP1 ISZERO PUSH2 0xD20 JUMPI DUP1 PUSH1 0x1F LT PUSH2 0xCF5 JUMPI PUSH2 0x100 DUP1 DUP4 SLOAD DIV MUL DUP4 MSTORE SWAP2 PUSH1 0x20 ADD SWAP2 PUSH2 0xD20 JUMP JUMPDEST DUP3 ADD SWAP2 SWAP1 PUSH1 0x0 MSTORE PUSH1 0x20 PUSH1 0x0 KECCAK256 SWAP1 JUMPDEST DUP2 SLOAD DUP2 MSTORE SWAP1 PUSH1 0x1 ADD SWAP1 PUSH1 0x20 ADD DUP1 DUP4 GT PUSH2 0xD03 JUMPI DUP3 SWAP1 SUB PUSH1 0x1F AND DUP3 ADD SWAP2 JUMPDEST POP POP POP POP POP DUP2 MSTORE PUSH1 0x20 ADD PUSH1 0x1 DUP3 ADD PUSH1 0x0 SWAP1 SLOAD SWAP1 PUSH2 0x100 EXP SWAP1 DIV PUSH8 0xFFFFFFFFFFFFFFFF AND PUSH8 0xFFFFFFFFFFFFFFFF AND PUSH8 0xFFFFFFFFFFFFFFFF AND DUP2 MSTORE PUSH1 0x20 ADD PUSH1 0x1 DUP3 ADD PUSH1 0x8 SWAP1 SLOAD SWAP1 PUSH2 0x100 EXP SWAP1 DIV PUSH1 0xFF AND ISZERO ISZERO ISZERO ISZERO DUP2 MSTORE PUSH1 0x20 ADD PUSH1 0x1 DUP3 ADD PUSH1 0x9 SWAP1 SLOAD SWAP1 PUSH2 0x100 EXP SWAP1 DIV PUSH1 0xFF AND ISZERO ISZERO ISZERO ISZERO DUP2 MSTORE POP POP DUP2 MSTORE POP POP SWAP1 POP SWAP2 SWAP1 POP JUMP JUMPDEST PUSH1 0x5 DUP2 DUP1 MLOAD PUSH1 0x20 DUP2 ADD DUP3 ADD DUP1 MLOAD DUP5 DUP3 MSTORE PUSH1 0x20 DUP4 ADD PUSH1 0x20 DUP6 ADD KECCAK256 DUP2 DUP4 MSTORE DUP1 SWAP6 POP POP POP POP POP POP PUSH1 0x0 SWAP2 POP SLOAD SWAP1 PUSH2 0x100 EXP SWAP1 DIV PUSH1 0xFF AND DUP2 JUMP JUMPDEST PUSH4 0xDE180DE3 DUP2 JUMP JUMPDEST PUSH1 0x1 DUP2 DUP2 SLOAD DUP2 LT PUSH2 0xDEA JUMPI PUSH1 0x0 DUP1 REVERT JUMPDEST SWAP1 PUSH1 0x0 MSTORE PUSH1 0x20 PUSH1 0x0 KECCAK256 SWAP1 PUSH1 0xA MUL ADD PUSH1 0x0 SWAP2 POP SWAP1 POP DUP1 PUSH1 0x0 ADD DUP1 SLOAD PUSH2 0xE0D SWAP1 PUSH2 0x5558 JUMP JUMPDEST DUP1 PUSH1 0x1F ADD PUSH1 0x20 DUP1 SWAP2 DIV MUL PUSH1 0x20 ADD PUSH1 0x40 MLOAD SWAP1 DUP2 ADD PUSH1 0x40 MSTORE DUP1 SWAP3 SWAP2 SWAP1 DUP2 DUP2 MSTORE PUSH1 0x20 ADD DUP3 DUP1 SLOAD PUSH2 0xE39 SWAP1 PUSH2 0x5558 JUMP JUMPDEST DUP1 ISZERO PUSH2 0xE86 JUMPI DUP1 PUSH1 0x1F LT PUSH2 0xE5B JUMPI PUSH2 0x100 DUP1 DUP4 SLOAD DIV MUL DUP4 MSTORE SWAP2 PUSH1 0x20 ADD SWAP2 PUSH2 0xE86 JUMP JUMPDEST DUP3 ADD SWAP2 SWAP1 PUSH1 0x0 MSTORE PUSH1 0x20 PUSH1 0x0 KECCAK256 SWAP1 JUMPDEST DUP2 SLOAD DUP2 MSTORE SWAP1 PUSH1 0x1 ADD SWAP1 PUSH1 0x20 ADD DUP1 DUP4 GT PUSH2 0xE69 JUMPI DUP3 SWAP1 SUB PUSH1 0x1F AND DUP3 ADD SWAP2 JUMPDEST POP POP POP POP POP SWAP1 DUP1 PUSH1 0x1 ADD PUSH1 0x0 SWAP1 SLOAD SWAP1 PUSH2 0x100 EXP SWAP1 DIV PUSH8 0xFFFFFFFFFFFFFFFF AND SWAP1 DUP1 PUSH1 0x1 ADD PUSH1 0x8 SWAP1 SLOAD SWAP1 PUSH2 0x100 EXP SWAP1 DIV PUSH1 0xFF AND SWAP1 DUP1 PUSH1 0x2 ADD DUP1 SLOAD PUSH2 0xEC8 SWAP1 PUSH2 0x5558 JUMP JUMPDEST DUP1 PUSH1 0x1F ADD PUSH1 0x20 DUP1 SWAP2 DIV MUL PUSH1 0x20 ADD PUSH1 0x40 MLOAD SWAP1 DUP2 ADD PUSH1 0x40 MSTORE DUP1 SWAP3 SWAP2 SWAP1 DUP2 DUP2 MSTORE PUSH1 0x20 ADD DUP3 DUP1 SLOAD PUSH2 0xEF4 SWAP1 PUSH2 0x5558 JUMP JUMPDEST DUP1 ISZERO PUSH2 0xF41 JUMPI DUP1 PUSH1 0x1F LT PUSH2 0xF16 JUMPI PUSH2 0x100 DUP1 DUP4 SLOAD DIV MUL DUP4 MSTORE SWAP2 PUSH1 0x20 ADD SWAP2 PUSH2 0xF41 JUMP JUMPDEST DUP3 ADD SWAP2 SWAP1 PUSH1 0x0 MSTORE PUSH1 0x20 PUSH1 0x0 KECCAK256 SWAP1 JUMPDEST DUP2 SLOAD DUP2 MSTORE SWAP1 PUSH1 0x1 ADD SWAP1 PUSH1 0x20 ADD DUP1 DUP4 GT PUSH2 0xF24 JUMPI DUP3 SWAP1 SUB PUSH1 0x1F AND DUP3 ADD SWAP2 JUMPDEST POP POP POP POP POP SWAP1 DUP1 PUSH1 0x3 ADD PUSH1 0x0 SWAP1 SLOAD SWAP1 PUSH2 0x100 EXP SWAP1 DIV PUSH1 0x7 SIGNEXTEND SWAP1 DUP1 PUSH1 0x3 ADD PUSH1 0x8 SWAP1 SLOAD SWAP1 PUSH2 0x100 EXP SWAP1 DIV PUSH1 0x7 SIGNEXTEND SWAP1 DUP1 PUSH1 0x4 ADD SLOAD SWAP1 DUP1 PUSH1 0x5 ADD SLOAD SWAP1 DUP1 PUSH1 0x6 ADD SLOAD SWAP1 DUP1 PUSH1 0x7 ADD PUSH1 0x0 SWAP1 SLOAD SWAP1 PUSH2 0x100 EXP SWAP1 DIV PUSH8 0xFFFFFFFFFFFFFFFF AND SWAP1 DUP1 PUSH1 0x8 ADD PUSH1 0x40 MLOAD DUP1 PUSH1 0x80 ADD PUSH1 0x40 MSTORE SWAP1 DUP2 PUSH1 0x0 DUP3 ADD DUP1 SLOAD PUSH2 0xFB8 SWAP1 PUSH2 0x5558 JUMP JUMPDEST DUP1 PUSH1 0x1F ADD PUSH1 0x20 DUP1 SWAP2 DIV MUL PUSH1 0x20 ADD PUSH1 0x40 MLOAD SWAP1 DUP2 ADD PUSH1 0x40 MSTORE DUP1 SWAP3 SWAP2 SWAP1 DUP2 DUP2 MSTORE PUSH1 0x20 ADD DUP3 DUP1 SLOAD PUSH2 0xFE4 SWAP1 PUSH2 0x5558 JUMP JUMPDEST DUP1 ISZERO PUSH2 0x1031 JUMPI DUP1 PUSH1 0x1F LT PUSH2 0x1006 JUMPI PUSH2 0x100 DUP1 DUP4 SLOAD DIV MUL DUP4 MSTORE SWAP2 PUSH1 0x20 ADD SWAP2 PUSH2 0x1031 JUMP JUMPDEST DUP3 ADD SWAP2 SWAP1 PUSH1 0x0 MSTORE PUSH1 0x20 PUSH1 0x0 KECCAK256 SWAP1 JUMPDEST DUP2 SLOAD DUP2 MSTORE SWAP1 PUSH1 0x1 ADD SWAP1 PUSH1 0x20 ADD DUP1 DUP4 GT PUSH2 0x1014 JUMPI DUP3 SWAP1 SUB PUSH1 0x1F AND DUP3 ADD SWAP2 JUMPDEST POP POP POP POP POP DUP2 MSTORE PUSH1 0x20 ADD PUSH1 0x1 DUP3 ADD PUSH1 0x0 SWAP1 SLOAD SWAP1 PUSH2 0x100 EXP SWAP1 DIV PUSH8 0xFFFFFFFFFFFFFFFF AND PUSH8 0xFFFFFFFFFFFFFFFF AND PUSH8 0xFFFFFFFFFFFFFFFF AND DUP2 MSTORE PUSH1 0x20 ADD PUSH1 0x1 DUP3 ADD PUSH1 0x8 SWAP1 SLOAD SWAP1 PUSH2 0x100 EXP SWAP1 DIV PUSH1 0xFF AND ISZERO ISZERO ISZERO ISZERO DUP2 MSTORE PUSH1 0x20 ADD PUSH1 0x1 DUP3 ADD PUSH1 0x9 SWAP1 SLOAD SWAP1 PUSH2 0x100 EXP SWAP1 DIV PUSH1 0xFF AND ISZERO ISZERO ISZERO ISZERO DUP2 MSTORE POP POP SWAP1 POP DUP12 JUMP JUMPDEST PUSH20 0xFF00000000000000000000000000000000000007 DUP2 JUMP JUMPDEST PUSH1 0x6 PUSH1 0x0 SWAP1 SLOAD SWAP1 PUSH2 0x100 EXP SWAP1 DIV PUSH20 0xFFFFFFFFFFFFFFFFFFFFFFFFFFFFFFFFFFFFFFFF AND PUSH20 0xFFFFFFFFFFFFFFFFFFFFFFFFFFFFFFFFFFFFFFFF AND CALLER PUSH20 0xFFFFFFFFFFFFFFFFFFFFFFFFFFFFFFFFFFFFFFFF AND EQ PUSH2 0x1119 JUMPI PUSH1 0x0 DUP1 REVERT JUMPDEST PUSH2 0x112B PUSH2 0x1125 ADDRESS PUSH2 0x16E4 JUMP JUMPDEST DUP3 PUSH2 0x2349 JUMP JUMPDEST POP JUMP JUMPDEST PUSH1 0x0 PUSH1 0x6 PUSH1 0x0 SWAP1 SLOAD SWAP1 PUSH2 0x100 EXP SWAP1 DIV PUSH20 0xFFFFFFFFFFFFFFFFFFFFFFFFFFFFFFFFFFFFFFFF AND PUSH20 0xFFFFFFFFFFFFFFFFFFFFFFFFFFFFFFFFFFFFFFFF AND CALLER PUSH20 0xFFFFFFFFFFFFFFFFFFFFFFFFFFFFFFFFFFFFFFFF AND EQ PUSH2 0x118A JUMPI PUSH1 0x0 DUP1 REVERT JUMPDEST PUSH1 0x2 PUSH1 0x4 DUP2 GT ISZERO PUSH2 0x119E JUMPI PUSH2 0x119D PUSH2 0x50E6 JUMP JUMPDEST JUMPDEST PUSH1 0x5 DUP4 DUP1 PUSH1 0x0 ADD SWAP1 PUSH2 0x11B0 SWAP2 SWAP1 PUSH2 0x5659 JUMP JUMPDEST PUSH1 0x40 MLOAD PUSH2 0x11BE SWAP3 SWAP2 SWAP1 PUSH2 0x5510 JUMP JUMPDEST SWAP1 DUP2 MSTORE PUSH1 0x20 ADD PUSH1 0x40 MLOAD DUP1 SWAP2 SUB SWAP1 KECCAK256 PUSH1 0x0 SWAP1 SLOAD SWAP1 PUSH2 0x100 EXP SWAP1 DIV PUSH1 0xFF AND PUSH1 0x4 DUP2 GT ISZERO PUSH2 0x11EC JUMPI PUSH2 0x11EB PUSH2 0x50E6 JUMP JUMPDEST JUMPDEST EQ DUP1 PUSH2 0x1257 JUMPI POP PUSH1 0x3 PUSH1 0x4 DUP2 GT ISZERO PUSH2 0x1207 JUMPI PUSH2 0x1206 PUSH2 0x50E6 JUMP JUMPDEST JUMPDEST PUSH1 0x5 DUP4 DUP1 PUSH1 0x0 ADD SWAP1 PUSH2 0x1219 SWAP2 SWAP1 PUSH2 0x5659 JUMP JUMPDEST PUSH1 0x40 MLOAD PUSH2 0x1227 SWAP3 SWAP2 SWAP1 PUSH2 0x5510 JUMP JUMPDEST SWAP1 DUP2 MSTORE PUSH1 0x20 ADD PUSH1 0x40 MLOAD DUP1 SWAP2 SUB SWAP1 KECCAK256 PUSH1 0x0 SWAP1 SLOAD SWAP1 PUSH2 0x100 EXP SWAP1 DIV PUSH1 0xFF AND PUSH1 0x4 DUP2 GT ISZERO PUSH2 0x1255 JUMPI PUSH2 0x1254 PUSH2 0x50E6 JUMP JUMPDEST JUMPDEST EQ JUMPDEST ISZERO PUSH2 0x1297 JUMPI PUSH1 0x40 MLOAD PUSH32 0x8C379A000000000000000000000000000000000000000000000000000000000 DUP2 MSTORE PUSH1 0x4 ADD PUSH2 0x128E SWAP1 PUSH2 0x572E JUMP JUMPDEST PUSH1 0x40 MLOAD DUP1 SWAP2 SUB SWAP1 REVERT JUMPDEST PUSH1 0x0 PUSH1 0x1 DUP1 SLOAD SWAP1 POP SWAP1 POP PUSH1 0x1 DUP4 SWAP1 DUP1 PUSH1 0x1 DUP2 SLOAD ADD DUP1 DUP3 SSTORE DUP1 SWAP2 POP POP PUSH1 0x1 SWAP1 SUB SWAP1 PUSH1 0x0 MSTORE PUSH1 0x20 PUSH1 0x0 KECCAK256 SWAP1 PUSH1 0xA MUL ADD PUSH1 0x0 SWAP1 SWAP2 SWAP1 SWAP2 SWAP1 SWAP2 POP DUP2 DUP2 PUSH2 0x12D9 SWAP2 SWAP1 PUSH2 0x60A4 JUMP JUMPDEST POP POP PUSH1 0x0 TIMESTAMP CALLER DUP4 PUSH1 0x40 MLOAD PUSH1 0x20 ADD PUSH2 0x12F2 SWAP4 SWAP3 SWAP2 SWAP1 PUSH2 0x611B JUMP JUMPDEST PUSH1 0x40 MLOAD PUSH1 0x20 DUP2 DUP4 SUB SUB DUP2 MSTORE SWAP1 PUSH1 0x40 MSTORE DUP1 MLOAD SWAP1 PUSH1 0x20 ADD KECCAK256 SWAP1 POP PUSH1 0x40 MLOAD DUP1 PUSH1 0x40 ADD PUSH1 0x40 MSTORE DUP1 DUP4 DUP2 MSTORE PUSH1 0x20 ADD PUSH1 0x1 ISZERO ISZERO DUP2 MSTORE POP PUSH1 0x0 DUP1 DUP4 DUP2 MSTORE PUSH1 0x20 ADD SWAP1 DUP2 MSTORE PUSH1 0x20 ADD PUSH1 0x0 KECCAK256 PUSH1 0x0 DUP3 ADD MLOAD DUP2 PUSH1 0x0 ADD SSTORE PUSH1 0x20 DUP3 ADD MLOAD DUP2 PUSH1 0x1 ADD PUSH1 0x0 PUSH2 0x100 EXP DUP2 SLOAD DUP2 PUSH1 0xFF MUL NOT AND SWAP1 DUP4 ISZERO ISZERO MUL OR SWAP1 SSTORE POP SWAP1 POP POP PUSH1 0x40 MLOAD DUP1 PUSH1 0x40 ADD PUSH1 0x40 MSTORE DUP1 DUP3 DUP2 MSTORE PUSH1 0x20 ADD PUSH1 0x1 ISZERO ISZERO DUP2 MSTORE POP PUSH1 0x2 DUP6 DUP1 PUSH1 0x0 ADD SWAP1 PUSH2 0x138B SWAP2 SWAP1 PUSH2 0x5659 JUMP JUMPDEST PUSH1 0x40 MLOAD PUSH2 0x1399 SWAP3 SWAP2 SWAP1 PUSH2 0x5510 JUMP JUMPDEST SWAP1 DUP2 MSTORE PUSH1 0x20 ADD PUSH1 0x40 MLOAD DUP1 SWAP2 SUB SWAP1 KECCAK256 PUSH1 0x0 DUP3 ADD MLOAD DUP2 PUSH1 0x0 ADD SSTORE PUSH1 0x20 DUP3 ADD MLOAD DUP2 PUSH1 0x1 ADD PUSH1 0x0 PUSH2 0x100 EXP DUP2 SLOAD DUP2 PUSH1 0xFF MUL NOT AND SWAP1 DUP4 ISZERO ISZERO MUL OR SWAP1 SSTORE POP SWAP1 POP POP PUSH1 0x1 PUSH1 0x5 DUP6 DUP1 PUSH1 0x0 ADD SWAP1 PUSH2 0x13E8 SWAP2 SWAP1 PUSH2 0x5659 JUMP JUMPDEST PUSH1 0x40 MLOAD PUSH2 0x13F6 SWAP3 SWAP2 SWAP1 PUSH2 0x5510 JUMP JUMPDEST SWAP1 DUP2 MSTORE PUSH1 0x20 ADD PUSH1 0x40 MLOAD DUP1 SWAP2 SUB SWAP1 KECCAK256 PUSH1 0x0 PUSH2 0x100 EXP DUP2 SLOAD DUP2 PUSH1 0xFF MUL NOT AND SWAP1 DUP4 PUSH1 0x4 DUP2 GT ISZERO PUSH2 0x1426 JUMPI PUSH2 0x1425 PUSH2 0x50E6 JUMP JUMPDEST JUMPDEST MUL OR SWAP1 SSTORE POP DUP4 PUSH1 0x40 ADD PUSH1 0x20 DUP2 ADD SWAP1 PUSH2 0x143E SWAP2 SWAP1 PUSH2 0x616D JUMP JUMPDEST ISZERO ISZERO DUP2 PUSH32 0xFD6419D07E4C269E58D0C63969756C2124155B4A8D6DD08B8CD46E3A9ACBF625 DUP7 PUSH1 0x20 ADD PUSH1 0x20 DUP2 ADD SWAP1 PUSH2 0x1475 SWAP2 SWAP1 PUSH2 0x619A JUMP JUMPDEST DUP8 PUSH1 0xC0 ADD CALLDATALOAD PUSH1 0x40 MLOAD PUSH2 0x1488 SWAP3 SWAP2 SWAP1 PUSH2 0x61C7 JUMP JUMPDEST PUSH1 0x40 MLOAD DUP1 SWAP2 SUB SWAP1 LOG3 DUP1 SWAP3 POP POP POP SWAP2 SWAP1 POP JUMP JUMPDEST PUSH2 0x14A2 PUSH2 0x45E0 JUMP JUMPDEST PUSH1 0x2 DUP4 DUP4 PUSH1 0x40 MLOAD PUSH2 0x14B4 SWAP3 SWAP2 SWAP1 PUSH2 0x5510 JUMP JUMPDEST SWAP1 DUP2 MSTORE PUSH1 0x20 ADD PUSH1 0x40 MLOAD DUP1 SWAP2 SUB SWAP1 KECCAK256 PUSH1 0x40 MLOAD DUP1 PUSH1 0x40 ADD PUSH1 0x40 MSTORE SWAP1 DUP2 PUSH1 0x0 DUP3 ADD SLOAD DUP2 MSTORE PUSH1 0x20 ADD PUSH1 0x1 DUP3 ADD PUSH1 0x0 SWAP1 SLOAD SWAP1 PUSH2 0x100 EXP SWAP1 DIV PUSH1 0xFF AND ISZERO ISZERO ISZERO ISZERO DUP2 MSTORE POP POP SWAP1 POP SWAP3 SWAP2 POP POP JUMP JUMPDEST PUSH1 0x60 PUSH1 0x0 PUSH2 0x1507 DUP4 PUSH2 0x17DB JUMP JUMPDEST SWAP1 POP PUSH2 0x1511 PUSH2 0x45FF JUMP JUMPDEST PUSH1 0x40 MLOAD DUP1 PUSH1 0x20 ADD PUSH1 0x40 MSTORE DUP1 DUP4 PUSH1 0x0 ADD MLOAD DUP2 MSTORE POP DUP2 PUSH1 0x0 ADD DUP2 SWAP1 MSTORE POP DUP2 PUSH1 0x20 ADD MLOAD DUP2 PUSH1 0x20 ADD SWAP1 PUSH8 0xFFFFFFFFFFFFFFFF AND SWAP1 DUP2 PUSH8 0xFFFFFFFFFFFFFFFF AND DUP2 MSTORE POP POP DUP2 PUSH1 0x40 ADD MLOAD DUP2 PUSH1 0x40 ADD SWAP1 ISZERO ISZERO SWAP1 DUP2 ISZERO ISZERO DUP2 MSTORE POP POP PUSH2 0x156D ADDRESS PUSH2 0x16E4 JUMP JUMPDEST DUP2 PUSH1 0x60 ADD DUP2 SWAP1 MSTORE POP PUSH2 0x157F PUSH1 0x0 PUSH2 0x23B0 JUMP JUMPDEST DUP2 PUSH1 0x80 ADD DUP2 SWAP1 MSTORE POP DUP2 PUSH1 0x60 ADD MLOAD DUP2 PUSH1 0xA0 ADD DUP2 SWAP1 MSTORE POP DUP2 PUSH1 0x80 ADD MLOAD DUP2 PUSH1 0xC0 ADD SWAP1 PUSH1 0x7 SIGNEXTEND SWAP1 DUP2 PUSH1 0x7 SIGNEXTEND DUP2 MSTORE POP POP DUP2 PUSH1 0xA0 ADD MLOAD DUP2 PUSH1 0xE0 ADD SWAP1 PUSH1 0x7 SIGNEXTEND SWAP1 DUP2 PUSH1 0x7 SIGNEXTEND DUP2 MSTORE POP POP PUSH2 0x15CD DUP3 PUSH1 0xC0 ADD MLOAD PUSH2 0x1721 JUMP JUMPDEST DUP2 PUSH2 0x100 ADD DUP2 SWAP1 MSTORE POP PUSH2 0x15E3 DUP3 PUSH1 0xE0 ADD MLOAD PUSH2 0x1721 JUMP JUMPDEST DUP2 PUSH2 0x120 ADD DUP2 SWAP1 MSTORE POP PUSH2 0x15FA DUP3 PUSH2 0x100 ADD MLOAD PUSH2 0x1721 JUMP JUMPDEST DUP2 PUSH2 0x140 ADD DUP2 SWAP1 MSTORE POP PUSH2 0x160C DUP2 PUSH2 0x23FF JUMP JUMPDEST SWAP3 POP POP POP SWAP2 SWAP1 POP JUMP JUMPDEST PUSH1 0x3 DUP2 DUP1 MLOAD PUSH1 0x20 DUP2 ADD DUP3 ADD DUP1 MLOAD DUP5 DUP3 MSTORE PUSH1 0x20 DUP4 ADD PUSH1 0x20 DUP6 ADD KECCAK256 DUP2 DUP4 MSTORE DUP1 SWAP6 POP POP POP POP POP POP PUSH1 0x0 SWAP2 POP SWAP1 POP DUP1 PUSH1 0x0 ADD DUP1 SLOAD PUSH2 0x164E SWAP1 PUSH2 0x5558 JUMP JUMPDEST DUP1 PUSH1 0x1F ADD PUSH1 0x20 DUP1 SWAP2 DIV MUL PUSH1 0x20 ADD PUSH1 0x40 MLOAD SWAP1 DUP2 ADD PUSH1 0x40 MSTORE DUP1 SWAP3 SWAP2 SWAP1 DUP2 DUP2 MSTORE PUSH1 0x20 ADD DUP3 DUP1 SLOAD PUSH2 0x167A SWAP1 PUSH2 0x5558 JUMP JUMPDEST DUP1 ISZERO PUSH2 0x16C7 JUMPI DUP1 PUSH1 0x1F LT PUSH2 0x169C JUMPI PUSH2 0x100 DUP1 DUP4 SLOAD DIV MUL DUP4 MSTORE SWAP2 PUSH1 0x20 ADD SWAP2 PUSH2 0x16C7 JUMP JUMPDEST DUP3 ADD SWAP2 SWAP1 PUSH1 0x0 MSTORE PUSH1 0x20 PUSH1 0x0 KECCAK256 SWAP1 JUMPDEST DUP2 SLOAD DUP2 MSTORE SWAP1 PUSH1 0x1 ADD SWAP1 PUSH1 0x20 ADD DUP1 DUP4 GT PUSH2 0x16AA JUMPI DUP3 SWAP1 SUB PUSH1 0x1F AND DUP3 ADD SWAP2 JUMPDEST POP POP POP POP POP SWAP1 DUP1 PUSH1 0x1 ADD PUSH1 0x0 SWAP1 SLOAD SWAP1 PUSH2 0x100 EXP SWAP1 DIV PUSH1 0xFF AND SWAP1 POP DUP3 JUMP JUMPDEST PUSH2 0x16EC PUSH2 0x468F JUMP JUMPDEST PUSH1 0x40 MLOAD DUP1 PUSH1 0x20 ADD PUSH1 0x40 MSTORE DUP1 DUP4 PUSH1 0x40 MLOAD PUSH1 0x20 ADD PUSH2 0x1708 SWAP2 SWAP1 PUSH2 0x6247 JUMP JUMPDEST PUSH1 0x40 MLOAD PUSH1 0x20 DUP2 DUP4 SUB SUB DUP2 MSTORE SWAP1 PUSH1 0x40 MSTORE DUP2 MSTORE POP SWAP1 POP SWAP2 SWAP1 POP JUMP JUMPDEST PUSH2 0x1729 PUSH2 0x46A2 JUMP JUMPDEST PUSH1 0x0 PUSH2 0x1736 DUP4 PUSH1 0x0 PUSH2 0x2577 JUMP JUMPDEST SWAP1 POP PUSH1 0x0 PUSH1 0x40 MLOAD DUP1 PUSH1 0x40 ADD PUSH1 0x40 MSTORE DUP1 DUP4 PUSH1 0x0 ADD MLOAD DUP2 MSTORE PUSH1 0x20 ADD DUP4 PUSH1 0x20 ADD MLOAD ISZERO ISZERO DUP2 MSTORE POP SWAP1 POP DUP1 SWAP3 POP POP POP SWAP2 SWAP1 POP JUMP JUMPDEST PUSH2 0x176D PUSH2 0x46A2 JUMP JUMPDEST PUSH1 0x0 PUSH2 0x1778 DUP4 PUSH2 0x25B2 JUMP JUMPDEST SWAP1 POP PUSH1 0x0 PUSH2 0x1791 PUSH1 0x5 PUSH4 0x87ED0A64 PUSH1 0x51 DUP6 PUSH1 0x0 DUP1 PUSH2 0x2621 JUMP JUMPDEST SWAP1 POP PUSH2 0x179C DUP2 PUSH2 0x2776 JUMP JUMPDEST SWAP3 POP POP POP SWAP2 SWAP1 POP JUMP JUMPDEST PUSH1 0x0 DUP1 PUSH2 0x17BA DUP4 PUSH1 0x0 ADD MLOAD DUP5 PUSH1 0x20 ADD MLOAD PUSH2 0x2832 JUMP JUMPDEST SWAP1 POP PUSH1 0x0 DUP2 PUSH1 0x0 ADD MLOAD PUSH2 0x17CC SWAP1 PUSH2 0x6292 JUMP JUMPDEST PUSH1 0x0 SHR SWAP1 POP DUP1 SWAP3 POP POP POP SWAP2 SWAP1 POP JUMP JUMPDEST PUSH2 0x17E3 PUSH2 0x4564 JUMP JUMPDEST PUSH1 0x0 DUP1 PUSH1 0x0 DUP5 DUP2 MSTORE PUSH1 0x20 ADD SWAP1 DUP2 MSTORE PUSH1 0x20 ADD PUSH1 0x0 KECCAK256 PUSH1 0x40 MLOAD DUP1 PUSH1 0x40 ADD PUSH1 0x40 MSTORE SWAP1 DUP2 PUSH1 0x0 DUP3 ADD SLOAD DUP2 MSTORE PUSH1 0x20 ADD PUSH1 0x1 DUP3 ADD PUSH1 0x0 SWAP1 SLOAD SWAP1 PUSH2 0x100 EXP SWAP1 DIV PUSH1 0xFF AND ISZERO ISZERO ISZERO ISZERO DUP2 MSTORE POP POP SWAP1 POP DUP1 PUSH1 0x20 ADD MLOAD PUSH2 0x186D JUMPI PUSH1 0x40 MLOAD PUSH32 0x8C379A000000000000000000000000000000000000000000000000000000000 DUP2 MSTORE PUSH1 0x4 ADD PUSH2 0x1864 SWAP1 PUSH2 0x6345 JUMP JUMPDEST PUSH1 0x40 MLOAD DUP1 SWAP2 SUB SWAP1 REVERT JUMPDEST PUSH1 0x1 DUP2 PUSH1 0x0 ADD MLOAD DUP2 SLOAD DUP2 LT PUSH2 0x1885 JUMPI PUSH2 0x1884 PUSH2 0x561B JUMP JUMPDEST JUMPDEST SWAP1 PUSH1 0x0 MSTORE PUSH1 0x20 PUSH1 0x0 KECCAK256 SWAP1 PUSH1 0xA MUL ADD PUSH1 0x40 MLOAD DUP1 PUSH2 0x160 ADD PUSH1 0x40 MSTORE SWAP1 DUP2 PUSH1 0x0 DUP3 ADD DUP1 SLOAD PUSH2 0x18AF SWAP1 PUSH2 0x5558 JUMP JUMPDEST DUP1 PUSH1 0x1F ADD PUSH1 0x20 DUP1 SWAP2 DIV MUL PUSH1 0x20 ADD PUSH1 0x40 MLOAD SWAP1 DUP2 ADD PUSH1 0x40 MSTORE DUP1 SWAP3 SWAP2 SWAP1 DUP2 DUP2 MSTORE PUSH1 0x20 ADD DUP3 DUP1 SLOAD PUSH2 0x18DB SWAP1 PUSH2 0x5558 JUMP JUMPDEST DUP1 ISZERO PUSH2 0x1928 JUMPI DUP1 PUSH1 0x1F LT PUSH2 0x18FD JUMPI PUSH2 0x100 DUP1 DUP4 SLOAD DIV MUL DUP4 MSTORE SWAP2 PUSH1 0x20 ADD SWAP2 PUSH2 0x1928 JUMP JUMPDEST DUP3 ADD SWAP2 SWAP1 PUSH1 0x0 MSTORE PUSH1 0x20 PUSH1 0x0 KECCAK256 SWAP1 JUMPDEST DUP2 SLOAD DUP2 MSTORE SWAP1 PUSH1 0x1 ADD SWAP1 PUSH1 0x20 ADD DUP1 DUP4 GT PUSH2 0x190B JUMPI DUP3 SWAP1 SUB PUSH1 0x1F AND DUP3 ADD SWAP2 JUMPDEST POP POP POP POP POP DUP2 MSTORE PUSH1 0x20 ADD PUSH1 0x1 DUP3 ADD PUSH1 0x0 SWAP1 SLOAD SWAP1 PUSH2 0x100 EXP SWAP1 DIV PUSH8 0xFFFFFFFFFFFFFFFF AND PUSH8 0xFFFFFFFFFFFFFFFF AND PUSH8 0xFFFFFFFFFFFFFFFF AND DUP2 MSTORE PUSH1 0x20 ADD PUSH1 0x1 DUP3 ADD PUSH1 0x8 SWAP1 SLOAD SWAP1 PUSH2 0x100 EXP SWAP1 DIV PUSH1 0xFF AND ISZERO ISZERO ISZERO ISZERO DUP2 MSTORE PUSH1 0x20 ADD PUSH1 0x2 DUP3 ADD DUP1 SLOAD PUSH2 0x198E SWAP1 PUSH2 0x5558 JUMP JUMPDEST DUP1 PUSH1 0x1F ADD PUSH1 0x20 DUP1 SWAP2 DIV MUL PUSH1 0x20 ADD PUSH1 0x40 MLOAD SWAP1 DUP2 ADD PUSH1 0x40 MSTORE DUP1 SWAP3 SWAP2 SWAP1 DUP2 DUP2 MSTORE PUSH1 0x20 ADD DUP3 DUP1 SLOAD PUSH2 0x19BA SWAP1 PUSH2 0x5558 JUMP JUMPDEST DUP1 ISZERO PUSH2 0x1A07 JUMPI DUP1 PUSH1 0x1F LT PUSH2 0x19DC JUMPI PUSH2 0x100 DUP1 DUP4 SLOAD DIV MUL DUP4 MSTORE SWAP2 PUSH1 0x20 ADD SWAP2 PUSH2 0x1A07 JUMP JUMPDEST DUP3 ADD SWAP2 SWAP1 PUSH1 0x0 MSTORE PUSH1 0x20 PUSH1 0x0 KECCAK256 SWAP1 JUMPDEST DUP2 SLOAD DUP2 MSTORE SWAP1 PUSH1 0x1 ADD SWAP1 PUSH1 0x20 ADD DUP1 DUP4 GT PUSH2 0x19EA JUMPI DUP3 SWAP1 SUB PUSH1 0x1F AND DUP3 ADD SWAP2 JUMPDEST POP POP POP POP POP DUP2 MSTORE PUSH1 0x20 ADD PUSH1 0x3 DUP3 ADD PUSH1 0x0 SWAP1 SLOAD SWAP1 PUSH2 0x100 EXP SWAP1 DIV PUSH1 0x7 SIGNEXTEND PUSH1 0x7 SIGNEXTEND PUSH1 0x7 SIGNEXTEND DUP2 MSTORE PUSH1 0x20 ADD PUSH1 0x3 DUP3 ADD PUSH1 0x8 SWAP1 SLOAD SWAP1 PUSH2 0x100 EXP SWAP1 DIV PUSH1 0x7 SIGNEXTEND PUSH1 0x7 SIGNEXTEND PUSH1 0x7 SIGNEXTEND DUP2 MSTORE PUSH1 0x20 ADD PUSH1 0x4 DUP3 ADD SLOAD DUP2 MSTORE PUSH1 0x20 ADD PUSH1 0x5 DUP3 ADD SLOAD DUP2 MSTORE PUSH1 0x20 ADD PUSH1 0x6 DUP3 ADD SLOAD DUP2 MSTORE PUSH1 0x20 ADD PUSH1 0x7 DUP3 ADD PUSH1 0x0 SWAP1 SLOAD SWAP1 PUSH2 0x100 EXP SWAP1 DIV PUSH8 0xFFFFFFFFFFFFFFFF AND PUSH8 0xFFFFFFFFFFFFFFFF AND PUSH8 0xFFFFFFFFFFFFFFFF AND DUP2 MSTORE PUSH1 0x20 ADD PUSH1 0x8 DUP3 ADD PUSH1 0x40 MLOAD DUP1 PUSH1 0x80 ADD PUSH1 0x40 MSTORE SWAP1 DUP2 PUSH1 0x0 DUP3 ADD DUP1 SLOAD PUSH2 0x1ABA SWAP1 PUSH2 0x5558 JUMP JUMPDEST DUP1 PUSH1 0x1F ADD PUSH1 0x20 DUP1 SWAP2 DIV MUL PUSH1 0x20 ADD PUSH1 0x40 MLOAD SWAP1 DUP2 ADD PUSH1 0x40 MSTORE DUP1 SWAP3 SWAP2 SWAP1 DUP2 DUP2 MSTORE PUSH1 0x20 ADD DUP3 DUP1 SLOAD PUSH2 0x1AE6 SWAP1 PUSH2 0x5558 JUMP JUMPDEST DUP1 ISZERO PUSH2 0x1B33 JUMPI DUP1 PUSH1 0x1F LT PUSH2 0x1B08 JUMPI PUSH2 0x100 DUP1 DUP4 SLOAD DIV MUL DUP4 MSTORE SWAP2 PUSH1 0x20 ADD SWAP2 PUSH2 0x1B33 JUMP JUMPDEST DUP3 ADD SWAP2 SWAP1 PUSH1 0x0 MSTORE PUSH1 0x20 PUSH1 0x0 KECCAK256 SWAP1 JUMPDEST DUP2 SLOAD DUP2 MSTORE SWAP1 PUSH1 0x1 ADD SWAP1 PUSH1 0x20 ADD DUP1 DUP4 GT PUSH2 0x1B16 JUMPI DUP3 SWAP1 SUB PUSH1 0x1F AND DUP3 ADD SWAP2 JUMPDEST POP POP POP POP POP DUP2 MSTORE PUSH1 0x20 ADD PUSH1 0x1 DUP3 ADD PUSH1 0x0 SWAP1 SLOAD SWAP1 PUSH2 0x100 EXP SWAP1 DIV PUSH8 0xFFFFFFFFFFFFFFFF AND PUSH8 0xFFFFFFFFFFFFFFFF AND PUSH8 0xFFFFFFFFFFFFFFFF AND DUP2 MSTORE PUSH1 0x20 ADD PUSH1 0x1 DUP3 ADD PUSH1 0x8 SWAP1 SLOAD SWAP1 PUSH2 0x100 EXP SWAP1 DIV PUSH1 0xFF AND ISZERO ISZERO ISZERO ISZERO DUP2 MSTORE PUSH1 0x20 ADD PUSH1 0x1 DUP3 ADD PUSH1 0x9 SWAP1 SLOAD SWAP1 PUSH2 0x100 EXP SWAP1 DIV PUSH1 0xFF AND ISZERO ISZERO ISZERO ISZERO DUP2 MSTORE POP POP DUP2 MSTORE POP POP SWAP2 POP POP SWAP2 SWAP1 POP JUMP JUMPDEST PUSH1 0x60 PUSH1 0x0 PUSH2 0x1BBE PUSH1 0x40 PUSH2 0x1F42 JUMP JUMPDEST SWAP1 POP PUSH2 0x1BD4 PUSH1 0x4 DUP3 PUSH2 0x284E SWAP1 SWAP2 SWAP1 PUSH4 0xFFFFFFFF AND JUMP JUMPDEST PUSH2 0x1BEB DUP4 PUSH1 0x0 ADD MLOAD DUP3 PUSH2 0x285E SWAP1 SWAP2 SWAP1 PUSH4 0xFFFFFFFF AND JUMP JUMPDEST PUSH2 0x1C02 DUP4 PUSH1 0x20 ADD MLOAD DUP3 PUSH2 0x2887 SWAP1 SWAP2 SWAP1 PUSH4 0xFFFFFFFF AND JUMP JUMPDEST PUSH2 0x1C19 DUP4 PUSH1 0x40 ADD MLOAD DUP3 PUSH2 0x1F69 SWAP1 SWAP2 SWAP1 PUSH4 0xFFFFFFFF AND JUMP JUMPDEST PUSH2 0x1C30 DUP4 PUSH1 0x60 ADD MLOAD DUP3 PUSH2 0x1F69 SWAP1 SWAP2 SWAP1 PUSH4 0xFFFFFFFF AND JUMP JUMPDEST PUSH2 0x1C39 DUP2 PUSH2 0x1F85 JUMP JUMPDEST SWAP2 POP POP SWAP2 SWAP1 POP JUMP JUMPDEST PUSH2 0x1C49 PUSH2 0x46BE JUMP JUMPDEST PUSH1 0x0 PUSH2 0x1C5E DUP4 PUSH8 0xFFFFFFFFFFFFFFFF AND PUSH2 0x2897 JUMP JUMPDEST SWAP1 POP PUSH1 0x0 PUSH2 0x1C78 PUSH1 0x5 PUSH4 0x9904F2FF PUSH1 0x51 DUP6 PUSH1 0x0 PUSH1 0x1 PUSH2 0x2621 JUMP JUMPDEST SWAP1 POP PUSH2 0x1C83 DUP2 PUSH2 0x28CB JUMP JUMPDEST SWAP3 POP POP POP SWAP2 SWAP1 POP JUMP JUMPDEST PUSH20 0xFF00000000000000000000000000000000000005 PUSH20 0xFFFFFFFFFFFFFFFFFFFFFFFFFFFFFFFFFFFFFFFF AND CALLER PUSH20 0xFFFFFFFFFFFFFFFFFFFFFFFFFFFFFFFFFFFFFFFF AND EQ PUSH2 0x1D0E JUMPI PUSH1 0x40 MLOAD PUSH32 0x8C379A000000000000000000000000000000000000000000000000000000000 DUP2 MSTORE PUSH1 0x4 ADD PUSH2 0x1D05 SWAP1 PUSH2 0x63D7 JUMP JUMPDEST PUSH1 0x40 MLOAD DUP1 SWAP2 SUB SWAP1 REVERT JUMPDEST PUSH1 0x0 PUSH2 0x1D19 DUP3 PUSH2 0x2955 JUMP JUMPDEST SWAP1 POP PUSH1 0x0 PUSH2 0x1D2A DUP3 PUSH1 0x20 ADD MLOAD PUSH2 0x29D1 JUMP JUMPDEST SWAP1 POP PUSH1 0x0 DUP2 PUSH1 0x0 ADD MLOAD PUSH1 0x0 ADD MLOAD SWAP1 POP PUSH1 0x2 DUP2 PUSH1 0x40 MLOAD PUSH2 0x1D49 SWAP2 SWAP1 PUSH2 0x5442 JUMP JUMPDEST SWAP1 DUP2 MSTORE PUSH1 0x20 ADD PUSH1 0x40 MLOAD DUP1 SWAP2 SUB SWAP1 KECCAK256 PUSH1 0x1 ADD PUSH1 0x0 SWAP1 SLOAD SWAP1 PUSH2 0x100 EXP SWAP1 DIV PUSH1 0xFF AND PUSH2 0x1DA7 JUMPI PUSH1 0x40 MLOAD PUSH32 0x8C379A000000000000000000000000000000000000000000000000000000000 DUP2 MSTORE PUSH1 0x4 ADD PUSH2 0x1D9E SWAP1 PUSH2 0x6469 JUMP JUMPDEST PUSH1 0x40 MLOAD DUP1 SWAP2 SUB SWAP1 REVERT JUMPDEST PUSH1 0x3 DUP2 PUSH1 0x40 MLOAD PUSH2 0x1DB7 SWAP2 SWAP1 PUSH2 0x5442 JUMP JUMPDEST SWAP1 DUP2 MSTORE PUSH1 0x20 ADD PUSH1 0x40 MLOAD DUP1 SWAP2 SUB SWAP1 KECCAK256 PUSH1 0x1 ADD PUSH1 0x0 SWAP1 SLOAD SWAP1 PUSH2 0x100 EXP SWAP1 DIV PUSH1 0xFF AND ISZERO PUSH2 0x1E16 JUMPI PUSH1 0x40 MLOAD PUSH32 0x8C379A000000000000000000000000000000000000000000000000000000000 DUP2 MSTORE PUSH1 0x4 ADD PUSH2 0x1E0D SWAP1 PUSH2 0x64FB JUMP JUMPDEST PUSH1 0x40 MLOAD DUP1 SWAP2 SUB SWAP1 REVERT JUMPDEST PUSH1 0x0 PUSH2 0x1E42 PUSH1 0x2 DUP4 PUSH1 0x40 MLOAD PUSH2 0x1E2B SWAP2 SWAP1 PUSH2 0x5442 JUMP JUMPDEST SWAP1 DUP2 MSTORE PUSH1 0x20 ADD PUSH1 0x40 MLOAD DUP1 SWAP2 SUB SWAP1 KECCAK256 PUSH1 0x0 ADD SLOAD PUSH2 0x17DB JUMP JUMPDEST SWAP1 POP DUP1 PUSH1 0x40 ADD MLOAD ISZERO ISZERO DUP4 PUSH1 0x40 ADD MLOAD ISZERO ISZERO EQ PUSH2 0x1E92 JUMPI PUSH1 0x40 MLOAD PUSH32 0x8C379A000000000000000000000000000000000000000000000000000000000 DUP2 MSTORE PUSH1 0x4 ADD PUSH2 0x1E89 SWAP1 PUSH2 0x6567 JUMP JUMPDEST PUSH1 0x40 MLOAD DUP1 SWAP2 SUB SWAP1 REVERT JUMPDEST DUP1 PUSH1 0xC0 ADD MLOAD PUSH2 0x1EA5 DUP5 PUSH2 0x100 ADD MLOAD PUSH2 0x17A5 JUMP JUMPDEST GT ISZERO PUSH2 0x1EE6 JUMPI PUSH1 0x40 MLOAD PUSH32 0x8C379A000000000000000000000000000000000000000000000000000000000 DUP2 MSTORE PUSH1 0x4 ADD PUSH2 0x1EDD SWAP1 PUSH2 0x65F9 JUMP JUMPDEST PUSH1 0x40 MLOAD DUP1 SWAP2 SUB SWAP1 REVERT JUMPDEST DUP1 PUSH2 0x100 ADD MLOAD PUSH2 0x1EFA DUP5 PUSH2 0x140 ADD MLOAD PUSH2 0x17A5 JUMP JUMPDEST GT ISZERO PUSH2 0x1F3B JUMPI PUSH1 0x40 MLOAD PUSH32 0x8C379A000000000000000000000000000000000000000000000000000000000 DUP2 MSTORE PUSH1 0x4 ADD PUSH2 0x1F32 SWAP1 PUSH2 0x668B JUMP JUMPDEST PUSH1 0x40 MLOAD DUP1 SWAP2 SUB SWAP1 REVERT JUMPDEST POP POP POP POP POP JUMP JUMPDEST PUSH2 0x1F4A PUSH2 0x46DE JUMP JUMPDEST PUSH2 0x1F58 DUP2 PUSH1 0x0 ADD MLOAD DUP4 PUSH2 0x2D18 JUMP JUMPDEST POP PUSH1 0x0 DUP2 PUSH1 0x20 ADD DUP2 DUP2 MSTORE POP POP SWAP2 SWAP1 POP JUMP JUMPDEST PUSH2 0x1F81 DUP3 DUP3 PUSH2 0x1F79 JUMPI PUSH1 0x14 PUSH2 0x1F7C JUMP JUMPDEST PUSH1 0x15 JUMPDEST PUSH2 0x2D91 JUMP JUMPDEST POP POP JUMP JUMPDEST PUSH1 0x60 PUSH1 0x0 DUP3 PUSH1 0x20 ADD MLOAD EQ PUSH2 0x1FCE JUMPI PUSH1 0x40 MLOAD PUSH32 0x8C379A000000000000000000000000000000000000000000000000000000000 DUP2 MSTORE PUSH1 0x4 ADD PUSH2 0x1FC5 SWAP1 PUSH2 0x66F7 JUMP JUMPDEST PUSH1 0x40 MLOAD DUP1 SWAP2 SUB SWAP1 REVERT JUMPDEST DUP2 PUSH1 0x0 ADD MLOAD PUSH1 0x0 ADD MLOAD SWAP1 POP SWAP2 SWAP1 POP JUMP JUMPDEST PUSH20 0xFF00000000000000000000000000000000000005 PUSH20 0xFFFFFFFFFFFFFFFFFFFFFFFFFFFFFFFFFFFFFFFF AND CALLER PUSH20 0xFFFFFFFFFFFFFFFFFFFFFFFFFFFFFFFFFFFFFFFF AND EQ PUSH2 0x2060 JUMPI PUSH1 0x40 MLOAD PUSH32 0x8C379A000000000000000000000000000000000000000000000000000000000 DUP2 MSTORE PUSH1 0x4 ADD PUSH2 0x2057 SWAP1 PUSH2 0x63D7 JUMP JUMPDEST PUSH1 0x40 MLOAD DUP1 SWAP2 SUB SWAP1 REVERT JUMPDEST PUSH1 0x0 PUSH2 0x206B DUP3 PUSH2 0x2DB7 JUMP JUMPDEST SWAP1 POP PUSH1 0x0 PUSH2 0x207C DUP3 PUSH1 0x0 ADD MLOAD PUSH2 0x29D1 JUMP JUMPDEST SWAP1 POP PUSH1 0x2 DUP2 PUSH1 0x0 ADD MLOAD PUSH1 0x0 ADD MLOAD PUSH1 0x40 MLOAD PUSH2 0x2096 SWAP2 SWAP1 PUSH2 0x5442 JUMP JUMPDEST SWAP1 DUP2 MSTORE PUSH1 0x20 ADD PUSH1 0x40 MLOAD DUP1 SWAP2 SUB SWAP1 KECCAK256 PUSH1 0x1 ADD PUSH1 0x0 SWAP1 SLOAD SWAP1 PUSH2 0x100 EXP SWAP1 DIV PUSH1 0xFF AND PUSH2 0x20F4 JUMPI PUSH1 0x40 MLOAD PUSH32 0x8C379A000000000000000000000000000000000000000000000000000000000 DUP2 MSTORE PUSH1 0x4 ADD PUSH2 0x20EB SWAP1 PUSH2 0x6469 JUMP JUMPDEST PUSH1 0x40 MLOAD DUP1 SWAP2 SUB SWAP1 REVERT JUMPDEST PUSH1 0x3 DUP2 PUSH1 0x0 ADD MLOAD PUSH1 0x0 ADD MLOAD PUSH1 0x40 MLOAD PUSH2 0x210C SWAP2 SWAP1 PUSH2 0x5442 JUMP JUMPDEST SWAP1 DUP2 MSTORE PUSH1 0x20 ADD PUSH1 0x40 MLOAD DUP1 SWAP2 SUB SWAP1 KECCAK256 PUSH1 0x1 ADD PUSH1 0x0 SWAP1 SLOAD SWAP1 PUSH2 0x100 EXP SWAP1 DIV PUSH1 0xFF AND ISZERO PUSH2 0x216B JUMPI PUSH1 0x40 MLOAD PUSH32 0x8C379A000000000000000000000000000000000000000000000000000000000 DUP2 MSTORE PUSH1 0x4 ADD PUSH2 0x2162 SWAP1 PUSH2 0x64FB JUMP JUMPDEST PUSH1 0x40 MLOAD DUP1 SWAP2 SUB SWAP1 REVERT JUMPDEST PUSH1 0x40 MLOAD DUP1 PUSH1 0x40 ADD PUSH1 0x40 MSTORE DUP1 DUP3 PUSH1 0x80 ADD MLOAD PUSH1 0x0 ADD MLOAD DUP2 MSTORE PUSH1 0x20 ADD PUSH1 0x1 ISZERO ISZERO DUP2 MSTORE POP PUSH1 0x3 DUP3 PUSH1 0x0 ADD MLOAD PUSH1 0x0 ADD MLOAD PUSH1 0x40 MLOAD PUSH2 0x21A3 SWAP2 SWAP1 PUSH2 0x5442 JUMP JUMPDEST SWAP1 DUP2 MSTORE PUSH1 0x20 ADD PUSH1 0x40 MLOAD DUP1 SWAP2 SUB SWAP1 KECCAK256 PUSH1 0x0 DUP3 ADD MLOAD DUP2 PUSH1 0x0 ADD SWAP1 DUP2 PUSH2 0x21C6 SWAP2 SWAP1 PUSH2 0x6717 JUMP JUMPDEST POP PUSH1 0x20 DUP3 ADD MLOAD DUP2 PUSH1 0x1 ADD PUSH1 0x0 PUSH2 0x100 EXP DUP2 SLOAD DUP2 PUSH1 0xFF MUL NOT AND SWAP1 DUP4 ISZERO ISZERO MUL OR SWAP1 SSTORE POP SWAP1 POP POP DUP2 PUSH1 0x20 ADD MLOAD PUSH1 0x4 DUP3 PUSH1 0x0 ADD MLOAD PUSH1 0x0 ADD MLOAD PUSH1 0x40 MLOAD PUSH2 0x2207 SWAP2 SWAP1 PUSH2 0x5442 JUMP JUMPDEST SWAP1 DUP2 MSTORE PUSH1 0x20 ADD PUSH1 0x40 MLOAD DUP1 SWAP2 SUB SWAP1 KECCAK256 PUSH1 0x0 PUSH2 0x100 EXP DUP2 SLOAD DUP2 PUSH8 0xFFFFFFFFFFFFFFFF MUL NOT AND SWAP1 DUP4 PUSH8 0xFFFFFFFFFFFFFFFF AND MUL OR SWAP1 SSTORE POP PUSH1 0x2 PUSH1 0x5 DUP3 PUSH1 0x0 ADD MLOAD PUSH1 0x0 ADD MLOAD PUSH1 0x40 MLOAD PUSH2 0x2255 SWAP2 SWAP1 PUSH2 0x5442 JUMP JUMPDEST SWAP1 DUP2 MSTORE PUSH1 0x20 ADD PUSH1 0x40 MLOAD DUP1 SWAP2 SUB SWAP1 KECCAK256 PUSH1 0x0 PUSH2 0x100 EXP DUP2 SLOAD DUP2 PUSH1 0xFF MUL NOT AND SWAP1 DUP4 PUSH1 0x4 DUP2 GT ISZERO PUSH2 0x2285 JUMPI PUSH2 0x2284 PUSH2 0x50E6 JUMP JUMPDEST JUMPDEST MUL OR SWAP1 SSTORE POP POP POP POP JUMP JUMPDEST PUSH20 0xFF00000000000000000000000000000000000007 PUSH20 0xFFFFFFFFFFFFFFFFFFFFFFFFFFFFFFFFFFFFFFFF AND CALLER PUSH20 0xFFFFFFFFFFFFFFFFFFFFFFFFFFFFFFFFFFFFFFFF AND EQ PUSH2 0x2311 JUMPI PUSH1 0x40 MLOAD PUSH32 0x8C379A000000000000000000000000000000000000000000000000000000000 DUP2 MSTORE PUSH1 0x4 ADD PUSH2 0x2308 SWAP1 PUSH2 0x685B JUMP JUMPDEST PUSH1 0x40 MLOAD DUP1 SWAP2 SUB SWAP1 REVERT JUMPDEST PUSH32 0x10AA319ED8CAD9BCEB033C0C2788C4AE17469AC844E4C6E2C2E20E74CA8A7BE8 PUSH1 0x40 MLOAD PUSH2 0x233E SWAP1 PUSH2 0x68C7 JUMP JUMPDEST PUSH1 0x40 MLOAD DUP1 SWAP2 SUB SWAP1 LOG1 POP JUMP JUMPDEST PUSH1 0x0 PUSH2 0x2354 DUP4 PUSH2 0x2E48 JUMP JUMPDEST SWAP1 POP PUSH1 0x0 PUSH2 0x236D PUSH1 0x5 PUSH4 0x3105F1A6 PUSH1 0x51 DUP6 DUP8 PUSH1 0x0 PUSH2 0x2621 JUMP JUMPDEST SWAP1 POP PUSH1 0x0 DUP2 MLOAD EQ PUSH2 0x23AA JUMPI PUSH1 0x40 MLOAD PUSH32 0xE74990700000000000000000000000000000000000000000000000000000000 DUP2 MSTORE PUSH1 0x4 ADD PUSH1 0x40 MLOAD DUP1 SWAP2 SUB SWAP1 REVERT JUMPDEST POP POP POP POP JUMP JUMPDEST PUSH2 0x23B8 PUSH2 0x468F JUMP JUMPDEST PUSH1 0x0 PUSH2 0x23C3 DUP4 PUSH2 0x2E80 JUMP JUMPDEST SWAP1 POP PUSH1 0x40 MLOAD DUP1 PUSH1 0x20 ADD PUSH1 0x40 MSTORE DUP1 DUP3 PUSH1 0x0 ADD MLOAD PUSH1 0x40 MLOAD PUSH1 0x20 ADD PUSH2 0x23E5 SWAP2 SWAP1 PUSH2 0x6913 JUMP JUMPDEST PUSH1 0x40 MLOAD PUSH1 0x20 DUP2 DUP4 SUB SUB DUP2 MSTORE SWAP1 PUSH1 0x40 MSTORE DUP2 MSTORE POP SWAP2 POP POP SWAP2 SWAP1 POP JUMP JUMPDEST PUSH1 0x60 PUSH1 0x0 PUSH2 0x240D PUSH1 0x40 PUSH2 0x1F42 JUMP JUMPDEST SWAP1 POP PUSH2 0x2423 PUSH1 0xB DUP3 PUSH2 0x284E SWAP1 SWAP2 SWAP1 PUSH4 0xFFFFFFFF AND JUMP JUMPDEST PUSH2 0x245D DUP4 PUSH1 0x0 ADD MLOAD PUSH1 0x0 ADD MLOAD PUSH1 0x40 MLOAD PUSH1 0x20 ADD PUSH2 0x243F SWAP2 SWAP1 PUSH2 0x693C JUMP JUMPDEST PUSH1 0x40 MLOAD PUSH1 0x20 DUP2 DUP4 SUB SUB DUP2 MSTORE SWAP1 PUSH1 0x40 MSTORE DUP3 PUSH2 0x2F05 SWAP1 SWAP2 SWAP1 PUSH4 0xFFFFFFFF AND JUMP JUMPDEST PUSH2 0x2474 DUP4 PUSH1 0x20 ADD MLOAD DUP3 PUSH2 0x2887 SWAP1 SWAP2 SWAP1 PUSH4 0xFFFFFFFF AND JUMP JUMPDEST PUSH2 0x248B DUP4 PUSH1 0x40 ADD MLOAD DUP3 PUSH2 0x1F69 SWAP1 SWAP2 SWAP1 PUSH4 0xFFFFFFFF AND JUMP JUMPDEST PUSH2 0x24A6 DUP4 PUSH1 0x60 ADD MLOAD PUSH1 0x0 ADD MLOAD DUP3 PUSH2 0x2F58 SWAP1 SWAP2 SWAP1 PUSH4 0xFFFFFFFF AND JUMP JUMPDEST PUSH2 0x24C1 DUP4 PUSH1 0x80 ADD MLOAD PUSH1 0x0 ADD MLOAD DUP3 PUSH2 0x2F58 SWAP1 SWAP2 SWAP1 PUSH4 0xFFFFFFFF AND JUMP JUMPDEST PUSH2 0x24D8 DUP4 PUSH1 0xA0 ADD MLOAD DUP3 PUSH2 0x285E SWAP1 SWAP2 SWAP1 PUSH4 0xFFFFFFFF AND JUMP JUMPDEST PUSH2 0x24EF DUP4 PUSH1 0xC0 ADD MLOAD DUP3 PUSH2 0x2F81 SWAP1 SWAP2 SWAP1 PUSH4 0xFFFFFFFF AND JUMP JUMPDEST PUSH2 0x2506 DUP4 PUSH1 0xE0 ADD MLOAD DUP3 PUSH2 0x2F81 SWAP1 SWAP2 SWAP1 PUSH4 0xFFFFFFFF AND JUMP JUMPDEST PUSH2 0x2526 PUSH2 0x2517 DUP5 PUSH2 0x100 ADD MLOAD PUSH2 0x2FD9 JUMP JUMPDEST DUP3 PUSH2 0x2F58 SWAP1 SWAP2 SWAP1 PUSH4 0xFFFFFFFF AND JUMP JUMPDEST PUSH2 0x2546 PUSH2 0x2537 DUP5 PUSH2 0x120 ADD MLOAD PUSH2 0x2FD9 JUMP JUMPDEST DUP3 PUSH2 0x2F58 SWAP1 SWAP2 SWAP1 PUSH4 0xFFFFFFFF AND JUMP JUMPDEST PUSH2 0x2566 PUSH2 0x2557 DUP5 PUSH2 0x140 ADD MLOAD PUSH2 0x2FD9 JUMP JUMPDEST DUP3 PUSH2 0x2F58 SWAP1 SWAP2 SWAP1 PUSH4 0xFFFFFFFF AND JUMP JUMPDEST PUSH2 0x256F DUP2 PUSH2 0x1F85 JUMP JUMPDEST SWAP2 POP POP SWAP2 SWAP1 POP JUMP JUMPDEST PUSH2 0x257F PUSH2 0x46FE JUMP JUMPDEST PUSH2 0x25AA DUP4 PUSH1 0x40 MLOAD PUSH1 0x20 ADD PUSH2 0x2593 SWAP2 SWAP1 PUSH2 0x6962 JUMP JUMPDEST PUSH1 0x40 MLOAD PUSH1 0x20 DUP2 DUP4 SUB SUB DUP2 MSTORE SWAP1 PUSH1 0x40 MSTORE DUP4 PUSH1 0x0 PUSH2 0x3146 JUMP JUMPDEST SWAP1 POP SWAP3 SWAP2 POP POP JUMP JUMPDEST PUSH1 0x60 PUSH1 0x0 PUSH2 0x25C0 PUSH1 0x40 PUSH2 0x1F42 JUMP JUMPDEST SWAP1 POP PUSH2 0x25D6 PUSH1 0x2 DUP3 PUSH2 0x284E SWAP1 SWAP2 SWAP1 PUSH4 0xFFFFFFFF AND JUMP JUMPDEST PUSH2 0x25F1 DUP4 PUSH1 0x0 ADD MLOAD PUSH1 0x0 ADD MLOAD DUP3 PUSH2 0x2F58 SWAP1 SWAP2 SWAP1 PUSH4 0xFFFFFFFF AND JUMP JUMPDEST PUSH2 0x2610 PUSH2 0x2601 DUP5 PUSH1 0x20 ADD MLOAD PUSH2 0x2FD9 JUMP JUMPDEST DUP3 PUSH2 0x2F58 SWAP1 SWAP2 SWAP1 PUSH4 0xFFFFFFFF AND JUMP JUMPDEST PUSH2 0x2619 DUP2 PUSH2 0x1F85 JUMP JUMPDEST SWAP2 POP POP SWAP2 SWAP1 POP JUMP JUMPDEST PUSH1 0x60 PUSH1 0x0 SELFBALANCE SWAP1 POP DUP4 DUP2 LT ISZERO PUSH2 0x266F JUMPI DUP1 DUP5 PUSH1 0x40 MLOAD PUSH32 0x8F0F420600000000000000000000000000000000000000000000000000000000 DUP2 MSTORE PUSH1 0x4 ADD PUSH2 0x2666 SWAP3 SWAP2 SWAP1 PUSH2 0x697D JUMP JUMPDEST PUSH1 0x40 MLOAD DUP1 SWAP2 SUB SWAP1 REVERT JUMPDEST PUSH1 0x0 DUP1 PUSH20 0xFE00000000000000000000000000000000000005 PUSH20 0xFFFFFFFFFFFFFFFFFFFFFFFFFFFFFFFFFFFFFFFF AND DUP10 DUP8 DUP8 PUSH2 0x26AB JUMPI PUSH1 0x0 PUSH2 0x26AE JUMP JUMPDEST PUSH1 0x1 JUMPDEST DUP12 DUP12 DUP16 PUSH1 0x40 MLOAD PUSH1 0x20 ADD PUSH2 0x26C6 SWAP7 SWAP6 SWAP5 SWAP4 SWAP3 SWAP2 SWAP1 PUSH2 0x69B5 JUMP JUMPDEST PUSH1 0x40 MLOAD PUSH1 0x20 DUP2 DUP4 SUB SUB DUP2 MSTORE SWAP1 PUSH1 0x40 MSTORE PUSH1 0x40 MLOAD PUSH2 0x26E2 SWAP2 SWAP1 PUSH2 0x5442 JUMP JUMPDEST PUSH1 0x0 PUSH1 0x40 MLOAD DUP1 DUP4 SUB DUP2 DUP6 GAS DELEGATECALL SWAP2 POP POP RETURNDATASIZE DUP1 PUSH1 0x0 DUP2 EQ PUSH2 0x271D JUMPI PUSH1 0x40 MLOAD SWAP2 POP PUSH1 0x1F NOT PUSH1 0x3F RETURNDATASIZE ADD AND DUP3 ADD PUSH1 0x40 MSTORE RETURNDATASIZE DUP3 MSTORE RETURNDATASIZE PUSH1 0x0 PUSH1 0x20 DUP5 ADD RETURNDATACOPY PUSH2 0x2722 JUMP JUMPDEST PUSH1 0x60 SWAP2 POP JUMPDEST POP SWAP2 POP SWAP2 POP DUP2 PUSH2 0x275E JUMPI PUSH1 0x40 MLOAD PUSH32 0x8A7DB5BF00000000000000000000000000000000000000000000000000000000 DUP2 MSTORE PUSH1 0x4 ADD PUSH1 0x40 MLOAD DUP1 SWAP2 SUB SWAP1 REVERT JUMPDEST PUSH2 0x2767 DUP2 PUSH2 0x3213 JUMP JUMPDEST SWAP4 POP POP POP POP SWAP7 SWAP6 POP POP POP POP POP POP JUMP JUMPDEST PUSH2 0x277E PUSH2 0x46A2 JUMP JUMPDEST PUSH1 0x60 PUSH1 0x0 DUP1 DUP5 MLOAD GT ISZERO PUSH2 0x27C3 JUMPI PUSH2 0x279E DUP2 DUP6 PUSH2 0x339A SWAP1 SWAP2 SWAP1 PUSH4 0xFFFFFFFF AND JUMP JUMPDEST DUP1 SWAP3 POP DUP2 SWAP4 POP POP POP PUSH1 0x0 DUP3 MLOAD GT ISZERO PUSH2 0x27C2 JUMPI PUSH2 0x27B9 DUP3 PUSH2 0x3576 JUMP JUMPDEST SWAP3 POP POP POP PUSH2 0x282D JUMP JUMPDEST JUMPDEST PUSH1 0x40 MLOAD DUP1 PUSH1 0x40 ADD PUSH1 0x40 MSTORE DUP1 PUSH1 0x0 PUSH8 0xFFFFFFFFFFFFFFFF DUP2 GT ISZERO PUSH2 0x27E9 JUMPI PUSH2 0x27E8 PUSH2 0x482F JUMP JUMPDEST JUMPDEST PUSH1 0x40 MLOAD SWAP1 DUP1 DUP3 MSTORE DUP1 PUSH1 0x1F ADD PUSH1 0x1F NOT AND PUSH1 0x20 ADD DUP3 ADD PUSH1 0x40 MSTORE DUP1 ISZERO PUSH2 0x281B JUMPI DUP2 PUSH1 0x20 ADD PUSH1 0x1 DUP3 MUL DUP1 CALLDATASIZE DUP4 CALLDATACOPY DUP1 DUP3 ADD SWAP2 POP POP SWAP1 POP JUMPDEST POP DUP2 MSTORE PUSH1 0x20 ADD PUSH1 0x0 ISZERO ISZERO DUP2 MSTORE POP SWAP3 POP POP POP JUMPDEST SWAP2 SWAP1 POP JUMP JUMPDEST PUSH2 0x283A PUSH2 0x46FE JUMP JUMPDEST PUSH2 0x2846 DUP4 DUP4 PUSH1 0x0 PUSH2 0x3146 JUMP JUMPDEST SWAP1 POP SWAP3 SWAP2 POP POP JUMP JUMPDEST PUSH2 0x285A DUP3 PUSH1 0x4 DUP4 PUSH2 0x371D JUMP JUMPDEST POP POP JUMP JUMPDEST PUSH2 0x286B DUP3 PUSH1 0x3 DUP4 MLOAD PUSH2 0x372D JUMP JUMPDEST PUSH2 0x2882 DUP2 DUP4 PUSH1 0x0 ADD MLOAD PUSH2 0x38D6 SWAP1 SWAP2 SWAP1 PUSH4 0xFFFFFFFF AND JUMP JUMPDEST POP POP POP JUMP JUMPDEST PUSH2 0x2893 DUP3 PUSH1 0x0 DUP4 PUSH2 0x372D JUMP JUMPDEST POP POP JUMP JUMPDEST PUSH1 0x60 PUSH1 0x0 PUSH2 0x28A5 PUSH1 0x40 PUSH2 0x1F42 JUMP JUMPDEST SWAP1 POP PUSH2 0x28BA DUP4 DUP3 PUSH2 0x2887 SWAP1 SWAP2 SWAP1 PUSH4 0xFFFFFFFF AND JUMP JUMPDEST PUSH2 0x28C3 DUP2 PUSH2 0x1F85 JUMP JUMPDEST SWAP2 POP POP SWAP2 SWAP1 POP JUMP JUMPDEST PUSH2 0x28D3 PUSH2 0x46BE JUMP JUMPDEST PUSH1 0x0 DUP1 PUSH2 0x28E9 DUP3 DUP6 PUSH2 0x38F2 SWAP1 SWAP2 SWAP1 PUSH4 0xFFFFFFFF AND JUMP JUMPDEST DUP1 SWAP4 POP DUP2 SWAP3 POP POP POP PUSH1 0x2 DUP2 EQ PUSH2 0x2902 JUMPI PUSH2 0x2901 PUSH2 0x6A1D JUMP JUMPDEST JUMPDEST PUSH2 0x2915 DUP3 DUP6 PUSH2 0x3973 SWAP1 SWAP2 SWAP1 PUSH4 0xFFFFFFFF AND JUMP JUMPDEST DUP5 PUSH1 0x0 ADD DUP2 SWAP5 POP DUP3 PUSH1 0x7 SIGNEXTEND PUSH1 0x7 SIGNEXTEND DUP2 MSTORE POP POP POP PUSH2 0x293B DUP3 DUP6 PUSH2 0x3973 SWAP1 SWAP2 SWAP1 PUSH4 0xFFFFFFFF AND JUMP JUMPDEST DUP5 PUSH1 0x20 ADD DUP2 SWAP5 POP DUP3 PUSH1 0x7 SIGNEXTEND PUSH1 0x7 SIGNEXTEND DUP2 MSTORE POP POP POP POP POP SWAP2 SWAP1 POP JUMP JUMPDEST PUSH2 0x295D PUSH2 0x4721 JUMP JUMPDEST PUSH1 0x0 DUP1 PUSH2 0x2973 DUP3 DUP6 PUSH2 0x38F2 SWAP1 SWAP2 SWAP1 PUSH4 0xFFFFFFFF AND JUMP JUMPDEST DUP1 SWAP4 POP DUP2 SWAP3 POP POP POP PUSH1 0x2 DUP2 EQ PUSH2 0x298C JUMPI PUSH2 0x298B PUSH2 0x6A1D JUMP JUMPDEST JUMPDEST PUSH2 0x299F DUP3 DUP6 PUSH2 0x339A SWAP1 SWAP2 SWAP1 PUSH4 0xFFFFFFFF AND JUMP JUMPDEST DUP5 PUSH1 0x0 ADD DUP2 SWAP5 POP DUP3 SWAP1 MSTORE POP POP PUSH2 0x29BE DUP3 DUP6 PUSH2 0x339A SWAP1 SWAP2 SWAP1 PUSH4 0xFFFFFFFF AND JUMP JUMPDEST DUP5 PUSH1 0x20 ADD DUP2 SWAP5 POP DUP3 SWAP1 MSTORE POP POP POP POP SWAP2 SWAP1 POP JUMP JUMPDEST PUSH2 0x29D9 PUSH2 0x45FF JUMP JUMPDEST PUSH1 0x0 DUP1 PUSH2 0x29EF DUP3 DUP6 PUSH2 0x38F2 SWAP1 SWAP2 SWAP1 PUSH4 0xFFFFFFFF AND JUMP JUMPDEST DUP1 SWAP4 POP DUP2 SWAP3 POP POP POP PUSH1 0xB DUP2 EQ PUSH2 0x2A08 JUMPI PUSH2 0x2A07 PUSH2 0x6A1D JUMP JUMPDEST JUMPDEST PUSH1 0x60 PUSH2 0x2A1D DUP4 DUP7 PUSH2 0x339A SWAP1 SWAP2 SWAP1 PUSH4 0xFFFFFFFF AND JUMP JUMPDEST DUP1 SWAP5 POP DUP2 SWAP3 POP POP POP PUSH1 0x0 PUSH1 0xF8 SHL DUP2 PUSH1 0x0 DUP2 MLOAD DUP2 LT PUSH2 0x2A3E JUMPI PUSH2 0x2A3D PUSH2 0x561B JUMP JUMPDEST JUMPDEST PUSH1 0x20 ADD ADD MLOAD PUSH1 0xF8 SHR PUSH1 0xF8 SHL PUSH31 0xFFFFFFFFFFFFFFFFFFFFFFFFFFFFFFFFFFFFFFFFFFFFFFFFFFFFFFFFFFFFFF NOT AND EQ PUSH2 0x2A79 JUMPI PUSH2 0x2A78 PUSH2 0x6A1D JUMP JUMPDEST JUMPDEST PUSH1 0x1 DUP2 MLOAD PUSH2 0x2A87 SWAP2 SWAP1 PUSH2 0x6A7B JUMP JUMPDEST PUSH8 0xFFFFFFFFFFFFFFFF DUP2 GT ISZERO PUSH2 0x2AA0 JUMPI PUSH2 0x2A9F PUSH2 0x482F JUMP JUMPDEST JUMPDEST PUSH1 0x40 MLOAD SWAP1 DUP1 DUP3 MSTORE DUP1 PUSH1 0x1F ADD PUSH1 0x1F NOT AND PUSH1 0x20 ADD DUP3 ADD PUSH1 0x40 MSTORE DUP1 ISZERO PUSH2 0x2AD2 JUMPI DUP2 PUSH1 0x20 ADD PUSH1 0x1 DUP3 MUL DUP1 CALLDATASIZE DUP4 CALLDATACOPY DUP1 DUP3 ADD SWAP2 POP POP SWAP1 POP JUMPDEST POP DUP5 PUSH1 0x0 ADD MLOAD PUSH1 0x0 ADD DUP2 SWAP1 MSTORE POP PUSH1 0x0 PUSH1 0x1 SWAP1 POP JUMPDEST DUP2 MLOAD DUP2 LT ISZERO PUSH2 0x2B76 JUMPI DUP2 DUP2 DUP2 MLOAD DUP2 LT PUSH2 0x2B02 JUMPI PUSH2 0x2B01 PUSH2 0x561B JUMP JUMPDEST JUMPDEST PUSH1 0x20 ADD ADD MLOAD PUSH1 0xF8 SHR PUSH1 0xF8 SHL DUP6 PUSH1 0x0 ADD MLOAD PUSH1 0x0 ADD MLOAD PUSH1 0x1 DUP4 PUSH2 0x2B23 SWAP2 SWAP1 PUSH2 0x6A7B JUMP JUMPDEST DUP2 MLOAD DUP2 LT PUSH2 0x2B34 JUMPI PUSH2 0x2B33 PUSH2 0x561B JUMP JUMPDEST JUMPDEST PUSH1 0x20 ADD ADD SWAP1 PUSH31 0xFFFFFFFFFFFFFFFFFFFFFFFFFFFFFFFFFFFFFFFFFFFFFFFFFFFFFFFFFFFFFF NOT AND SWAP1 DUP2 PUSH1 0x0 BYTE SWAP1 MSTORE8 POP DUP1 DUP1 PUSH2 0x2B6E SWAP1 PUSH2 0x6AAF JUMP JUMPDEST SWAP2 POP POP PUSH2 0x2AE6 JUMP JUMPDEST POP PUSH2 0x2B8A DUP4 DUP7 PUSH2 0x3A05 SWAP1 SWAP2 SWAP1 PUSH4 0xFFFFFFFF AND JUMP JUMPDEST DUP6 PUSH1 0x20 ADD DUP2 SWAP6 POP DUP3 PUSH8 0xFFFFFFFFFFFFFFFF AND PUSH8 0xFFFFFFFFFFFFFFFF AND DUP2 MSTORE POP POP POP PUSH2 0x2BBE DUP4 DUP7 PUSH2 0x3A86 SWAP1 SWAP2 SWAP1 PUSH4 0xFFFFFFFF AND JUMP JUMPDEST DUP6 PUSH1 0x40 ADD DUP2 SWAP6 POP DUP3 ISZERO ISZERO ISZERO ISZERO DUP2 MSTORE POP POP POP PUSH2 0x2BE2 DUP4 DUP7 PUSH2 0x339A SWAP1 SWAP2 SWAP1 PUSH4 0xFFFFFFFF AND JUMP JUMPDEST DUP6 PUSH1 0x60 ADD MLOAD PUSH1 0x0 ADD DUP2 SWAP6 POP DUP3 SWAP1 MSTORE POP POP PUSH2 0x2C05 DUP4 DUP7 PUSH2 0x339A SWAP1 SWAP2 SWAP1 PUSH4 0xFFFFFFFF AND JUMP JUMPDEST DUP6 PUSH1 0x80 ADD MLOAD PUSH1 0x0 ADD DUP2 SWAP6 POP DUP3 SWAP1 MSTORE POP POP PUSH2 0x2C28 DUP4 DUP7 PUSH2 0x3B30 SWAP1 SWAP2 SWAP1 PUSH4 0xFFFFFFFF AND JUMP JUMPDEST DUP6 PUSH1 0xA0 ADD DUP2 SWAP6 POP DUP3 SWAP1 MSTORE POP POP PUSH2 0x2C47 DUP4 DUP7 PUSH2 0x3973 SWAP1 SWAP2 SWAP1 PUSH4 0xFFFFFFFF AND JUMP JUMPDEST DUP6 PUSH1 0xC0 ADD DUP2 SWAP6 POP DUP3 PUSH1 0x7 SIGNEXTEND PUSH1 0x7 SIGNEXTEND DUP2 MSTORE POP POP POP PUSH2 0x2C6D DUP4 DUP7 PUSH2 0x3973 SWAP1 SWAP2 SWAP1 PUSH4 0xFFFFFFFF AND JUMP JUMPDEST DUP6 PUSH1 0xE0 ADD DUP2 SWAP6 POP DUP3 PUSH1 0x7 SIGNEXTEND PUSH1 0x7 SIGNEXTEND DUP2 MSTORE POP POP POP PUSH1 0x60 PUSH2 0x2C95 DUP5 DUP8 PUSH2 0x339A SWAP1 SWAP2 SWAP1 PUSH4 0xFFFFFFFF AND JUMP JUMPDEST DUP1 SWAP6 POP DUP2 SWAP3 POP POP POP PUSH2 0x2CA6 DUP2 PUSH2 0x3576 JUMP JUMPDEST DUP6 PUSH2 0x100 ADD DUP2 SWAP1 MSTORE POP PUSH1 0x60 PUSH2 0x2CC4 DUP6 DUP9 PUSH2 0x339A SWAP1 SWAP2 SWAP1 PUSH4 0xFFFFFFFF AND JUMP JUMPDEST DUP1 SWAP7 POP DUP2 SWAP3 POP POP POP PUSH2 0x2CD5 DUP2 PUSH2 0x3576 JUMP JUMPDEST DUP7 PUSH2 0x120 ADD DUP2 SWAP1 MSTORE POP PUSH1 0x60 PUSH2 0x2CF3 DUP7 DUP10 PUSH2 0x339A SWAP1 SWAP2 SWAP1 PUSH4 0xFFFFFFFF AND JUMP JUMPDEST DUP1 SWAP8 POP DUP2 SWAP3 POP POP POP PUSH2 0x2D04 DUP2 PUSH2 0x3576 JUMP JUMPDEST DUP8 PUSH2 0x140 ADD DUP2 SWAP1 MSTORE POP POP POP POP POP POP POP SWAP2 SWAP1 POP JUMP JUMPDEST PUSH2 0x2D20 PUSH2 0x473B JUMP JUMPDEST PUSH1 0x0 PUSH1 0x20 DUP4 PUSH2 0x2D2F SWAP2 SWAP1 PUSH2 0x6B26 JUMP JUMPDEST EQ PUSH2 0x2D5B JUMPI PUSH1 0x20 DUP3 PUSH2 0x2D41 SWAP2 SWAP1 PUSH2 0x6B26 JUMP JUMPDEST PUSH1 0x20 PUSH2 0x2D4D SWAP2 SWAP1 PUSH2 0x6A7B JUMP JUMPDEST DUP3 PUSH2 0x2D58 SWAP2 SWAP1 PUSH2 0x6B57 JUMP JUMPDEST SWAP2 POP JUMPDEST DUP2 DUP4 PUSH1 0x20 ADD DUP2 DUP2 MSTORE POP POP PUSH1 0x40 MLOAD DUP1 DUP5 MSTORE PUSH1 0x0 DUP2 MSTORE DUP3 DUP2 ADD PUSH1 0x20 ADD DUP2 DUP2 LT ISZERO PUSH2 0x2D82 JUMPI PUSH1 0x0 DUP1 REVERT JUMPDEST DUP1 PUSH1 0x40 MSTORE POP POP DUP3 SWAP1 POP SWAP3 SWAP2 POP POP JUMP JUMPDEST PUSH2 0x2DB2 DUP2 PUSH1 0x5 PUSH1 0x7 PUSH1 0xFF AND SWAP1 SHL OR DUP4 PUSH1 0x0 ADD MLOAD PUSH2 0x3CB2 SWAP1 SWAP2 SWAP1 PUSH4 0xFFFFFFFF AND JUMP JUMPDEST POP POP POP JUMP JUMPDEST PUSH2 0x2DBF PUSH2 0x4755 JUMP JUMPDEST PUSH1 0x0 DUP1 PUSH2 0x2DD5 DUP3 DUP6 PUSH2 0x38F2 SWAP1 SWAP2 SWAP1 PUSH4 0xFFFFFFFF AND JUMP JUMPDEST DUP1 SWAP4 POP DUP2 SWAP3 POP POP POP PUSH1 0x2 DUP2 EQ PUSH2 0x2DEE JUMPI PUSH2 0x2DED PUSH2 0x6A1D JUMP JUMPDEST JUMPDEST PUSH2 0x2E01 DUP3 DUP6 PUSH2 0x339A SWAP1 SWAP2 SWAP1 PUSH4 0xFFFFFFFF AND JUMP JUMPDEST DUP5 PUSH1 0x0 ADD DUP2 SWAP5 POP DUP3 SWAP1 MSTORE POP POP PUSH2 0x2E20 DUP3 DUP6 PUSH2 0x3A05 SWAP1 SWAP2 SWAP1 PUSH4 0xFFFFFFFF AND JUMP JUMPDEST DUP5 PUSH1 0x20 ADD DUP2 SWAP5 POP DUP3 PUSH8 0xFFFFFFFFFFFFFFFF AND PUSH8 0xFFFFFFFFFFFFFFFF AND DUP2 MSTORE POP POP POP POP POP SWAP2 SWAP1 POP JUMP JUMPDEST PUSH1 0x60 PUSH1 0x0 PUSH2 0x2E56 PUSH1 0x40 PUSH2 0x1F42 JUMP JUMPDEST SWAP1 POP PUSH2 0x2E6F DUP4 PUSH1 0x0 ADD MLOAD DUP3 PUSH2 0x2F58 SWAP1 SWAP2 SWAP1 PUSH4 0xFFFFFFFF AND JUMP JUMPDEST PUSH2 0x2E78 DUP2 PUSH2 0x1F85 JUMP JUMPDEST SWAP2 POP POP SWAP2 SWAP1 POP JUMP JUMPDEST PUSH2 0x2E88 PUSH2 0x473B JUMP JUMPDEST PUSH2 0x2E90 PUSH2 0x473B JUMP JUMPDEST JUMPDEST PUSH1 0x1 ISZERO PUSH2 0x2EFE JUMPI PUSH1 0x0 PUSH1 0x7F DUP5 AND SWAP1 POP PUSH1 0x7 DUP5 PUSH8 0xFFFFFFFFFFFFFFFF AND SWAP1 SHR SWAP4 POP PUSH1 0x0 DUP5 PUSH8 0xFFFFFFFFFFFFFFFF AND SUB PUSH2 0x2EE1 JUMPI PUSH2 0x2ED6 DUP2 DUP4 PUSH2 0x3CB2 SWAP1 SWAP2 SWAP1 PUSH4 0xFFFFFFFF AND JUMP JUMPDEST POP DUP2 SWAP3 POP POP POP PUSH2 0x2F00 JUMP JUMPDEST PUSH2 0x2EF7 PUSH1 0x80 DUP3 OR DUP4 PUSH2 0x3CB2 SWAP1 SWAP2 SWAP1 PUSH4 0xFFFFFFFF AND JUMP JUMPDEST POP POP PUSH2 0x2E91 JUMP JUMPDEST POP JUMPDEST SWAP2 SWAP1 POP JUMP JUMPDEST PUSH2 0x2F27 PUSH1 0x18 PUSH1 0x5 PUSH1 0x6 PUSH1 0xFF AND SWAP1 SHL OR DUP4 PUSH1 0x0 ADD MLOAD PUSH2 0x3CB2 SWAP1 SWAP2 SWAP1 PUSH4 0xFFFFFFFF AND JUMP JUMPDEST POP PUSH2 0x2F40 PUSH1 0x2A DUP4 PUSH1 0x0 ADD MLOAD PUSH2 0x3CB2 SWAP1 SWAP2 SWAP1 PUSH4 0xFFFFFFFF AND JUMP JUMPDEST POP PUSH2 0x2F54 DUP2 DUP4 PUSH2 0x2F58 SWAP1 SWAP2 SWAP1 PUSH4 0xFFFFFFFF AND JUMP JUMPDEST POP POP JUMP JUMPDEST PUSH2 0x2F65 DUP3 PUSH1 0x2 DUP4 MLOAD PUSH2 0x372D JUMP JUMPDEST PUSH2 0x2F7C DUP2 DUP4 PUSH1 0x0 ADD MLOAD PUSH2 0x38D6 SWAP1 SWAP2 SWAP1 PUSH4 0xFFFFFFFF AND JUMP JUMPDEST POP POP POP JUMP JUMPDEST PUSH1 0x0 DUP2 PUSH1 0x7 SIGNEXTEND SLT PUSH2 0x2F9D JUMPI PUSH2 0x2F98 DUP3 PUSH1 0x0 DUP4 PUSH2 0x372D JUMP JUMPDEST PUSH2 0x2FD5 JUMP JUMPDEST PUSH2 0x2FD4 DUP3 PUSH1 0x1 DUP4 PUSH32 0xFFFFFFFFFFFFFFFFFFFFFFFFFFFFFFFFFFFFFFFFFFFFFFFFFFFFFFFFFFFFFFFF PUSH2 0x2FCF SWAP2 SWAP1 PUSH2 0x6B8B JUMP JUMPDEST PUSH2 0x372D JUMP JUMPDEST JUMPDEST POP POP JUMP JUMPDEST PUSH1 0x60 PUSH1 0x0 PUSH1 0x1 DUP4 PUSH1 0x0 ADD MLOAD MLOAD PUSH2 0x2FEF SWAP2 SWAP1 PUSH2 0x6B57 JUMP JUMPDEST PUSH8 0xFFFFFFFFFFFFFFFF DUP2 GT ISZERO PUSH2 0x3008 JUMPI PUSH2 0x3007 PUSH2 0x482F JUMP JUMPDEST JUMPDEST PUSH1 0x40 MLOAD SWAP1 DUP1 DUP3 MSTORE DUP1 PUSH1 0x1F ADD PUSH1 0x1F NOT AND PUSH1 0x20 ADD DUP3 ADD PUSH1 0x40 MSTORE DUP1 ISZERO PUSH2 0x303A JUMPI DUP2 PUSH1 0x20 ADD PUSH1 0x1 DUP3 MUL DUP1 CALLDATASIZE DUP4 CALLDATACOPY DUP1 DUP3 ADD SWAP2 POP POP SWAP1 POP JUMPDEST POP SWAP1 POP PUSH1 0x1 ISZERO ISZERO DUP4 PUSH1 0x20 ADD MLOAD ISZERO ISZERO EQ PUSH2 0x3057 JUMPI PUSH1 0x0 PUSH1 0xF8 SHL PUSH2 0x305D JUMP JUMPDEST PUSH1 0x1 PUSH1 0xF8 SHL JUMPDEST DUP2 PUSH1 0x0 DUP2 MLOAD DUP2 LT PUSH2 0x3071 JUMPI PUSH2 0x3070 PUSH2 0x561B JUMP JUMPDEST JUMPDEST PUSH1 0x20 ADD ADD SWAP1 PUSH31 0xFFFFFFFFFFFFFFFFFFFFFFFFFFFFFFFFFFFFFFFFFFFFFFFFFFFFFFFFFFFFFF NOT AND SWAP1 DUP2 PUSH1 0x0 BYTE SWAP1 MSTORE8 POP PUSH1 0x0 PUSH1 0x1 SWAP1 POP PUSH1 0x0 JUMPDEST DUP5 PUSH1 0x0 ADD MLOAD MLOAD DUP2 LT ISZERO PUSH2 0x313B JUMPI DUP5 PUSH1 0x0 ADD MLOAD DUP2 DUP2 MLOAD DUP2 LT PUSH2 0x30CD JUMPI PUSH2 0x30CC PUSH2 0x561B JUMP JUMPDEST JUMPDEST PUSH1 0x20 ADD ADD MLOAD PUSH1 0xF8 SHR PUSH1 0xF8 SHL DUP4 DUP4 DUP2 MLOAD DUP2 LT PUSH2 0x30EB JUMPI PUSH2 0x30EA PUSH2 0x561B JUMP JUMPDEST JUMPDEST PUSH1 0x20 ADD ADD SWAP1 PUSH31 0xFFFFFFFFFFFFFFFFFFFFFFFFFFFFFFFFFFFFFFFFFFFFFFFFFFFFFFFFFFFFFF NOT AND SWAP1 DUP2 PUSH1 0x0 BYTE SWAP1 MSTORE8 POP DUP2 DUP1 PUSH2 0x3125 SWAP1 PUSH2 0x6AAF JUMP JUMPDEST SWAP3 POP POP DUP1 DUP1 PUSH2 0x3133 SWAP1 PUSH2 0x6AAF JUMP JUMPDEST SWAP2 POP POP PUSH2 0x30A9 JUMP JUMPDEST POP DUP2 SWAP3 POP POP POP SWAP2 SWAP1 POP JUMP JUMPDEST PUSH2 0x314E PUSH2 0x46FE JUMP JUMPDEST PUSH1 0x20 DUP5 ADD DUP5 MLOAD PUSH1 0x0 MSIZE PUSH1 0x0 PUSH1 0x20 DUP5 MOD EQ PUSH1 0x1 DUP2 EQ PUSH2 0x3180 JUMPI PUSH1 0x20 DUP5 MOD PUSH1 0x20 SUB PUSH1 0x20 DUP2 DUP5 ADD ADD SWAP4 POP DUP1 DUP6 ADD DUP4 MSTORE POP PUSH2 0x318A JUMP JUMPDEST PUSH1 0x20 DUP3 ADD SWAP3 POP DUP4 DUP3 MSTORE JUMPDEST POP DUP3 DUP3 DUP5 DUP7 PUSH1 0x4 PUSH2 0x1C2 STATICCALL POP PUSH1 0x20 DUP2 MLOAD ADD DUP2 ADD PUSH1 0x40 MSTORE DUP1 MLOAD JUMPDEST PUSH1 0x0 PUSH1 0x20 DUP3 EQ SUB PUSH2 0x31D6 JUMPI PUSH1 0x0 PUSH1 0x20 DUP4 ADD MLOAD EQ PUSH1 0x1 DUP2 EQ PUSH2 0x31C4 JUMPI POP PUSH2 0x31D6 JUMP JUMPDEST PUSH1 0x20 DUP4 ADD SWAP3 POP POP PUSH1 0x20 DUP2 SUB SWAP1 POP PUSH2 0x31A3 JUMP JUMPDEST DUP1 DUP3 MSTORE DUP2 DUP7 MSTORE DUP8 PUSH1 0x20 DUP8 ADD MSTORE POP POP POP POP POP PUSH1 0x0 DUP3 EQ PUSH2 0x31F5 JUMPI DUP2 PUSH2 0x3203 JUMP JUMPDEST PUSH2 0x3202 DUP2 PUSH1 0x0 ADD MLOAD PUSH2 0x3D1C JUMP JUMPDEST JUMPDEST DUP2 PUSH1 0x40 ADD DUP2 DUP2 MSTORE POP POP SWAP4 SWAP3 POP POP POP JUMP JUMPDEST PUSH1 0x60 PUSH1 0x0 DUP1 PUSH1 0x0 DUP5 DUP1 PUSH1 0x20 ADD SWAP1 MLOAD DUP2 ADD SWAP1 PUSH2 0x322E SWAP2 SWAP1 PUSH2 0x6CA6 JUMP JUMPDEST SWAP3 POP SWAP3 POP SWAP3 POP PUSH1 0x0 PUSH8 0xFFFFFFFFFFFFFFFF AND DUP3 PUSH8 0xFFFFFFFFFFFFFFFF AND SUB PUSH2 0x3290 JUMPI PUSH1 0x0 DUP2 MLOAD EQ PUSH2 0x328B JUMPI PUSH1 0x40 MLOAD PUSH32 0xE74990700000000000000000000000000000000000000000000000000000000 DUP2 MSTORE PUSH1 0x4 ADD PUSH1 0x40 MLOAD DUP1 SWAP2 SUB SWAP1 REVERT JUMPDEST PUSH2 0x334A JUMP JUMPDEST PUSH1 0x51 PUSH8 0xFFFFFFFFFFFFFFFF AND DUP3 PUSH8 0xFFFFFFFFFFFFFFFF AND EQ DUP1 PUSH2 0x32C7 JUMPI POP PUSH1 0x71 PUSH8 0xFFFFFFFFFFFFFFFF AND DUP3 PUSH8 0xFFFFFFFFFFFFFFFF AND EQ JUMPDEST ISZERO PUSH2 0x330C JUMPI PUSH1 0x0 DUP2 MLOAD SUB PUSH2 0x3307 JUMPI PUSH1 0x40 MLOAD PUSH32 0xE74990700000000000000000000000000000000000000000000000000000000 DUP2 MSTORE PUSH1 0x4 ADD PUSH1 0x40 MLOAD DUP1 SWAP2 SUB SWAP1 REVERT JUMPDEST PUSH2 0x3349 JUMP JUMPDEST DUP2 PUSH1 0x40 MLOAD PUSH32 0xF1F6BCED00000000000000000000000000000000000000000000000000000000 DUP2 MSTORE PUSH1 0x4 ADD PUSH2 0x3340 SWAP2 SWAP1 PUSH2 0x47E5 JUMP JUMPDEST PUSH1 0x40 MLOAD DUP1 SWAP2 SUB SWAP1 REVERT JUMPDEST JUMPDEST PUSH1 0x0 DUP4 EQ PUSH2 0x338F JUMPI DUP3 PUSH1 0x40 MLOAD PUSH32 0xD4BB667100000000000000000000000000000000000000000000000000000000 DUP2 MSTORE PUSH1 0x4 ADD PUSH2 0x3386 SWAP2 SWAP1 PUSH2 0x6D24 JUMP JUMPDEST PUSH1 0x40 MLOAD DUP1 SWAP2 SUB SWAP1 REVERT JUMPDEST DUP1 SWAP4 POP POP POP POP SWAP2 SWAP1 POP JUMP JUMPDEST PUSH1 0x60 PUSH1 0x0 DUP1 PUSH1 0x0 PUSH2 0x33AB DUP7 DUP7 PUSH2 0x3D5C JUMP JUMPDEST DUP2 PUSH8 0xFFFFFFFFFFFFFFFF AND SWAP2 POP DUP1 SWAP8 POP DUP2 SWAP4 POP DUP3 SWAP5 POP POP POP POP PUSH1 0x6 PUSH1 0xFF AND DUP3 PUSH1 0xFF AND EQ DUP1 PUSH2 0x33DF JUMPI POP PUSH1 0x2 PUSH1 0xFF AND DUP3 PUSH1 0xFF AND EQ JUMPDEST PUSH2 0x341E JUMPI PUSH1 0x40 MLOAD PUSH32 0x8C379A000000000000000000000000000000000000000000000000000000000 DUP2 MSTORE PUSH1 0x4 ADD PUSH2 0x3415 SWAP1 PUSH2 0x6DB1 JUMP JUMPDEST PUSH1 0x40 MLOAD DUP1 SWAP2 SUB SWAP1 REVERT JUMPDEST PUSH1 0x6 PUSH1 0xFF AND DUP3 PUSH1 0xFF AND SUB PUSH2 0x3467 JUMPI PUSH2 0x3436 DUP7 DUP7 PUSH2 0x3D5C JUMP JUMPDEST DUP2 PUSH8 0xFFFFFFFFFFFFFFFF AND SWAP2 POP DUP1 SWAP8 POP DUP2 SWAP4 POP DUP3 SWAP5 POP POP POP POP PUSH1 0x2 PUSH1 0xFF AND DUP3 PUSH1 0xFF AND EQ PUSH2 0x3466 JUMPI PUSH2 0x3465 PUSH2 0x6A1D JUMP JUMPDEST JUMPDEST JUMPDEST PUSH1 0x0 DUP2 DUP7 PUSH2 0x3475 SWAP2 SWAP1 PUSH2 0x6B57 JUMP JUMPDEST SWAP1 POP PUSH1 0x0 DUP3 PUSH8 0xFFFFFFFFFFFFFFFF DUP2 GT ISZERO PUSH2 0x3493 JUMPI PUSH2 0x3492 PUSH2 0x482F JUMP JUMPDEST JUMPDEST PUSH1 0x40 MLOAD SWAP1 DUP1 DUP3 MSTORE DUP1 PUSH1 0x1F ADD PUSH1 0x1F NOT AND PUSH1 0x20 ADD DUP3 ADD PUSH1 0x40 MSTORE DUP1 ISZERO PUSH2 0x34C5 JUMPI DUP2 PUSH1 0x20 ADD PUSH1 0x1 DUP3 MUL DUP1 CALLDATASIZE DUP4 CALLDATACOPY DUP1 DUP3 ADD SWAP2 POP POP SWAP1 POP JUMPDEST POP SWAP1 POP PUSH1 0x0 DUP1 DUP9 SWAP1 POP JUMPDEST DUP4 DUP2 LT ISZERO PUSH2 0x3558 JUMPI DUP10 DUP2 DUP2 MLOAD DUP2 LT PUSH2 0x34EA JUMPI PUSH2 0x34E9 PUSH2 0x561B JUMP JUMPDEST JUMPDEST PUSH1 0x20 ADD ADD MLOAD PUSH1 0xF8 SHR PUSH1 0xF8 SHL DUP4 DUP4 DUP2 MLOAD DUP2 LT PUSH2 0x3508 JUMPI PUSH2 0x3507 PUSH2 0x561B JUMP JUMPDEST JUMPDEST PUSH1 0x20 ADD ADD SWAP1 PUSH31 0xFFFFFFFFFFFFFFFFFFFFFFFFFFFFFFFFFFFFFFFFFFFFFFFFFFFFFFFFFFFFFF NOT AND SWAP1 DUP2 PUSH1 0x0 BYTE SWAP1 MSTORE8 POP DUP2 DUP1 PUSH2 0x3542 SWAP1 PUSH2 0x6AAF JUMP JUMPDEST SWAP3 POP POP DUP1 DUP1 PUSH2 0x3550 SWAP1 PUSH2 0x6AAF JUMP JUMPDEST SWAP2 POP POP PUSH2 0x34CF JUMP JUMPDEST POP DUP2 DUP5 DUP10 PUSH2 0x3566 SWAP2 SWAP1 PUSH2 0x6B57 JUMP JUMPDEST SWAP7 POP SWAP7 POP POP POP POP POP POP SWAP3 POP SWAP3 SWAP1 POP JUMP JUMPDEST PUSH2 0x357E PUSH2 0x46A2 JUMP JUMPDEST PUSH1 0x0 DUP3 MLOAD SUB PUSH2 0x35BC JUMPI PUSH1 0x40 MLOAD DUP1 PUSH1 0x40 ADD PUSH1 0x40 MSTORE DUP1 PUSH1 0x40 MLOAD DUP1 PUSH1 0x40 ADD PUSH1 0x40 MSTORE DUP1 PUSH1 0x1 DUP2 MSTORE PUSH1 0x20 ADD PUSH1 0x0 DUP2 MSTORE POP DUP2 MSTORE PUSH1 0x20 ADD PUSH1 0x0 ISZERO ISZERO DUP2 MSTORE POP SWAP1 POP PUSH2 0x3718 JUMP JUMPDEST PUSH1 0x0 PUSH1 0x1 DUP4 MLOAD PUSH2 0x35CC SWAP2 SWAP1 PUSH2 0x6A7B JUMP JUMPDEST PUSH8 0xFFFFFFFFFFFFFFFF DUP2 GT ISZERO PUSH2 0x35E5 JUMPI PUSH2 0x35E4 PUSH2 0x482F JUMP JUMPDEST JUMPDEST PUSH1 0x40 MLOAD SWAP1 DUP1 DUP3 MSTORE DUP1 PUSH1 0x1F ADD PUSH1 0x1F NOT AND PUSH1 0x20 ADD DUP3 ADD PUSH1 0x40 MSTORE DUP1 ISZERO PUSH2 0x3617 JUMPI DUP2 PUSH1 0x20 ADD PUSH1 0x1 DUP3 MUL DUP1 CALLDATASIZE DUP4 CALLDATACOPY DUP1 DUP3 ADD SWAP2 POP POP SWAP1 POP JUMPDEST POP SWAP1 POP PUSH1 0x0 PUSH1 0x1 PUSH1 0xF8 SHL DUP5 PUSH1 0x0 DUP2 MLOAD DUP2 LT PUSH2 0x3635 JUMPI PUSH2 0x3634 PUSH2 0x561B JUMP JUMPDEST JUMPDEST PUSH1 0x20 ADD ADD MLOAD PUSH1 0xF8 SHR PUSH1 0xF8 SHL PUSH31 0xFFFFFFFFFFFFFFFFFFFFFFFFFFFFFFFFFFFFFFFFFFFFFFFFFFFFFFFFFFFFFF NOT AND SUB PUSH2 0x366C JUMPI PUSH1 0x1 SWAP1 POP JUMPDEST PUSH1 0x0 PUSH1 0x1 SWAP1 POP JUMPDEST DUP5 MLOAD DUP2 LT ISZERO PUSH2 0x36FB JUMPI DUP5 DUP2 DUP2 MLOAD DUP2 LT PUSH2 0x368F JUMPI PUSH2 0x368E PUSH2 0x561B JUMP JUMPDEST JUMPDEST PUSH1 0x20 ADD ADD MLOAD PUSH1 0xF8 SHR PUSH1 0xF8 SHL DUP4 PUSH1 0x1 DUP4 PUSH2 0x36A8 SWAP2 SWAP1 PUSH2 0x6A7B JUMP JUMPDEST DUP2 MLOAD DUP2 LT PUSH2 0x36B9 JUMPI PUSH2 0x36B8 PUSH2 0x561B JUMP JUMPDEST JUMPDEST PUSH1 0x20 ADD ADD SWAP1 PUSH31 0xFFFFFFFFFFFFFFFFFFFFFFFFFFFFFFFFFFFFFFFFFFFFFFFFFFFFFFFFFFFFFF NOT AND SWAP1 DUP2 PUSH1 0x0 BYTE SWAP1 MSTORE8 POP DUP1 DUP1 PUSH2 0x36F3 SWAP1 PUSH2 0x6AAF JUMP JUMPDEST SWAP2 POP POP PUSH2 0x3673 JUMP JUMPDEST POP PUSH1 0x40 MLOAD DUP1 PUSH1 0x40 ADD PUSH1 0x40 MSTORE DUP1 DUP4 DUP2 MSTORE PUSH1 0x20 ADD DUP3 ISZERO ISZERO DUP2 MSTORE POP SWAP3 POP POP POP JUMPDEST SWAP2 SWAP1 POP JUMP JUMPDEST PUSH2 0x3728 DUP4 DUP4 DUP4 PUSH2 0x372D JUMP JUMPDEST POP POP POP JUMP JUMPDEST PUSH1 0x17 DUP2 PUSH8 0xFFFFFFFFFFFFFFFF AND GT PUSH2 0x3768 JUMPI PUSH2 0x3762 DUP2 PUSH1 0x5 DUP5 PUSH1 0xFF AND SWAP1 SHL PUSH1 0xFF AND OR DUP5 PUSH1 0x0 ADD MLOAD PUSH2 0x3CB2 SWAP1 SWAP2 SWAP1 PUSH4 0xFFFFFFFF AND JUMP JUMPDEST POP PUSH2 0x38D1 JUMP JUMPDEST PUSH1 0xFF DUP2 PUSH8 0xFFFFFFFFFFFFFFFF AND GT PUSH2 0x37C6 JUMPI PUSH2 0x379B PUSH1 0x18 PUSH1 0x5 DUP5 PUSH1 0xFF AND SWAP1 SHL OR DUP5 PUSH1 0x0 ADD MLOAD PUSH2 0x3CB2 SWAP1 SWAP2 SWAP1 PUSH4 0xFFFFFFFF AND JUMP JUMPDEST POP PUSH2 0x37C0 DUP2 PUSH8 0xFFFFFFFFFFFFFFFF AND PUSH1 0x1 DUP6 PUSH1 0x0 ADD MLOAD PUSH2 0x3F4E SWAP1 SWAP3 SWAP2 SWAP1 PUSH4 0xFFFFFFFF AND JUMP JUMPDEST POP PUSH2 0x38D0 JUMP JUMPDEST PUSH2 0xFFFF DUP2 PUSH8 0xFFFFFFFFFFFFFFFF AND GT PUSH2 0x3825 JUMPI PUSH2 0x37FA PUSH1 0x19 PUSH1 0x5 DUP5 PUSH1 0xFF AND SWAP1 SHL OR DUP5 PUSH1 0x0 ADD MLOAD PUSH2 0x3CB2 SWAP1 SWAP2 SWAP1 PUSH4 0xFFFFFFFF AND JUMP JUMPDEST POP PUSH2 0x381F DUP2 PUSH8 0xFFFFFFFFFFFFFFFF AND PUSH1 0x2 DUP6 PUSH1 0x0 ADD MLOAD PUSH2 0x3F4E SWAP1 SWAP3 SWAP2 SWAP1 PUSH4 0xFFFFFFFF AND JUMP JUMPDEST POP PUSH2 0x38CF JUMP JUMPDEST PUSH4 0xFFFFFFFF DUP2 PUSH8 0xFFFFFFFFFFFFFFFF AND GT PUSH2 0x3886 JUMPI PUSH2 0x385B PUSH1 0x1A PUSH1 0x5 DUP5 PUSH1 0xFF AND SWAP1 SHL OR DUP5 PUSH1 0x0 ADD MLOAD PUSH2 0x3CB2 SWAP1 SWAP2 SWAP1 PUSH4 0xFFFFFFFF AND JUMP JUMPDEST POP PUSH2 0x3880 DUP2 PUSH8 0xFFFFFFFFFFFFFFFF AND PUSH1 0x4 DUP6 PUSH1 0x0 ADD MLOAD PUSH2 0x3F4E SWAP1 SWAP3 SWAP2 SWAP1 PUSH4 0xFFFFFFFF AND JUMP JUMPDEST POP PUSH2 0x38CE JUMP JUMPDEST PUSH2 0x38A7 PUSH1 0x1B PUSH1 0x5 DUP5 PUSH1 0xFF AND SWAP1 SHL OR DUP5 PUSH1 0x0 ADD MLOAD PUSH2 0x3CB2 SWAP1 SWAP2 SWAP1 PUSH4 0xFFFFFFFF AND JUMP JUMPDEST POP PUSH2 0x38CC DUP2 PUSH8 0xFFFFFFFFFFFFFFFF AND PUSH1 0x8 DUP6 PUSH1 0x0 ADD MLOAD PUSH2 0x3F4E SWAP1 SWAP3 SWAP2 SWAP1 PUSH4 0xFFFFFFFF AND JUMP JUMPDEST POP JUMPDEST JUMPDEST JUMPDEST JUMPDEST POP POP POP JUMP JUMPDEST PUSH2 0x38DE PUSH2 0x473B JUMP JUMPDEST PUSH2 0x38EA DUP4 DUP4 DUP5 MLOAD PUSH2 0x3FDB JUMP JUMPDEST SWAP1 POP SWAP3 SWAP2 POP POP JUMP JUMPDEST PUSH1 0x0 DUP1 PUSH1 0x0 DUP1 PUSH2 0x3902 DUP7 DUP7 PUSH2 0x3D5C JUMP JUMPDEST DUP2 PUSH8 0xFFFFFFFFFFFFFFFF AND SWAP2 POP DUP1 SWAP8 POP DUP2 SWAP4 POP DUP3 SWAP5 POP POP POP POP PUSH1 0x4 PUSH1 0xFF AND DUP3 PUSH1 0xFF AND EQ PUSH2 0x3964 JUMPI PUSH1 0x40 MLOAD PUSH32 0x8C379A000000000000000000000000000000000000000000000000000000000 DUP2 MSTORE PUSH1 0x4 ADD PUSH2 0x395B SWAP1 PUSH2 0x6E1D JUMP JUMPDEST PUSH1 0x40 MLOAD DUP1 SWAP2 SUB SWAP1 REVERT JUMPDEST DUP1 DUP6 SWAP4 POP SWAP4 POP POP POP SWAP3 POP SWAP3 SWAP1 POP JUMP JUMPDEST PUSH1 0x0 DUP1 PUSH1 0x0 DUP1 PUSH2 0x3983 DUP7 DUP7 PUSH2 0x3D5C JUMP JUMPDEST DUP2 PUSH8 0xFFFFFFFFFFFFFFFF AND SWAP2 POP DUP1 SWAP8 POP DUP2 SWAP4 POP DUP3 SWAP5 POP POP POP POP PUSH1 0x1 PUSH1 0xFF AND DUP3 PUSH1 0xFF AND EQ DUP1 PUSH2 0x39B7 JUMPI POP PUSH1 0x0 PUSH1 0xFF AND DUP3 PUSH1 0xFF AND EQ JUMPDEST PUSH2 0x39F6 JUMPI PUSH1 0x40 MLOAD PUSH32 0x8C379A000000000000000000000000000000000000000000000000000000000 DUP2 MSTORE PUSH1 0x4 ADD PUSH2 0x39ED SWAP1 PUSH2 0x6EAF JUMP JUMPDEST PUSH1 0x40 MLOAD DUP1 SWAP2 SUB SWAP1 REVERT JUMPDEST DUP1 DUP6 SWAP4 POP SWAP4 POP POP POP SWAP3 POP SWAP3 SWAP1 POP JUMP JUMPDEST PUSH1 0x0 DUP1 PUSH1 0x0 DUP1 PUSH2 0x3A15 DUP7 DUP7 PUSH2 0x3D5C JUMP JUMPDEST DUP2 PUSH8 0xFFFFFFFFFFFFFFFF AND SWAP2 POP DUP1 SWAP8 POP DUP2 SWAP4 POP DUP3 SWAP5 POP POP POP POP PUSH1 0x0 PUSH1 0xFF AND DUP3 PUSH1 0xFF AND EQ PUSH2 0x3A77 JUMPI PUSH1 0x40 MLOAD PUSH32 0x8C379A000000000000000000000000000000000000000000000000000000000 DUP2 MSTORE PUSH1 0x4 ADD PUSH2 0x3A6E SWAP1 PUSH2 0x6F41 JUMP JUMPDEST PUSH1 0x40 MLOAD DUP1 SWAP2 SUB SWAP1 REVERT JUMPDEST DUP1 DUP6 SWAP4 POP SWAP4 POP POP POP SWAP3 POP SWAP3 SWAP1 POP JUMP JUMPDEST PUSH1 0x0 DUP1 PUSH1 0x0 DUP1 PUSH2 0x3A96 DUP7 DUP7 PUSH2 0x3D5C JUMP JUMPDEST DUP2 PUSH8 0xFFFFFFFFFFFFFFFF AND SWAP2 POP DUP1 SWAP8 POP DUP2 SWAP4 POP DUP3 SWAP5 POP POP POP POP PUSH1 0x7 PUSH1 0xFF AND DUP3 PUSH1 0xFF AND EQ PUSH2 0x3AF8 JUMPI PUSH1 0x40 MLOAD PUSH32 0x8C379A000000000000000000000000000000000000000000000000000000000 DUP2 MSTORE PUSH1 0x4 ADD PUSH2 0x3AEF SWAP1 PUSH2 0x6FAD JUMP JUMPDEST PUSH1 0x40 MLOAD DUP1 SWAP2 SUB SWAP1 REVERT JUMPDEST PUSH1 0x15 PUSH1 0xFF AND DUP2 EQ DUP1 PUSH2 0x3B0D JUMPI POP PUSH1 0x14 PUSH1 0xFF AND DUP2 EQ JUMPDEST PUSH2 0x3B1A JUMPI PUSH2 0x3B19 PUSH2 0x6A1D JUMP JUMPDEST JUMPDEST PUSH1 0x14 PUSH1 0xFF AND DUP2 EQ ISZERO DUP6 SWAP4 POP SWAP4 POP POP POP SWAP3 POP SWAP3 SWAP1 POP JUMP JUMPDEST PUSH1 0x60 PUSH1 0x0 DUP1 PUSH1 0x0 PUSH2 0x3B41 DUP7 DUP7 PUSH2 0x3D5C JUMP JUMPDEST DUP2 PUSH8 0xFFFFFFFFFFFFFFFF AND SWAP2 POP DUP1 SWAP8 POP DUP2 SWAP4 POP DUP3 SWAP5 POP POP POP POP PUSH1 0x3 PUSH1 0xFF AND DUP3 PUSH1 0xFF AND EQ PUSH2 0x3BA3 JUMPI PUSH1 0x40 MLOAD PUSH32 0x8C379A000000000000000000000000000000000000000000000000000000000 DUP2 MSTORE PUSH1 0x4 ADD PUSH2 0x3B9A SWAP1 PUSH2 0x703F JUMP JUMPDEST PUSH1 0x40 MLOAD DUP1 SWAP2 SUB SWAP1 REVERT JUMPDEST PUSH1 0x0 DUP2 DUP7 PUSH2 0x3BB1 SWAP2 SWAP1 PUSH2 0x6B57 JUMP JUMPDEST SWAP1 POP PUSH1 0x0 DUP3 PUSH8 0xFFFFFFFFFFFFFFFF DUP2 GT ISZERO PUSH2 0x3BCF JUMPI PUSH2 0x3BCE PUSH2 0x482F JUMP JUMPDEST JUMPDEST PUSH1 0x40 MLOAD SWAP1 DUP1 DUP3 MSTORE DUP1 PUSH1 0x1F ADD PUSH1 0x1F NOT AND PUSH1 0x20 ADD DUP3 ADD PUSH1 0x40 MSTORE DUP1 ISZERO PUSH2 0x3C01 JUMPI DUP2 PUSH1 0x20 ADD PUSH1 0x1 DUP3 MUL DUP1 CALLDATASIZE DUP4 CALLDATACOPY DUP1 DUP3 ADD SWAP2 POP POP SWAP1 POP JUMPDEST POP SWAP1 POP PUSH1 0x0 DUP1 DUP9 SWAP1 POP JUMPDEST DUP4 DUP2 LT ISZERO PUSH2 0x3C94 JUMPI DUP10 DUP2 DUP2 MLOAD DUP2 LT PUSH2 0x3C26 JUMPI PUSH2 0x3C25 PUSH2 0x561B JUMP JUMPDEST JUMPDEST PUSH1 0x20 ADD ADD MLOAD PUSH1 0xF8 SHR PUSH1 0xF8 SHL DUP4 DUP4 DUP2 MLOAD DUP2 LT PUSH2 0x3C44 JUMPI PUSH2 0x3C43 PUSH2 0x561B JUMP JUMPDEST JUMPDEST PUSH1 0x20 ADD ADD SWAP1 PUSH31 0xFFFFFFFFFFFFFFFFFFFFFFFFFFFFFFFFFFFFFFFFFFFFFFFFFFFFFFFFFFFFFF NOT AND SWAP1 DUP2 PUSH1 0x0 BYTE SWAP1 MSTORE8 POP DUP2 DUP1 PUSH2 0x3C7E SWAP1 PUSH2 0x6AAF JUMP JUMPDEST SWAP3 POP POP DUP1 DUP1 PUSH2 0x3C8C SWAP1 PUSH2 0x6AAF JUMP JUMPDEST SWAP2 POP POP PUSH2 0x3C0B JUMP JUMPDEST POP DUP2 DUP5 DUP10 PUSH2 0x3CA2 SWAP2 SWAP1 PUSH2 0x6B57 JUMP JUMPDEST SWAP7 POP SWAP7 POP POP POP POP POP POP SWAP3 POP SWAP3 SWAP1 POP JUMP JUMPDEST PUSH2 0x3CBA PUSH2 0x473B JUMP JUMPDEST PUSH1 0x0 DUP4 PUSH1 0x0 ADD MLOAD MLOAD SWAP1 POP PUSH1 0x0 PUSH1 0x1 DUP3 PUSH2 0x3CD3 SWAP2 SWAP1 PUSH2 0x6B57 JUMP JUMPDEST SWAP1 POP DUP5 PUSH1 0x20 ADD MLOAD DUP3 LT PUSH2 0x3CF7 JUMPI PUSH2 0x3CF6 DUP6 PUSH1 0x2 DUP4 PUSH2 0x3CF1 SWAP2 SWAP1 PUSH2 0x705F JUMP JUMPDEST PUSH2 0x40BE JUMP JUMPDEST JUMPDEST DUP5 MLOAD PUSH1 0x20 DUP4 DUP3 ADD ADD DUP6 DUP2 MSTORE8 DUP2 MLOAD DUP4 GT ISZERO PUSH2 0x3D0F JUMPI DUP3 DUP3 MSTORE JUMPDEST POP POP DUP5 SWAP3 POP POP POP SWAP3 SWAP2 POP POP JUMP JUMPDEST PUSH1 0x0 PUSH2 0x3D27 DUP3 PUSH2 0x40E2 JUMP JUMPDEST ISZERO PUSH2 0x3D35 JUMPI PUSH1 0x0 SWAP1 POP PUSH2 0x3D57 JUMP JUMPDEST PUSH1 0x0 PUSH1 0x20 DUP4 ADD MLOAD SWAP1 POP PUSH2 0x3D47 DUP2 PUSH2 0x4139 JUMP JUMPDEST SWAP2 POP PUSH1 0x8 PUSH1 0x20 DUP5 MLOAD SUB MUL DUP3 ADD SWAP2 POP POP JUMPDEST SWAP2 SWAP1 POP JUMP JUMPDEST PUSH1 0x0 DUP1 PUSH1 0x0 DUP1 PUSH2 0x3D6C DUP7 DUP7 PUSH2 0x438F JUMP JUMPDEST SWAP1 POP PUSH1 0x1 DUP6 PUSH2 0x3D7B SWAP2 SWAP1 PUSH2 0x6B57 JUMP JUMPDEST SWAP5 POP PUSH1 0x0 PUSH1 0x5 PUSH1 0xE0 DUP4 AND PUSH1 0xFF AND SWAP1 SHR SWAP1 POP PUSH1 0x0 PUSH1 0x1F DUP4 AND SWAP1 POP PUSH1 0x1C DUP2 PUSH1 0xFF AND LT PUSH2 0x3DDA JUMPI PUSH1 0x40 MLOAD PUSH32 0x8C379A000000000000000000000000000000000000000000000000000000000 DUP2 MSTORE PUSH1 0x4 ADD PUSH2 0x3DD1 SWAP1 PUSH2 0x7113 JUMP JUMPDEST PUSH1 0x40 MLOAD DUP1 SWAP2 SUB SWAP1 REVERT JUMPDEST PUSH1 0x18 DUP2 PUSH1 0xFF AND LT ISZERO PUSH2 0x3DFD JUMPI DUP2 DUP2 DUP9 DUP2 PUSH1 0xFF AND SWAP2 POP SWAP6 POP SWAP6 POP SWAP6 POP POP POP POP PUSH2 0x3F47 JUMP JUMPDEST PUSH1 0x18 DUP2 PUSH1 0xFF AND SUB PUSH2 0x3E84 JUMPI PUSH1 0x0 PUSH2 0x3E14 DUP10 DUP10 PUSH2 0x438F JUMP JUMPDEST SWAP1 POP PUSH1 0x1 DUP9 PUSH2 0x3E23 SWAP2 SWAP1 PUSH2 0x6B57 JUMP JUMPDEST SWAP8 POP PUSH1 0x18 DUP2 PUSH1 0xFF AND LT ISZERO PUSH2 0x3E6C JUMPI PUSH1 0x40 MLOAD PUSH32 0x8C379A000000000000000000000000000000000000000000000000000000000 DUP2 MSTORE PUSH1 0x4 ADD PUSH2 0x3E63 SWAP1 PUSH2 0x717F JUMP JUMPDEST PUSH1 0x40 MLOAD DUP1 SWAP2 SUB SWAP1 REVERT JUMPDEST DUP3 DUP2 DUP10 DUP2 PUSH1 0xFF AND SWAP2 POP SWAP7 POP SWAP7 POP SWAP7 POP POP POP POP POP PUSH2 0x3F47 JUMP JUMPDEST PUSH1 0x19 DUP2 PUSH1 0xFF AND SUB PUSH2 0x3EC5 JUMPI PUSH1 0x0 PUSH2 0x3E9B DUP10 DUP10 PUSH2 0x440A JUMP JUMPDEST SWAP1 POP PUSH1 0x2 DUP9 PUSH2 0x3EAA SWAP2 SWAP1 PUSH2 0x6B57 JUMP JUMPDEST SWAP8 POP DUP3 DUP2 DUP10 DUP2 PUSH2 0xFFFF AND SWAP2 POP SWAP7 POP SWAP7 POP SWAP7 POP POP POP POP POP PUSH2 0x3F47 JUMP JUMPDEST PUSH1 0x1A DUP2 PUSH1 0xFF AND SUB PUSH2 0x3F08 JUMPI PUSH1 0x0 PUSH2 0x3EDC DUP10 DUP10 PUSH2 0x4474 JUMP JUMPDEST SWAP1 POP PUSH1 0x4 DUP9 PUSH2 0x3EEB SWAP2 SWAP1 PUSH2 0x6B57 JUMP JUMPDEST SWAP8 POP DUP3 DUP2 DUP10 DUP2 PUSH4 0xFFFFFFFF AND SWAP2 POP SWAP7 POP SWAP7 POP SWAP7 POP POP POP POP POP PUSH2 0x3F47 JUMP JUMPDEST PUSH1 0x1B DUP2 PUSH1 0xFF AND EQ PUSH2 0x3F1C JUMPI PUSH2 0x3F1B PUSH2 0x6A1D JUMP JUMPDEST JUMPDEST PUSH1 0x0 PUSH2 0x3F28 DUP10 DUP10 PUSH2 0x44DE JUMP JUMPDEST SWAP1 POP PUSH1 0x8 DUP9 PUSH2 0x3F37 SWAP2 SWAP1 PUSH2 0x6B57 JUMP JUMPDEST SWAP8 POP DUP3 DUP2 DUP10 SWAP7 POP SWAP7 POP SWAP7 POP POP POP POP POP JUMPDEST SWAP3 POP SWAP3 POP SWAP3 JUMP JUMPDEST PUSH2 0x3F56 PUSH2 0x473B JUMP JUMPDEST PUSH1 0x0 DUP5 PUSH1 0x0 ADD MLOAD MLOAD SWAP1 POP PUSH1 0x0 DUP2 DUP5 PUSH2 0x3F6E SWAP2 SWAP1 PUSH2 0x6B57 JUMP JUMPDEST SWAP1 POP DUP6 PUSH1 0x20 ADD MLOAD DUP2 GT ISZERO PUSH2 0x3F93 JUMPI PUSH2 0x3F92 DUP7 PUSH1 0x2 DUP4 PUSH2 0x3F8D SWAP2 SWAP1 PUSH2 0x705F JUMP JUMPDEST PUSH2 0x40BE JUMP JUMPDEST JUMPDEST PUSH1 0x0 PUSH1 0x1 DUP6 PUSH2 0x100 PUSH2 0x3FA5 SWAP2 SWAP1 PUSH2 0x72D2 JUMP JUMPDEST PUSH2 0x3FAF SWAP2 SWAP1 PUSH2 0x6A7B JUMP JUMPDEST SWAP1 POP DUP7 MLOAD DUP3 DUP2 ADD DUP8 DUP4 NOT DUP3 MLOAD AND OR DUP2 MSTORE DUP2 MLOAD DUP5 GT ISZERO PUSH2 0x3FCC JUMPI DUP4 DUP3 MSTORE JUMPDEST POP POP DUP7 SWAP4 POP POP POP POP SWAP4 SWAP3 POP POP POP JUMP JUMPDEST PUSH2 0x3FE3 PUSH2 0x473B JUMP JUMPDEST DUP3 MLOAD DUP3 GT ISZERO PUSH2 0x3FF1 JUMPI PUSH1 0x0 DUP1 REVERT JUMPDEST PUSH1 0x0 DUP5 PUSH1 0x0 ADD MLOAD MLOAD SWAP1 POP PUSH1 0x0 DUP4 DUP3 PUSH2 0x4009 SWAP2 SWAP1 PUSH2 0x6B57 JUMP JUMPDEST SWAP1 POP DUP6 PUSH1 0x20 ADD MLOAD DUP2 GT ISZERO PUSH2 0x402E JUMPI PUSH2 0x402D DUP7 PUSH1 0x2 DUP4 PUSH2 0x4028 SWAP2 SWAP1 PUSH2 0x705F JUMP JUMPDEST PUSH2 0x40BE JUMP JUMPDEST JUMPDEST PUSH1 0x0 DUP1 DUP8 MLOAD DUP1 MLOAD DUP6 PUSH1 0x20 DUP4 ADD ADD SWAP4 POP DUP1 DUP6 GT ISZERO PUSH2 0x4049 JUMPI DUP5 DUP3 MSTORE JUMPDEST PUSH1 0x20 DUP10 ADD SWAP3 POP POP POP JUMPDEST PUSH1 0x20 DUP7 LT PUSH2 0x4090 JUMPI DUP1 MLOAD DUP3 MSTORE PUSH1 0x20 DUP3 PUSH2 0x406B SWAP2 SWAP1 PUSH2 0x6B57 JUMP JUMPDEST SWAP2 POP PUSH1 0x20 DUP2 PUSH2 0x407A SWAP2 SWAP1 PUSH2 0x6B57 JUMP JUMPDEST SWAP1 POP PUSH1 0x20 DUP7 PUSH2 0x4089 SWAP2 SWAP1 PUSH2 0x6A7B JUMP JUMPDEST SWAP6 POP PUSH2 0x4052 JUMP JUMPDEST PUSH1 0x0 PUSH1 0x1 DUP8 PUSH1 0x20 SUB PUSH2 0x100 EXP SUB SWAP1 POP DUP1 NOT DUP3 MLOAD AND DUP2 DUP5 MLOAD AND DUP2 DUP2 OR DUP6 MSTORE POP POP POP DUP8 SWAP5 POP POP POP POP POP SWAP4 SWAP3 POP POP POP JUMP JUMPDEST PUSH1 0x0 DUP3 PUSH1 0x0 ADD MLOAD SWAP1 POP PUSH2 0x40D1 DUP4 DUP4 PUSH2 0x2D18 JUMP JUMPDEST POP PUSH2 0x40DC DUP4 DUP3 PUSH2 0x38D6 JUMP JUMPDEST POP POP POP POP JUMP JUMPDEST PUSH1 0x0 DUP1 PUSH1 0x0 PUSH1 0x20 DUP5 ADD SWAP1 POP PUSH1 0x0 JUMPDEST DUP5 MLOAD DUP2 LT ISZERO PUSH2 0x412C JUMPI DUP2 MLOAD SWAP3 POP PUSH1 0x0 DUP4 GT ISZERO PUSH2 0x4112 JUMPI PUSH1 0x0 SWAP4 POP POP POP POP PUSH2 0x4134 JUMP JUMPDEST PUSH1 0x20 DUP3 ADD SWAP2 POP PUSH1 0x20 DUP2 PUSH2 0x4125 SWAP2 SWAP1 PUSH2 0x6B57 JUMP JUMPDEST SWAP1 POP PUSH2 0x40F0 JUMP JUMPDEST POP PUSH1 0x1 SWAP3 POP POP POP JUMPDEST SWAP2 SWAP1 POP JUMP JUMPDEST PUSH1 0x0 DUP1 DUP3 EQ PUSH1 0x1 DUP2 EQ PUSH2 0x4384 JUMPI DUP3 PUSH1 0x1 DUP5 SUB SWAP4 POP PUSH1 0x2 DUP5 DIV DUP5 OR SWAP4 POP PUSH1 0x4 DUP5 DIV DUP5 OR SWAP4 POP PUSH1 0x10 DUP5 DIV DUP5 OR SWAP4 POP PUSH2 0x100 DUP5 DIV DUP5 OR SWAP4 POP PUSH3 0x10000 DUP5 DIV DUP5 OR SWAP4 POP PUSH5 0x100000000 DUP5 DIV DUP5 OR SWAP4 POP PUSH9 0x10000000000000000 DUP5 DIV DUP5 OR SWAP4 POP PUSH17 0x100000000000000000000000000000000 DUP5 DIV DUP5 OR SWAP4 POP PUSH1 0x1 DUP5 ADD SWAP4 POP PUSH1 0x40 MLOAD PUSH32 0xF8F9CBFAE6CC78FBEFE7CDC3A1793DFCF4F0E8BBD8CEC470B6A28A7A5A3E1EFD DUP2 MSTORE PUSH32 0xF5ECF1B3E9DEBC68E1D9CFABC5997135BFB7A7A3938B7B606B5B4B3F2F1F0FFE PUSH1 0x20 DUP3 ADD MSTORE PUSH32 0xF6E4ED9FF2D6B458EADCDF97BD91692DE2D4DA8FD2D0AC50C6AE9A8272523616 PUSH1 0x40 DUP3 ADD MSTORE PUSH32 0xC8C0B887B0A8A4489C948C7F847C6125746C645C544C444038302820181008FF PUSH1 0x60 DUP3 ADD MSTORE PUSH32 0xF7CAE577EEC2A03CF3BAD76FB589591DEBB2DD67E0AA9834BEA6925F6A4A2E0E PUSH1 0x80 DUP3 ADD MSTORE PUSH32 0xE39ED557DB96902CD38ED14FAD815115C786AF479B7E83247363534337271707 PUSH1 0xA0 DUP3 ADD MSTORE PUSH32 0xC976C13BB96E881CB166A933A55E490D9D56952B8D4E801485467D2362422606 PUSH1 0xC0 DUP3 ADD MSTORE PUSH32 0x753A6D1B65325D0C552A4D1345224105391A310B29122104190A110309020100 PUSH1 0xE0 DUP3 ADD MSTORE PUSH2 0x100 DUP2 ADD PUSH1 0x40 MSTORE PUSH31 0x818283848586878898A8B8C8D8E8F929395969799A9B9D9E9FAAEB6BEDEEFF PUSH32 0x100000000000000000000000000000000000000000000000000000000000000 DUP1 DUP3 DUP9 MUL DIV DUP2 DUP2 PUSH1 0xFF SUB DUP6 ADD MLOAD DIV SWAP7 POP PUSH32 0x8000000000000000000000000000000000000000000000000000000000000000 DUP6 GT PUSH2 0x100 MUL DUP8 ADD SWAP7 POP PUSH1 0x0 PUSH1 0x1 DUP7 SUB DUP7 AND SUB PUSH2 0x437A JUMPI PUSH1 0x1 DUP8 ADD SWAP7 POP JUMPDEST POP POP POP POP POP PUSH2 0x4389 JUMP JUMPDEST PUSH1 0x0 SWAP2 POP JUMPDEST POP SWAP2 SWAP1 POP JUMP JUMPDEST PUSH1 0x0 PUSH1 0x1 DUP3 PUSH2 0x439E SWAP2 SWAP1 PUSH2 0x6B57 JUMP JUMPDEST DUP4 MLOAD LT ISZERO PUSH2 0x43E1 JUMPI PUSH1 0x40 MLOAD PUSH32 0x8C379A000000000000000000000000000000000000000000000000000000000 DUP2 MSTORE PUSH1 0x4 ADD PUSH2 0x43D8 SWAP1 PUSH2 0x7369 JUMP JUMPDEST PUSH1 0x40 MLOAD DUP1 SWAP2 SUB SWAP1 REVERT JUMPDEST DUP3 DUP3 DUP2 MLOAD DUP2 LT PUSH2 0x43F4 JUMPI PUSH2 0x43F3 PUSH2 0x561B JUMP JUMPDEST JUMPDEST PUSH1 0x20 ADD ADD MLOAD PUSH1 0xF8 SHR PUSH1 0xF8 SHL PUSH1 0xF8 SHR SWAP1 POP SWAP3 SWAP2 POP POP JUMP JUMPDEST PUSH1 0x0 PUSH1 0x2 DUP3 PUSH2 0x4419 SWAP2 SWAP1 PUSH2 0x6B57 JUMP JUMPDEST DUP4 MLOAD LT ISZERO PUSH2 0x445C JUMPI PUSH1 0x40 MLOAD PUSH32 0x8C379A000000000000000000000000000000000000000000000000000000000 DUP2 MSTORE PUSH1 0x4 ADD PUSH2 0x4453 SWAP1 PUSH2 0x7369 JUMP JUMPDEST PUSH1 0x40 MLOAD DUP1 SWAP2 SUB SWAP1 REVERT JUMPDEST PUSH1 0x0 DUP3 PUSH1 0x20 ADD DUP5 ADD MLOAD SWAP1 POP DUP1 PUSH1 0xF0 SHR SWAP2 POP POP SWAP3 SWAP2 POP POP JUMP JUMPDEST PUSH1 0x0 PUSH1 0x4 DUP3 PUSH2 0x4483 SWAP2 SWAP1 PUSH2 0x6B57 JUMP JUMPDEST DUP4 MLOAD LT ISZERO PUSH2 0x44C6 JUMPI PUSH1 0x40 MLOAD PUSH32 0x8C379A000000000000000000000000000000000000000000000000000000000 DUP2 MSTORE PUSH1 0x4 ADD PUSH2 0x44BD SWAP1 PUSH2 0x7369 JUMP JUMPDEST PUSH1 0x40 MLOAD DUP1 SWAP2 SUB SWAP1 REVERT JUMPDEST PUSH1 0x0 DUP3 PUSH1 0x20 ADD DUP5 ADD MLOAD SWAP1 POP DUP1 PUSH1 0xE0 SHR SWAP2 POP POP SWAP3 SWAP2 POP POP JUMP JUMPDEST PUSH1 0x0 PUSH1 0x8 DUP3 PUSH2 0x44ED SWAP2 SWAP1 PUSH2 0x6B57 JUMP JUMPDEST DUP4 MLOAD LT ISZERO PUSH2 0x4530 JUMPI PUSH1 0x40 MLOAD PUSH32 0x8C379A000000000000000000000000000000000000000000000000000000000 DUP2 MSTORE PUSH1 0x4 ADD PUSH2 0x4527 SWAP1 PUSH2 0x7369 JUMP JUMPDEST PUSH1 0x40 MLOAD DUP1 SWAP2 SUB SWAP1 REVERT JUMPDEST PUSH1 0x0 DUP3 PUSH1 0x20 ADD DUP5 ADD MLOAD SWAP1 POP DUP1 PUSH1 0xC0 SHR SWAP2 POP POP SWAP3 SWAP2 POP POP JUMP JUMPDEST PUSH1 0x40 MLOAD DUP1 PUSH1 0x40 ADD PUSH1 0x40 MSTORE DUP1 PUSH1 0x60 DUP2 MSTORE PUSH1 0x20 ADD PUSH1 0x0 ISZERO ISZERO DUP2 MSTORE POP SWAP1 JUMP JUMPDEST PUSH1 0x40 MLOAD DUP1 PUSH2 0x160 ADD PUSH1 0x40 MSTORE DUP1 PUSH1 0x60 DUP2 MSTORE PUSH1 0x20 ADD PUSH1 0x0 PUSH8 0xFFFFFFFFFFFFFFFF AND DUP2 MSTORE PUSH1 0x20 ADD PUSH1 0x0 ISZERO ISZERO DUP2 MSTORE PUSH1 0x20 ADD PUSH1 0x60 DUP2 MSTORE PUSH1 0x20 ADD PUSH1 0x0 PUSH1 0x7 SIGNEXTEND DUP2 MSTORE PUSH1 0x20 ADD PUSH1 0x0 PUSH1 0x7 SIGNEXTEND DUP2 MSTORE PUSH1 0x20 ADD PUSH1 0x0 DUP2 MSTORE PUSH1 0x20 ADD PUSH1 0x0 DUP2 MSTORE PUSH1 0x20 ADD PUSH1 0x0 DUP2 MSTORE PUSH1 0x20 ADD PUSH1 0x0 PUSH8 0xFFFFFFFFFFFFFFFF AND DUP2 MSTORE PUSH1 0x20 ADD PUSH2 0x45DA PUSH2 0x4779 JUMP JUMPDEST DUP2 MSTORE POP SWAP1 JUMP JUMPDEST PUSH1 0x40 MLOAD DUP1 PUSH1 0x40 ADD PUSH1 0x40 MSTORE DUP1 PUSH1 0x0 DUP1 NOT AND DUP2 MSTORE PUSH1 0x20 ADD PUSH1 0x0 ISZERO ISZERO DUP2 MSTORE POP SWAP1 JUMP JUMPDEST PUSH1 0x40 MLOAD DUP1 PUSH2 0x160 ADD PUSH1 0x40 MSTORE DUP1 PUSH2 0x4613 PUSH2 0x47AF JUMP JUMPDEST DUP2 MSTORE PUSH1 0x20 ADD PUSH1 0x0 PUSH8 0xFFFFFFFFFFFFFFFF AND DUP2 MSTORE PUSH1 0x20 ADD PUSH1 0x0 ISZERO ISZERO DUP2 MSTORE PUSH1 0x20 ADD PUSH2 0x463A PUSH2 0x468F JUMP JUMPDEST DUP2 MSTORE PUSH1 0x20 ADD PUSH2 0x4647 PUSH2 0x468F JUMP JUMPDEST DUP2 MSTORE PUSH1 0x20 ADD PUSH1 0x60 DUP2 MSTORE PUSH1 0x20 ADD PUSH1 0x0 PUSH1 0x7 SIGNEXTEND DUP2 MSTORE PUSH1 0x20 ADD PUSH1 0x0 PUSH1 0x7 SIGNEXTEND DUP2 MSTORE PUSH1 0x20 ADD PUSH2 0x466F PUSH2 0x46A2 JUMP JUMPDEST DUP2 MSTORE PUSH1 0x20 ADD PUSH2 0x467C PUSH2 0x46A2 JUMP JUMPDEST DUP2 MSTORE PUSH1 0x20 ADD PUSH2 0x4689 PUSH2 0x46A2 JUMP JUMPDEST DUP2 MSTORE POP SWAP1 JUMP JUMPDEST PUSH1 0x40 MLOAD DUP1 PUSH1 0x20 ADD PUSH1 0x40 MSTORE DUP1 PUSH1 0x60 DUP2 MSTORE POP SWAP1 JUMP JUMPDEST PUSH1 0x40 MLOAD DUP1 PUSH1 0x40 ADD PUSH1 0x40 MSTORE DUP1 PUSH1 0x60 DUP2 MSTORE PUSH1 0x20 ADD PUSH1 0x0 ISZERO ISZERO DUP2 MSTORE POP SWAP1 JUMP JUMPDEST PUSH1 0x40 MLOAD DUP1 PUSH1 0x40 ADD PUSH1 0x40 MSTORE DUP1 PUSH1 0x0 PUSH1 0x7 SIGNEXTEND DUP2 MSTORE PUSH1 0x20 ADD PUSH1 0x0 PUSH1 0x7 SIGNEXTEND DUP2 MSTORE POP SWAP1 JUMP JUMPDEST PUSH1 0x40 MLOAD DUP1 PUSH1 0x40 ADD PUSH1 0x40 MSTORE DUP1 PUSH2 0x46F1 PUSH2 0x473B JUMP JUMPDEST DUP2 MSTORE PUSH1 0x20 ADD PUSH1 0x0 DUP2 MSTORE POP SWAP1 JUMP JUMPDEST PUSH1 0x40 MLOAD DUP1 PUSH1 0x60 ADD PUSH1 0x40 MSTORE DUP1 PUSH1 0x60 DUP2 MSTORE PUSH1 0x20 ADD PUSH1 0x0 ISZERO ISZERO DUP2 MSTORE PUSH1 0x20 ADD PUSH1 0x0 DUP2 MSTORE POP SWAP1 JUMP JUMPDEST PUSH1 0x40 MLOAD DUP1 PUSH1 0x40 ADD PUSH1 0x40 MSTORE DUP1 PUSH1 0x60 DUP2 MSTORE PUSH1 0x20 ADD PUSH1 0x60 DUP2 MSTORE POP SWAP1 JUMP JUMPDEST PUSH1 0x40 MLOAD DUP1 PUSH1 0x40 ADD PUSH1 0x40 MSTORE DUP1 PUSH1 0x60 DUP2 MSTORE PUSH1 0x20 ADD PUSH1 0x0 DUP2 MSTORE POP SWAP1 JUMP JUMPDEST PUSH1 0x40 MLOAD DUP1 PUSH1 0x40 ADD PUSH1 0x40 MSTORE DUP1 PUSH1 0x60 DUP2 MSTORE PUSH1 0x20 ADD PUSH1 0x0 PUSH8 0xFFFFFFFFFFFFFFFF AND DUP2 MSTORE POP SWAP1 JUMP JUMPDEST PUSH1 0x40 MLOAD DUP1 PUSH1 0x80 ADD PUSH1 0x40 MSTORE DUP1 PUSH1 0x60 DUP2 MSTORE PUSH1 0x20 ADD PUSH1 0x0 PUSH8 0xFFFFFFFFFFFFFFFF AND DUP2 MSTORE PUSH1 0x20 ADD PUSH1 0x0 ISZERO ISZERO DUP2 MSTORE PUSH1 0x20 ADD PUSH1 0x0 ISZERO ISZERO DUP2 MSTORE POP SWAP1 JUMP JUMPDEST PUSH1 0x40 MLOAD DUP1 PUSH1 0x20 ADD PUSH1 0x40 MSTORE DUP1 PUSH1 0x60 DUP2 MSTORE POP SWAP1 JUMP JUMPDEST PUSH1 0x0 PUSH8 0xFFFFFFFFFFFFFFFF DUP3 AND SWAP1 POP SWAP2 SWAP1 POP JUMP JUMPDEST PUSH2 0x47DF DUP2 PUSH2 0x47C2 JUMP JUMPDEST DUP3 MSTORE POP POP JUMP JUMPDEST PUSH1 0x0 PUSH1 0x20 DUP3 ADD SWAP1 POP PUSH2 0x47FA PUSH1 0x0 DUP4 ADD DUP5 PUSH2 0x47D6 JUMP JUMPDEST SWAP3 SWAP2 POP POP JUMP JUMPDEST PUSH1 0x0 PUSH1 0x40 MLOAD SWAP1 POP SWAP1 JUMP JUMPDEST PUSH1 0x0 DUP1 REVERT JUMPDEST PUSH1 0x0 DUP1 REVERT JUMPDEST PUSH1 0x0 DUP1 REVERT JUMPDEST PUSH1 0x0 DUP1 REVERT JUMPDEST PUSH1 0x0 PUSH1 0x1F NOT PUSH1 0x1F DUP4 ADD AND SWAP1 POP SWAP2 SWAP1 POP JUMP JUMPDEST PUSH32 0x4E487B7100000000000000000000000000000000000000000000000000000000 PUSH1 0x0 MSTORE PUSH1 0x41 PUSH1 0x4 MSTORE PUSH1 0x24 PUSH1 0x0 REVERT JUMPDEST PUSH2 0x4867 DUP3 PUSH2 0x481E JUMP JUMPDEST DUP2 ADD DUP2 DUP2 LT PUSH8 0xFFFFFFFFFFFFFFFF DUP3 GT OR ISZERO PUSH2 0x4886 JUMPI PUSH2 0x4885 PUSH2 0x482F JUMP JUMPDEST JUMPDEST DUP1 PUSH1 0x40 MSTORE POP POP POP JUMP JUMPDEST PUSH1 0x0 PUSH2 0x4899 PUSH2 0x4800 JUMP JUMPDEST SWAP1 POP PUSH2 0x48A5 DUP3 DUP3 PUSH2 0x485E JUMP JUMPDEST SWAP2 SWAP1 POP JUMP JUMPDEST PUSH1 0x0 PUSH8 0xFFFFFFFFFFFFFFFF DUP3 GT ISZERO PUSH2 0x48C5 JUMPI PUSH2 0x48C4 PUSH2 0x482F JUMP JUMPDEST JUMPDEST PUSH2 0x48CE DUP3 PUSH2 0x481E JUMP JUMPDEST SWAP1 POP PUSH1 0x20 DUP2 ADD SWAP1 POP SWAP2 SWAP1 POP JUMP JUMPDEST DUP3 DUP2 DUP4 CALLDATACOPY PUSH1 0x0 DUP4 DUP4 ADD MSTORE POP POP POP JUMP JUMPDEST PUSH1 0x0 PUSH2 0x48FD PUSH2 0x48F8 DUP5 PUSH2 0x48AA JUMP JUMPDEST PUSH2 0x488F JUMP JUMPDEST SWAP1 POP DUP3 DUP2 MSTORE PUSH1 0x20 DUP2 ADD DUP5 DUP5 DUP5 ADD GT ISZERO PUSH2 0x4919 JUMPI PUSH2 0x4918 PUSH2 0x4819 JUMP JUMPDEST JUMPDEST PUSH2 0x4924 DUP5 DUP3 DUP6 PUSH2 0x48DB JUMP JUMPDEST POP SWAP4 SWAP3 POP POP POP JUMP JUMPDEST PUSH1 0x0 DUP3 PUSH1 0x1F DUP4 ADD SLT PUSH2 0x4941 JUMPI PUSH2 0x4940 PUSH2 0x4814 JUMP JUMPDEST JUMPDEST DUP2 CALLDATALOAD PUSH2 0x4951 DUP5 DUP3 PUSH1 0x20 DUP7 ADD PUSH2 0x48EA JUMP JUMPDEST SWAP2 POP POP SWAP3 SWAP2 POP POP JUMP JUMPDEST PUSH1 0x0 PUSH1 0x20 DUP3 DUP5 SUB SLT ISZERO PUSH2 0x4970 JUMPI PUSH2 0x496F PUSH2 0x480A JUMP JUMPDEST JUMPDEST PUSH1 0x0 DUP3 ADD CALLDATALOAD PUSH8 0xFFFFFFFFFFFFFFFF DUP2 GT ISZERO PUSH2 0x498E JUMPI PUSH2 0x498D PUSH2 0x480F JUMP JUMPDEST JUMPDEST PUSH2 0x499A DUP5 DUP3 DUP6 ADD PUSH2 0x492C JUMP JUMPDEST SWAP2 POP POP SWAP3 SWAP2 POP POP JUMP JUMPDEST PUSH1 0x0 PUSH20 0xFFFFFFFFFFFFFFFFFFFFFFFFFFFFFFFFFFFFFFFF DUP3 AND SWAP1 POP SWAP2 SWAP1 POP JUMP JUMPDEST PUSH1 0x0 PUSH2 0x49CE DUP3 PUSH2 0x49A3 JUMP JUMPDEST SWAP1 POP SWAP2 SWAP1 POP JUMP JUMPDEST PUSH2 0x49DE DUP2 PUSH2 0x49C3 JUMP JUMPDEST DUP2 EQ PUSH2 0x49E9 JUMPI PUSH1 0x0 DUP1 REVERT JUMPDEST POP JUMP JUMPDEST PUSH1 0x0 DUP2 CALLDATALOAD SWAP1 POP PUSH2 0x49FB DUP2 PUSH2 0x49D5 JUMP JUMPDEST SWAP3 SWAP2 POP POP JUMP JUMPDEST PUSH1 0x0 DUP2 SWAP1 POP SWAP2 SWAP1 POP JUMP JUMPDEST PUSH2 0x4A14 DUP2 PUSH2 0x4A01 JUMP JUMPDEST DUP2 EQ PUSH2 0x4A1F JUMPI PUSH1 0x0 DUP1 REVERT JUMPDEST POP JUMP JUMPDEST PUSH1 0x0 DUP2 CALLDATALOAD SWAP1 POP PUSH2 0x4A31 DUP2 PUSH2 0x4A0B JUMP JUMPDEST SWAP3 SWAP2 POP POP JUMP JUMPDEST PUSH1 0x0 DUP1 PUSH1 0x40 DUP4 DUP6 SUB SLT ISZERO PUSH2 0x4A4E JUMPI PUSH2 0x4A4D PUSH2 0x480A JUMP JUMPDEST JUMPDEST PUSH1 0x0 PUSH2 0x4A5C DUP6 DUP3 DUP7 ADD PUSH2 0x49EC JUMP JUMPDEST SWAP3 POP POP PUSH1 0x20 PUSH2 0x4A6D DUP6 DUP3 DUP7 ADD PUSH2 0x4A22 JUMP JUMPDEST SWAP2 POP POP SWAP3 POP SWAP3 SWAP1 POP JUMP JUMPDEST PUSH2 0x4A80 DUP2 PUSH2 0x4A01 JUMP JUMPDEST DUP3 MSTORE POP POP JUMP JUMPDEST PUSH1 0x0 PUSH1 0x20 DUP3 ADD SWAP1 POP PUSH2 0x4A9B PUSH1 0x0 DUP4 ADD DUP5 PUSH2 0x4A77 JUMP JUMPDEST SWAP3 SWAP2 POP POP JUMP JUMPDEST PUSH1 0x0 DUP2 SWAP1 POP SWAP2 SWAP1 POP JUMP JUMPDEST PUSH2 0x4AB4 DUP2 PUSH2 0x4AA1 JUMP JUMPDEST DUP2 EQ PUSH2 0x4ABF JUMPI PUSH1 0x0 DUP1 REVERT JUMPDEST POP JUMP JUMPDEST PUSH1 0x0 DUP2 CALLDATALOAD SWAP1 POP PUSH2 0x4AD1 DUP2 PUSH2 0x4AAB JUMP JUMPDEST SWAP3 SWAP2 POP POP JUMP JUMPDEST PUSH1 0x0 PUSH1 0x20 DUP3 DUP5 SUB SLT ISZERO PUSH2 0x4AED JUMPI PUSH2 0x4AEC PUSH2 0x480A JUMP JUMPDEST JUMPDEST PUSH1 0x0 PUSH2 0x4AFB DUP5 DUP3 DUP6 ADD PUSH2 0x4AC2 JUMP JUMPDEST SWAP2 POP POP SWAP3 SWAP2 POP POP JUMP JUMPDEST PUSH1 0x0 DUP2 ISZERO ISZERO SWAP1 POP SWAP2 SWAP1 POP JUMP JUMPDEST PUSH2 0x4B19 DUP2 PUSH2 0x4B04 JUMP JUMPDEST DUP3 MSTORE POP POP JUMP JUMPDEST PUSH1 0x0 PUSH1 0x40 DUP3 ADD SWAP1 POP PUSH2 0x4B34 PUSH1 0x0 DUP4 ADD DUP6 PUSH2 0x4A77 JUMP JUMPDEST PUSH2 0x4B41 PUSH1 0x20 DUP4 ADD DUP5 PUSH2 0x4B10 JUMP JUMPDEST SWAP4 SWAP3 POP POP POP JUMP JUMPDEST PUSH2 0x4B51 DUP2 PUSH2 0x49C3 JUMP JUMPDEST DUP3 MSTORE POP POP JUMP JUMPDEST PUSH1 0x0 PUSH1 0x20 DUP3 ADD SWAP1 POP PUSH2 0x4B6C PUSH1 0x0 DUP4 ADD DUP5 PUSH2 0x4B48 JUMP JUMPDEST SWAP3 SWAP2 POP POP JUMP JUMPDEST PUSH1 0x0 DUP2 MLOAD SWAP1 POP SWAP2 SWAP1 POP JUMP JUMPDEST PUSH1 0x0 DUP3 DUP3 MSTORE PUSH1 0x20 DUP3 ADD SWAP1 POP SWAP3 SWAP2 POP POP JUMP JUMPDEST PUSH1 0x0 JUMPDEST DUP4 DUP2 LT ISZERO PUSH2 0x4BAC JUMPI DUP1 DUP3 ADD MLOAD DUP2 DUP5 ADD MSTORE PUSH1 0x20 DUP2 ADD SWAP1 POP PUSH2 0x4B91 JUMP JUMPDEST PUSH1 0x0 DUP5 DUP5 ADD MSTORE POP POP POP POP JUMP JUMPDEST PUSH1 0x0 PUSH2 0x4BC3 DUP3 PUSH2 0x4B72 JUMP JUMPDEST PUSH2 0x4BCD DUP2 DUP6 PUSH2 0x4B7D JUMP JUMPDEST SWAP4 POP PUSH2 0x4BDD DUP2 DUP6 PUSH1 0x20 DUP7 ADD PUSH2 0x4B8E JUMP JUMPDEST PUSH2 0x4BE6 DUP2 PUSH2 0x481E JUMP JUMPDEST DUP5 ADD SWAP2 POP POP SWAP3 SWAP2 POP POP JUMP JUMPDEST PUSH1 0x0 PUSH1 0x20 DUP3 ADD SWAP1 POP DUP2 DUP2 SUB PUSH1 0x0 DUP4 ADD MSTORE PUSH2 0x4C0B DUP2 DUP5 PUSH2 0x4BB8 JUMP JUMPDEST SWAP1 POP SWAP3 SWAP2 POP POP JUMP JUMPDEST PUSH2 0x4C1C DUP2 PUSH2 0x4AA1 JUMP JUMPDEST DUP3 MSTORE POP POP JUMP JUMPDEST PUSH1 0x0 PUSH1 0x40 DUP3 ADD SWAP1 POP PUSH2 0x4C37 PUSH1 0x0 DUP4 ADD DUP6 PUSH2 0x4C13 JUMP JUMPDEST PUSH2 0x4C44 PUSH1 0x20 DUP4 ADD DUP5 PUSH2 0x4B10 JUMP JUMPDEST SWAP4 SWAP3 POP POP POP JUMP JUMPDEST PUSH1 0x0 DUP1 REVERT JUMPDEST PUSH1 0x0 DUP1 REVERT JUMPDEST PUSH1 0x0 DUP1 DUP4 PUSH1 0x1F DUP5 ADD SLT PUSH2 0x4C6B JUMPI PUSH2 0x4C6A PUSH2 0x4814 JUMP JUMPDEST JUMPDEST DUP3 CALLDATALOAD SWAP1 POP PUSH8 0xFFFFFFFFFFFFFFFF DUP2 GT ISZERO PUSH2 0x4C88 JUMPI PUSH2 0x4C87 PUSH2 0x4C4B JUMP JUMPDEST JUMPDEST PUSH1 0x20 DUP4 ADD SWAP2 POP DUP4 PUSH1 0x1 DUP3 MUL DUP4 ADD GT ISZERO PUSH2 0x4CA4 JUMPI PUSH2 0x4CA3 PUSH2 0x4C50 JUMP JUMPDEST JUMPDEST SWAP3 POP SWAP3 SWAP1 POP JUMP JUMPDEST PUSH1 0x0 DUP1 PUSH1 0x20 DUP4 DUP6 SUB SLT ISZERO PUSH2 0x4CC2 JUMPI PUSH2 0x4CC1 PUSH2 0x480A JUMP JUMPDEST JUMPDEST PUSH1 0x0 DUP4 ADD CALLDATALOAD PUSH8 0xFFFFFFFFFFFFFFFF DUP2 GT ISZERO PUSH2 0x4CE0 JUMPI PUSH2 0x4CDF PUSH2 0x480F JUMP JUMPDEST JUMPDEST PUSH2 0x4CEC DUP6 DUP3 DUP7 ADD PUSH2 0x4C55 JUMP JUMPDEST SWAP3 POP SWAP3 POP POP SWAP3 POP SWAP3 SWAP1 POP JUMP JUMPDEST PUSH1 0x0 DUP3 DUP3 MSTORE PUSH1 0x20 DUP3 ADD SWAP1 POP SWAP3 SWAP2 POP POP JUMP JUMPDEST PUSH1 0x0 PUSH2 0x4D14 DUP3 PUSH2 0x4B72 JUMP JUMPDEST PUSH2 0x4D1E DUP2 DUP6 PUSH2 0x4CF8 JUMP JUMPDEST SWAP4 POP PUSH2 0x4D2E DUP2 DUP6 PUSH1 0x20 DUP7 ADD PUSH2 0x4B8E JUMP JUMPDEST PUSH2 0x4D37 DUP2 PUSH2 0x481E JUMP JUMPDEST DUP5 ADD SWAP2 POP POP SWAP3 SWAP2 POP POP JUMP JUMPDEST PUSH2 0x4D4B DUP2 PUSH2 0x4B04 JUMP JUMPDEST DUP3 MSTORE POP POP JUMP JUMPDEST PUSH1 0x0 PUSH1 0x40 DUP4 ADD PUSH1 0x0 DUP4 ADD MLOAD DUP5 DUP3 SUB PUSH1 0x0 DUP7 ADD MSTORE PUSH2 0x4D6E DUP3 DUP3 PUSH2 0x4D09 JUMP JUMPDEST SWAP2 POP POP PUSH1 0x20 DUP4 ADD MLOAD PUSH2 0x4D83 PUSH1 0x20 DUP7 ADD DUP3 PUSH2 0x4D42 JUMP JUMPDEST POP DUP1 SWAP2 POP POP SWAP3 SWAP2 POP POP JUMP JUMPDEST PUSH1 0x0 PUSH1 0x20 DUP3 ADD SWAP1 POP DUP2 DUP2 SUB PUSH1 0x0 DUP4 ADD MSTORE PUSH2 0x4DA8 DUP2 DUP5 PUSH2 0x4D51 JUMP JUMPDEST SWAP1 POP SWAP3 SWAP2 POP POP JUMP JUMPDEST PUSH2 0x4DB9 DUP2 PUSH2 0x47C2 JUMP JUMPDEST DUP2 EQ PUSH2 0x4DC4 JUMPI PUSH1 0x0 DUP1 REVERT JUMPDEST POP JUMP JUMPDEST PUSH1 0x0 DUP2 CALLDATALOAD SWAP1 POP PUSH2 0x4DD6 DUP2 PUSH2 0x4DB0 JUMP JUMPDEST SWAP3 SWAP2 POP POP JUMP JUMPDEST PUSH1 0x0 DUP1 PUSH1 0x0 PUSH1 0x60 DUP5 DUP7 SUB SLT ISZERO PUSH2 0x4DF5 JUMPI PUSH2 0x4DF4 PUSH2 0x480A JUMP JUMPDEST JUMPDEST PUSH1 0x0 PUSH2 0x4E03 DUP7 DUP3 DUP8 ADD PUSH2 0x4DC7 JUMP JUMPDEST SWAP4 POP POP PUSH1 0x20 PUSH2 0x4E14 DUP7 DUP3 DUP8 ADD PUSH2 0x4DC7 JUMP JUMPDEST SWAP3 POP POP PUSH1 0x40 DUP5 ADD CALLDATALOAD PUSH8 0xFFFFFFFFFFFFFFFF DUP2 GT ISZERO PUSH2 0x4E35 JUMPI PUSH2 0x4E34 PUSH2 0x480F JUMP JUMPDEST JUMPDEST PUSH2 0x4E41 DUP7 DUP3 DUP8 ADD PUSH2 0x492C JUMP JUMPDEST SWAP2 POP POP SWAP3 POP SWAP3 POP SWAP3 JUMP JUMPDEST PUSH1 0x0 PUSH4 0xFFFFFFFF DUP3 AND SWAP1 POP SWAP2 SWAP1 POP JUMP JUMPDEST PUSH2 0x4E64 DUP2 PUSH2 0x4E4B JUMP JUMPDEST DUP3 MSTORE POP POP JUMP JUMPDEST PUSH1 0x0 PUSH1 0x60 DUP3 ADD SWAP1 POP PUSH2 0x4E7F PUSH1 0x0 DUP4 ADD DUP7 PUSH2 0x4E5B JUMP JUMPDEST PUSH2 0x4E8C PUSH1 0x20 DUP4 ADD DUP6 PUSH2 0x47D6 JUMP JUMPDEST DUP2 DUP2 SUB PUSH1 0x40 DUP4 ADD MSTORE PUSH2 0x4E9E DUP2 DUP5 PUSH2 0x4BB8 JUMP JUMPDEST SWAP1 POP SWAP5 SWAP4 POP POP POP POP JUMP JUMPDEST PUSH1 0x0 PUSH1 0x20 DUP3 DUP5 SUB SLT ISZERO PUSH2 0x4EBE JUMPI PUSH2 0x4EBD PUSH2 0x480A JUMP JUMPDEST JUMPDEST PUSH1 0x0 PUSH2 0x4ECC DUP5 DUP3 DUP6 ADD PUSH2 0x4A22 JUMP JUMPDEST SWAP2 POP POP SWAP3 SWAP2 POP POP JUMP JUMPDEST PUSH2 0x4EDE DUP2 PUSH2 0x47C2 JUMP JUMPDEST DUP3 MSTORE POP POP JUMP JUMPDEST PUSH1 0x0 DUP2 MLOAD SWAP1 POP SWAP2 SWAP1 POP JUMP JUMPDEST PUSH1 0x0 DUP3 DUP3 MSTORE PUSH1 0x20 DUP3 ADD SWAP1 POP SWAP3 SWAP2 POP POP JUMP JUMPDEST PUSH1 0x0 PUSH2 0x4F0B DUP3 PUSH2 0x4EE4 JUMP JUMPDEST PUSH2 0x4F15 DUP2 DUP6 PUSH2 0x4EEF JUMP JUMPDEST SWAP4 POP PUSH2 0x4F25 DUP2 DUP6 PUSH1 0x20 DUP7 ADD PUSH2 0x4B8E JUMP JUMPDEST PUSH2 0x4F2E DUP2 PUSH2 0x481E JUMP JUMPDEST DUP5 ADD SWAP2 POP POP SWAP3 SWAP2 POP POP JUMP JUMPDEST PUSH1 0x0 DUP2 PUSH1 0x7 SIGNEXTEND SWAP1 POP SWAP2 SWAP1 POP JUMP JUMPDEST PUSH2 0x4F4F DUP2 PUSH2 0x4F39 JUMP JUMPDEST DUP3 MSTORE POP POP JUMP JUMPDEST PUSH2 0x4F5E DUP2 PUSH2 0x4A01 JUMP JUMPDEST DUP3 MSTORE POP POP JUMP JUMPDEST PUSH1 0x0 PUSH1 0x80 DUP4 ADD PUSH1 0x0 DUP4 ADD MLOAD DUP5 DUP3 SUB PUSH1 0x0 DUP7 ADD MSTORE PUSH2 0x4F81 DUP3 DUP3 PUSH2 0x4F00 JUMP JUMPDEST SWAP2 POP POP PUSH1 0x20 DUP4 ADD MLOAD PUSH2 0x4F96 PUSH1 0x20 DUP7 ADD DUP3 PUSH2 0x4ED5 JUMP JUMPDEST POP PUSH1 0x40 DUP4 ADD MLOAD PUSH2 0x4FA9 PUSH1 0x40 DUP7 ADD DUP3 PUSH2 0x4D42 JUMP JUMPDEST POP PUSH1 0x60 DUP4 ADD MLOAD PUSH2 0x4FBC PUSH1 0x60 DUP7 ADD DUP3 PUSH2 0x4D42 JUMP JUMPDEST POP DUP1 SWAP2 POP POP SWAP3 SWAP2 POP POP JUMP JUMPDEST PUSH1 0x0 PUSH2 0x160 DUP4 ADD PUSH1 0x0 DUP4 ADD MLOAD DUP5 DUP3 SUB PUSH1 0x0 DUP7 ADD MSTORE PUSH2 0x4FE5 DUP3 DUP3 PUSH2 0x4D09 JUMP JUMPDEST SWAP2 POP POP PUSH1 0x20 DUP4 ADD MLOAD PUSH2 0x4FFA PUSH1 0x20 DUP7 ADD DUP3 PUSH2 0x4ED5 JUMP JUMPDEST POP PUSH1 0x40 DUP4 ADD MLOAD PUSH2 0x500D PUSH1 0x40 DUP7 ADD DUP3 PUSH2 0x4D42 JUMP JUMPDEST POP PUSH1 0x60 DUP4 ADD MLOAD DUP5 DUP3 SUB PUSH1 0x60 DUP7 ADD MSTORE PUSH2 0x5025 DUP3 DUP3 PUSH2 0x4F00 JUMP JUMPDEST SWAP2 POP POP PUSH1 0x80 DUP4 ADD MLOAD PUSH2 0x503A PUSH1 0x80 DUP7 ADD DUP3 PUSH2 0x4F46 JUMP JUMPDEST POP PUSH1 0xA0 DUP4 ADD MLOAD PUSH2 0x504D PUSH1 0xA0 DUP7 ADD DUP3 PUSH2 0x4F46 JUMP JUMPDEST POP PUSH1 0xC0 DUP4 ADD MLOAD PUSH2 0x5060 PUSH1 0xC0 DUP7 ADD DUP3 PUSH2 0x4F55 JUMP JUMPDEST POP PUSH1 0xE0 DUP4 ADD MLOAD PUSH2 0x5073 PUSH1 0xE0 DUP7 ADD DUP3 PUSH2 0x4F55 JUMP JUMPDEST POP PUSH2 0x100 DUP4 ADD MLOAD PUSH2 0x5088 PUSH2 0x100 DUP7 ADD DUP3 PUSH2 0x4F55 JUMP JUMPDEST POP PUSH2 0x120 DUP4 ADD MLOAD PUSH2 0x509D PUSH2 0x120 DUP7 ADD DUP3 PUSH2 0x4ED5 JUMP JUMPDEST POP PUSH2 0x140 DUP4 ADD MLOAD DUP5 DUP3 SUB PUSH2 0x140 DUP7 ADD MSTORE PUSH2 0x50B7 DUP3 DUP3 PUSH2 0x4F64 JUMP JUMPDEST SWAP2 POP POP DUP1 SWAP2 POP POP SWAP3 SWAP2 POP POP JUMP JUMPDEST PUSH1 0x0 PUSH1 0x20 DUP3 ADD SWAP1 POP DUP2 DUP2 SUB PUSH1 0x0 DUP4 ADD MSTORE PUSH2 0x50DE DUP2 DUP5 PUSH2 0x4FC7 JUMP JUMPDEST SWAP1 POP SWAP3 SWAP2 POP POP JUMP JUMPDEST PUSH32 0x4E487B7100000000000000000000000000000000000000000000000000000000 PUSH1 0x0 MSTORE PUSH1 0x21 PUSH1 0x4 MSTORE PUSH1 0x24 PUSH1 0x0 REVERT JUMPDEST PUSH1 0x5 DUP2 LT PUSH2 0x5126 JUMPI PUSH2 0x5125 PUSH2 0x50E6 JUMP JUMPDEST JUMPDEST POP JUMP JUMPDEST PUSH1 0x0 DUP2 SWAP1 POP PUSH2 0x5137 DUP3 PUSH2 0x5115 JUMP JUMPDEST SWAP2 SWAP1 POP JUMP JUMPDEST PUSH1 0x0 PUSH2 0x5147 DUP3 PUSH2 0x5129 JUMP JUMPDEST SWAP1 POP SWAP2 SWAP1 POP JUMP JUMPDEST PUSH2 0x5157 DUP2 PUSH2 0x513C JUMP JUMPDEST DUP3 MSTORE POP POP JUMP JUMPDEST PUSH1 0x0 PUSH1 0x20 DUP3 ADD SWAP1 POP PUSH2 0x5172 PUSH1 0x0 DUP4 ADD DUP5 PUSH2 0x514E JUMP JUMPDEST SWAP3 SWAP2 POP POP JUMP JUMPDEST PUSH1 0x0 DUP3 DUP3 MSTORE PUSH1 0x20 DUP3 ADD SWAP1 POP SWAP3 SWAP2 POP POP JUMP JUMPDEST PUSH1 0x0 PUSH2 0x5194 DUP3 PUSH2 0x4EE4 JUMP JUMPDEST PUSH2 0x519E DUP2 DUP6 PUSH2 0x5178 JUMP JUMPDEST SWAP4 POP PUSH2 0x51AE DUP2 DUP6 PUSH1 0x20 DUP7 ADD PUSH2 0x4B8E JUMP JUMPDEST PUSH2 0x51B7 DUP2 PUSH2 0x481E JUMP JUMPDEST DUP5 ADD SWAP2 POP POP SWAP3 SWAP2 POP POP JUMP JUMPDEST PUSH2 0x51CB DUP2 PUSH2 0x4F39 JUMP JUMPDEST DUP3 MSTORE POP POP JUMP JUMPDEST PUSH1 0x0 PUSH1 0x80 DUP4 ADD PUSH1 0x0 DUP4 ADD MLOAD DUP5 DUP3 SUB PUSH1 0x0 DUP7 ADD MSTORE PUSH2 0x51EE DUP3 DUP3 PUSH2 0x4F00 JUMP JUMPDEST SWAP2 POP POP PUSH1 0x20 DUP4 ADD MLOAD PUSH2 0x5203 PUSH1 0x20 DUP7 ADD DUP3 PUSH2 0x4ED5 JUMP JUMPDEST POP PUSH1 0x40 DUP4 ADD MLOAD PUSH2 0x5216 PUSH1 0x40 DUP7 ADD DUP3 PUSH2 0x4D42 JUMP JUMPDEST POP PUSH1 0x60 DUP4 ADD MLOAD PUSH2 0x5229 PUSH1 0x60 DUP7 ADD DUP3 PUSH2 0x4D42 JUMP JUMPDEST POP DUP1 SWAP2 POP POP SWAP3 SWAP2 POP POP JUMP JUMPDEST PUSH1 0x0 PUSH2 0x160 DUP3 ADD SWAP1 POP DUP2 DUP2 SUB PUSH1 0x0 DUP4 ADD MSTORE PUSH2 0x524F DUP2 DUP15 PUSH2 0x4BB8 JUMP JUMPDEST SWAP1 POP PUSH2 0x525E PUSH1 0x20 DUP4 ADD DUP14 PUSH2 0x47D6 JUMP JUMPDEST PUSH2 0x526B PUSH1 0x40 DUP4 ADD DUP13 PUSH2 0x4B10 JUMP JUMPDEST DUP2 DUP2 SUB PUSH1 0x60 DUP4 ADD MSTORE PUSH2 0x527D DUP2 DUP12 PUSH2 0x5189 JUMP JUMPDEST SWAP1 POP PUSH2 0x528C PUSH1 0x80 DUP4 ADD DUP11 PUSH2 0x51C2 JUMP JUMPDEST PUSH2 0x5299 PUSH1 0xA0 DUP4 ADD DUP10 PUSH2 0x51C2 JUMP JUMPDEST PUSH2 0x52A6 PUSH1 0xC0 DUP4 ADD DUP9 PUSH2 0x4A77 JUMP JUMPDEST PUSH2 0x52B3 PUSH1 0xE0 DUP4 ADD DUP8 PUSH2 0x4A77 JUMP JUMPDEST PUSH2 0x52C1 PUSH2 0x100 DUP4 ADD DUP7 PUSH2 0x4A77 JUMP JUMPDEST PUSH2 0x52CF PUSH2 0x120 DUP4 ADD DUP6 PUSH2 0x47D6 JUMP JUMPDEST DUP2 DUP2 SUB PUSH2 0x140 DUP4 ADD MSTORE PUSH2 0x52E2 DUP2 DUP5 PUSH2 0x51D1 JUMP JUMPDEST SWAP1 POP SWAP13 SWAP12 POP POP POP POP POP POP POP POP POP POP POP POP JUMP JUMPDEST PUSH1 0x0 DUP1 REVERT JUMPDEST PUSH1 0x0 PUSH2 0x160 DUP3 DUP5 SUB SLT ISZERO PUSH2 0x5310 JUMPI PUSH2 0x530F PUSH2 0x52F4 JUMP JUMPDEST JUMPDEST DUP2 SWAP1 POP SWAP3 SWAP2 POP POP JUMP JUMPDEST PUSH1 0x0 PUSH1 0x20 DUP3 DUP5 SUB SLT ISZERO PUSH2 0x532F JUMPI PUSH2 0x532E PUSH2 0x480A JUMP JUMPDEST JUMPDEST PUSH1 0x0 DUP3 ADD CALLDATALOAD PUSH8 0xFFFFFFFFFFFFFFFF DUP2 GT ISZERO PUSH2 0x534D JUMPI PUSH2 0x534C PUSH2 0x480F JUMP JUMPDEST JUMPDEST PUSH2 0x5359 DUP5 DUP3 DUP6 ADD PUSH2 0x52F9 JUMP JUMPDEST SWAP2 POP POP SWAP3 SWAP2 POP POP JUMP JUMPDEST PUSH1 0x0 PUSH1 0x20 DUP3 ADD SWAP1 POP PUSH2 0x5377 PUSH1 0x0 DUP4 ADD DUP5 PUSH2 0x4C13 JUMP JUMPDEST SWAP3 SWAP2 POP POP JUMP JUMPDEST PUSH2 0x5386 DUP2 PUSH2 0x4AA1 JUMP JUMPDEST DUP3 MSTORE POP POP JUMP JUMPDEST PUSH1 0x40 DUP3 ADD PUSH1 0x0 DUP3 ADD MLOAD PUSH2 0x53A2 PUSH1 0x0 DUP6 ADD DUP3 PUSH2 0x537D JUMP JUMPDEST POP PUSH1 0x20 DUP3 ADD MLOAD PUSH2 0x53B5 PUSH1 0x20 DUP6 ADD DUP3 PUSH2 0x4D42 JUMP JUMPDEST POP POP POP POP JUMP JUMPDEST PUSH1 0x0 PUSH1 0x40 DUP3 ADD SWAP1 POP PUSH2 0x53D0 PUSH1 0x0 DUP4 ADD DUP5 PUSH2 0x538C JUMP JUMPDEST SWAP3 SWAP2 POP POP JUMP JUMPDEST PUSH1 0x0 PUSH1 0x40 DUP3 ADD SWAP1 POP DUP2 DUP2 SUB PUSH1 0x0 DUP4 ADD MSTORE PUSH2 0x53F0 DUP2 DUP6 PUSH2 0x4BB8 JUMP JUMPDEST SWAP1 POP PUSH2 0x53FF PUSH1 0x20 DUP4 ADD DUP5 PUSH2 0x4B10 JUMP JUMPDEST SWAP4 SWAP3 POP POP POP JUMP JUMPDEST PUSH1 0x0 DUP2 SWAP1 POP SWAP3 SWAP2 POP POP JUMP JUMPDEST PUSH1 0x0 PUSH2 0x541C DUP3 PUSH2 0x4B72 JUMP JUMPDEST PUSH2 0x5426 DUP2 DUP6 PUSH2 0x5406 JUMP JUMPDEST SWAP4 POP PUSH2 0x5436 DUP2 DUP6 PUSH1 0x20 DUP7 ADD PUSH2 0x4B8E JUMP JUMPDEST DUP1 DUP5 ADD SWAP2 POP POP SWAP3 SWAP2 POP POP JUMP JUMPDEST PUSH1 0x0 PUSH2 0x544E DUP3 DUP5 PUSH2 0x5411 JUMP JUMPDEST SWAP2 POP DUP2 SWAP1 POP SWAP3 SWAP2 POP POP JUMP JUMPDEST PUSH32 0x6E6F206465616C207075626C697368656420666F722074686973207069656365 PUSH1 0x0 DUP3 ADD MSTORE PUSH32 0x2063696400000000000000000000000000000000000000000000000000000000 PUSH1 0x20 DUP3 ADD MSTORE POP JUMP JUMPDEST PUSH1 0x0 PUSH2 0x54B5 PUSH1 0x24 DUP4 PUSH2 0x5178 JUMP JUMPDEST SWAP2 POP PUSH2 0x54C0 DUP3 PUSH2 0x5459 JUMP JUMPDEST PUSH1 0x40 DUP3 ADD SWAP1 POP SWAP2 SWAP1 POP JUMP JUMPDEST PUSH1 0x0 PUSH1 0x20 DUP3 ADD SWAP1 POP DUP2 DUP2 SUB PUSH1 0x0 DUP4 ADD MSTORE PUSH2 0x54E4 DUP2 PUSH2 0x54A8 JUMP JUMPDEST SWAP1 POP SWAP2 SWAP1 POP JUMP JUMPDEST PUSH1 0x0 PUSH2 0x54F7 DUP4 DUP6 PUSH2 0x5406 JUMP JUMPDEST SWAP4 POP PUSH2 0x5504 DUP4 DUP6 DUP5 PUSH2 0x48DB JUMP JUMPDEST DUP3 DUP5 ADD SWAP1 POP SWAP4 SWAP3 POP POP POP JUMP JUMPDEST PUSH1 0x0 PUSH2 0x551D DUP3 DUP5 DUP7 PUSH2 0x54EB JUMP JUMPDEST SWAP2 POP DUP2 SWAP1 POP SWAP4 SWAP3 POP POP POP JUMP JUMPDEST PUSH32 0x4E487B7100000000000000000000000000000000000000000000000000000000 PUSH1 0x0 MSTORE PUSH1 0x22 PUSH1 0x4 MSTORE PUSH1 0x24 PUSH1 0x0 REVERT JUMPDEST PUSH1 0x0 PUSH1 0x2 DUP3 DIV SWAP1 POP PUSH1 0x1 DUP3 AND DUP1 PUSH2 0x5570 JUMPI PUSH1 0x7F DUP3 AND SWAP2 POP JUMPDEST PUSH1 0x20 DUP3 LT DUP2 SUB PUSH2 0x5583 JUMPI PUSH2 0x5582 PUSH2 0x5529 JUMP JUMPDEST JUMPDEST POP SWAP2 SWAP1 POP JUMP JUMPDEST PUSH32 0x7468652066696C65636F696E206D6574686F642074686174207761732063616C PUSH1 0x0 DUP3 ADD MSTORE PUSH32 0x6C6564206973206E6F742068616E646C65640000000000000000000000000000 PUSH1 0x20 DUP3 ADD MSTORE POP JUMP JUMPDEST PUSH1 0x0 PUSH2 0x55E5 PUSH1 0x32 DUP4 PUSH2 0x5178 JUMP JUMPDEST SWAP2 POP PUSH2 0x55F0 DUP3 PUSH2 0x5589 JUMP JUMPDEST PUSH1 0x40 DUP3 ADD SWAP1 POP SWAP2 SWAP1 POP JUMP JUMPDEST PUSH1 0x0 PUSH1 0x20 DUP3 ADD SWAP1 POP DUP2 DUP2 SUB PUSH1 0x0 DUP4 ADD MSTORE PUSH2 0x5614 DUP2 PUSH2 0x55D8 JUMP JUMPDEST SWAP1 POP SWAP2 SWAP1 POP JUMP JUMPDEST PUSH32 0x4E487B7100000000000000000000000000000000000000000000000000000000 PUSH1 0x0 MSTORE PUSH1 0x32 PUSH1 0x4 MSTORE PUSH1 0x24 PUSH1 0x0 REVERT JUMPDEST PUSH1 0x0 DUP1 REVERT JUMPDEST PUSH1 0x0 DUP1 REVERT JUMPDEST PUSH1 0x0 DUP1 REVERT JUMPDEST PUSH1 0x0 DUP1 DUP4 CALLDATALOAD PUSH1 0x1 PUSH1 0x20 SUB DUP5 CALLDATASIZE SUB SUB DUP2 SLT PUSH2 0x5676 JUMPI PUSH2 0x5675 PUSH2 0x564A JUMP JUMPDEST JUMPDEST DUP1 DUP5 ADD SWAP3 POP DUP3 CALLDATALOAD SWAP2 POP PUSH8 0xFFFFFFFFFFFFFFFF DUP3 GT ISZERO PUSH2 0x5698 JUMPI PUSH2 0x5697 PUSH2 0x564F JUMP JUMPDEST JUMPDEST PUSH1 0x20 DUP4 ADD SWAP3 POP PUSH1 0x1 DUP3 MUL CALLDATASIZE SUB DUP4 SGT ISZERO PUSH2 0x56B4 JUMPI PUSH2 0x56B3 PUSH2 0x5654 JUMP JUMPDEST JUMPDEST POP SWAP3 POP SWAP3 SWAP1 POP JUMP JUMPDEST PUSH32 0x6465616C2077697468207468697320706965636543696420616C726561647920 PUSH1 0x0 DUP3 ADD MSTORE PUSH32 0x7075626C69736865640000000000000000000000000000000000000000000000 PUSH1 0x20 DUP3 ADD MSTORE POP JUMP JUMPDEST PUSH1 0x0 PUSH2 0x5718 PUSH1 0x29 DUP4 PUSH2 0x5178 JUMP JUMPDEST SWAP2 POP PUSH2 0x5723 DUP3 PUSH2 0x56BC JUMP JUMPDEST PUSH1 0x40 DUP3 ADD SWAP1 POP SWAP2 SWAP1 POP JUMP JUMPDEST PUSH1 0x0 PUSH1 0x20 DUP3 ADD SWAP1 POP DUP2 DUP2 SUB PUSH1 0x0 DUP4 ADD MSTORE PUSH2 0x5747 DUP2 PUSH2 0x570B JUMP JUMPDEST SWAP1 POP SWAP2 SWAP1 POP JUMP JUMPDEST PUSH1 0x0 DUP3 SWAP1 POP SWAP3 SWAP2 POP POP JUMP JUMPDEST PUSH1 0x0 DUP2 SWAP1 POP DUP2 PUSH1 0x0 MSTORE PUSH1 0x20 PUSH1 0x0 KECCAK256 SWAP1 POP SWAP2 SWAP1 POP JUMP JUMPDEST PUSH1 0x0 PUSH1 0x20 PUSH1 0x1F DUP4 ADD DIV SWAP1 POP SWAP2 SWAP1 POP JUMP JUMPDEST PUSH1 0x0 DUP3 DUP3 SHL SWAP1 POP SWAP3 SWAP2 POP POP JUMP JUMPDEST PUSH1 0x0 PUSH1 0x8 DUP4 MUL PUSH2 0x57BB PUSH32 0xFFFFFFFFFFFFFFFFFFFFFFFFFFFFFFFFFFFFFFFFFFFFFFFFFFFFFFFFFFFFFFFF DUP3 PUSH2 0x577E JUMP JUMPDEST PUSH2 0x57C5 DUP7 DUP4 PUSH2 0x577E JUMP JUMPDEST SWAP6 POP DUP1 NOT DUP5 AND SWAP4 POP DUP1 DUP7 AND DUP5 OR SWAP3 POP POP POP SWAP4 SWAP3 POP POP POP JUMP JUMPDEST PUSH1 0x0 DUP2 SWAP1 POP SWAP2 SWAP1 POP JUMP JUMPDEST PUSH1 0x0 PUSH2 0x5802 PUSH2 0x57FD PUSH2 0x57F8 DUP5 PUSH2 0x4A01 JUMP JUMPDEST PUSH2 0x57DD JUMP JUMPDEST PUSH2 0x4A01 JUMP JUMPDEST SWAP1 POP SWAP2 SWAP1 POP JUMP JUMPDEST PUSH1 0x0 DUP2 SWAP1 POP SWAP2 SWAP1 POP JUMP JUMPDEST PUSH2 0x581C DUP4 PUSH2 0x57E7 JUMP JUMPDEST PUSH2 0x5830 PUSH2 0x5828 DUP3 PUSH2 0x5809 JUMP JUMPDEST DUP5 DUP5 SLOAD PUSH2 0x578B JUMP JUMPDEST DUP3 SSTORE POP POP POP POP JUMP JUMPDEST PUSH1 0x0 SWAP1 JUMP JUMPDEST PUSH2 0x5845 PUSH2 0x5838 JUMP JUMPDEST PUSH2 0x5850 DUP2 DUP5 DUP5 PUSH2 0x5813 JUMP JUMPDEST POP POP POP JUMP JUMPDEST JUMPDEST DUP2 DUP2 LT ISZERO PUSH2 0x5874 JUMPI PUSH2 0x5869 PUSH1 0x0 DUP3 PUSH2 0x583D JUMP JUMPDEST PUSH1 0x1 DUP2 ADD SWAP1 POP PUSH2 0x5856 JUMP JUMPDEST POP POP JUMP JUMPDEST PUSH1 0x1F DUP3 GT ISZERO PUSH2 0x58B9 JUMPI PUSH2 0x588A DUP2 PUSH2 0x5759 JUMP JUMPDEST PUSH2 0x5893 DUP5 PUSH2 0x576E JUMP JUMPDEST DUP2 ADD PUSH1 0x20 DUP6 LT ISZERO PUSH2 0x58A2 JUMPI DUP2 SWAP1 POP JUMPDEST PUSH2 0x58B6 PUSH2 0x58AE DUP6 PUSH2 0x576E JUMP JUMPDEST DUP4 ADD DUP3 PUSH2 0x5855 JUMP JUMPDEST POP POP JUMPDEST POP POP POP JUMP JUMPDEST PUSH1 0x0 DUP3 DUP3 SHR SWAP1 POP SWAP3 SWAP2 POP POP JUMP JUMPDEST PUSH1 0x0 PUSH2 0x58DC PUSH1 0x0 NOT DUP5 PUSH1 0x8 MUL PUSH2 0x58BE JUMP JUMPDEST NOT DUP1 DUP4 AND SWAP2 POP POP SWAP3 SWAP2 POP POP JUMP JUMPDEST PUSH1 0x0 PUSH2 0x58F5 DUP4 DUP4 PUSH2 0x58CB JUMP JUMPDEST SWAP2 POP DUP3 PUSH1 0x2 MUL DUP3 OR SWAP1 POP SWAP3 SWAP2 POP POP JUMP JUMPDEST PUSH2 0x590F DUP4 DUP4 PUSH2 0x574E JUMP JUMPDEST PUSH8 0xFFFFFFFFFFFFFFFF DUP2 GT ISZERO PUSH2 0x5928 JUMPI PUSH2 0x5927 PUSH2 0x482F JUMP JUMPDEST JUMPDEST PUSH2 0x5932 DUP3 SLOAD PUSH2 0x5558 JUMP JUMPDEST PUSH2 0x593D DUP3 DUP3 DUP6 PUSH2 0x5878 JUMP JUMPDEST PUSH1 0x0 PUSH1 0x1F DUP4 GT PUSH1 0x1 DUP2 EQ PUSH2 0x596C JUMPI PUSH1 0x0 DUP5 ISZERO PUSH2 0x595A JUMPI DUP3 DUP8 ADD CALLDATALOAD SWAP1 POP JUMPDEST PUSH2 0x5964 DUP6 DUP3 PUSH2 0x58E9 JUMP JUMPDEST DUP7 SSTORE POP PUSH2 0x59CC JUMP JUMPDEST PUSH1 0x1F NOT DUP5 AND PUSH2 0x597A DUP7 PUSH2 0x5759 JUMP JUMPDEST PUSH1 0x0 JUMPDEST DUP3 DUP2 LT ISZERO PUSH2 0x59A2 JUMPI DUP5 DUP10 ADD CALLDATALOAD DUP3 SSTORE PUSH1 0x1 DUP3 ADD SWAP2 POP PUSH1 0x20 DUP6 ADD SWAP5 POP PUSH1 0x20 DUP2 ADD SWAP1 POP PUSH2 0x597D JUMP JUMPDEST DUP7 DUP4 LT ISZERO PUSH2 0x59BF JUMPI DUP5 DUP10 ADD CALLDATALOAD PUSH2 0x59BB PUSH1 0x1F DUP10 AND DUP3 PUSH2 0x58CB JUMP JUMPDEST DUP4 SSTORE POP JUMPDEST PUSH1 0x1 PUSH1 0x2 DUP9 MUL ADD DUP9 SSTORE POP POP POP JUMPDEST POP POP POP POP POP POP POP JUMP JUMPDEST PUSH2 0x59E0 DUP4 DUP4 DUP4 PUSH2 0x5905 JUMP JUMPDEST POP POP POP JUMP JUMPDEST PUSH1 0x0 DUP2 CALLDATALOAD PUSH2 0x59F2 DUP2 PUSH2 0x4DB0 JUMP JUMPDEST DUP1 SWAP2 POP POP SWAP2 SWAP1 POP JUMP JUMPDEST PUSH1 0x0 DUP2 PUSH1 0x0 SHL SWAP1 POP SWAP2 SWAP1 POP JUMP JUMPDEST PUSH1 0x0 PUSH8 0xFFFFFFFFFFFFFFFF PUSH2 0x5A1C DUP5 PUSH2 0x59FB JUMP JUMPDEST SWAP4 POP DUP1 NOT DUP4 AND SWAP3 POP DUP1 DUP5 AND DUP4 OR SWAP2 POP POP SWAP3 SWAP2 POP POP JUMP JUMPDEST PUSH1 0x0 PUSH2 0x5A4D PUSH2 0x5A48 PUSH2 0x5A43 DUP5 PUSH2 0x47C2 JUMP JUMPDEST PUSH2 0x57DD JUMP JUMPDEST PUSH2 0x47C2 JUMP JUMPDEST SWAP1 POP SWAP2 SWAP1 POP JUMP JUMPDEST PUSH1 0x0 DUP2 SWAP1 POP SWAP2 SWAP1 POP JUMP JUMPDEST PUSH2 0x5A67 DUP3 PUSH2 0x5A32 JUMP JUMPDEST PUSH2 0x5A7A PUSH2 0x5A73 DUP3 PUSH2 0x5A54 JUMP JUMPDEST DUP4 SLOAD PUSH2 0x5A08 JUMP JUMPDEST DUP3 SSTORE POP POP POP JUMP JUMPDEST PUSH2 0x5A8A DUP2 PUSH2 0x4B04 JUMP JUMPDEST DUP2 EQ PUSH2 0x5A95 JUMPI PUSH1 0x0 DUP1 REVERT JUMPDEST POP JUMP JUMPDEST PUSH1 0x0 DUP2 CALLDATALOAD PUSH2 0x5AA5 DUP2 PUSH2 0x5A81 JUMP JUMPDEST DUP1 SWAP2 POP POP SWAP2 SWAP1 POP JUMP JUMPDEST PUSH1 0x0 DUP2 PUSH1 0x40 SHL SWAP1 POP SWAP2 SWAP1 POP JUMP JUMPDEST PUSH1 0x0 PUSH9 0xFF0000000000000000 PUSH2 0x5AD0 DUP5 PUSH2 0x5AAE JUMP JUMPDEST SWAP4 POP DUP1 NOT DUP4 AND SWAP3 POP DUP1 DUP5 AND DUP4 OR SWAP2 POP POP SWAP3 SWAP2 POP POP JUMP JUMPDEST PUSH1 0x0 PUSH2 0x5AF1 DUP3 PUSH2 0x4B04 JUMP JUMPDEST SWAP1 POP SWAP2 SWAP1 POP JUMP JUMPDEST PUSH1 0x0 DUP2 SWAP1 POP SWAP2 SWAP1 POP JUMP JUMPDEST PUSH2 0x5B0B DUP3 PUSH2 0x5AE6 JUMP JUMPDEST PUSH2 0x5B1E PUSH2 0x5B17 DUP3 PUSH2 0x5AF8 JUMP JUMPDEST DUP4 SLOAD PUSH2 0x5ABB JUMP JUMPDEST DUP3 SSTORE POP POP POP JUMP JUMPDEST PUSH1 0x0 DUP1 DUP4 CALLDATALOAD PUSH1 0x1 PUSH1 0x20 SUB DUP5 CALLDATASIZE SUB SUB DUP2 SLT PUSH2 0x5B42 JUMPI PUSH2 0x5B41 PUSH2 0x564A JUMP JUMPDEST JUMPDEST DUP1 DUP5 ADD SWAP3 POP DUP3 CALLDATALOAD SWAP2 POP PUSH8 0xFFFFFFFFFFFFFFFF DUP3 GT ISZERO PUSH2 0x5B64 JUMPI PUSH2 0x5B63 PUSH2 0x564F JUMP JUMPDEST JUMPDEST PUSH1 0x20 DUP4 ADD SWAP3 POP PUSH1 0x1 DUP3 MUL CALLDATASIZE SUB DUP4 SGT ISZERO PUSH2 0x5B80 JUMPI PUSH2 0x5B7F PUSH2 0x5654 JUMP JUMPDEST JUMPDEST POP SWAP3 POP SWAP3 SWAP1 POP JUMP JUMPDEST PUSH1 0x0 DUP3 SWAP1 POP SWAP3 SWAP2 POP POP JUMP JUMPDEST PUSH1 0x0 DUP2 SWAP1 POP DUP2 PUSH1 0x0 MSTORE PUSH1 0x20 PUSH1 0x0 KECCAK256 SWAP1 POP SWAP2 SWAP1 POP JUMP JUMPDEST PUSH1 0x1F DUP3 GT ISZERO PUSH2 0x5BE9 JUMPI PUSH2 0x5BBA DUP2 PUSH2 0x5B93 JUMP JUMPDEST PUSH2 0x5BC3 DUP5 PUSH2 0x576E JUMP JUMPDEST DUP2 ADD PUSH1 0x20 DUP6 LT ISZERO PUSH2 0x5BD2 JUMPI DUP2 SWAP1 POP JUMPDEST PUSH2 0x5BE6 PUSH2 0x5BDE DUP6 PUSH2 0x576E JUMP JUMPDEST DUP4 ADD DUP3 PUSH2 0x5855 JUMP JUMPDEST POP POP JUMPDEST POP POP POP JUMP JUMPDEST PUSH2 0x5BF8 DUP4 DUP4 PUSH2 0x5B88 JUMP JUMPDEST PUSH8 0xFFFFFFFFFFFFFFFF DUP2 GT ISZERO PUSH2 0x5C11 JUMPI PUSH2 0x5C10 PUSH2 0x482F JUMP JUMPDEST JUMPDEST PUSH2 0x5C1B DUP3 SLOAD PUSH2 0x5558 JUMP JUMPDEST PUSH2 0x5C26 DUP3 DUP3 DUP6 PUSH2 0x5BA8 JUMP JUMPDEST PUSH1 0x0 PUSH1 0x1F DUP4 GT PUSH1 0x1 DUP2 EQ PUSH2 0x5C55 JUMPI PUSH1 0x0 DUP5 ISZERO PUSH2 0x5C43 JUMPI DUP3 DUP8 ADD CALLDATALOAD SWAP1 POP JUMPDEST PUSH2 0x5C4D DUP6 DUP3 PUSH2 0x58E9 JUMP JUMPDEST DUP7 SSTORE POP PUSH2 0x5CB5 JUMP JUMPDEST PUSH1 0x1F NOT DUP5 AND PUSH2 0x5C63 DUP7 PUSH2 0x5B93 JUMP JUMPDEST PUSH1 0x0 JUMPDEST DUP3 DUP2 LT ISZERO PUSH2 0x5C8B JUMPI DUP5 DUP10 ADD CALLDATALOAD DUP3 SSTORE PUSH1 0x1 DUP3 ADD SWAP2 POP PUSH1 0x20 DUP6 ADD SWAP5 POP PUSH1 0x20 DUP2 ADD SWAP1 POP PUSH2 0x5C66 JUMP JUMPDEST DUP7 DUP4 LT ISZERO PUSH2 0x5CA8 JUMPI DUP5 DUP10 ADD CALLDATALOAD PUSH2 0x5CA4 PUSH1 0x1F DUP10 AND DUP3 PUSH2 0x58CB JUMP JUMPDEST DUP4 SSTORE POP JUMPDEST PUSH1 0x1 PUSH1 0x2 DUP9 MUL ADD DUP9 SSTORE POP POP POP JUMPDEST POP POP POP POP POP POP POP JUMP JUMPDEST PUSH2 0x5CC9 DUP4 DUP4 DUP4 PUSH2 0x5BEE JUMP JUMPDEST POP POP POP JUMP JUMPDEST PUSH2 0x5CD7 DUP2 PUSH2 0x4F39 JUMP JUMPDEST DUP2 EQ PUSH2 0x5CE2 JUMPI PUSH1 0x0 DUP1 REVERT JUMPDEST POP JUMP JUMPDEST PUSH1 0x0 DUP2 CALLDATALOAD PUSH2 0x5CF2 DUP2 PUSH2 0x5CCE JUMP JUMPDEST DUP1 SWAP2 POP POP SWAP2 SWAP1 POP JUMP JUMPDEST PUSH1 0x0 PUSH2 0x5D16 PUSH2 0x5D11 PUSH2 0x5D0C DUP5 PUSH2 0x4F39 JUMP JUMPDEST PUSH2 0x57DD JUMP JUMPDEST PUSH2 0x4F39 JUMP JUMPDEST SWAP1 POP SWAP2 SWAP1 POP JUMP JUMPDEST PUSH1 0x0 DUP2 SWAP1 POP SWAP2 SWAP1 POP JUMP JUMPDEST PUSH2 0x5D30 DUP3 PUSH2 0x5CFB JUMP JUMPDEST PUSH2 0x5D43 PUSH2 0x5D3C DUP3 PUSH2 0x5D1D JUMP JUMPDEST DUP4 SLOAD PUSH2 0x5A08 JUMP JUMPDEST DUP3 SSTORE POP POP POP JUMP JUMPDEST PUSH1 0x0 PUSH16 0xFFFFFFFFFFFFFFFF0000000000000000 PUSH2 0x5D66 DUP5 PUSH2 0x5AAE JUMP JUMPDEST SWAP4 POP DUP1 NOT DUP4 AND SWAP3 POP DUP1 DUP5 AND DUP4 OR SWAP2 POP POP SWAP3 SWAP2 POP POP JUMP JUMPDEST PUSH2 0x5D85 DUP3 PUSH2 0x5CFB JUMP JUMPDEST PUSH2 0x5D98 PUSH2 0x5D91 DUP3 PUSH2 0x5D1D JUMP JUMPDEST DUP4 SLOAD PUSH2 0x5D4A JUMP JUMPDEST DUP3 SSTORE POP POP POP JUMP JUMPDEST PUSH1 0x0 DUP2 CALLDATALOAD PUSH2 0x5DAC DUP2 PUSH2 0x4A0B JUMP JUMPDEST DUP1 SWAP2 POP POP SWAP2 SWAP1 POP JUMP JUMPDEST PUSH1 0x0 PUSH32 0xFFFFFFFFFFFFFFFFFFFFFFFFFFFFFFFFFFFFFFFFFFFFFFFFFFFFFFFFFFFFFFFF PUSH2 0x5DE1 DUP5 PUSH2 0x59FB JUMP JUMPDEST SWAP4 POP DUP1 NOT DUP4 AND SWAP3 POP DUP1 DUP5 AND DUP4 OR SWAP2 POP POP SWAP3 SWAP2 POP POP JUMP JUMPDEST PUSH2 0x5E00 DUP3 PUSH2 0x57E7 JUMP JUMPDEST PUSH2 0x5E13 PUSH2 0x5E0C DUP3 PUSH2 0x5809 JUMP JUMPDEST DUP4 SLOAD PUSH2 0x5DB5 JUMP JUMPDEST DUP3 SSTORE POP POP POP JUMP JUMPDEST PUSH1 0x0 DUP3 CALLDATALOAD PUSH1 0x1 PUSH1 0x80 SUB DUP4 CALLDATASIZE SUB SUB DUP2 SLT PUSH2 0x5E36 JUMPI PUSH2 0x5E35 PUSH2 0x564A JUMP JUMPDEST JUMPDEST DUP1 DUP4 ADD SWAP2 POP POP SWAP3 SWAP2 POP POP JUMP JUMPDEST PUSH1 0x0 DUP2 PUSH1 0x48 SHL SWAP1 POP SWAP2 SWAP1 POP JUMP JUMPDEST PUSH1 0x0 PUSH10 0xFF000000000000000000 PUSH2 0x5E65 DUP5 PUSH2 0x5E42 JUMP JUMPDEST SWAP4 POP DUP1 NOT DUP4 AND SWAP3 POP DUP1 DUP5 AND DUP4 OR SWAP2 POP POP SWAP3 SWAP2 POP POP JUMP JUMPDEST PUSH2 0x5E84 DUP3 PUSH2 0x5AE6 JUMP JUMPDEST PUSH2 0x5E97 PUSH2 0x5E90 DUP3 PUSH2 0x5AF8 JUMP JUMPDEST DUP4 SLOAD PUSH2 0x5E4F JUMP JUMPDEST DUP3 SSTORE POP POP POP JUMP JUMPDEST PUSH1 0x0 DUP2 ADD PUSH1 0x0 DUP4 ADD PUSH2 0x5EB0 DUP2 DUP6 PUSH2 0x5B25 JUMP JUMPDEST PUSH2 0x5EBB DUP2 DUP4 DUP7 PUSH2 0x5CBE JUMP JUMPDEST POP POP POP POP PUSH1 0x1 DUP2 ADD PUSH1 0x20 DUP4 ADD DUP1 PUSH2 0x5ED1 DUP2 PUSH2 0x59E5 JUMP JUMPDEST SWAP1 POP PUSH2 0x5EDD DUP2 DUP5 PUSH2 0x5A5E JUMP JUMPDEST POP POP POP PUSH1 0x1 DUP2 ADD PUSH1 0x40 DUP4 ADD DUP1 PUSH2 0x5EF2 DUP2 PUSH2 0x5A98 JUMP JUMPDEST SWAP1 POP PUSH2 0x5EFE DUP2 DUP5 PUSH2 0x5B02 JUMP JUMPDEST POP POP POP PUSH1 0x1 DUP2 ADD PUSH1 0x60 DUP4 ADD DUP1 PUSH2 0x5F13 DUP2 PUSH2 0x5A98 JUMP JUMPDEST SWAP1 POP PUSH2 0x5F1F DUP2 DUP5 PUSH2 0x5E7B JUMP JUMPDEST POP POP POP POP POP JUMP JUMPDEST PUSH2 0x5F30 DUP3 DUP3 PUSH2 0x5E9E JUMP JUMPDEST POP POP JUMP JUMPDEST PUSH1 0x0 DUP2 ADD PUSH1 0x0 DUP4 ADD PUSH2 0x5F46 DUP2 DUP6 PUSH2 0x5659 JUMP JUMPDEST PUSH2 0x5F51 DUP2 DUP4 DUP7 PUSH2 0x59D5 JUMP JUMPDEST POP POP POP POP PUSH1 0x1 DUP2 ADD PUSH1 0x20 DUP4 ADD DUP1 PUSH2 0x5F67 DUP2 PUSH2 0x59E5 JUMP JUMPDEST SWAP1 POP PUSH2 0x5F73 DUP2 DUP5 PUSH2 0x5A5E JUMP JUMPDEST POP POP POP PUSH1 0x1 DUP2 ADD PUSH1 0x40 DUP4 ADD DUP1 PUSH2 0x5F88 DUP2 PUSH2 0x5A98 JUMP JUMPDEST SWAP1 POP PUSH2 0x5F94 DUP2 DUP5 PUSH2 0x5B02 JUMP JUMPDEST POP POP POP PUSH1 0x2 DUP2 ADD PUSH1 0x60 DUP4 ADD PUSH2 0x5FA9 DUP2 DUP6 PUSH2 0x5B25 JUMP JUMPDEST PUSH2 0x5FB4 DUP2 DUP4 DUP7 PUSH2 0x5CBE JUMP JUMPDEST POP POP POP POP PUSH1 0x3 DUP2 ADD PUSH1 0x80 DUP4 ADD DUP1 PUSH2 0x5FCA DUP2 PUSH2 0x5CE5 JUMP JUMPDEST SWAP1 POP PUSH2 0x5FD6 DUP2 DUP5 PUSH2 0x5D27 JUMP JUMPDEST POP POP POP PUSH1 0x3 DUP2 ADD PUSH1 0xA0 DUP4 ADD DUP1 PUSH2 0x5FEB DUP2 PUSH2 0x5CE5 JUMP JUMPDEST SWAP1 POP PUSH2 0x5FF7 DUP2 DUP5 PUSH2 0x5D7C JUMP JUMPDEST POP POP POP PUSH1 0x4 DUP2 ADD PUSH1 0xC0 DUP4 ADD DUP1 PUSH2 0x600C DUP2 PUSH2 0x5D9F JUMP JUMPDEST SWAP1 POP PUSH2 0x6018 DUP2 DUP5 PUSH2 0x5DF7 JUMP JUMPDEST POP POP POP PUSH1 0x5 DUP2 ADD PUSH1 0xE0 DUP4 ADD DUP1 PUSH2 0x602D DUP2 PUSH2 0x5D9F JUMP JUMPDEST SWAP1 POP PUSH2 0x6039 DUP2 DUP5 PUSH2 0x5DF7 JUMP JUMPDEST POP POP POP PUSH1 0x6 DUP2 ADD PUSH2 0x100 DUP4 ADD DUP1 PUSH2 0x604F DUP2 PUSH2 0x5D9F JUMP JUMPDEST SWAP1 POP PUSH2 0x605B DUP2 DUP5 PUSH2 0x5DF7 JUMP JUMPDEST POP POP POP PUSH1 0x7 DUP2 ADD PUSH2 0x120 DUP4 ADD DUP1 PUSH2 0x6071 DUP2 PUSH2 0x59E5 JUMP JUMPDEST SWAP1 POP PUSH2 0x607D DUP2 DUP5 PUSH2 0x5A5E JUMP JUMPDEST POP POP POP PUSH1 0x8 DUP2 ADD PUSH2 0x140 DUP4 ADD PUSH2 0x6093 DUP2 DUP6 PUSH2 0x5E1A JUMP JUMPDEST PUSH2 0x609D DUP2 DUP5 PUSH2 0x5F26 JUMP JUMPDEST POP POP POP POP POP JUMP JUMPDEST PUSH2 0x60AE DUP3 DUP3 PUSH2 0x5F34 JUMP JUMPDEST POP POP JUMP JUMPDEST PUSH1 0x0 DUP2 SWAP1 POP SWAP2 SWAP1 POP JUMP JUMPDEST PUSH2 0x60CD PUSH2 0x60C8 DUP3 PUSH2 0x4A01 JUMP JUMPDEST PUSH2 0x60B2 JUMP JUMPDEST DUP3 MSTORE POP POP JUMP JUMPDEST PUSH1 0x0 DUP2 PUSH1 0x60 SHL SWAP1 POP SWAP2 SWAP1 POP JUMP JUMPDEST PUSH1 0x0 PUSH2 0x60EB DUP3 PUSH2 0x60D3 JUMP JUMPDEST SWAP1 POP SWAP2 SWAP1 POP JUMP JUMPDEST PUSH1 0x0 PUSH2 0x60FD DUP3 PUSH2 0x60E0 JUMP JUMPDEST SWAP1 POP SWAP2 SWAP1 POP JUMP JUMPDEST PUSH2 0x6115 PUSH2 0x6110 DUP3 PUSH2 0x49C3 JUMP JUMPDEST PUSH2 0x60F2 JUMP JUMPDEST DUP3 MSTORE POP POP JUMP JUMPDEST PUSH1 0x0 PUSH2 0x6127 DUP3 DUP7 PUSH2 0x60BC JUMP JUMPDEST PUSH1 0x20 DUP3 ADD SWAP2 POP PUSH2 0x6137 DUP3 DUP6 PUSH2 0x6104 JUMP JUMPDEST PUSH1 0x14 DUP3 ADD SWAP2 POP PUSH2 0x6147 DUP3 DUP5 PUSH2 0x60BC JUMP JUMPDEST PUSH1 0x20 DUP3 ADD SWAP2 POP DUP2 SWAP1 POP SWAP5 SWAP4 POP POP POP POP JUMP JUMPDEST PUSH1 0x0 DUP2 CALLDATALOAD SWAP1 POP PUSH2 0x6167 DUP2 PUSH2 0x5A81 JUMP JUMPDEST SWAP3 SWAP2 POP POP JUMP JUMPDEST PUSH1 0x0 PUSH1 0x20 DUP3 DUP5 SUB SLT ISZERO PUSH2 0x6183 JUMPI PUSH2 0x6182 PUSH2 0x480A JUMP JUMPDEST JUMPDEST PUSH1 0x0 PUSH2 0x6191 DUP5 DUP3 DUP6 ADD PUSH2 0x6158 JUMP JUMPDEST SWAP2 POP POP SWAP3 SWAP2 POP POP JUMP JUMPDEST PUSH1 0x0 PUSH1 0x20 DUP3 DUP5 SUB SLT ISZERO PUSH2 0x61B0 JUMPI PUSH2 0x61AF PUSH2 0x480A JUMP JUMPDEST JUMPDEST PUSH1 0x0 PUSH2 0x61BE DUP5 DUP3 DUP6 ADD PUSH2 0x4DC7 JUMP JUMPDEST SWAP2 POP POP SWAP3 SWAP2 POP POP JUMP JUMPDEST PUSH1 0x0 PUSH1 0x40 DUP3 ADD SWAP1 POP PUSH2 0x61DC PUSH1 0x0 DUP4 ADD DUP6 PUSH2 0x47D6 JUMP JUMPDEST PUSH2 0x61E9 PUSH1 0x20 DUP4 ADD DUP5 PUSH2 0x4A77 JUMP JUMPDEST SWAP4 SWAP3 POP POP POP JUMP JUMPDEST PUSH1 0x0 DUP2 SWAP1 POP SWAP3 SWAP2 POP POP JUMP JUMPDEST PUSH32 0x40A000000000000000000000000000000000000000000000000000000000000 PUSH1 0x0 DUP3 ADD MSTORE POP JUMP JUMPDEST PUSH1 0x0 PUSH2 0x6231 PUSH1 0x2 DUP4 PUSH2 0x61F0 JUMP JUMPDEST SWAP2 POP PUSH2 0x623C DUP3 PUSH2 0x61FB JUMP JUMPDEST PUSH1 0x2 DUP3 ADD SWAP1 POP SWAP2 SWAP1 POP JUMP JUMPDEST PUSH1 0x0 PUSH2 0x6252 DUP3 PUSH2 0x6224 JUMP JUMPDEST SWAP2 POP PUSH2 0x625E DUP3 DUP5 PUSH2 0x6104 JUMP JUMPDEST PUSH1 0x14 DUP3 ADD SWAP2 POP DUP2 SWAP1 POP SWAP3 SWAP2 POP POP JUMP JUMPDEST PUSH1 0x0 DUP2 SWAP1 POP PUSH1 0x20 DUP3 ADD SWAP1 POP SWAP2 SWAP1 POP JUMP JUMPDEST PUSH1 0x0 PUSH2 0x6289 DUP3 MLOAD PUSH2 0x4AA1 JUMP JUMPDEST DUP1 SWAP2 POP POP SWAP2 SWAP1 POP JUMP JUMPDEST PUSH1 0x0 PUSH2 0x629D DUP3 PUSH2 0x4B72 JUMP JUMPDEST DUP3 PUSH2 0x62A7 DUP5 PUSH2 0x626D JUMP JUMPDEST SWAP1 POP PUSH2 0x62B2 DUP2 PUSH2 0x627D JUMP JUMPDEST SWAP3 POP PUSH1 0x20 DUP3 LT ISZERO PUSH2 0x62F2 JUMPI PUSH2 0x62ED PUSH32 0xFFFFFFFFFFFFFFFFFFFFFFFFFFFFFFFFFFFFFFFFFFFFFFFFFFFFFFFFFFFFFFFF DUP4 PUSH1 0x20 SUB PUSH1 0x8 MUL PUSH2 0x577E JUMP JUMPDEST DUP4 AND SWAP3 POP JUMPDEST POP POP SWAP2 SWAP1 POP JUMP JUMPDEST PUSH32 0x70726F706F73616C4964206E6F7420617661696C61626C650000000000000000 PUSH1 0x0 DUP3 ADD MSTORE POP JUMP JUMPDEST PUSH1 0x0 PUSH2 0x632F PUSH1 0x18 DUP4 PUSH2 0x5178 JUMP JUMPDEST SWAP2 POP PUSH2 0x633A DUP3 PUSH2 0x62F9 JUMP JUMPDEST PUSH1 0x20 DUP3 ADD SWAP1 POP SWAP2 SWAP1 POP JUMP JUMPDEST PUSH1 0x0 PUSH1 0x20 DUP3 ADD SWAP1 POP DUP2 DUP2 SUB PUSH1 0x0 DUP4 ADD MSTORE PUSH2 0x635E DUP2 PUSH2 0x6322 JUMP JUMPDEST SWAP1 POP SWAP2 SWAP1 POP JUMP JUMPDEST PUSH32 0x6D73672E73656E646572206E6565647320746F206265206D61726B6574206163 PUSH1 0x0 DUP3 ADD MSTORE PUSH32 0x746F722066303500000000000000000000000000000000000000000000000000 PUSH1 0x20 DUP3 ADD MSTORE POP JUMP JUMPDEST PUSH1 0x0 PUSH2 0x63C1 PUSH1 0x27 DUP4 PUSH2 0x5178 JUMP JUMPDEST SWAP2 POP PUSH2 0x63CC DUP3 PUSH2 0x6365 JUMP JUMPDEST PUSH1 0x40 DUP3 ADD SWAP1 POP SWAP2 SWAP1 POP JUMP JUMPDEST PUSH1 0x0 PUSH1 0x20 DUP3 ADD SWAP1 POP DUP2 DUP2 SUB PUSH1 0x0 DUP4 ADD MSTORE PUSH2 0x63F0 DUP2 PUSH2 0x63B4 JUMP JUMPDEST SWAP1 POP SWAP2 SWAP1 POP JUMP JUMPDEST PUSH32 0x706965636520636964206D757374206265206164646564206265666F72652061 PUSH1 0x0 DUP3 ADD MSTORE PUSH32 0x7574686F72697A696E6700000000000000000000000000000000000000000000 PUSH1 0x20 DUP3 ADD MSTORE POP JUMP JUMPDEST PUSH1 0x0 PUSH2 0x6453 PUSH1 0x2A DUP4 PUSH2 0x5178 JUMP JUMPDEST SWAP2 POP PUSH2 0x645E DUP3 PUSH2 0x63F7 JUMP JUMPDEST PUSH1 0x40 DUP3 ADD SWAP1 POP SWAP2 SWAP1 POP JUMP JUMPDEST PUSH1 0x0 PUSH1 0x20 DUP3 ADD SWAP1 POP DUP2 DUP2 SUB PUSH1 0x0 DUP4 ADD MSTORE PUSH2 0x6482 DUP2 PUSH2 0x6446 JUMP JUMPDEST SWAP1 POP SWAP2 SWAP1 POP JUMP JUMPDEST PUSH32 0x6465616C206661696C656420706F6C69637920636865636B3A2070726F766964 PUSH1 0x0 DUP3 ADD MSTORE PUSH32 0x657220616C726561647920636C61696D65642074686973206369640000000000 PUSH1 0x20 DUP3 ADD MSTORE POP JUMP JUMPDEST PUSH1 0x0 PUSH2 0x64E5 PUSH1 0x3B DUP4 PUSH2 0x5178 JUMP JUMPDEST SWAP2 POP PUSH2 0x64F0 DUP3 PUSH2 0x6489 JUMP JUMPDEST PUSH1 0x40 DUP3 ADD SWAP1 POP SWAP2 SWAP1 POP JUMP JUMPDEST PUSH1 0x0 PUSH1 0x20 DUP3 ADD SWAP1 POP DUP2 DUP2 SUB PUSH1 0x0 DUP4 ADD MSTORE PUSH2 0x6514 DUP2 PUSH2 0x64D8 JUMP JUMPDEST SWAP1 POP SWAP2 SWAP1 POP JUMP JUMPDEST PUSH32 0x76657269666965645F6465616C20706172616D206D69736D6174636800000000 PUSH1 0x0 DUP3 ADD MSTORE POP JUMP JUMPDEST PUSH1 0x0 PUSH2 0x6551 PUSH1 0x1C DUP4 PUSH2 0x5178 JUMP JUMPDEST SWAP2 POP PUSH2 0x655C DUP3 PUSH2 0x651B JUMP JUMPDEST PUSH1 0x20 DUP3 ADD SWAP1 POP SWAP2 SWAP1 POP JUMP JUMPDEST PUSH1 0x0 PUSH1 0x20 DUP3 ADD SWAP1 POP DUP2 DUP2 SUB PUSH1 0x0 DUP4 ADD MSTORE PUSH2 0x6580 DUP2 PUSH2 0x6544 JUMP JUMPDEST SWAP1 POP SWAP2 SWAP1 POP JUMP JUMPDEST PUSH32 0x73746F726167652070726963652067726561746572207468616E207265717565 PUSH1 0x0 DUP3 ADD MSTORE PUSH32 0x737420616D6F756E740000000000000000000000000000000000000000000000 PUSH1 0x20 DUP3 ADD MSTORE POP JUMP JUMPDEST PUSH1 0x0 PUSH2 0x65E3 PUSH1 0x29 DUP4 PUSH2 0x5178 JUMP JUMPDEST SWAP2 POP PUSH2 0x65EE DUP3 PUSH2 0x6587 JUMP JUMPDEST PUSH1 0x40 DUP3 ADD SWAP1 POP SWAP2 SWAP1 POP JUMP JUMPDEST PUSH1 0x0 PUSH1 0x20 DUP3 ADD SWAP1 POP DUP2 DUP2 SUB PUSH1 0x0 DUP4 ADD MSTORE PUSH2 0x6612 DUP2 PUSH2 0x65D6 JUMP JUMPDEST SWAP1 POP SWAP2 SWAP1 POP JUMP JUMPDEST PUSH32 0x636C69656E7420636F6C6C61746572616C2067726561746572207468616E2072 PUSH1 0x0 DUP3 ADD MSTORE PUSH32 0x65717565737420616D6F756E7400000000000000000000000000000000000000 PUSH1 0x20 DUP3 ADD MSTORE POP JUMP JUMPDEST PUSH1 0x0 PUSH2 0x6675 PUSH1 0x2D DUP4 PUSH2 0x5178 JUMP JUMPDEST SWAP2 POP PUSH2 0x6680 DUP3 PUSH2 0x6619 JUMP JUMPDEST PUSH1 0x40 DUP3 ADD SWAP1 POP SWAP2 SWAP1 POP JUMP JUMPDEST PUSH1 0x0 PUSH1 0x20 DUP3 ADD SWAP1 POP DUP2 DUP2 SUB PUSH1 0x0 DUP4 ADD MSTORE PUSH2 0x66A4 DUP2 PUSH2 0x6668 JUMP JUMPDEST SWAP1 POP SWAP2 SWAP1 POP JUMP JUMPDEST PUSH32 0x496E76616C69642043424F520000000000000000000000000000000000000000 PUSH1 0x0 DUP3 ADD MSTORE POP JUMP JUMPDEST PUSH1 0x0 PUSH2 0x66E1 PUSH1 0xC DUP4 PUSH2 0x5178 JUMP JUMPDEST SWAP2 POP PUSH2 0x66EC DUP3 PUSH2 0x66AB JUMP JUMPDEST PUSH1 0x20 DUP3 ADD SWAP1 POP SWAP2 SWAP1 POP JUMP JUMPDEST PUSH1 0x0 PUSH1 0x20 DUP3 ADD SWAP1 POP DUP2 DUP2 SUB PUSH1 0x0 DUP4 ADD MSTORE PUSH2 0x6710 DUP2 PUSH2 0x66D4 JUMP JUMPDEST SWAP1 POP SWAP2 SWAP1 POP JUMP JUMPDEST PUSH2 0x6720 DUP3 PUSH2 0x4B72 JUMP JUMPDEST PUSH8 0xFFFFFFFFFFFFFFFF DUP2 GT ISZERO PUSH2 0x6739 JUMPI PUSH2 0x6738 PUSH2 0x482F JUMP JUMPDEST JUMPDEST PUSH2 0x6743 DUP3 SLOAD PUSH2 0x5558 JUMP JUMPDEST PUSH2 0x674E DUP3 DUP3 DUP6 PUSH2 0x5878 JUMP JUMPDEST PUSH1 0x0 PUSH1 0x20 SWAP1 POP PUSH1 0x1F DUP4 GT PUSH1 0x1 DUP2 EQ PUSH2 0x6781 JUMPI PUSH1 0x0 DUP5 ISZERO PUSH2 0x676F JUMPI DUP3 DUP8 ADD MLOAD SWAP1 POP JUMPDEST PUSH2 0x6779 DUP6 DUP3 PUSH2 0x58E9 JUMP JUMPDEST DUP7 SSTORE POP PUSH2 0x67E1 JUMP JUMPDEST PUSH1 0x1F NOT DUP5 AND PUSH2 0x678F DUP7 PUSH2 0x5759 JUMP JUMPDEST PUSH1 0x0 JUMPDEST DUP3 DUP2 LT ISZERO PUSH2 0x67B7 JUMPI DUP5 DUP10 ADD MLOAD DUP3 SSTORE PUSH1 0x1 DUP3 ADD SWAP2 POP PUSH1 0x20 DUP6 ADD SWAP5 POP PUSH1 0x20 DUP2 ADD SWAP1 POP PUSH2 0x6792 JUMP JUMPDEST DUP7 DUP4 LT ISZERO PUSH2 0x67D4 JUMPI DUP5 DUP10 ADD MLOAD PUSH2 0x67D0 PUSH1 0x1F DUP10 AND DUP3 PUSH2 0x58CB JUMP JUMPDEST DUP4 SSTORE POP JUMPDEST PUSH1 0x1 PUSH1 0x2 DUP9 MUL ADD DUP9 SSTORE POP POP POP JUMPDEST POP POP POP POP POP POP JUMP JUMPDEST PUSH32 0x6D73672E73656E646572206E6565647320746F20626520646174616361702061 PUSH1 0x0 DUP3 ADD MSTORE PUSH32 0x63746F7220663037000000000000000000000000000000000000000000000000 PUSH1 0x20 DUP3 ADD MSTORE POP JUMP JUMPDEST PUSH1 0x0 PUSH2 0x6845 PUSH1 0x28 DUP4 PUSH2 0x5178 JUMP JUMPDEST SWAP2 POP PUSH2 0x6850 DUP3 PUSH2 0x67E9 JUMP JUMPDEST PUSH1 0x40 DUP3 ADD SWAP1 POP SWAP2 SWAP1 POP JUMP JUMPDEST PUSH1 0x0 PUSH1 0x20 DUP3 ADD SWAP1 POP DUP2 DUP2 SUB PUSH1 0x0 DUP4 ADD MSTORE PUSH2 0x6874 DUP2 PUSH2 0x6838 JUMP JUMPDEST SWAP1 POP SWAP2 SWAP1 POP JUMP JUMPDEST PUSH32 0x4461746143617020526563656976656421000000000000000000000000000000 PUSH1 0x0 DUP3 ADD MSTORE POP JUMP JUMPDEST PUSH1 0x0 PUSH2 0x68B1 PUSH1 0x11 DUP4 PUSH2 0x5178 JUMP JUMPDEST SWAP2 POP PUSH2 0x68BC DUP3 PUSH2 0x687B JUMP JUMPDEST PUSH1 0x20 DUP3 ADD SWAP1 POP SWAP2 SWAP1 POP JUMP JUMPDEST PUSH1 0x0 PUSH1 0x20 DUP3 ADD SWAP1 POP DUP2 DUP2 SUB PUSH1 0x0 DUP4 ADD MSTORE PUSH2 0x68E0 DUP2 PUSH2 0x68A4 JUMP JUMPDEST SWAP1 POP SWAP2 SWAP1 POP JUMP JUMPDEST PUSH1 0x0 DUP1 DUP3 ADD MSTORE POP JUMP JUMPDEST PUSH1 0x0 PUSH2 0x68FD PUSH1 0x1 DUP4 PUSH2 0x61F0 JUMP JUMPDEST SWAP2 POP PUSH2 0x6908 DUP3 PUSH2 0x68E7 JUMP JUMPDEST PUSH1 0x1 DUP3 ADD SWAP1 POP SWAP2 SWAP1 POP JUMP JUMPDEST PUSH1 0x0 PUSH2 0x691E DUP3 PUSH2 0x68F0 JUMP JUMPDEST SWAP2 POP PUSH2 0x692A DUP3 DUP5 PUSH2 0x5411 JUMP JUMPDEST SWAP2 POP DUP2 SWAP1 POP SWAP3 SWAP2 POP POP JUMP JUMPDEST PUSH1 0x0 DUP2 MSTORE POP JUMP JUMPDEST PUSH1 0x0 PUSH2 0x6947 DUP3 PUSH2 0x6935 JUMP JUMPDEST PUSH1 0x1 DUP3 ADD SWAP2 POP PUSH2 0x6957 DUP3 DUP5 PUSH2 0x5411 JUMP JUMPDEST SWAP2 POP DUP2 SWAP1 POP SWAP3 SWAP2 POP POP JUMP JUMPDEST PUSH1 0x0 PUSH2 0x696E DUP3 DUP5 PUSH2 0x60BC JUMP JUMPDEST PUSH1 0x20 DUP3 ADD SWAP2 POP DUP2 SWAP1 POP SWAP3 SWAP2 POP POP JUMP JUMPDEST PUSH1 0x0 PUSH1 0x40 DUP3 ADD SWAP1 POP PUSH2 0x6992 PUSH1 0x0 DUP4 ADD DUP6 PUSH2 0x4A77 JUMP JUMPDEST PUSH2 0x699F PUSH1 0x20 DUP4 ADD DUP5 PUSH2 0x4A77 JUMP JUMPDEST SWAP4 SWAP3 POP POP POP JUMP JUMPDEST PUSH2 0x69AF DUP2 PUSH2 0x5A32 JUMP JUMPDEST DUP3 MSTORE POP POP JUMP JUMPDEST PUSH1 0x0 PUSH1 0xC0 DUP3 ADD SWAP1 POP PUSH2 0x69CA PUSH1 0x0 DUP4 ADD DUP10 PUSH2 0x47D6 JUMP JUMPDEST PUSH2 0x69D7 PUSH1 0x20 DUP4 ADD DUP9 PUSH2 0x4A77 JUMP JUMPDEST PUSH2 0x69E4 PUSH1 0x40 DUP4 ADD DUP8 PUSH2 0x47D6 JUMP JUMPDEST PUSH2 0x69F1 PUSH1 0x60 DUP4 ADD DUP7 PUSH2 0x47D6 JUMP JUMPDEST DUP2 DUP2 SUB PUSH1 0x80 DUP4 ADD MSTORE PUSH2 0x6A03 DUP2 DUP6 PUSH2 0x4BB8 JUMP JUMPDEST SWAP1 POP PUSH2 0x6A12 PUSH1 0xA0 DUP4 ADD DUP5 PUSH2 0x69A6 JUMP JUMPDEST SWAP8 SWAP7 POP POP POP POP POP POP POP JUMP JUMPDEST PUSH32 0x4E487B7100000000000000000000000000000000000000000000000000000000 PUSH1 0x0 MSTORE PUSH1 0x1 PUSH1 0x4 MSTORE PUSH1 0x24 PUSH1 0x0 REVERT JUMPDEST PUSH32 0x4E487B7100000000000000000000000000000000000000000000000000000000 PUSH1 0x0 MSTORE PUSH1 0x11 PUSH1 0x4 MSTORE PUSH1 0x24 PUSH1 0x0 REVERT JUMPDEST PUSH1 0x0 PUSH2 0x6A86 DUP3 PUSH2 0x4A01 JUMP JUMPDEST SWAP2 POP PUSH2 0x6A91 DUP4 PUSH2 0x4A01 JUMP JUMPDEST SWAP3 POP DUP3 DUP3 SUB SWAP1 POP DUP2 DUP2 GT ISZERO PUSH2 0x6AA9 JUMPI PUSH2 0x6AA8 PUSH2 0x6A4C JUMP JUMPDEST JUMPDEST SWAP3 SWAP2 POP POP JUMP JUMPDEST PUSH1 0x0 PUSH2 0x6ABA DUP3 PUSH2 0x4A01 JUMP JUMPDEST SWAP2 POP PUSH32 0xFFFFFFFFFFFFFFFFFFFFFFFFFFFFFFFFFFFFFFFFFFFFFFFFFFFFFFFFFFFFFFFF DUP3 SUB PUSH2 0x6AEC JUMPI PUSH2 0x6AEB PUSH2 0x6A4C JUMP JUMPDEST JUMPDEST PUSH1 0x1 DUP3 ADD SWAP1 POP SWAP2 SWAP1 POP JUMP JUMPDEST PUSH32 0x4E487B7100000000000000000000000000000000000000000000000000000000 PUSH1 0x0 MSTORE PUSH1 0x12 PUSH1 0x4 MSTORE PUSH1 0x24 PUSH1 0x0 REVERT JUMPDEST PUSH1 0x0 PUSH2 0x6B31 DUP3 PUSH2 0x4A01 JUMP JUMPDEST SWAP2 POP PUSH2 0x6B3C DUP4 PUSH2 0x4A01 JUMP JUMPDEST SWAP3 POP DUP3 PUSH2 0x6B4C JUMPI PUSH2 0x6B4B PUSH2 0x6AF7 JUMP JUMPDEST JUMPDEST DUP3 DUP3 MOD SWAP1 POP SWAP3 SWAP2 POP POP JUMP JUMPDEST PUSH1 0x0 PUSH2 0x6B62 DUP3 PUSH2 0x4A01 JUMP JUMPDEST SWAP2 POP PUSH2 0x6B6D DUP4 PUSH2 0x4A01 JUMP JUMPDEST SWAP3 POP DUP3 DUP3 ADD SWAP1 POP DUP1 DUP3 GT ISZERO PUSH2 0x6B85 JUMPI PUSH2 0x6B84 PUSH2 0x6A4C JUMP JUMPDEST JUMPDEST SWAP3 SWAP2 POP POP JUMP JUMPDEST PUSH1 0x0 PUSH2 0x6B96 DUP3 PUSH2 0x4F39 JUMP JUMPDEST SWAP2 POP PUSH2 0x6BA1 DUP4 PUSH2 0x4F39 JUMP JUMPDEST SWAP3 POP DUP3 DUP3 SUB SWAP1 POP PUSH8 0x7FFFFFFFFFFFFFFF DUP2 SGT PUSH32 0xFFFFFFFFFFFFFFFFFFFFFFFFFFFFFFFFFFFFFFFFFFFFFFFF8000000000000000 DUP3 SLT OR ISZERO PUSH2 0x6BE5 JUMPI PUSH2 0x6BE4 PUSH2 0x6A4C JUMP JUMPDEST JUMPDEST SWAP3 SWAP2 POP POP JUMP JUMPDEST PUSH1 0x0 DUP2 SWAP1 POP SWAP2 SWAP1 POP JUMP JUMPDEST PUSH2 0x6BFE DUP2 PUSH2 0x6BEB JUMP JUMPDEST DUP2 EQ PUSH2 0x6C09 JUMPI PUSH1 0x0 DUP1 REVERT JUMPDEST POP JUMP JUMPDEST PUSH1 0x0 DUP2 MLOAD SWAP1 POP PUSH2 0x6C1B DUP2 PUSH2 0x6BF5 JUMP JUMPDEST SWAP3 SWAP2 POP POP JUMP JUMPDEST PUSH1 0x0 DUP2 MLOAD SWAP1 POP PUSH2 0x6C30 DUP2 PUSH2 0x4DB0 JUMP JUMPDEST SWAP3 SWAP2 POP POP JUMP JUMPDEST PUSH1 0x0 PUSH2 0x6C49 PUSH2 0x6C44 DUP5 PUSH2 0x48AA JUMP JUMPDEST PUSH2 0x488F JUMP JUMPDEST SWAP1 POP DUP3 DUP2 MSTORE PUSH1 0x20 DUP2 ADD DUP5 DUP5 DUP5 ADD GT ISZERO PUSH2 0x6C65 JUMPI PUSH2 0x6C64 PUSH2 0x4819 JUMP JUMPDEST JUMPDEST PUSH2 0x6C70 DUP5 DUP3 DUP6 PUSH2 0x4B8E JUMP JUMPDEST POP SWAP4 SWAP3 POP POP POP JUMP JUMPDEST PUSH1 0x0 DUP3 PUSH1 0x1F DUP4 ADD SLT PUSH2 0x6C8D JUMPI PUSH2 0x6C8C PUSH2 0x4814 JUMP JUMPDEST JUMPDEST DUP2 MLOAD PUSH2 0x6C9D DUP5 DUP3 PUSH1 0x20 DUP7 ADD PUSH2 0x6C36 JUMP JUMPDEST SWAP2 POP POP SWAP3 SWAP2 POP POP JUMP JUMPDEST PUSH1 0x0 DUP1 PUSH1 0x0 PUSH1 0x60 DUP5 DUP7 SUB SLT ISZERO PUSH2 0x6CBF JUMPI PUSH2 0x6CBE PUSH2 0x480A JUMP JUMPDEST JUMPDEST PUSH1 0x0 PUSH2 0x6CCD DUP7 DUP3 DUP8 ADD PUSH2 0x6C0C JUMP JUMPDEST SWAP4 POP POP PUSH1 0x20 PUSH2 0x6CDE DUP7 DUP3 DUP8 ADD PUSH2 0x6C21 JUMP JUMPDEST SWAP3 POP POP PUSH1 0x40 DUP5 ADD MLOAD PUSH8 0xFFFFFFFFFFFFFFFF DUP2 GT ISZERO PUSH2 0x6CFF JUMPI PUSH2 0x6CFE PUSH2 0x480F JUMP JUMPDEST JUMPDEST PUSH2 0x6D0B DUP7 DUP3 DUP8 ADD PUSH2 0x6C78 JUMP JUMPDEST SWAP2 POP POP SWAP3 POP SWAP3 POP SWAP3 JUMP JUMPDEST PUSH2 0x6D1E DUP2 PUSH2 0x6BEB JUMP JUMPDEST DUP3 MSTORE POP POP JUMP JUMPDEST PUSH1 0x0 PUSH1 0x20 DUP3 ADD SWAP1 POP PUSH2 0x6D39 PUSH1 0x0 DUP4 ADD DUP5 PUSH2 0x6D15 JUMP JUMPDEST SWAP3 SWAP2 POP POP JUMP JUMPDEST PUSH32 0x696E76616C6964206D616A20286578706563746564204D616A546167206F7220 PUSH1 0x0 DUP3 ADD MSTORE PUSH32 0x4D616A42797465537472696E6729000000000000000000000000000000000000 PUSH1 0x20 DUP3 ADD MSTORE POP JUMP JUMPDEST PUSH1 0x0 PUSH2 0x6D9B PUSH1 0x2E DUP4 PUSH2 0x5178 JUMP JUMPDEST SWAP2 POP PUSH2 0x6DA6 DUP3 PUSH2 0x6D3F JUMP JUMPDEST PUSH1 0x40 DUP3 ADD SWAP1 POP SWAP2 SWAP1 POP JUMP JUMPDEST PUSH1 0x0 PUSH1 0x20 DUP3 ADD SWAP1 POP DUP2 DUP2 SUB PUSH1 0x0 DUP4 ADD MSTORE PUSH2 0x6DCA DUP2 PUSH2 0x6D8E JUMP JUMPDEST SWAP1 POP SWAP2 SWAP1 POP JUMP JUMPDEST PUSH32 0x696E76616C6964206D616A20286578706563746564204D616A41727261792900 PUSH1 0x0 DUP3 ADD MSTORE POP JUMP JUMPDEST PUSH1 0x0 PUSH2 0x6E07 PUSH1 0x1F DUP4 PUSH2 0x5178 JUMP JUMPDEST SWAP2 POP PUSH2 0x6E12 DUP3 PUSH2 0x6DD1 JUMP JUMPDEST PUSH1 0x20 DUP3 ADD SWAP1 POP SWAP2 SWAP1 POP JUMP JUMPDEST PUSH1 0x0 PUSH1 0x20 DUP3 ADD SWAP1 POP DUP2 DUP2 SUB PUSH1 0x0 DUP4 ADD MSTORE PUSH2 0x6E36 DUP2 PUSH2 0x6DFA JUMP JUMPDEST SWAP1 POP SWAP2 SWAP1 POP JUMP JUMPDEST PUSH32 0x696E76616C6964206D616A20286578706563746564204D616A5369676E656449 PUSH1 0x0 DUP3 ADD MSTORE PUSH32 0x6E74206F72204D616A556E7369676E6564496E74290000000000000000000000 PUSH1 0x20 DUP3 ADD MSTORE POP JUMP JUMPDEST PUSH1 0x0 PUSH2 0x6E99 PUSH1 0x35 DUP4 PUSH2 0x5178 JUMP JUMPDEST SWAP2 POP PUSH2 0x6EA4 DUP3 PUSH2 0x6E3D JUMP JUMPDEST PUSH1 0x40 DUP3 ADD SWAP1 POP SWAP2 SWAP1 POP JUMP JUMPDEST PUSH1 0x0 PUSH1 0x20 DUP3 ADD SWAP1 POP DUP2 DUP2 SUB PUSH1 0x0 DUP4 ADD MSTORE PUSH2 0x6EC8 DUP2 PUSH2 0x6E8C JUMP JUMPDEST SWAP1 POP SWAP2 SWAP1 POP JUMP JUMPDEST PUSH32 0x696E76616C6964206D616A20286578706563746564204D616A556E7369676E65 PUSH1 0x0 DUP3 ADD MSTORE PUSH32 0x64496E7429000000000000000000000000000000000000000000000000000000 PUSH1 0x20 DUP3 ADD MSTORE POP JUMP JUMPDEST PUSH1 0x0 PUSH2 0x6F2B PUSH1 0x25 DUP4 PUSH2 0x5178 JUMP JUMPDEST SWAP2 POP PUSH2 0x6F36 DUP3 PUSH2 0x6ECF JUMP JUMPDEST PUSH1 0x40 DUP3 ADD SWAP1 POP SWAP2 SWAP1 POP JUMP JUMPDEST PUSH1 0x0 PUSH1 0x20 DUP3 ADD SWAP1 POP DUP2 DUP2 SUB PUSH1 0x0 DUP4 ADD MSTORE PUSH2 0x6F5A DUP2 PUSH2 0x6F1E JUMP JUMPDEST SWAP1 POP SWAP2 SWAP1 POP JUMP JUMPDEST PUSH32 0x696E76616C6964206D616A20286578706563746564204D616A4F746865722900 PUSH1 0x0 DUP3 ADD MSTORE POP JUMP JUMPDEST PUSH1 0x0 PUSH2 0x6F97 PUSH1 0x1F DUP4 PUSH2 0x5178 JUMP JUMPDEST SWAP2 POP PUSH2 0x6FA2 DUP3 PUSH2 0x6F61 JUMP JUMPDEST PUSH1 0x20 DUP3 ADD SWAP1 POP SWAP2 SWAP1 POP JUMP JUMPDEST PUSH1 0x0 PUSH1 0x20 DUP3 ADD SWAP1 POP DUP2 DUP2 SUB PUSH1 0x0 DUP4 ADD MSTORE PUSH2 0x6FC6 DUP2 PUSH2 0x6F8A JUMP JUMPDEST SWAP1 POP SWAP2 SWAP1 POP JUMP JUMPDEST PUSH32 0x696E76616C6964206D616A20286578706563746564204D616A54657874537472 PUSH1 0x0 DUP3 ADD MSTORE PUSH32 0x696E672900000000000000000000000000000000000000000000000000000000 PUSH1 0x20 DUP3 ADD MSTORE POP JUMP JUMPDEST PUSH1 0x0 PUSH2 0x7029 PUSH1 0x24 DUP4 PUSH2 0x5178 JUMP JUMPDEST SWAP2 POP PUSH2 0x7034 DUP3 PUSH2 0x6FCD JUMP JUMPDEST PUSH1 0x40 DUP3 ADD SWAP1 POP SWAP2 SWAP1 POP JUMP JUMPDEST PUSH1 0x0 PUSH1 0x20 DUP3 ADD SWAP1 POP DUP2 DUP2 SUB PUSH1 0x0 DUP4 ADD MSTORE PUSH2 0x7058 DUP2 PUSH2 0x701C JUMP JUMPDEST SWAP1 POP SWAP2 SWAP1 POP JUMP JUMPDEST PUSH1 0x0 PUSH2 0x706A DUP3 PUSH2 0x4A01 JUMP JUMPDEST SWAP2 POP PUSH2 0x7075 DUP4 PUSH2 0x4A01 JUMP JUMPDEST SWAP3 POP DUP3 DUP3 MUL PUSH2 0x7083 DUP2 PUSH2 0x4A01 JUMP JUMPDEST SWAP2 POP DUP3 DUP3 DIV DUP5 EQ DUP4 ISZERO OR PUSH2 0x709A JUMPI PUSH2 0x7099 PUSH2 0x6A4C JUMP JUMPDEST JUMPDEST POP SWAP3 SWAP2 POP POP JUMP JUMPDEST PUSH32 0x63616E6E6F742068616E646C6520686561646572732077697468206578747261 PUSH1 0x0 DUP3 ADD MSTORE PUSH32 0x203E203237000000000000000000000000000000000000000000000000000000 PUSH1 0x20 DUP3 ADD MSTORE POP JUMP JUMPDEST PUSH1 0x0 PUSH2 0x70FD PUSH1 0x25 DUP4 PUSH2 0x5178 JUMP JUMPDEST SWAP2 POP PUSH2 0x7108 DUP3 PUSH2 0x70A1 JUMP JUMPDEST PUSH1 0x40 DUP3 ADD SWAP1 POP SWAP2 SWAP1 POP JUMP JUMPDEST PUSH1 0x0 PUSH1 0x20 DUP3 ADD SWAP1 POP DUP2 DUP2 SUB PUSH1 0x0 DUP4 ADD MSTORE PUSH2 0x712C DUP2 PUSH2 0x70F0 JUMP JUMPDEST SWAP1 POP SWAP2 SWAP1 POP JUMP JUMPDEST PUSH32 0x696E76616C69642063626F720000000000000000000000000000000000000000 PUSH1 0x0 DUP3 ADD MSTORE POP JUMP JUMPDEST PUSH1 0x0 PUSH2 0x7169 PUSH1 0xC DUP4 PUSH2 0x5178 JUMP JUMPDEST SWAP2 POP PUSH2 0x7174 DUP3 PUSH2 0x7133 JUMP JUMPDEST PUSH1 0x20 DUP3 ADD SWAP1 POP SWAP2 SWAP1 POP JUMP JUMPDEST PUSH1 0x0 PUSH1 0x20 DUP3 ADD SWAP1 POP DUP2 DUP2 SUB PUSH1 0x0 DUP4 ADD MSTORE PUSH2 0x7198 DUP2 PUSH2 0x715C JUMP JUMPDEST SWAP1 POP SWAP2 SWAP1 POP JUMP JUMPDEST PUSH1 0x0 DUP2 PUSH1 0x1 SHR SWAP1 POP SWAP2 SWAP1 POP JUMP JUMPDEST PUSH1 0x0 DUP1 DUP3 SWAP2 POP DUP4 SWAP1 POP JUMPDEST PUSH1 0x1 DUP6 GT ISZERO PUSH2 0x71F6 JUMPI DUP1 DUP7 DIV DUP2 GT ISZERO PUSH2 0x71D2 JUMPI PUSH2 0x71D1 PUSH2 0x6A4C JUMP JUMPDEST JUMPDEST PUSH1 0x1 DUP6 AND ISZERO PUSH2 0x71E1 JUMPI DUP1 DUP3 MUL SWAP2 POP JUMPDEST DUP1 DUP2 MUL SWAP1 POP PUSH2 0x71EF DUP6 PUSH2 0x719F JUMP JUMPDEST SWAP5 POP PUSH2 0x71B6 JUMP JUMPDEST SWAP5 POP SWAP5 SWAP3 POP POP POP JUMP JUMPDEST PUSH1 0x0 DUP3 PUSH2 0x720F JUMPI PUSH1 0x1 SWAP1 POP PUSH2 0x72CB JUMP JUMPDEST DUP2 PUSH2 0x721D JUMPI PUSH1 0x0 SWAP1 POP PUSH2 0x72CB JUMP JUMPDEST DUP2 PUSH1 0x1 DUP2 EQ PUSH2 0x7233 JUMPI PUSH1 0x2 DUP2 EQ PUSH2 0x723D JUMPI PUSH2 0x726C JUMP JUMPDEST PUSH1 0x1 SWAP2 POP POP PUSH2 0x72CB JUMP JUMPDEST PUSH1 0xFF DUP5 GT ISZERO PUSH2 0x724F JUMPI PUSH2 0x724E PUSH2 0x6A4C JUMP JUMPDEST JUMPDEST DUP4 PUSH1 0x2 EXP SWAP2 POP DUP5 DUP3 GT ISZERO PUSH2 0x7266 JUMPI PUSH2 0x7265 PUSH2 0x6A4C JUMP JUMPDEST JUMPDEST POP PUSH2 0x72CB JUMP JUMPDEST POP PUSH1 0x20 DUP4 LT PUSH2 0x133 DUP4 LT AND PUSH1 0x4E DUP5 LT PUSH1 0xB DUP5 LT AND OR ISZERO PUSH2 0x72A1 JUMPI DUP3 DUP3 EXP SWAP1 POP DUP4 DUP2 GT ISZERO PUSH2 0x729C JUMPI PUSH2 0x729B PUSH2 0x6A4C JUMP JUMPDEST JUMPDEST PUSH2 0x72CB JUMP JUMPDEST PUSH2 0x72AE DUP5 DUP5 DUP5 PUSH1 0x1 PUSH2 0x71AC JUMP JUMPDEST SWAP3 POP SWAP1 POP DUP2 DUP5 DIV DUP2 GT ISZERO PUSH2 0x72C5 JUMPI PUSH2 0x72C4 PUSH2 0x6A4C JUMP JUMPDEST JUMPDEST DUP2 DUP2 MUL SWAP1 POP JUMPDEST SWAP4 SWAP3 POP POP POP JUMP JUMPDEST PUSH1 0x0 PUSH2 0x72DD DUP3 PUSH2 0x4A01 JUMP JUMPDEST SWAP2 POP PUSH2 0x72E8 DUP4 PUSH2 0x4A01 JUMP JUMPDEST SWAP3 POP PUSH2 0x7315 PUSH32 0xFFFFFFFFFFFFFFFFFFFFFFFFFFFFFFFFFFFFFFFFFFFFFFFFFFFFFFFFFFFFFFFF DUP5 DUP5 PUSH2 0x71FF JUMP JUMPDEST SWAP1 POP SWAP3 SWAP2 POP POP JUMP JUMPDEST PUSH32 0x736C6963696E67206F7574206F662072616E6765000000000000000000000000 PUSH1 0x0 DUP3 ADD MSTORE POP JUMP JUMPDEST PUSH1 0x0 PUSH2 0x7353 PUSH1 0x14 DUP4 PUSH2 0x5178 JUMP JUMPDEST SWAP2 POP PUSH2 0x735E DUP3 PUSH2 0x731D JUMP JUMPDEST PUSH1 0x20 DUP3 ADD SWAP1 POP SWAP2 SWAP1 POP JUMP JUMPDEST PUSH1 0x0 PUSH1 0x20 DUP3 ADD SWAP1 POP DUP2 DUP2 SUB PUSH1 0x0 DUP4 ADD MSTORE PUSH2 0x7382 DUP2 PUSH2 0x7346 JUMP JUMPDEST SWAP1 POP SWAP2 SWAP1 POP JUMP INVALID LOG2 PUSH5 0x6970667358 0x22 SLT KECCAK256 CALL 0xE1 0xE4 0xB8 SWAP11 PUSH25 0x29B73127C1918CA8AB98B3CDD687DEA721D5D3C524E21ACB05 0xB8 PUSH5 0x736F6C6343 STOP ADDMOD GT STOP CALLER "},"methodIdentifiers":{"AUTHENTICATE_MESSAGE_METHOD_NUM()":"00706790","DATACAP_ACTOR_ETH_ADDRESS()":"be965ce7","DATACAP_RECEIVER_HOOK_METHOD_NUM()":"b34ba252","MARKET_ACTOR_ETH_ADDRESS()":"29aa3d2a","MARKET_NOTIFY_DEAL_METHOD_NUM()":"6067f454","addBalance(uint256)":"d91921ed","dealRequestIdx(bytes32)":"1adf7eb1","dealRequests(uint256)":"bad79de9","dealsLength()":"297ab486","getDealByIndex(uint256)":"96925ae6","getDealProposal(bytes32)":"f4b2e4d8","getExtraParams(bytes32)":"4634aed5","getProposalIdSet(bytes)":"f44a8903","getProviderSet(bytes)":"78133bb2","handle_filecoin_method(uint64,uint64,bytes)":"868e10c4","makeDealProposal((bytes,uint64,bool,string,int64,int64,uint256,uint256,uint256,uint64,(string,uint64,bool,bool)))":"dd27fe90","owner()":"8da5cb5b","pieceDeals(bytes)":"0a0e0c91","pieceProviders(bytes)":"f82704f0","pieceRequests(bytes)":"4e8a3ca4","pieceStatus(bytes)":"a6d1b7b8","updateActivationStatus(bytes)":"66263735","withdrawBalance(address,uint256)":"0cf20cc9"}}}}}