{
  "_format": "hh-sol-artifact-1",
  "contractName": "SubContract",
  "sourceName": "contracts/SubContract.sol",
  "abi": [
    {
      "anonymous": false,
      "inputs": [
        {
          "indexed": false,
          "internalType": "uint8",
          "name": "version",
          "type": "uint8"
        }
      ],
      "name": "Initialized",
      "type": "event"
    },
    {
      "anonymous": false,
      "inputs": [
        {
          "indexed": true,
          "internalType": "address",
          "name": "interchainGasPaymaster",
          "type": "address"
        }
      ],
      "name": "InterchainGasPaymasterSet",
      "type": "event"
    },
    {
      "anonymous": false,
      "inputs": [
        {
          "indexed": true,
          "internalType": "address",
          "name": "module",
          "type": "address"
        }
      ],
      "name": "InterchainSecurityModuleSet",
      "type": "event"
    },
    {
      "anonymous": false,
      "inputs": [
        {
          "indexed": true,
          "internalType": "address",
          "name": "mailbox",
          "type": "address"
        }
      ],
      "name": "MailboxSet",
      "type": "event"
    },
    {
      "anonymous": false,
      "inputs": [
        {
          "indexed": true,
          "internalType": "address",
          "name": "previousOwner",
          "type": "address"
        },
        {
          "indexed": true,
          "internalType": "address",
          "name": "newOwner",
          "type": "address"
        }
      ],
      "name": "OwnershipTransferred",
      "type": "event"
    },
    {
      "inputs": [
        {
          "internalType": "string",
          "name": "_name",
          "type": "string"
        },
        {
          "internalType": "string",
          "name": "_shiftStartTime",
          "type": "string"
        },
        {
          "internalType": "string",
          "name": "_shiftEndTime",
          "type": "string"
        },
        {
          "internalType": "string",
          "name": "_startDate",
          "type": "string"
        },
        {
          "internalType": "string",
          "name": "_endDate",
          "type": "string"
        },
        {
          "internalType": "string",
          "name": "_location",
          "type": "string"
        },
        {
          "internalType": "address",
          "name": "_NGOAddress",
          "type": "address"
        }
      ],
      "name": "addActivity",
      "outputs": [],
      "stateMutability": "nonpayable",
      "type": "function"
    },
    {
      "inputs": [
        {
          "internalType": "address",
          "name": "_NGOAddress",
          "type": "address"
        },
        {
          "internalType": "uint128",
          "name": "_eventID",
          "type": "uint128"
        },
        {
          "internalType": "address",
          "name": "_volunteerAddress",
          "type": "address"
        }
      ],
      "name": "addVolunteersToAnEventIDForANGO",
      "outputs": [],
      "stateMutability": "nonpayable",
      "type": "function"
    },
    {
      "inputs": [
        {
          "internalType": "address",
          "name": "_NGOAddress",
          "type": "address"
        }
      ],
      "name": "getActivities",
      "outputs": [
        {
          "components": [
            {
              "internalType": "string",
              "name": "name",
              "type": "string"
            },
            {
              "internalType": "string",
              "name": "location",
              "type": "string"
            },
            {
              "internalType": "string[]",
              "name": "eventName",
              "type": "string[]"
            },
            {
              "internalType": "string[]",
              "name": "eventLocation",
              "type": "string[]"
            },
            {
              "internalType": "string[]",
              "name": "shiftStartTime",
              "type": "string[]"
            },
            {
              "internalType": "string[]",
              "name": "shiftEndTime",
              "type": "string[]"
            },
            {
              "internalType": "string[]",
              "name": "startDate",
              "type": "string[]"
            },
            {
              "internalType": "string[]",
              "name": "endDate",
              "type": "string[]"
            },
            {
              "internalType": "uint128",
              "name": "lastEventCounter",
              "type": "uint128"
            }
          ],
          "internalType": "struct SubContract.NGODetails",
          "name": "",
          "type": "tuple"
        }
      ],
      "stateMutability": "view",
      "type": "function"
    },
    {
      "inputs": [
        {
          "internalType": "uint128",
          "name": "_eventID",
          "type": "uint128"
        },
        {
          "internalType": "address",
          "name": "_NGOAddress",
          "type": "address"
        }
      ],
      "name": "getCompleteInformationOnAnEventUserRegisteredFor",
      "outputs": [
        {
          "components": [
            {
              "internalType": "string",
              "name": "eventName",
              "type": "string"
            },
            {
              "internalType": "string",
              "name": "eventLocation",
              "type": "string"
            },
            {
              "internalType": "string",
              "name": "shiftStartTime",
              "type": "string"
            },
            {
              "internalType": "string",
              "name": "shiftEndTime",
              "type": "string"
            },
            {
              "internalType": "string",
              "name": "startDate",
              "type": "string"
            },
            {
              "internalType": "string",
              "name": "endDate",
              "type": "string"
            }
          ],
          "internalType": "struct SubContract.eventDetails",
          "name": "",
          "type": "tuple"
        }
      ],
      "stateMutability": "view",
      "type": "function"
    },
    {
      "inputs": [],
      "name": "interchainGasPaymaster",
      "outputs": [
        {
          "internalType": "contract IInterchainGasPaymaster",
          "name": "",
          "type": "address"
        }
      ],
      "stateMutability": "view",
      "type": "function"
    },
    {
      "inputs": [],
      "name": "interchainSecurityModule",
      "outputs": [
        {
          "internalType": "contract IInterchainSecurityModule",
          "name": "",
          "type": "address"
        }
      ],
      "stateMutability": "view",
      "type": "function"
    },
    {
      "inputs": [
        {
          "internalType": "address",
          "name": "",
          "type": "address"
        }
      ],
      "name": "listOfNGOs",
      "outputs": [
        {
          "internalType": "string",
          "name": "name",
          "type": "string"
        },
        {
          "internalType": "string",
          "name": "location",
          "type": "string"
        },
        {
          "internalType": "uint128",
          "name": "lastEventCounter",
          "type": "uint128"
        }
      ],
      "stateMutability": "view",
      "type": "function"
    },
    {
      "inputs": [],
      "name": "mailbox",
      "outputs": [
        {
          "internalType": "contract IMailbox",
          "name": "",
          "type": "address"
        }
      ],
      "stateMutability": "view",
      "type": "function"
    },
    {
      "inputs": [],
      "name": "owner",
      "outputs": [
        {
          "internalType": "address",
          "name": "",
          "type": "address"
        }
      ],
      "stateMutability": "view",
      "type": "function"
    },
    {
      "inputs": [
        {
          "internalType": "uint32",
          "name": "_destination",
          "type": "uint32"
        },
        {
          "internalType": "address",
          "name": "_recipient",
          "type": "address"
        },
        {
          "internalType": "address",
          "name": "_NGOAddress",
          "type": "address"
        }
      ],
      "name": "relayNGOMappingToMainContract",
      "outputs": [],
      "stateMutability": "nonpayable",
      "type": "function"
    },
    {
      "inputs": [],
      "name": "renounceOwnership",
      "outputs": [],
      "stateMutability": "nonpayable",
      "type": "function"
    },
    {
      "inputs": [
        {
          "internalType": "address",
          "name": "_interchainGasPaymaster",
          "type": "address"
        }
      ],
      "name": "setInterchainGasPaymaster",
      "outputs": [],
      "stateMutability": "nonpayable",
      "type": "function"
    },
    {
      "inputs": [
        {
          "internalType": "address",
          "name": "_module",
          "type": "address"
        }
      ],
      "name": "setInterchainSecurityModule",
      "outputs": [],
      "stateMutability": "nonpayable",
      "type": "function"
    },
    {
      "inputs": [
        {
          "internalType": "address",
          "name": "_mailbox",
          "type": "address"
        }
      ],
      "name": "setMailbox",
      "outputs": [],
      "stateMutability": "nonpayable",
      "type": "function"
    },
    {
      "inputs": [
        {
          "internalType": "string",
          "name": "_name",
          "type": "string"
        },
        {
          "internalType": "string",
          "name": "_location",
          "type": "string"
        },
        {
          "internalType": "address",
          "name": "_NGOAddress",
          "type": "address"
        },
        {
          "internalType": "string[]",
          "name": "_temporary",
          "type": "string[]"
        }
      ],
      "name": "setNGOToContract",
      "outputs": [],
      "stateMutability": "nonpayable",
      "type": "function"
    },
    {
      "inputs": [
        {
          "internalType": "address",
          "name": "newOwner",
          "type": "address"
        }
      ],
      "name": "transferOwnership",
      "outputs": [],
      "stateMutability": "nonpayable",
      "type": "function"
    }
  ],
  "bytecode": "0x608060405234801561001057600080fd5b506133b1806100206000396000f3fe608060405234801561001057600080fd5b50600436106101005760003560e01c8063bfee2dfa11610097578063f2fde38b11610066578063f2fde38b14610289578063f3c61d6b146102a5578063f64e4a70146102c1578063f9c65cb4146102dd57610100565b8063bfee2dfa14610201578063d5438eae14610231578063de523cf31461024f578063f1bd6f0a1461026d57610100565b8063715018a6116100d3578063715018a61461018b5780638da5cb5b146101955780638eb5b0d3146101b3578063900dd950146101e557610100565b806307b32c1c146101055780630e72cc061461013557806339bb4ad91461015157806354f32d3e1461016f575b600080fd5b61011f600480360381019061011a91906122aa565b6102f9565b60405161012c9190612426565b60405180910390f35b61014f600480360381019061014a9190612448565b610b30565b005b610159610b44565b60405161016691906124d4565b60405180910390f35b610189600480360381019061018491906124ef565b610b6a565b005b610193610c44565b005b61019d610c58565b6040516101aa9190612551565b60405180910390f35b6101cd60048036038101906101c89190612448565b610c82565b6040516101dc939291906125c5565b60405180910390f35b6101ff60048036038101906101fa9190612825565b610dd8565b005b61021b60048036038101906102169190612448565b610f8d565b6040516102289190612aa7565b60405180910390f35b61023961166b565b6040516102469190612aea565b60405180910390f35b610257611691565b6040516102649190612b26565b60405180910390f35b61028760048036038101906102829190612448565b6116b7565b005b6102a3600480360381019061029e9190612448565b6116cb565b005b6102bf60048036038101906102ba9190612448565b61174e565b005b6102db60048036038101906102d69190612b41565b611762565b005b6102f760048036038101906102f29190612cc7565b611acc565b005b610301612082565b6000609a60008473ffffffffffffffffffffffffffffffffffffffff1673ffffffffffffffffffffffffffffffffffffffff1681526020019081526020016000206040518061012001604052908160008201805461035e90612d49565b80601f016020809104026020016040519081016040528092919081815260200182805461038a90612d49565b80156103d75780601f106103ac576101008083540402835291602001916103d7565b820191906000526020600020905b8154815290600101906020018083116103ba57829003601f168201915b505050505081526020016001820180546103f090612d49565b80601f016020809104026020016040519081016040528092919081815260200182805461041c90612d49565b80156104695780601f1061043e57610100808354040283529160200191610469565b820191906000526020600020905b81548152906001019060200180831161044c57829003601f168201915b5050505050815260200160028201805480602002602001604051908101604052809291908181526020016000905b828210156105435783829060005260206000200180546104b690612d49565b80601f01602080910402602001604051908101604052809291908181526020018280546104e290612d49565b801561052f5780601f106105045761010080835404028352916020019161052f565b820191906000526020600020905b81548152906001019060200180831161051257829003601f168201915b505050505081526020019060010190610497565b50505050815260200160038201805480602002602001604051908101604052809291908181526020016000905b8282101561061c57838290600052602060002001805461058f90612d49565b80601f01602080910402602001604051908101604052809291908181526020018280546105bb90612d49565b80156106085780601f106105dd57610100808354040283529160200191610608565b820191906000526020600020905b8154815290600101906020018083116105eb57829003601f168201915b505050505081526020019060010190610570565b50505050815260200160048201805480602002602001604051908101604052809291908181526020016000905b828210156106f557838290600052602060002001805461066890612d49565b80601f016020809104026020016040519081016040528092919081815260200182805461069490612d49565b80156106e15780601f106106b6576101008083540402835291602001916106e1565b820191906000526020600020905b8154815290600101906020018083116106c457829003601f168201915b505050505081526020019060010190610649565b50505050815260200160058201805480602002602001604051908101604052809291908181526020016000905b828210156107ce57838290600052602060002001805461074190612d49565b80601f016020809104026020016040519081016040528092919081815260200182805461076d90612d49565b80156107ba5780601f1061078f576101008083540402835291602001916107ba565b820191906000526020600020905b81548152906001019060200180831161079d57829003601f168201915b505050505081526020019060010190610722565b50505050815260200160068201805480602002602001604051908101604052809291908181526020016000905b828210156108a757838290600052602060002001805461081a90612d49565b80601f016020809104026020016040519081016040528092919081815260200182805461084690612d49565b80156108935780601f1061086857610100808354040283529160200191610893565b820191906000526020600020905b81548152906001019060200180831161087657829003601f168201915b5050505050815260200190600101906107fb565b50505050815260200160078201805480602002602001604051908101604052809291908181526020016000905b828210156109805783829060005260206000200180546108f390612d49565b80601f016020809104026020016040519081016040528092919081815260200182805461091f90612d49565b801561096c5780601f106109415761010080835404028352916020019161096c565b820191906000526020600020905b81548152906001019060200180831161094f57829003601f168201915b5050505050815260200190600101906108d4565b5050505081526020016008820160009054906101000a90046fffffffffffffffffffffffffffffffff166fffffffffffffffffffffffffffffffff166fffffffffffffffffffffffffffffffff1681525050905060006040518060c001604052808360400151876fffffffffffffffffffffffffffffffff1681518110610a0a57610a09612d7a565b5b602002602001015181526020018360600151876fffffffffffffffffffffffffffffffff1681518110610a4057610a3f612d7a565b5b602002602001015181526020018360800151876fffffffffffffffffffffffffffffffff1681518110610a7657610a75612d7a565b5b602002602001015181526020018360a00151876fffffffffffffffffffffffffffffffff1681518110610aac57610aab612d7a565b5b602002602001015181526020018360c00151876fffffffffffffffffffffffffffffffff1681518110610ae257610ae1612d7a565b5b602002602001015181526020018360e00151876fffffffffffffffffffffffffffffffff1681518110610b1857610b17612d7a565b5b60200260200101518152509050809250505092915050565b610b38611ba1565b610b4181611c1f565b50565b606660009054906101000a900473ffffffffffffffffffffffffffffffffffffffff1681565b609960008473ffffffffffffffffffffffffffffffffffffffff1673ffffffffffffffffffffffffffffffffffffffff1681526020019081526020016000206000836fffffffffffffffffffffffffffffffff166fffffffffffffffffffffffffffffffff168152602001908152602001600020819080600181540180825580915050600190039060005260206000200160009091909190916101000a81548173ffffffffffffffffffffffffffffffffffffffff021916908373ffffffffffffffffffffffffffffffffffffffff160217905550505050565b610c4c611ba1565b610c566000611d25565b565b6000603360009054906101000a900473ffffffffffffffffffffffffffffffffffffffff16905090565b609a602052806000526040600020600091509050806000018054610ca590612d49565b80601f0160208091040260200160405190810160405280929190818152602001828054610cd190612d49565b8015610d1e5780601f10610cf357610100808354040283529160200191610d1e565b820191906000526020600020905b815481529060010190602001808311610d0157829003601f168201915b505050505090806001018054610d3390612d49565b80601f0160208091040260200160405190810160405280929190818152602001828054610d5f90612d49565b8015610dac5780601f10610d8157610100808354040283529160200191610dac565b820191906000526020600020905b815481529060010190602001808311610d8f57829003601f168201915b5050505050908060080160009054906101000a90046fffffffffffffffffffffffffffffffff16905083565b60405180610120016040528085815260200184815260200182815260200182815260200182815260200182815260200182815260200182815260200160006fffffffffffffffffffffffffffffffff16815250609a60008473ffffffffffffffffffffffffffffffffffffffff1673ffffffffffffffffffffffffffffffffffffffff1681526020019081526020016000206000820151816000019081610e7f9190612f55565b506020820151816001019081610e959190612f55565b506040820151816002019080519060200190610eb29291906120b8565b506060820151816003019080519060200190610ecf9291906120b8565b506080820151816004019080519060200190610eec9291906120b8565b5060a0820151816005019080519060200190610f099291906120b8565b5060c0820151816006019080519060200190610f269291906120b8565b5060e0820151816007019080519060200190610f439291906120b8565b506101008201518160080160006101000a8154816fffffffffffffffffffffffffffffffff02191690836fffffffffffffffffffffffffffffffff16021790555090505050505050565b610f95612111565b609a60008373ffffffffffffffffffffffffffffffffffffffff1673ffffffffffffffffffffffffffffffffffffffff16815260200190815260200160002060405180610120016040529081600082018054610ff090612d49565b80601f016020809104026020016040519081016040528092919081815260200182805461101c90612d49565b80156110695780601f1061103e57610100808354040283529160200191611069565b820191906000526020600020905b81548152906001019060200180831161104c57829003601f168201915b5050505050815260200160018201805461108290612d49565b80601f01602080910402602001604051908101604052809291908181526020018280546110ae90612d49565b80156110fb5780601f106110d0576101008083540402835291602001916110fb565b820191906000526020600020905b8154815290600101906020018083116110de57829003601f168201915b5050505050815260200160028201805480602002602001604051908101604052809291908181526020016000905b828210156111d557838290600052602060002001805461114890612d49565b80601f016020809104026020016040519081016040528092919081815260200182805461117490612d49565b80156111c15780601f10611196576101008083540402835291602001916111c1565b820191906000526020600020905b8154815290600101906020018083116111a457829003601f168201915b505050505081526020019060010190611129565b50505050815260200160038201805480602002602001604051908101604052809291908181526020016000905b828210156112ae57838290600052602060002001805461122190612d49565b80601f016020809104026020016040519081016040528092919081815260200182805461124d90612d49565b801561129a5780601f1061126f5761010080835404028352916020019161129a565b820191906000526020600020905b81548152906001019060200180831161127d57829003601f168201915b505050505081526020019060010190611202565b50505050815260200160048201805480602002602001604051908101604052809291908181526020016000905b828210156113875783829060005260206000200180546112fa90612d49565b80601f016020809104026020016040519081016040528092919081815260200182805461132690612d49565b80156113735780601f1061134857610100808354040283529160200191611373565b820191906000526020600020905b81548152906001019060200180831161135657829003601f168201915b5050505050815260200190600101906112db565b50505050815260200160058201805480602002602001604051908101604052809291908181526020016000905b828210156114605783829060005260206000200180546113d390612d49565b80601f01602080910402602001604051908101604052809291908181526020018280546113ff90612d49565b801561144c5780601f106114215761010080835404028352916020019161144c565b820191906000526020600020905b81548152906001019060200180831161142f57829003601f168201915b5050505050815260200190600101906113b4565b50505050815260200160068201805480602002602001604051908101604052809291908181526020016000905b828210156115395783829060005260206000200180546114ac90612d49565b80601f01602080910402602001604051908101604052809291908181526020018280546114d890612d49565b80156115255780601f106114fa57610100808354040283529160200191611525565b820191906000526020600020905b81548152906001019060200180831161150857829003601f168201915b50505050508152602001906001019061148d565b50505050815260200160078201805480602002602001604051908101604052809291908181526020016000905b8282101561161257838290600052602060002001805461158590612d49565b80601f01602080910402602001604051908101604052809291908181526020018280546115b190612d49565b80156115fe5780601f106115d3576101008083540402835291602001916115fe565b820191906000526020600020905b8154815290600101906020018083116115e157829003601f168201915b505050505081526020019060010190611566565b5050505081526020016008820160009054906101000a90046fffffffffffffffffffffffffffffffff166fffffffffffffffffffffffffffffffff166fffffffffffffffffffffffffffffffff16815250509050919050565b606560009054906101000a900473ffffffffffffffffffffffffffffffffffffffff1681565b606760009054906101000a900473ffffffffffffffffffffffffffffffffffffffff1681565b6116bf611ba1565b6116c881611deb565b50565b6116d3611ba1565b600073ffffffffffffffffffffffffffffffffffffffff168173ffffffffffffffffffffffffffffffffffffffff1603611742576040517f08c379a000000000000000000000000000000000000000000000000000000000815260040161173990613099565b60405180910390fd5b61174b81611d25565b50565b611756611ba1565b61175f81611ebc565b50565b6000609a60008373ffffffffffffffffffffffffffffffffffffffff1673ffffffffffffffffffffffffffffffffffffffff16815260200190815260200160002060080160009054906101000a90046fffffffffffffffffffffffffffffffff16905087609a60008473ffffffffffffffffffffffffffffffffffffffff1673ffffffffffffffffffffffffffffffffffffffff168152602001908152602001600020600201826fffffffffffffffffffffffffffffffff168154811061182c5761182b612d7a565b5b9060005260206000200190816118429190612f55565b5082609a60008473ffffffffffffffffffffffffffffffffffffffff1673ffffffffffffffffffffffffffffffffffffffff168152602001908152602001600020600301826fffffffffffffffffffffffffffffffff16815481106118aa576118a9612d7a565b5b9060005260206000200190816118c09190612f55565b5086609a60008473ffffffffffffffffffffffffffffffffffffffff1673ffffffffffffffffffffffffffffffffffffffff168152602001908152602001600020600401826fffffffffffffffffffffffffffffffff168154811061192857611927612d7a565b5b90600052602060002001908161193e9190612f55565b5085609a60008473ffffffffffffffffffffffffffffffffffffffff1673ffffffffffffffffffffffffffffffffffffffff168152602001908152602001600020600501826fffffffffffffffffffffffffffffffff16815481106119a6576119a5612d7a565b5b9060005260206000200190816119bc9190612f55565b5084609a60008473ffffffffffffffffffffffffffffffffffffffff1673ffffffffffffffffffffffffffffffffffffffff168152602001908152602001600020600601826fffffffffffffffffffffffffffffffff1681548110611a2457611a23612d7a565b5b906000526020600020019081611a3a9190612f55565b5083609a60008473ffffffffffffffffffffffffffffffffffffffff1673ffffffffffffffffffffffffffffffffffffffff168152602001908152602001600020600701826fffffffffffffffffffffffffffffffff1681548110611aa257611aa1612d7a565b5b906000526020600020019081611ab89190612f55565b50611ac282611f8d565b5050505050505050565b600081604051602001611adf9190613101565b6040516020818303038152906040529050606560009054906101000a900473ffffffffffffffffffffffffffffffffffffffff1673ffffffffffffffffffffffffffffffffffffffff1663fa31de0185611b3886612034565b846040518463ffffffff1660e01b8152600401611b5793929190613199565b6020604051808303816000875af1158015611b76573d6000803e3d6000fd5b505050506040513d601f19601f82011682018060405250810190611b9a9190613203565b5050505050565b611ba9612057565b73ffffffffffffffffffffffffffffffffffffffff16611bc7610c58565b73ffffffffffffffffffffffffffffffffffffffff1614611c1d576040517f08c379a0000000000000000000000000000000000000000000000000000000008152600401611c149061327c565b60405180910390fd5b565b600073ffffffffffffffffffffffffffffffffffffffff168173ffffffffffffffffffffffffffffffffffffffff161480611c5f5750611c5e8161205f565b5b611c9e576040517f08c379a0000000000000000000000000000000000000000000000000000000008152600401611c95906132e8565b60405180910390fd5b80606760006101000a81548173ffffffffffffffffffffffffffffffffffffffff021916908373ffffffffffffffffffffffffffffffffffffffff1602179055508073ffffffffffffffffffffffffffffffffffffffff167ffec811ed4e60aebdaf7a79cad8a97196bf56e35362f039705598226d30c9d24860405160405180910390a250565b6000603360009054906101000a900473ffffffffffffffffffffffffffffffffffffffff16905081603360006101000a81548173ffffffffffffffffffffffffffffffffffffffff021916908373ffffffffffffffffffffffffffffffffffffffff1602179055508173ffffffffffffffffffffffffffffffffffffffff168173ffffffffffffffffffffffffffffffffffffffff167f8be0079c531659141344cd1fd0a4f28419497f9722a3daafe3b4186f6b6457e060405160405180910390a35050565b80611df58161205f565b611e34576040517f08c379a0000000000000000000000000000000000000000000000000000000008152600401611e2b906132e8565b60405180910390fd5b81606660006101000a81548173ffffffffffffffffffffffffffffffffffffffff021916908373ffffffffffffffffffffffffffffffffffffffff1602179055508173ffffffffffffffffffffffffffffffffffffffff167fb87f5a0bface22cde699143559fb99f990ae54eea236995fc54178af91af859f60405160405180910390a25050565b80611ec68161205f565b611f05576040517f08c379a0000000000000000000000000000000000000000000000000000000008152600401611efc906132e8565b60405180910390fd5b81606560006101000a81548173ffffffffffffffffffffffffffffffffffffffff021916908373ffffffffffffffffffffffffffffffffffffffff1602179055508173ffffffffffffffffffffffffffffffffffffffff167f7a61e573722ff8b205c8962b59d37e7d30573f368965597a844a94872204ebd760405160405180910390a25050565b6001609a60008373ffffffffffffffffffffffffffffffffffffffff1673ffffffffffffffffffffffffffffffffffffffff16815260200190815260200160002060080160008282829054906101000a90046fffffffffffffffffffffffffffffffff16611ffb9190613337565b92506101000a8154816fffffffffffffffffffffffffffffffff02191690836fffffffffffffffffffffffffffffffff16021790555050565b60008173ffffffffffffffffffffffffffffffffffffffff1660001b9050919050565b600033905090565b6000808273ffffffffffffffffffffffffffffffffffffffff163b119050919050565b6040518060c001604052806060815260200160608152602001606081526020016060815260200160608152602001606081525090565b828054828255906000526020600020908101928215612100579160200282015b828111156120ff5782518290816120ef9190612f55565b50916020019190600101906120d8565b5b50905061210d919061216f565b5090565b604051806101200160405280606081526020016060815260200160608152602001606081526020016060815260200160608152602001606081526020016060815260200160006fffffffffffffffffffffffffffffffff1681525090565b5b8082111561218f57600081816121869190612193565b50600101612170565b5090565b50805461219f90612d49565b6000825580601f106121b157506121d0565b601f0160209004906000526020600020908101906121cf91906121d3565b5b50565b5b808211156121ec5760008160009055506001016121d4565b5090565b6000604051905090565b600080fd5b600080fd5b60006fffffffffffffffffffffffffffffffff82169050919050565b61222981612204565b811461223457600080fd5b50565b60008135905061224681612220565b92915050565b600073ffffffffffffffffffffffffffffffffffffffff82169050919050565b60006122778261224c565b9050919050565b6122878161226c565b811461229257600080fd5b50565b6000813590506122a48161227e565b92915050565b600080604083850312156122c1576122c06121fa565b5b60006122cf85828601612237565b92505060206122e085828601612295565b9150509250929050565b600081519050919050565b600082825260208201905092915050565b60005b83811015612324578082015181840152602081019050612309565b60008484015250505050565b6000601f19601f8301169050919050565b600061234c826122ea565b61235681856122f5565b9350612366818560208601612306565b61236f81612330565b840191505092915050565b600060c08301600083015184820360008601526123978282612341565b915050602083015184820360208601526123b18282612341565b915050604083015184820360408601526123cb8282612341565b915050606083015184820360608601526123e58282612341565b915050608083015184820360808601526123ff8282612341565b91505060a083015184820360a08601526124198282612341565b9150508091505092915050565b60006020820190508181036000830152612440818461237a565b905092915050565b60006020828403121561245e5761245d6121fa565b5b600061246c84828501612295565b91505092915050565b6000819050919050565b600061249a6124956124908461224c565b612475565b61224c565b9050919050565b60006124ac8261247f565b9050919050565b60006124be826124a1565b9050919050565b6124ce816124b3565b82525050565b60006020820190506124e960008301846124c5565b92915050565b600080600060608486031215612508576125076121fa565b5b600061251686828701612295565b935050602061252786828701612237565b925050604061253886828701612295565b9150509250925092565b61254b8161226c565b82525050565b60006020820190506125666000830184612542565b92915050565b600082825260208201905092915050565b6000612588826122ea565b612592818561256c565b93506125a2818560208601612306565b6125ab81612330565b840191505092915050565b6125bf81612204565b82525050565b600060608201905081810360008301526125df818661257d565b905081810360208301526125f3818561257d565b905061260260408301846125b6565b949350505050565b600080fd5b600080fd5b7f4e487b7100000000000000000000000000000000000000000000000000000000600052604160045260246000fd5b61264c82612330565b810181811067ffffffffffffffff8211171561266b5761266a612614565b5b80604052505050565b600061267e6121f0565b905061268a8282612643565b919050565b600067ffffffffffffffff8211156126aa576126a9612614565b5b6126b382612330565b9050602081019050919050565b82818337600083830152505050565b60006126e26126dd8461268f565b612674565b9050828152602081018484840111156126fe576126fd61260f565b5b6127098482856126c0565b509392505050565b600082601f8301126127265761272561260a565b5b81356127368482602086016126cf565b91505092915050565b600067ffffffffffffffff82111561275a57612759612614565b5b602082029050602081019050919050565b600080fd5b600061278361277e8461273f565b612674565b905080838252602082019050602084028301858111156127a6576127a561276b565b5b835b818110156127ed57803567ffffffffffffffff8111156127cb576127ca61260a565b5b8086016127d88982612711565b855260208501945050506020810190506127a8565b5050509392505050565b600082601f83011261280c5761280b61260a565b5b813561281c848260208601612770565b91505092915050565b6000806000806080858703121561283f5761283e6121fa565b5b600085013567ffffffffffffffff81111561285d5761285c6121ff565b5b61286987828801612711565b945050602085013567ffffffffffffffff81111561288a576128896121ff565b5b61289687828801612711565b93505060406128a787828801612295565b925050606085013567ffffffffffffffff8111156128c8576128c76121ff565b5b6128d4878288016127f7565b91505092959194509250565b600081519050919050565b600082825260208201905092915050565b6000819050602082019050919050565b60006129188383612341565b905092915050565b6000602082019050919050565b6000612938826128e0565b61294281856128eb565b935083602082028501612954856128fc565b8060005b858110156129905784840389528151612971858261290c565b945061297c83612920565b925060208a01995050600181019050612958565b50829750879550505050505092915050565b6129ab81612204565b82525050565b60006101208301600083015184820360008601526129cf8282612341565b915050602083015184820360208601526129e98282612341565b91505060408301518482036040860152612a03828261292d565b91505060608301518482036060860152612a1d828261292d565b91505060808301518482036080860152612a37828261292d565b91505060a083015184820360a0860152612a51828261292d565b91505060c083015184820360c0860152612a6b828261292d565b91505060e083015184820360e0860152612a85828261292d565b915050610100830151612a9c6101008601826129a2565b508091505092915050565b60006020820190508181036000830152612ac181846129b1565b905092915050565b6000612ad4826124a1565b9050919050565b612ae481612ac9565b82525050565b6000602082019050612aff6000830184612adb565b92915050565b6000612b10826124a1565b9050919050565b612b2081612b05565b82525050565b6000602082019050612b3b6000830184612b17565b92915050565b600080600080600080600060e0888a031215612b6057612b5f6121fa565b5b600088013567ffffffffffffffff811115612b7e57612b7d6121ff565b5b612b8a8a828b01612711565b975050602088013567ffffffffffffffff811115612bab57612baa6121ff565b5b612bb78a828b01612711565b965050604088013567ffffffffffffffff811115612bd857612bd76121ff565b5b612be48a828b01612711565b955050606088013567ffffffffffffffff811115612c0557612c046121ff565b5b612c118a828b01612711565b945050608088013567ffffffffffffffff811115612c3257612c316121ff565b5b612c3e8a828b01612711565b93505060a088013567ffffffffffffffff811115612c5f57612c5e6121ff565b5b612c6b8a828b01612711565b92505060c0612c7c8a828b01612295565b91505092959891949750929550565b600063ffffffff82169050919050565b612ca481612c8b565b8114612caf57600080fd5b50565b600081359050612cc181612c9b565b92915050565b600080600060608486031215612ce057612cdf6121fa565b5b6000612cee86828701612cb2565b9350506020612cff86828701612295565b9250506040612d1086828701612295565b9150509250925092565b7f4e487b7100000000000000000000000000000000000000000000000000000000600052602260045260246000fd5b60006002820490506001821680612d6157607f821691505b602082108103612d7457612d73612d1a565b5b50919050565b7f4e487b7100000000000000000000000000000000000000000000000000000000600052603260045260246000fd5b60008190508160005260206000209050919050565b60006020601f8301049050919050565b600082821b905092915050565b600060088302612e0b7fffffffffffffffffffffffffffffffffffffffffffffffffffffffffffffffff82612dce565b612e158683612dce565b95508019841693508086168417925050509392505050565b6000819050919050565b6000612e52612e4d612e4884612e2d565b612475565b612e2d565b9050919050565b6000819050919050565b612e6c83612e37565b612e80612e7882612e59565b848454612ddb565b825550505050565b600090565b612e95612e88565b612ea0818484612e63565b505050565b5b81811015612ec457612eb9600082612e8d565b600181019050612ea6565b5050565b601f821115612f0957612eda81612da9565b612ee384612dbe565b81016020851015612ef2578190505b612f06612efe85612dbe565b830182612ea5565b50505b505050565b600082821c905092915050565b6000612f2c60001984600802612f0e565b1980831691505092915050565b6000612f458383612f1b565b9150826002028217905092915050565b612f5e826122ea565b67ffffffffffffffff811115612f7757612f76612614565b5b612f818254612d49565b612f8c828285612ec8565b600060209050601f831160018114612fbf5760008415612fad578287015190505b612fb78582612f39565b86555061301f565b601f198416612fcd86612da9565b60005b82811015612ff557848901518255600182019150602085019450602081019050612fd0565b86831015613012578489015161300e601f891682612f1b565b8355505b6001600288020188555050505b505050505050565b7f4f776e61626c653a206e6577206f776e657220697320746865207a65726f206160008201527f6464726573730000000000000000000000000000000000000000000000000000602082015250565b600061308360268361256c565b915061308e82613027565b604082019050919050565b600060208201905081810360008301526130b281613076565b9050919050565b60008160601b9050919050565b60006130d1826130b9565b9050919050565b60006130e3826130c6565b9050919050565b6130fb6130f68261226c565b6130d8565b82525050565b600061310d82846130ea565b60148201915081905092915050565b61312581612c8b565b82525050565b6000819050919050565b61313e8161312b565b82525050565b600081519050919050565b600082825260208201905092915050565b600061316b82613144565b613175818561314f565b9350613185818560208601612306565b61318e81612330565b840191505092915050565b60006060820190506131ae600083018661311c565b6131bb6020830185613135565b81810360408301526131cd8184613160565b9050949350505050565b6131e08161312b565b81146131eb57600080fd5b50565b6000815190506131fd816131d7565b92915050565b600060208284031215613219576132186121fa565b5b6000613227848285016131ee565b91505092915050565b7f4f776e61626c653a2063616c6c6572206973206e6f7420746865206f776e6572600082015250565b600061326660208361256c565b915061327182613230565b602082019050919050565b6000602082019050818103600083015261329581613259565b9050919050565b7f21636f6e74726163740000000000000000000000000000000000000000000000600082015250565b60006132d260098361256c565b91506132dd8261329c565b602082019050919050565b60006020820190508181036000830152613301816132c5565b9050919050565b7f4e487b7100000000000000000000000000000000000000000000000000000000600052601160045260246000fd5b600061334282612204565b915061334d83612204565b925082820190506fffffffffffffffffffffffffffffffff81111561337557613374613308565b5b9291505056fea2646970667358221220bd5f8d72ceeb2779a64c80836411c8d86e4caf0b8c5d980c43374148232138e664736f6c63430008120033",
  "linkReferences": {},
  "deployedLinkReferences": {}
}