{
  "_format": "hh-sol-artifact-1",
  "contractName": "NetworkMapper",
  "sourceName": "contracts/NetworkMapper.sol",
  "abi": [
    {
      "inputs": [
        {
          "internalType": "address[]",
          "name": "_contractAddresses",
          "type": "address[]"
        }
      ],
      "stateMutability": "nonpayable",
      "type": "constructor"
    },
    {
      "anonymous": false,
      "inputs": [
        {
          "indexed": true,
          "internalType": "address",
          "name": "previousOwner",
          "type": "address"
        },
        {
          "indexed": true,
          "internalType": "address",
          "name": "newOwner",
          "type": "address"
        }
      ],
      "name": "OwnershipTransferred",
      "type": "event"
    },
    {
      "inputs": [
        {
          "internalType": "address",
          "name": "",
          "type": "address"
        }
      ],
      "name": "NGOToNetworkMapping",
      "outputs": [
        {
          "internalType": "string",
          "name": "",
          "type": "string"
        }
      ],
      "stateMutability": "view",
      "type": "function"
    },
    {
      "inputs": [
        {
          "internalType": "address",
          "name": "_activityHomeNetwork",
          "type": "address"
        },
        {
          "internalType": "uint128",
          "name": "_eventID",
          "type": "uint128"
        },
        {
          "internalType": "address",
          "name": "_activitySourceNGO",
          "type": "address"
        },
        {
          "internalType": "string",
          "name": "_lastDateForActivity",
          "type": "string"
        },
        {
          "internalType": "address",
          "name": "_userAddress",
          "type": "address"
        }
      ],
      "name": "addActivityForUser",
      "outputs": [],
      "stateMutability": "nonpayable",
      "type": "function"
    },
    {
      "inputs": [
        {
          "internalType": "string",
          "name": "_networkName",
          "type": "string"
        },
        {
          "internalType": "address",
          "name": "_contractAddress",
          "type": "address"
        }
      ],
      "name": "changeAddressOfContract",
      "outputs": [],
      "stateMutability": "nonpayable",
      "type": "function"
    },
    {
      "inputs": [
        {
          "internalType": "string",
          "name": "",
          "type": "string"
        }
      ],
      "name": "contractAddresses",
      "outputs": [
        {
          "internalType": "address",
          "name": "",
          "type": "address"
        }
      ],
      "stateMutability": "view",
      "type": "function"
    },
    {
      "inputs": [],
      "name": "getNewNetwork",
      "outputs": [
        {
          "internalType": "enum NetworkMapper.networks",
          "name": "",
          "type": "uint8"
        }
      ],
      "stateMutability": "nonpayable",
      "type": "function"
    },
    {
      "inputs": [],
      "name": "owner",
      "outputs": [
        {
          "internalType": "address",
          "name": "",
          "type": "address"
        }
      ],
      "stateMutability": "view",
      "type": "function"
    },
    {
      "inputs": [],
      "name": "renounceOwnership",
      "outputs": [],
      "stateMutability": "nonpayable",
      "type": "function"
    },
    {
      "inputs": [
        {
          "internalType": "string",
          "name": "_networkName",
          "type": "string"
        },
        {
          "internalType": "address",
          "name": "_NGOAddress",
          "type": "address"
        }
      ],
      "name": "setNGONetworkMapping",
      "outputs": [],
      "stateMutability": "nonpayable",
      "type": "function"
    },
    {
      "inputs": [
        {
          "internalType": "string",
          "name": "_name",
          "type": "string"
        },
        {
          "internalType": "uint8",
          "name": "_age",
          "type": "uint8"
        },
        {
          "internalType": "uint256",
          "name": "_balance",
          "type": "uint256"
        },
        {
          "internalType": "string",
          "name": "_location",
          "type": "string"
        },
        {
          "internalType": "address",
          "name": "_userAddress",
          "type": "address"
        }
      ],
      "name": "setUserMapping",
      "outputs": [],
      "stateMutability": "nonpayable",
      "type": "function"
    },
    {
      "inputs": [
        {
          "internalType": "address",
          "name": "newOwner",
          "type": "address"
        }
      ],
      "name": "transferOwnership",
      "outputs": [],
      "stateMutability": "nonpayable",
      "type": "function"
    },
    {
      "inputs": [
        {
          "internalType": "address",
          "name": "",
          "type": "address"
        }
      ],
      "name": "userMapping",
      "outputs": [
        {
          "internalType": "string",
          "name": "name",
          "type": "string"
        },
        {
          "internalType": "uint256",
          "name": "balance",
          "type": "uint256"
        },
        {
          "internalType": "string",
          "name": "location",
          "type": "string"
        },
        {
          "internalType": "uint8",
          "name": "age",
          "type": "uint8"
        }
      ],
      "stateMutability": "view",
      "type": "function"
    }
  ],
  "bytecode": "0x60806040523480156200001157600080fd5b5060405162001d2b38038062001d2b833981810160405281019062000037919062000532565b620000576200004b6200027860201b60201c565b6200028060201b60201c565b6000600360006101000a81548160ff0219169083600381111562000080576200007f62000583565b5b0217905550806000815181106200009c576200009b620005b2565b5b60200260200101516001604051620000b4906200063c565b908152602001604051809103902060006101000a81548173ffffffffffffffffffffffffffffffffffffffff021916908373ffffffffffffffffffffffffffffffffffffffff16021790555080600181518110620001175762000116620005b2565b5b602002602001015160016040516200012f90620006a3565b908152602001604051809103902060006101000a81548173ffffffffffffffffffffffffffffffffffffffff021916908373ffffffffffffffffffffffffffffffffffffffff16021790555080600281518110620001925762000191620005b2565b5b60200260200101516001604051620001aa906200070a565b908152602001604051809103902060006101000a81548173ffffffffffffffffffffffffffffffffffffffff021916908373ffffffffffffffffffffffffffffffffffffffff160217905550806003815181106200020d576200020c620005b2565b5b60200260200101516001604051620002259062000771565b908152602001604051809103902060006101000a81548173ffffffffffffffffffffffffffffffffffffffff021916908373ffffffffffffffffffffffffffffffffffffffff1602179055505062000788565b600033905090565b60008060009054906101000a900473ffffffffffffffffffffffffffffffffffffffff169050816000806101000a81548173ffffffffffffffffffffffffffffffffffffffff021916908373ffffffffffffffffffffffffffffffffffffffff1602179055508173ffffffffffffffffffffffffffffffffffffffff168173ffffffffffffffffffffffffffffffffffffffff167f8be0079c531659141344cd1fd0a4f28419497f9722a3daafe3b4186f6b6457e060405160405180910390a35050565b6000604051905090565b600080fd5b600080fd5b600080fd5b6000601f19601f8301169050919050565b7f4e487b7100000000000000000000000000000000000000000000000000000000600052604160045260246000fd5b620003a8826200035d565b810181811067ffffffffffffffff82111715620003ca57620003c96200036e565b5b80604052505050565b6000620003df62000344565b9050620003ed82826200039d565b919050565b600067ffffffffffffffff82111562000410576200040f6200036e565b5b602082029050602081019050919050565b600080fd5b600073ffffffffffffffffffffffffffffffffffffffff82169050919050565b6000620004538262000426565b9050919050565b620004658162000446565b81146200047157600080fd5b50565b60008151905062000485816200045a565b92915050565b6000620004a26200049c84620003f2565b620003d3565b90508083825260208201905060208402830185811115620004c857620004c762000421565b5b835b81811015620004f55780620004e0888262000474565b845260208401935050602081019050620004ca565b5050509392505050565b600082601f83011262000517576200051662000358565b5b8151620005298482602086016200048b565b91505092915050565b6000602082840312156200054b576200054a6200034e565b5b600082015167ffffffffffffffff8111156200056c576200056b62000353565b5b6200057a84828501620004ff565b91505092915050565b7f4e487b7100000000000000000000000000000000000000000000000000000000600052602160045260246000fd5b7f4e487b7100000000000000000000000000000000000000000000000000000000600052603260045260246000fd5b600081905092915050565b7f66696c65636f696e487970657273706163650000000000000000000000000000600082015250565b600062000624601283620005e1565b91506200063182620005ec565b601282019050919050565b6000620006498262000615565b9150819050919050565b7f676e6f7369730000000000000000000000000000000000000000000000000000600082015250565b60006200068b600683620005e1565b9150620006988262000653565b600682019050919050565b6000620006b0826200067c565b9150819050919050565b7f7363726f6c6c0000000000000000000000000000000000000000000000000000600082015250565b6000620006f2600683620005e1565b9150620006ff82620006ba565b600682019050919050565b60006200071782620006e3565b9150819050919050565b7f6f7074696d69736d000000000000000000000000000000000000000000000000600082015250565b600062000759600883620005e1565b9150620007668262000721565b600882019050919050565b60006200077e826200074a565b9150819050919050565b61159380620007986000396000f3fe608060405234801561001057600080fd5b50600436106100a95760003560e01c80637fc879da116100715780637fc879da146101535780638da5cb5b14610171578063b670980b1461018f578063c5a0cc30146101ab578063ee67cc2a146101c7578063f2fde38b146101f7576100a9565b8063118b9535146100ae5780631abf3826146100e15780633b95fe88146100fd578063715018a614610119578063780afa1614610123575b600080fd5b6100c860048036038101906100c39190610ae4565b610213565b6040516100d89493929190610bd6565b60405180910390f35b6100fb60048036038101906100f69190610db6565b610360565b005b61011760048036038101906101129190610e69565b61042c565b005b610121610485565b005b61013d60048036038101906101389190610ae4565b610499565b60405161014a9190610ec5565b60405180910390f35b61015b610539565b6040516101689190610f5e565b60405180910390f35b610179610609565b6040516101869190610f88565b60405180910390f35b6101a960048036038101906101a49190610feb565b610632565b005b6101c560048036038101906101c09190610e69565b6107f3565b005b6101e160048036038101906101dc9190611082565b61085c565b6040516101ee9190610f88565b60405180910390f35b610211600480360381019061020c9190610ae4565b6108a5565b005b6005602052806000526040600020600091509050806000018054610236906110fa565b80601f0160208091040260200160405190810160405280929190818152602001828054610262906110fa565b80156102af5780601f10610284576101008083540402835291602001916102af565b820191906000526020600020905b81548152906001019060200180831161029257829003601f168201915b5050505050908060010154908060020180546102ca906110fa565b80601f01602080910402602001604051908101604052809291908181526020018280546102f6906110fa565b80156103435780601f1061031857610100808354040283529160200191610343565b820191906000526020600020905b81548152906001019060200180831161032657829003601f168201915b5050505050908060030160009054906101000a900460ff16905084565b610368610928565b60405180608001604052808681526020018481526020018381526020018560ff16815250600560008373ffffffffffffffffffffffffffffffffffffffff1673ffffffffffffffffffffffffffffffffffffffff16815260200190815260200160002060008201518160000190816103e091906112d7565b5060208201518160010155604082015181600201908161040091906112d7565b5060608201518160030160006101000a81548160ff021916908360ff1602179055509050505050505050565b610434610928565b81600260008373ffffffffffffffffffffffffffffffffffffffff1673ffffffffffffffffffffffffffffffffffffffff168152602001908152602001600020908161048091906112d7565b505050565b61048d610928565b61049760006109a6565b565b600260205280600052604060002060009150905080546104b8906110fa565b80601f01602080910402602001604051908101604052809291908181526020018280546104e4906110fa565b80156105315780601f1061050657610100808354040283529160200191610531565b820191906000526020600020905b81548152906001019060200180831161051457829003601f168201915b505050505081565b600080600360009054906101000a900460ff169050600381600381111561056357610562610ee7565b5b03610598576000600360006101000a81548160ff0219169083600381111561058e5761058d610ee7565b5b0217905550610602565b6001600360009054906101000a900460ff1660038111156105bc576105bb610ee7565b5b6105c691906113d8565b60038111156105d8576105d7610ee7565b5b600360006101000a81548160ff021916908360038111156105fc576105fb610ee7565b5b02179055505b8091505090565b60008060009054906101000a900473ffffffffffffffffffffffffffffffffffffffff16905090565b61063a610928565b600060405180608001604052808773ffffffffffffffffffffffffffffffffffffffff168152602001866fffffffffffffffffffffffffffffffff1681526020018573ffffffffffffffffffffffffffffffffffffffff168152602001848152509050600460008373ffffffffffffffffffffffffffffffffffffffff1673ffffffffffffffffffffffffffffffffffffffff16815260200190815260200160002081908060018154018082558091505060019003906000526020600020906004020160009091909190915060008201518160000160006101000a81548173ffffffffffffffffffffffffffffffffffffffff021916908373ffffffffffffffffffffffffffffffffffffffff16021790555060208201518160010160006101000a8154816fffffffffffffffffffffffffffffffff02191690836fffffffffffffffffffffffffffffffff16021790555060408201518160020160006101000a81548173ffffffffffffffffffffffffffffffffffffffff021916908373ffffffffffffffffffffffffffffffffffffffff16021790555060608201518160030190816107e891906112d7565b505050505050505050565b6107fb610928565b8060018360405161080c9190611448565b908152602001604051809103902060006101000a81548173ffffffffffffffffffffffffffffffffffffffff021916908373ffffffffffffffffffffffffffffffffffffffff1602179055505050565b6001818051602081018201805184825260208301602085012081835280955050505050506000915054906101000a900473ffffffffffffffffffffffffffffffffffffffff1681565b6108ad610928565b600073ffffffffffffffffffffffffffffffffffffffff168173ffffffffffffffffffffffffffffffffffffffff160361091c576040517f08c379a0000000000000000000000000000000000000000000000000000000008152600401610913906114d1565b60405180910390fd5b610925816109a6565b50565b610930610a6a565b73ffffffffffffffffffffffffffffffffffffffff1661094e610609565b73ffffffffffffffffffffffffffffffffffffffff16146109a4576040517f08c379a000000000000000000000000000000000000000000000000000000000815260040161099b9061153d565b60405180910390fd5b565b60008060009054906101000a900473ffffffffffffffffffffffffffffffffffffffff169050816000806101000a81548173ffffffffffffffffffffffffffffffffffffffff021916908373ffffffffffffffffffffffffffffffffffffffff1602179055508173ffffffffffffffffffffffffffffffffffffffff168173ffffffffffffffffffffffffffffffffffffffff167f8be0079c531659141344cd1fd0a4f28419497f9722a3daafe3b4186f6b6457e060405160405180910390a35050565b600033905090565b6000604051905090565b600080fd5b600080fd5b600073ffffffffffffffffffffffffffffffffffffffff82169050919050565b6000610ab182610a86565b9050919050565b610ac181610aa6565b8114610acc57600080fd5b50565b600081359050610ade81610ab8565b92915050565b600060208284031215610afa57610af9610a7c565b5b6000610b0884828501610acf565b91505092915050565b600081519050919050565b600082825260208201905092915050565b60005b83811015610b4b578082015181840152602081019050610b30565b60008484015250505050565b6000601f19601f8301169050919050565b6000610b7382610b11565b610b7d8185610b1c565b9350610b8d818560208601610b2d565b610b9681610b57565b840191505092915050565b6000819050919050565b610bb481610ba1565b82525050565b600060ff82169050919050565b610bd081610bba565b82525050565b60006080820190508181036000830152610bf08187610b68565b9050610bff6020830186610bab565b8181036040830152610c118185610b68565b9050610c206060830184610bc7565b95945050505050565b600080fd5b600080fd5b7f4e487b7100000000000000000000000000000000000000000000000000000000600052604160045260246000fd5b610c6b82610b57565b810181811067ffffffffffffffff82111715610c8a57610c89610c33565b5b80604052505050565b6000610c9d610a72565b9050610ca98282610c62565b919050565b600067ffffffffffffffff821115610cc957610cc8610c33565b5b610cd282610b57565b9050602081019050919050565b82818337600083830152505050565b6000610d01610cfc84610cae565b610c93565b905082815260208101848484011115610d1d57610d1c610c2e565b5b610d28848285610cdf565b509392505050565b600082601f830112610d4557610d44610c29565b5b8135610d55848260208601610cee565b91505092915050565b610d6781610bba565b8114610d7257600080fd5b50565b600081359050610d8481610d5e565b92915050565b610d9381610ba1565b8114610d9e57600080fd5b50565b600081359050610db081610d8a565b92915050565b600080600080600060a08688031215610dd257610dd1610a7c565b5b600086013567ffffffffffffffff811115610df057610def610a81565b5b610dfc88828901610d30565b9550506020610e0d88828901610d75565b9450506040610e1e88828901610da1565b935050606086013567ffffffffffffffff811115610e3f57610e3e610a81565b5b610e4b88828901610d30565b9250506080610e5c88828901610acf565b9150509295509295909350565b60008060408385031215610e8057610e7f610a7c565b5b600083013567ffffffffffffffff811115610e9e57610e9d610a81565b5b610eaa85828601610d30565b9250506020610ebb85828601610acf565b9150509250929050565b60006020820190508181036000830152610edf8184610b68565b905092915050565b7f4e487b7100000000000000000000000000000000000000000000000000000000600052602160045260246000fd5b60048110610f2757610f26610ee7565b5b50565b6000819050610f3882610f16565b919050565b6000610f4882610f2a565b9050919050565b610f5881610f3d565b82525050565b6000602082019050610f736000830184610f4f565b92915050565b610f8281610aa6565b82525050565b6000602082019050610f9d6000830184610f79565b92915050565b60006fffffffffffffffffffffffffffffffff82169050919050565b610fc881610fa3565b8114610fd357600080fd5b50565b600081359050610fe581610fbf565b92915050565b600080600080600060a0868803121561100757611006610a7c565b5b600061101588828901610acf565b955050602061102688828901610fd6565b945050604061103788828901610acf565b935050606086013567ffffffffffffffff81111561105857611057610a81565b5b61106488828901610d30565b925050608061107588828901610acf565b9150509295509295909350565b60006020828403121561109857611097610a7c565b5b600082013567ffffffffffffffff8111156110b6576110b5610a81565b5b6110c284828501610d30565b91505092915050565b7f4e487b7100000000000000000000000000000000000000000000000000000000600052602260045260246000fd5b6000600282049050600182168061111257607f821691505b602082108103611125576111246110cb565b5b50919050565b60008190508160005260206000209050919050565b60006020601f8301049050919050565b600082821b905092915050565b60006008830261118d7fffffffffffffffffffffffffffffffffffffffffffffffffffffffffffffffff82611150565b6111978683611150565b95508019841693508086168417925050509392505050565b6000819050919050565b60006111d46111cf6111ca84610ba1565b6111af565b610ba1565b9050919050565b6000819050919050565b6111ee836111b9565b6112026111fa826111db565b84845461115d565b825550505050565b600090565b61121761120a565b6112228184846111e5565b505050565b5b818110156112465761123b60008261120f565b600181019050611228565b5050565b601f82111561128b5761125c8161112b565b61126584611140565b81016020851015611274578190505b61128861128085611140565b830182611227565b50505b505050565b600082821c905092915050565b60006112ae60001984600802611290565b1980831691505092915050565b60006112c7838361129d565b9150826002028217905092915050565b6112e082610b11565b67ffffffffffffffff8111156112f9576112f8610c33565b5b61130382546110fa565b61130e82828561124a565b600060209050601f831160018114611341576000841561132f578287015190505b61133985826112bb565b8655506113a1565b601f19841661134f8661112b565b60005b8281101561137757848901518255600182019150602085019450602081019050611352565b868310156113945784890151611390601f89168261129d565b8355505b6001600288020188555050505b505050505050565b7f4e487b7100000000000000000000000000000000000000000000000000000000600052601160045260246000fd5b60006113e382610ba1565b91506113ee83610ba1565b9250828201905080821115611406576114056113a9565b5b92915050565b600081905092915050565b600061142282610b11565b61142c818561140c565b935061143c818560208601610b2d565b80840191505092915050565b60006114548284611417565b915081905092915050565b7f4f776e61626c653a206e6577206f776e657220697320746865207a65726f206160008201527f6464726573730000000000000000000000000000000000000000000000000000602082015250565b60006114bb602683610b1c565b91506114c68261145f565b604082019050919050565b600060208201905081810360008301526114ea816114ae565b9050919050565b7f4f776e61626c653a2063616c6c6572206973206e6f7420746865206f776e6572600082015250565b6000611527602083610b1c565b9150611532826114f1565b602082019050919050565b600060208201905081810360008301526115568161151a565b905091905056fea26469706673582212207f58c16e103c6bc2ce467a44479593773e52c77bdbfe994f10b11e7ed89f127864736f6c63430008120033",
  "linkReferences": {},
  "deployedLinkReferences": {}
}